:020000040000FA
:1000000002006000000080FB120090B900030200B3
:100010004AE4900101780579018002F0A3D8FCD967
:10002000FA900105AA82AB83900093781D79038032
:1000300015E493A3AC82AD838A828B83F0A3AA825A
:10004000AB838C828D83D8E9D9E77582A775830A43
:1000500074001200727582037583007400120072BE
:1000600075D0007581BF751001751101759F000273
:100070000008C09FF59FE473D09F22D083D082C038
:100080009FE493C0E0740193C0E0740293F59F2253
:10009000790122202020202020434332353330456F
:1000A0004D002D2D3E44485431315F54455354008A
:1000B00043757272656E742068756D2026207465B4
:1000C0006D703A00000000000000004F00000007C3
:1000D000000700147F147F14242A7F2A1223130898
:1000E000646236495522500005070000001C224179
:1000F000000041221C0014083E081408083E0808AD
:100100000050300000080808080800606000002067
:10011000100804023E5149453E00427F40004261C2
:100120005149462141454B311814127F102745454E
:1001300045393C4A49493001710905033649494965
:1001400036064949291E00363600000056360000A2
:10015000081422410014141414140041221408023B
:1001600001510906324979413E7E1111117E7F49C4
:100170004949363E414141227F4141221C7F494944
:1001800049417F090909013E4149497A7F08080828
:100190007F00417F41002040413F017F0814224100
:1001A0007F404040407F020C027F7F0408107F3E6A
:1001B0004141413E7F090909063E4151215E7F09C7
:1001C000192946464949493101017F01013F404013
:1001D000403F1F2040201F3F4038403F6314081419
:1001E0006307087008076151494543007F4141009A
:1001F00002040810200041417F0004020102044073
:1002000040404040010204000020545454787F488C
:100210004848303844444444304848487F3854546F
:10022000545800087E0902485454543C7F0808087A
:100230007000007A00002040403D007F20284400EC
:1002400000417F40007C0438047C7C08040478383A
:10025000444444387C14141408081414147C7C0896
:10026000040408485454542404043F44243C4040AB
:10027000403C1C2040201C3C4030403C442810287E
:100280004404483008044464544C44083641410056
:10029000000077000000414136080402020201001C
:1002A000000000010000000E000000FFFFFFFF1231
:1002B000007B2A0B0012007B420B0012007B910B8B
:1002C0000012007B3F090012007B57090012007BDF
:1002D000C7090012007BE7040012007B3005001202
:1002E000007BE7050012007BF2050012007B12067E
:1002F0000012007BC2060012007BEC060012007B9D
:1003000016070012007B6C070012007B9507001295
:10031000007BEA070012007B0A090012007BA30B96
:100320000012007BCB0B00E026F608A3E036F608AF
:10033000A3E036F608A3E036F622E0F608A3E0F6DE
:1003400008A3E0F608A3E0F622E0FAA3E0FBA3E0AE
:10035000FCA3E0FD22EAF0A3EBF0A3ECF0A3EDF0A8
:1003600022C3E498F8E499F91203A28026C3E49A20
:10037000FAE49BFBE920E7E91203A2E498F8E49988
:10038000F922C3E498F8E499F91203A2E498F8E496
:1003900099F9C3E49AFAE49BFB22EB20E7CFE9202A
:1003A000E7E0B90010BB0008E88AF084F8AAF02260
:1003B000E4FBC8FA22EB70227B10C833C8C933C9EA
:1003C000335007C39AC3DBF280069A50012ADBEA56
:1003D000C833F4C8C933F4C9FA2275F008E4C83345
:1003E000C8C933C933C99AC99B5004C92AC93BD566
:1003F000F0ECFBC833F4C8E4C9FA22251010AF08AA
:10040000F510400215118008F51040021511D2AF09
:1004100022C0D0251010AF08F51050020511800839
:10042000F51050020511D2AFD0D0222510F582E48C
:100430003511F583222510C582C0E0E51134FFC5D2
:1004400083C0E0E510C3958224F810AF08858311BE
:100450008582108008858311858210D2AFCEF0A3EB
:10046000E520F0A37808E608F0A3DEFAEFF0A3E5B4
:100470008124FAF8E608F0A3E608F0A3E608F0A362
:100480000808E608F0A3E608F0A315811581D0E07E
:10049000FED0E0F8158115811581E8C0E0EEC0E0DE
:1004A00022851183851082E0A3FEE0A3F520780861
:1004B000E0A3F608DFFAE0A3FFE0A3C0E0E0A3C0FA
:1004C000E0E0A3C0E0E0A3C0E0E0A3C0E010AF081C
:1004D0008582108583118008858210858311D2AFB3
:1004E000D083D08202007874F4120435E9FF8A08C0
:1004F0008F0985080AE50AC4540FF50B740F550AD5
:10050000FE74B02509F91202F17A0F7B001203156F
:100510007410250BF91202F17A0F7B00120315EE0D
:10052000F91202F17A0F7B001203157F040204A175
:1005300074F3120435890B8A0A8B0CE50CC39420E2
:10054000C3945E5071850C08750900E50824E0F538
:1005500008E50934FFF509AA0AA90B1202D37E00A7
:100560007F008037A808A909E875F005A4C8AAF09B
:1005700075F000A42AFA75F005E509A42AF9743685
:1005800028F8740139F9E82EF582E93FF583E0F99E
:100590001202F7EE2401FEEF3400FFC3EE9405EFE4
:1005A0009400A2D265D03340BB79001202F77406E2
:1005B000250AF50A802CE50C7028AA0AA90B12025C
:1005C000D37E007F00800D79001202F7EE2401FE39
:1005D000EF3400FFC3EE9405EF9400A2D265D03350
:1005E00040E57F050204A153F4FBD29243FE0402CE
:1005F000007843F10243F42043F44043F480780F41
:10060000790075FB8075F800742048F5FC89FA02C2
:100610000078C082C0831202DF1202E579E2120282
:10062000F17A987B3A120315792C1202F17A0F7B3A
:1006300000120315792E1202F17A0F7B00120315B6
:10064000792F1202F17A967B001203157923120298
:10065000F17A0F7B0012031579811202F17A0F7B78
:100660000012031579281202F17A0F7B001203158C
:1006700079A21202F17A0F7B0012031579A01202FF
:10068000F17A0F7B0012031579C81202F17A0F7B01
:100690000012031579401202F17A0F7B0012031544
:1006A00079AF1202F17A0F7B0012031579A41202BE
:1006B000F17A0F7B001203151202FDD083D0820263
:1006C0000078E5FEF8E5F4FA43FE8053F47FC29229
:1006D000C29753F8F989F9A2F950FCA2F950FC002D
:1006E000000000D29288FE8AF4020078E5FEF8E568
:1006F000F4FA43FE8053F47FC292D29753F8F989FB
:10070000F9A2F950FCA2F950FC00000000D2928836
:10071000FE8AF402007874F61204357E007F0080B1
:100720002979001202F7E5082401F508E5093400EB
:10073000F509C3E5089480E5099400A2D265D03399
:1007400040DFEE2401FEEF3400FFC3EE9408EF9487
:1007500000A2D265D033500F7A00EEF91202D375A1
:10076000080075090080CB7F020204A174F712040F
:1007700035E9FF8A08EBFE75F006E508A42401FAC6
:1007800074FF2FF9E508C394165005EEFB1202D949
:100790007F010204A174F51204358909EAFEEBFF1A
:1007A000EEFAEFFB120321EAF50A75080080188EB5
:1007B000828F83E0FBAA08A9091203038E828F832C
:1007C000A3AE82AF830508E508C3950A40E1850A18
:1007D00008800B7B00AA08A9091203030508E50895
:1007E000C3941540EE7F030204A174F01204357423
:1007F000EA1203FB851082851183EAF0A3EBF0EC8B
:10080000FEEDFF900311120349740212042B120330
:1008100055C3EE9400EF9400A2D265D033501990E6
:100820000315120349740212042B120355C3E49EEC
:10083000F8E49FF9E8FEE9FF741512042B7400F048
:10084000900319780812033AEEF8EFF97A0A7B0060
:1008500012039AEA2430C0E085080C85090D74065D
:1008600012042BE582250CF582E583350DF583D046
:10087000E0F090031D7808120327EEF8EFF97A0AEA
:100880007B0012039A880C890DAE0CAF0DC3EE9459
:1008900001EF9400A2D265D03350AD740212042B44
:1008A000780C12033AE50C450D450E450F60228584
:1008B000080C85090D740612042BE582250CF582BF
:1008C000E583350DF583742DF090031D7808120330
:1008D00027740612042BE5822508F582E583350985
:1008E000F583A3AC82AD83851082851183E0FAA3E2
:1008F000E0FB12031B851082851183E0FAA3E0FB65
:1009000074161204117F080204A180200000000068
:1009100000000000000000000000000000000000D7
:10092000000000000000000000000000EAF8EBF901
:10093000E824FFFAE934FFFBE84970D00200788030
:1009400003000000EAF8EBF9E824FFFAE934FFFBC2
:10095000E84970ED02007874F71204357E008011CA
:10096000900102E0C333900102F0900102E048F0F0
:100970000EEEC39408504B9001037402F0A287401E
:100980000F900103E0F8740128900103F0E870ED86
:100990007A137B001202C1A287500478018002788A
:1009A000009001037402F0A287500F900103E0F958
:1009B000740129900103F0E970ED900103E06401F6
:1009C000709E7F010204A174F7120435EAFEEBFF6A
:1009D00043FD800000C28700007A207B4E1202C1D6
:1009E000D28700007A147B001202C153FD7F000001
:1009F000A2875003020AA29001047402F0A2874069
:100A00000F900104E0F8740128900104F0E870ED03
:100A1000A28740FC1202C7900102E08E828F83F011
:100A20001202C7900102E08E828F83A3F01202C7E8
:100A3000900102E08E828F83A3A3F01202C790017F
:100A400002E08E828F83A3A3A3F01202C79001025B
:100A5000E0900101F0900101E0FA7B008E828F832B
:100A6000E0F879008E828F83A3E0FC7D00E82CF80B
:100A7000E93DF98E828F83A3A3E0FC7D00E82CF88A
:100A8000E93DF98E828F83A3A3A3E0FC7D00E82CCF
:100A9000F8E93DF9E86A7002E96B700690010174AB
:100AA000FFF07F010204A174E81203FB1202BB12E3
:100AB00002EB7A057B0179011203097A147B017933
:100AC000031203097A227B0179041203098510823B
:100AD000851183AA82AB831202CD85108285118392
:100AE000E0FC7D00740E12042BAA82AB8312030F6C
:100AF000740212042BE0FC7D00740412042BAA8201
:100B0000AB8312030F740E12042BAA82AB837905F8
:100B1000120309740412042BAA82AB837906120310
:100B2000097AF47B011202B580A38003000000EA79
:100B3000F8EBF9E824FFFAE934FFFBE84970ED022D
:100B4000007874F6120435EAFEEBFFEEF8EFF9E8F0
:100B500024FFFEE934FFFFE849603175080075099C
:100B600000750814750900C3E5089401E5099400AF
:100B7000A2D265D03340D47A327B001202AFE508AE
:100B800024FFF508E50934FFF50980DB7F02020444
:100B9000A153C6BFE59DA2E650FA53C6C043BE04AA
:100BA00002007874F7120435EAF8EBF98C828D8331
:100BB000E0A3AC82AD838A828B83F0A3AA82AB834D
:100BC00070EAE8FAE9FB7F010204A1C082C0838ACF
:100BD000828B838001A3E070FCE582C39AFAE583EF
:090BE0009BFBD083D08202007857
:040000050000006097
:00000001FF
