:020000040000FA
:0600000002010A021D6A64
:03002B000221D8D7
:030033000221BAED
:03003B000221F1AE
:0300430002216E29
:03005300021DE0AB
:03006B00022194DB
:10008300021C5BE5C754F84401F5C779012200005F
:100093000080FB120086B900030200F4E4792178A2
:1000A30008B800028004F709D8FCE479297802B87B
:1000B30000028004F709D8FCE4900281783B7909B7
:1000C3008002F0A3D8FCD9FA900ABBAA82AB839032
:1000D300013A78FF79038015E493A3AC82AD838A58
:1000E300828B83F0A3AA82AB838C828D83D8E9D9D8
:1000F300E7758222758398740312011C75829175CA
:100103008300740012011C75D00075813F7518813E
:10011300751902759F00020096C09FF59FE473D086
:100123009F22D083D082C09FE493C0E0740193C028
:10013300E0740293F59F22FF0000B400002800281A
:1001430000283075A000A000A000A000000800084F
:10015300E001F0001000100010001000100010006B
:1001630050005000500010001000D00700000000A5
:1001730000000F00010005003075070010000100AA
:1001830081FF0000FF360654063C06FF0202020808
:10019300025000A0000000E80302BD9001000083AC
:1001A3009002AF90010000100B028F90010000B28B
:1001B3000202AF90010000110B029190010000C8F0
:1001C3000202AF90010000120B029390010000CADB
:1001D3000202AF90010000130B029590080000CBC0
:1001E3000202AF90010000140B029790010000156A
:1001F3000BFF0100FF2002BD90010000869002AFBB
:1002030090010000790B029990000000000002B9F0
:10021300900300001803660C660C660C660C660CF3
:10022300660C660C660C660C660C660C660C660C3B
:10023300360F4E0F300FFFFF0202020202020202CC
:1002430002010D000000100102BD90010000899021
:1002530002AF90010000BC0B02B3900100007807CD
:1002630002AF90010000BD0B02AD90010000528F60
:1002730002AF90010000BE0B02AB90010000378F6C
:1002830002AF90010000BF0B02A990010000918E04
:1002930002AF90010000C00B02A790010000B58ED1
:1002A30002AF90010000C10B02A5900100007F8EF8
:1002B30002AF90010000C20B02C990010000A38E9F
:1002C30002AF90010000C30B02A390010000298F2D
:1002D30002AF90010000C40B02A190010000C50B06
:1002E30001E803053F10FF0001307503020106001A
:1002F30000000000000000000000000000000000FB
:100303000000000000000000000000FFFF06008066
:100313000CE803140953696D706C65424C455065D4
:10032300726970686572616C051250002003020ADD
:10033300000201060302F0FF53696D706C652042F1
:100343004C45205065726970686572616C98130042
:10035300009E130A43686172616374657269737402
:100363006963203100024368617261637465726975
:100373007374696320320008436861726163746552
:100383007269737469632033001043686172616337
:10039300746572697374696320340002436861721F
:1003A3006163746572697374696320350002BD907B
:1003B3000100008C9002AF90010000D70C02C190A5
:1003C300030000AC0A029F90010000D80C02AF901A
:1003D300010000E90C02C390010000AD0A029F90E6
:1003E300010000EA0C02AF90010000FB0C02C59073
:1003F300020000AE0A029F90010000FC0C02AF90C5
:100403000100000D0D02C790000000AF0A02B99071
:10041300030000B00A029F900100000E0D02AF908E
:100423000100001F0D02B590040000B60A029F9060
:10043300010000200D1201250C8D03120125238DCF
:1004430003120125528D031201258B8D0312012501
:10045300B38D03120125E18D03120125F88D0312DB
:1004630001250F8E03120125258E031201254C8EC3
:10047300031201255F8E03120125758E03120125D8
:10048300888E03120125AD8E03120125828C021280
:100493000125818D02120125B68D02120125D78D0A
:1004A30002120125E78D02120125088E0212012591
:1004B300148F02120125E18F0212012554900212BA
:1004C3000125DA90021201251D9102120125549192
:1004D30002120125DA9102120125AC9202120125C2
:1004E3000A93021201252293021201259C93021200
:1004F30001259F9302120125A2930212012549941B
:100503000212012561940212012591940212012520
:10051300B194021201259F950212012555960212EC
:1005230001258DDA02120125B5DA02120125E3DA7B
:10053300021201251ADB0212012582DB02120125B8
:10054300CBDB0212012516DC0212012554DC021258
:10055300012591DC02120125BFDC0212012566DDB3
:100563000212012570DD021201257DDD0212012533
:10057300B0DD0212012572DE021201257EDE0212B7
:10058300012596DE02120125A0DE02120125DD936C
:1005930003120125EB930312012503940312012592
:1005A3001B940312012552AF01120125F0AF011272
:1005B300012568B0011201257DB101120125B7B1F2
:1005C3000112012560B20112012535B30112012583
:1005D30099B401120125F0B40112012577B5011276
:1005E30001255EB601120125ABB60112012539B70B
:1005F300011201255DB70112012532B9011201254E
:1006030073B90112012595B90112012516BA011218
:10061300012500BB01120125C6BB01120125B5BF8F
:100623000212012587C00212012530C102120125E1
:1006330073C10212012500C2021201258CC20212EB
:1006430001256DC3021201259CC30212012598C422
:1006530002120125E0C402120125E2C5021201259E
:1006630026C6021201254CC602120125FD9503126E
:100673000125ABEB02120125C1EB02120125E7EBC9
:10068300021201250FED0212012519ED02120125B7
:1006930072EE0212012572EF02120125FBCB021248
:1006A300012530CD0212012563CD02120125ADCD06
:1006B300021201256BCF02120125CD9001120125F3
:1006C30030910112012575920112012585920112C3
:1006D3000125A89201120125F39201120125989395
:1006E300011201258E94011201255895011201254D
:1006F300D09601120125129701120125B09701121C
:100703000125FD9701120125239801120125119A54
:1007130001120125169A01120125F79B01120125E9
:100723004B9C01120125AD9C01120125D59C0112A0
:100733000125799D011201253B9E011201256C9E25
:10074300011201256F9E01120125B79E0112012599
:10075300F99E01120125609F01120125E482031213
:100763000125F782031201251083031201255B8300
:1007730003120125368403120125C58403120125C2
:100783001085031201256422001201257022001234
:100793000125A92200120125EE2200120125A5231D
:1007A300001201252B24001201259024001201259B
:1007B300BC2400120125F52400120125092700128B
:1007C3000125E52800120125D02A00120125072C56
:1007D30000120125672E00120125532F0012012557
:1007E300993000120125A63100120125C3310012F0
:1007F3000125FB31001201251532001201257D323E
:1008030000120125173700120125B8370012012500
:100813000938001201253038001201257E380012F4
:1008230001259C3800120125F03800120125C93931
:1008330000120125503B00120125D83B001201256F
:10084300E3D502120125EDD502120125B8D6021215
:100853000125D3D602120125F9D6021201253DD76F
:100863000212012575D7021201259ED70212012516
:1008730017D8021201252CD80212012541D80212E1
:10088300012578D8021201258CD802120125BDD882
:1008930002120125F7D80212012523D902120125DC
:1008A30079D902120125CDD90212012516DA0212D5
:1008B300012540DA0212012565DA02120125BFE79C
:1008C3000212012589E8021201256CE902120125B1
:1008D300E2E90212012524EA0212012551EB021278
:1008E3000125008002120125298002120125428080
:1008F3000212012587810212012565820212012558
:1009030084820212012511830212012554830212EB
:100913000125A18402120125408502120125BF870A
:10092300021201255688021201252A890212012585
:100933000C8A02120125788B021201250B8C0212FC
:100943000125D191031201253A92031201258E92BA
:1009530003120125B5920312012535DF0212012589
:10096300A2DF02120125EDDF02120125E2E00212ED
:100973000125DEE102120125C8E202120125C39F0F
:100983000212012505A002120125DFA00212012592
:10099300B8A102120125B3A20212012592A30212E9
:1009A3000125FEA302120125C5A40212012530A5CB
:1009B3000212012597A502120125C2A502120125E3
:1009C30033A602120125C6A6021201252FA7021281
:1009D300012544A7021201258CA702120125A5A710
:1009E300021201250AA8021201250DA802120125EF
:1009F300C8FC02120125F0FC021201252EFD021291
:100A03000125ECFD0212012557FE0212012573FE9A
:100A1300021201259BFE02120125CBFE02120125C3
:100A2300DAFE0212012554FF021201257AFF021297
:100A330001252AA001120125C7A101120125ADA399
:100A43000112012577A401120125BEA4011201257B
:100A530005A50112012517A50112012557A50112AC
:100A6300012586A501120125D2A5011201250AA699
:100A73000112012538A60112012589A601120125BB
:100A830018A70112012506AA01120125E0AB0112E4
:100A930001251CAC0112012576AD01120125BDAD66
:100AA3000112012532AE0112012580AE011201258A
:100AB300B7AE01120125C09602120125DD9602127E
:100AC3000125779C02120125799D02120125F39ECF
:100AD30002120125A19F021201251F5000120125B8
:100AE300685000120125955000120125C8500012CC
:100AF3000125D55000120125E15000120125F350C4
:100B030000120125C85100120125265200120125A9
:100B13005B5200120125F7530012012544540012C1
:100B23000125685400120125D554001201257A5578
:100B330000120125365600120125B5560012012573
:100B43007957001201258857001201250958001210
:100B53000125A85800120125DA58001201257559FC
:100B630000120125D359001201250D5A0012012547
:100B73008E5A00120125575B00120125005C0012FA
:100B83000125875C00120125DF5C00120125405D11
:100B930000120125695D001201251F5E0012012567
:100BA300695F00120125AC5F00120125C95F0012C5
:100BB3000125E85F0012012533600012012558600A
:100BC30000120125816000120125F0600012012549
:100BD300326100120125366200120125D062001233
:100BE30001259C6300120125B563001201253776A8
:100BF300001201258A76001201259676001201253E
:100C03006B7700120125927700120125CD77001230
:100C130001253978001201256D7800120125A67887
:100C230000120125BE780012012517790012012553
:100C33003079001201257979001201258C7900128F
:100C43000125A67900120125BC7900120125D87A65
:100C530000120125E97B00120125367D00120125D2
:100C63001B7E00120125FDFF01120125F7E601128B
:100C730001252BE70112012596EA01120125E0EB7C
:100C830001120125AAEC0112012534EE01120125FE
:100C93000FEF0112012549EF011201256CEF01123B
:100CA3000125AEEF01120125B7EF0112012501F075
:100CB300011201250BF001120125B7F001120125E4
:100CC3008BF101120125DFF10112012541F201121D
:100CD300012594F201120125C3F20112012502F349
:100CE30001120125E76300120125416C0012012561
:100CF300476C00120125027200120125E8750012EB
:100D0300012506F3021201257CF30212012592F359
:100D130002120125CFF30212012507F40212012565
:100D230084F402120125BFF4021201253AF50212DE
:100D3300012576F5021201257FF5021201258BF5B7
:100D430002120125A5F502120125CAF50212012599
:100D5300E0F50212012524F60212012521D1021227
:100D6300012534D1021201254ED10212012577D17A
:100D730002120125BAD102120125F9D1021201256D
:100D830037D2021201259CD202120125B1D20212DE
:100D93000125BCD202120125C9D202120125E0D2DB
:100DA30002120125EED202120125F9D20212012507
:100DB30005D30212012518D30212012523D30212EF
:100DC300012546D302120125EFD302120125FFD3D9
:100DD3000212012519D40212012536D4021201256B
:100DE30052D40212012577D40212012581D40212B2
:100DF300012595D402120125B4D40212012515D57B
:100E0300021201251BD50212012521D5021201254B
:100E130027D50212012533D50212012566D5021208
:100E230001257ECC0112012500CD01120125A9CD9A
:100E330001120125F1CE01120125FFD00112012576
:100E4300E5D1011201251AD2011201253CD201126A
:100E53000125E5D201120125B5D401120125DED405
:100E63000112012556D50112012588D5011201254C
:100E730095D501120125E0D50112012504D60112F1
:100E8300012555D8011201255FD901120125BBD9CE
:100E930001120125FBBD011201250CBF0112012521
:100EA300F0BF01120125FABF011201251CC0011276
:100EB300012528C001120125CCC101120125F9C168
:100EC300011201250FC30112012564C3011201257B
:100ED300B3C40112012588C501120125E4C501121D
:100EE30001254FC60112012584C601120125C7C67B
:100EF3000112012591C901120125A9C90112012578
:100F03003ACA0112012548CA0112012595CA0112E4
:100F13000125A3CA011201250FCB011201258ACB9A
:100F230001120125E1CB01120125DDF30112012597
:100F3300FFF30112012510F601120125CFF801126A
:100F43000125F9F901120125B7FA01120125A3FBC5
:100F530001120125538B03120125788B03120125FE
:100F6300EE8B0312012598B802120125A1B80212D3
:100F73000125AAB80212012582B90212012533BB49
:100F83000212012563BB021201258EBB0212012549
:100F9300BEBB02120125E9BB021201251DBC0212D0
:100FA300012549BC021201258CBC02120125B7BCE4
:100FB30002120125FEBC0212012553BD02120125B6
:100FC30095BD02120125EFBD021201251ABE0212C0
:100FD300012569BE0212012599BE02120125C4BE74
:100FE30002120125F2BE0212012515BF02120125CC
:100FF300869603120125B29603120125DF9603128A
:101003000125E99603120125F9960312012567B01C
:101013000212012571B002120125B2B0021201259C
:10102300FBB00212012535B1021201258BB1021268
:101033000125ACB1021201255BB40212012564B48F
:1010430002120125B8B402120125E1B402120125EE
:10105300EBB40212012559B502120125E9B50212BA
:10106300012544B60212012572B602120125FAB611
:101073000212012539B7021201256EB702120125AA
:1010830080B7021201259FB702120125A8B70212E9
:1010930001256AB802120125E69203120125818710
:1010A30003120125B78703120125EB8703120125DC
:1010B3003889031201250397031201251997031297
:1010C30001252397031201256D97031201258AE356
:1010D300021201259DE30212012561E4021201259A
:1010E300A0E402120125BDE402120125F6E4021276
:1010F300012543E50212012575E502120125ACE540
:101103000212012572890312012595890312012513
:10111300C489031201255C8A031201259E8A0312E6
:101123000125E78A0312012500800312012525808A
:10113300031201254F8003120125CC9703120125C9
:101143003F3C001201251D3E00120125BC3F001249
:101153000125674000120125E740001201256C417B
:101163000012012595410012012570450012012549
:10117300E74500120125FE460012012538470012FB
:101183000125794700120125C0480012012516499F
:10119300001201255F4900120125CE4900120125E5
:1011A3003A4A001201256B4A00120125834A0012B4
:1011B30001259C4B00120125AC4B00120125624D09
:1011C30000120125794D00120125AB4D00120125B6
:1011D3004D4F00120125E14F00120125B494031273
:1011E3000125C59403120125759803120125B498AE
:1011F300031201250999031201256595031201259F
:101203007595031201258D9503120125F39503129C
:101213000125FBFE0112012580FF01120125E4FFD8
:101223000112012557900312012580900312012515
:10123300EB90031201253C910312012597910312B0
:10124300012554F60212012569F6021201258AF7D7
:10125300021201250DF80212012581F8021201255F
:101263009BF802120125AEF802120125BCF8021206
:101273000125D6F802120125EDF80212012517F90E
:10128300021201256DF9021201251C990312012591
:10129300A2F9021201253CFA02120125D8FA021220
:1012A300012569FB0212012519FC0212012527FC05
:1012B30002120125A5FC02120125BBFC0212012525
:1012C300C5FC02120125BF8E03120125118F0312E3
:1012D3000125848F03120125F18F031201253A851D
:1012E30003120125648503120125338603120125A8
:1012F3000F870312012531A802120125FDA802124E
:1013030001253EA90212012578A902120125D6A9B9
:10131300021201252AAA0212012588AA0212012516
:101323001EAB0212012526AC02120125B0AD02123A
:1013330001254EAE02120125B5AE02120125C8AE3B
:1013430002120125BCAF0212012505B002120125CC
:1013530008DA011201253ADD01120125CBDE011263
:10136300012522DF011201253FDF01120125BFDF25
:10137300011201253BE1011201250AE201120125B7
:1013830077E50112012561E601120125C1C60212AA
:10139300012545C902120125F3C90212012508CB13
:1013A300021201257ACB021201257CEF02120125DC
:1013B300C1EF02120125DEEF0212012594F00212A1
:1013C3000125E7F002120125B7F102120125CDF242
:1013D30002120125BE9803120125C2FF0212012544
:1013E300D87F00120125EB9803E066701008A3E094
:1013F30066700A08A3E066700408A3E06622C3E7E8
:10140300960809E7960809E7960809E79622C3E0D4
:101413009608A3E09608A3E09608A3E09622C008E6
:10142300C3E096F50808A3E096420808A3E09642B5
:101433000808A3E09645087001D3D00822080808DD
:10144300EAC0E0EBC0E086F0E7A4FA180986F0E70B
:10145300A42AFA180986F0E7A42AFA180986F0E7FD
:10146300A42AFA1986F0E7A4FBE5F02AFA190886FC
:10147300F0E7A42BFBE5F03AFA190886F0E7A42B72
:10148300FBE5F03AFA18180986F0E7A4C5F02BFB40
:10149300E43AFA1908E7C5F0C6A426F6E5F03BFBE3
:1014A300E43AFA1886F0E7A4F6E5F00826F6E43BFA
:1014B30008F6E43A08F6D0E0FBD0E0FA22E4CFC025
:1014C300E0E4CEC0E0E4CDC0E0E4CCC0E075F020C1
:1014D300C3E633F608E633F608E633F608E633F6F2
:1014E300181818EC33FCED33FDEE33FEEF33FFC376
:1014F300EC9709ED9709EE9709EF97191919400F22
:10150300FFEC97FC09ED97FD09EE97FE191906D537
:10151300F0BEECF709EDF709EEF709EFF719191922
:10152300D0E0FCD0E0FDD0E0FED0E0FF2260160862
:101533000808C6C313C618C613C618C613C618C6EA
:1015430013C6D5E0EA2270090808082260161818A5
:1015530018C6C333C608C633C608C633C608C6335F
:10156300C6D5E0EA22E627F60809E637F60809E6D3
:1015730037F60809E637F622E026F608A3E036F642
:1015830008A3E036F608A3E036F622E026F008A327
:10159300E036F008A3E036F008A3E036F022C3E615
:1015A30097F60809E697F60809E697F60809E69715
:1015B300F622C3E096F008A3E096F008A3E096F0C5
:1015C30008A3E096F022E056F608A3E056F608A337
:1015D300E056F608A3E056F622E056F008A3E056DC
:1015E300F008A3E056F008A3E056F022E0F608A3C3
:1015F300E0F608A3E0F608A3E0F622E6F008A3E687
:10160300F008A3E6F008A3E6F022E0FAA3E0FBA3C8
:10161300E0FCA3E0FD22EAF0A3EBF0A3ECF0A3EDE2
:10162300F022CAC0E0E6F0A308DAFAD0E0FA22CA50
:10163300C0E0E0A3C582CCC582C583CDC583F0A33A
:10164300C582CCC582C583CDC583DAE6D0E0CA2284
:10165300C3E498F8E499F91216948026C3E49AFA3D
:10166300E49BFBE920E7E9121694E498F8E499F97E
:1016730022C3E498F8E499F9121694E498F8E499EB
:10168300F9C3E49AFAE49BFB22EB20E7CFE920E7D6
:10169300E0B90010BB0008E88AF084F8AAF022E45D
:1016A300FBC8FA22EB70227B10C833C8C933C93395
:1016B3005007C39AC3DBF280069A50012ADBEAC8BB
:1016C30033F4C8C933F4C9FA2275F008E4C833C83F
:1016D300C933C933C99AC99B5004C92AC93BD5F038
:1016E300ECFBC833F4C8E4C9FA22600D08C6A2E7CC
:1016F30013C618C613C6D5E0F322600C08C6C3137D
:10170300C618C613C6D5E0F422700422600D18C6AD
:10171300C333C608C633C6D5E0F41822251810AF64
:1017230008F518400215198008F51840021519D25A
:10173300AF22C0D0251810AF08F518500205198044
:1017430008F51850020519D2AFD0D0222518F5821A
:1017530010AF08F518400215198008F51840021556
:1017630019D2AF851983222518F582E43519F5833B
:1017730022E4732518C582C0E0E51934FFC583C090
:10178300E0E518C3958224F810AF08858319858294
:10179300188008858319858218D2AFCEF0A3E5207F
:1017A300F0A37808E608F0A3DEFAEFF0A3E58124BE
:1017B300FAF8E608F0A3E608F0A3E608F0A30808A1
:1017C300E608F0A3E608F0A315811581D0E0FED06A
:1017D300E0F8158115811581E8C0E0EEC0E022250F
:1017E30018C582C0E0E51934FFC583C0E0E518C31E
:1017F300958224F910AF088583198582188008859E
:101803008319858218D2AFCEF0A3E520F0A3780820
:10181300E608F0A3DEFAEFF0A3E58124FBF8E6087F
:10182300F0A3E608F0A30808E608F0A3E608F0A38F
:1018330015811581D0E0FED0E0F815811581E8C04F
:10184300E0EEC0E022851983851882E0A3FEE0A3C1
:10185300F5207808E0A3F608DFFAE0A3FFE0A3C0D1
:10186300E0E0A3C0E0E0A3C0E0E0A3C0E0E0A3C0E9
:10187300E010AF0885821885831980088582188552
:101883008319D2AFD083D0820201228519838518B0
:1018930082E0A3FEE0A3F5207808E0A3F608DFFAD0
:1018A300E0A3FFE0A3C0E0E0A3C0E0E0A3C0E0E06A
:1018B300A3C0E010AF08858218858319800885824C
:1018C30018858319D2AFD083D08222C0D02518C502
:1018D30082C0E0E51934FFC583C0E0E518C39582F3
:1018E30024F310AF0885831985821880088583192E
:1018F300858218D2AFC8F0A3E9F0A3EAF0A3EBF016
:10190300A37908E709F0A3D8FAECF0A3EDF0A3EE6E
:10191300F0A3EFF0A3D0E0F0A3D0E0F0A3D0E0F089
:10192300A3E520F0A3E5F0F0A322851983851882AF
:10193300E0C0E0A3E0F9A3E0FAA3E0FBA37808E0AA
:10194300F608A3DFFAE0FCA3E0FDA3E0FEA3E0FFBB
:10195300A3E0C0E0A3E0C0E0A3E0F5D0A3E0F5205E
:10196300A3E0A3F5F010AF088583198582188008DA
:10197300858319858218D2AFD082D083D0E0F8D086
:10198300E03274048006740280027401C0E0F4043F
:1019930012174FD0E01216252274048004740280BB
:1019A30000CCC0E0EDC0E0E518C39CCCAD195001FC
:1019B3001D10AF068C188D1980068C188D19D2AFA7
:1019C300121632D0E0FDD0E0FC22D083D082E9C0F1
:1019D300E0E493A3C386F0C5F095F0F908E493A37C
:1019E30086F0C5F095F0700BE493A3C3994005E925
:1019F300048002A3E475F002A42582F582E5F035A4
:101A030083F583D0E0F9E493A3C0E0E493C0E0223C
:101A1300D083D082ECC0E0EDC0E0E493A3FCE49378
:101A2300A3FDED4C600D121A5FEC24FFFCED34FFB7
:101A3300FD80EFE493A3FCE493A3FDED4C600D1252
:101A43001A9EEC24FFFCED34FFFD80EFD0E0FDD0C7
:101A5300E0FCE493A3C0E0E493C0E022C0E0C3E46D
:101A63009396087401939618400FE49366700808E0
:101A7300740193661870007019A3A3C3E4939608C6
:101A83007401939618A3A3400DD0E0D0E0D0E002F8
:101A93001A4FA3A3A3A3A3A3D0E022C0E0C0F0885E
:101AA300F0E4936670080874019366187000A8F058
:101AB300A3A3700BD0F0D0E0D0E0D0E0021A4FA384
:061AC300A3D0F0D0E022E8
:101ACC0074F51217E2EAFEEBFFEE2434F8EF340063
:101ADC00F988088909EE2435121C04F8EE24371213
:101AEC001C04F50AEC850AF0A4FCAAF0850AF0EDBA
:101AFC00A42AFDE82CF8E43DF97A257B0012169413
:101B0C00EA850882850983F05407F87401B800024D
:101B1C008004C333D8FCC0E0E0131313541FF8EE59
:101B2C0028F8EF3400F9E8245DF582E93400F583F8
:101B3C00D0E0F8E0586008850882850983801DEEA6
:101B4C002436121C04F5F0EA84A8F0EE28F8EF34E1
:101B5C0000F9E82438F582E93400F583E0F97F04D4
:101B6C0002188E74F51217E2EAFEEBFFEE24341223
:101B7C001C04C0E0EE2435F582EF3400F583D0E090
:101B8C00F08E828F83A3A3A3A3A3E0FAA3E0FB8E22
:101B9C00828F83A3A3A3A3A3A3A3E0FCA3E0FDECE8
:101BAC00C39AF50AED9BF50BEE2480F508EF340093
:101BBC00F509850882F583E06401702BEE2481F52C
:101BCC0082EF3400F5831219A0121C0D7402121747
:101BDC0035E960137CFD7D04EEFAEFFB120B948566
:101BEC000882850983E4F0AC0AAD0BEEFAEFFB1228
:101BFC001ACC122160021B6AF582EF3400F583E0E7
:101C0C0022C082C083851882851983E0F8A3E0F98D
:101C1C00C3EA9CEB9D5012C3EC98ED994019C3EAB2
:101C2C0098EB99501279018010C3EA98EB9940F522
:101C3C00C3EC98ED9950EE7900D083D08222EAC3A0
:101C4C009CFAEB9DFB2200008521878522C622C0D1
:101C5C00E074EF1218CE759B00906182E0A2E64012
:101C6C0003021D1CE591A2E64003021D1C7591BFE9
:101C7C009003C2E064057008120D32120D3E800311
:101C8C00120D38752100120DA4E99003C3F07900F0
:101C9C00120D98120AFE7A017B009003C1E0F91232
:101CAC00106E907803E064426003021D6590055F3E
:101CBC00E014F06003021D65C2AF121CC900782A43
:101CCC00D0E0F618D0E0F6E59F5407F97005909037
:101CDC005F800390905B78081215EFE9C4C0E07840
:101CEC0029E65508F50808E65509F509740B780836
:101CFC001216FDD0E02508F8906270E0A2E740F8DB
:101D0C00E8C333906272F0906270E0D2E0F08049E8
:101D1C00E0A2E55024E591A2E5501E7591DF9003F9
:101D2C00C2E0640D70139003E4E004F064287002C8
:101D3C00E4F07A00E0F9120E16906181E0A2E35013
:101D4C0009E5E9A2E3500375E9F7A3E0A2E750091E
:101D5C00E591A2E7500375917F7F0402192DC0E035
:101D6C00C0D0C082C083906183E0A2E05009E5BF7F
:101D7C00A2E0500375BFFEE0A2E15009E5BFA2E16D
:101D8C00500375BFFDE0A2E25009E5BFA2E250038B
:101D9C0075BFFBE0A2E35009E5BFA2E3500375BF9A
:101DAC00F7E0A2E45009E5BFA2E4500375BFEFE0F1
:101DBC00A2E55009E5BFA2E5500375BFDFE0A2E63E
:101DCC005009E5BFA2E6500375BFBFD083D082D0C7
:101DDC00D0D0E032C0E074F21218CEE5A7A2E450E5
:101DEC000FE5A1A2E4500953A7EF75A1EF121E3421
:101DFC00E5A7A2E5500CE5A1A2E5500653A7DF75B7
:101E0C00A1DFE5A7A2E15009E5A1A2E1500375A16C
:101E1C00FDE5A7A2E2500CE5A1A2E2500653A7FBF8
:101E2C0075A1FB7F0102192D74F81217E2752101BF
:101E3C009003C2E0640670077A007B00120D1AA2B0
:101E4C00AFE433FED2AF9003C8E0640170187A207F
:101E5C007B009003C1E0F91210F27A207B00900312
:101E6C00C1E0F9121074906182E0D2E6F090055E48
:101E7C00E0602185C62280169003C7E064017008DB
:101E8C00E5C654F84405F5C653BEFC121C54740147
:101E9C00652160E4EEA2E092AF7F0102188E000093
:101EAC008E238F2485822885832785188285198324
:101EBC00E0CEA3E0CF852882852783EBC9EAC8ED65
:101ECC00CBECCA75F010C3E833C8E933C9EA33CA9E
:101EDC00EB33CBC3EA9EF526EB9FF525B35004AB51
:101EEC0025AA26EC33CCED33CDD5F0DAAE23AF24D6
:101EFC002274F11217E28A088B098C0A8D0B740F6D
:101F0C0012176A780C1215EF90903378081215C9D5
:101F1C00909033780C1215C97808790C1214015072
:101F2C00157808790C1215A1908FFF7808121421DE
:101F3C00401579018013780C79081215A1908FFF48
:101F4C00780C12142140EB79007F0802188E74ED86
:101F5C001217E28A088B098C0A8D0B741312176AFC
:101F6C00780C1215EF90903378081215C9909033B5
:101F7C00780C1215C9780C790812140140117808E4
:101F8C00790C1215A1AA08AB09AC0AAD0B8022750D
:101F9C0010007511007512007513017810790C1270
:101FAC0015A178107908121568AA10AB11AC12ADF6
:101FBC00137F0C02188E90903378081215EF8A82DA
:101FCC008B8378081215DC7F0402188E74F51217B7
:101FDC00E28C828D8378081215EF8A828B837808C5
:101FEC001215B512202CC3E098F0A3E09912201E14
:101FFC00401E90907378081215EF8A828B837808B4
:10200C0012158E8E828F83E02420F0A3E0344EF0E4
:10201C0080A4F08E828F83C3E09420A3E0944E22A0
:10202C00EA2404F8EB3400F9E8FEE9FF8C828D8396
:10203C00A3A3A3A3E0F8A3E0F98E828F832274F507
:10204C001217E2E9FE900514E0FAA3E0FBEEC333AD
:10205C00F8E433F974FA28F582748E39F583E02AA2
:10206C00F508A3E03BF509780812198990906F12D6
:10207C00160D121EAC74021217358A088B098C0AC5
:10208C008D0B74107808121530AA08AB097F040266
:10209C00188E74F11217E28A0C8B0D8C0E8D0F7446
:1020AC000F12176AE0FAA3E0FB741112176AE0F53D
:1020BC0008A3E0F509741312176AE0FEA3E0FF7899
:1020CC0008121989EA2401F508EB3400F509E4F546
:1020DC000AF50B780C7908121440908FFB780812D3
:1020EC0015EF780C7908121440AA0CAB0DAC0EADA0
:1020FC000F121EAC74021217358B09EA45096004E5
:10210C007A0180027A00EC2AFCED3400FDECF8ED4B
:10211C00F97A717B0212169488088909E4F50AF59C
:10212C000B8E828F8378081215FEECF8EDF97A711C
:10213C007B021216948A088B097405780812170C06
:10214C008E828F83A3A3A3A3E508F0A3E509F07FF8
:10215C000802188EC082C083E9906000F0D083D052
:10216C008222C0E074F21218CEA2AFE433FED2AFDA
:10217C00C2C0E5D1A2E4500653D1EF1212C0EEA2B8
:10218C00E092AF7F0102192DC0E074F21218CEA2BA
:10219C00AFE433FED2AFE589A2E1500312123C75D5
:1021AC008900C2C5EEA2E092AF7F0102192DC0E0FA
:1021BC0074F21218CEA2AFE433FED2AFE58BA2E0DC
:1021CC00500312123C758B00C2E880D8C0E0C0D01E
:1021DC00E8C0E0E5A8D2AFC2C7A2E792AFD0E0F862
:1021EC00D0D0D0E032C0E0C0D0E8C0E0E9C0E0C060
:1021FC0008C009C082C083A2AFE433F9D2AF900902
:10220C00E0E0F8A3E0687008539AFBA37401802601
:10221C00C2E99009E0E0F50874012508F074602526
:10222C0008F58274093400F583E0F5C19009E0E00B
:10223C00C394804002E4F0E9A2E092AFD083D08254
:0F224C00D009D008D0E0F9D0E0F8D0D0D0E032FF
:10225C00FFFFFFFFFFFFFFFFC082C083E9900B78F9
:10226C00F00224E874F7121776E99002E0F07C187B
:10227C007D037AFF7BFF1208169002E174FFF0A336
:10228C00F0A3E4F0A3F0790512079E9002E0E0F9C8
:10229C001206C67A347B081209F60231F674F4126F
:1022AC0017768A088B09EB548060309002E0E0F9D5
:1022BC001210568A0A8B0BAE0AAF0BEE4F60138EC0
:1022CC00828F83E064B070031207B6EEFAEFFB1254
:1022DC001044AA08E5096480FB80047A007B0002A4
:1022EC0024B774F212177674FC12171FEAFEEBFF78
:1022FC00741212176A1236DDEE4F700302239174BA
:10230C000212176AEEF0A3EF1226F2ECF0A3ED1214
:10231C0026F2AA82AB831206C0E9F50A706AE508B8
:10232C00450960648E828F831236C3EE4F60567AF5
:10233C00067B001210AA8A0C8B0DA80CA90DE8497B
:10234C007005750A13804188828983E412239EEEFE
:10235C00F0A3EF1236EEE508F0A3E509F09002E6E3
:10236C001224259002E670051231A0801B12318ECA
:10237C008003EAFCEBFD8C828D8312242570F38C98
:10238C00828D8380E3750A02A90A74041217350240
:10239C0038DDF0A3123694A32274F2121776890A50
:1023AC00E975F017A4FEAFF09002E5E4F09002E3BB
:1023BC00122425600A1210B09002E3E4F0A3F0EEB0
:1023CC00FAEFFB1210AA8A088B09EA4509602FEE76
:1023DC00FCEFFD790012102C9002E3E508F0A3E568
:1023EC0009F07B00800812240FE4F0A3F00BEBC380
:1023FC00950A40F2E50A9002E5F079008002791323
:10240C000238DDEB75F017A4F8A9F09002E3E02890
:10241C00FAA3E0398A82F58322122E32EA4B227417
:10242C00F4121776740C12176A1236B8FEE9FF759F
:10243C000800750900800CE5082401F508E509344D
:10244C0000F509C3E5089CE5099D503285080A850D
:10245C00090B7403780A12170CEA250AF8EB350BF2
:10246C00F988828983A3A3A3A3A3A3123275EE6573
:10247C000A7003EF650B70BFE8FAE9FB80047A0081
:10248C007B00802774F41217767900EAA2E0501BC7
:10249C007508E475098F78081219897C047D007A17
:1024AC007A7B0B12079874021217357F04021848B6
:1024BC00C082C0839002E61224EF601C888289835C
:1024CC00A3A3E06A7003A3E06B8882898370E8A3FE
:1024DC00A3A3A3122E2E80047A007B00D083D0827B
:1024EC000201221239C3E8492274EE12177674FCE9
:1024FC0012171FEAFEEBFF851882851983E4F0A3FF
:10250C00F0EE2402123180EE240512369BEE2404E8
:10251C00F50EEF122AA7E024FE603924FC60462455
:10252C00FE605224FE605E24FE700302260824FE28
:10253C00700302266C24FE700302267B24FE7003BB
:10254C0002268A24FC700302269924FE70030226BC
:10255C00A80226E59002FF7417F0A3E41226FA12E3
:10256C00043E0226E5851882851983AC82AD831260
:10257C0007BC0226B5851882851983AC82AD8312FF
:10258C0007C20226B5850C08850D09740212176A5C
:10259C00AC82AD83850882850983122E2E1206E447
:1025AC008A0C8B0DAC0CAD0DEC4D603BE4F50CF5D1
:1025BC000D780C121989750CFF750D02780C121917
:1025CC0089750C00750D03780C1219897408121793
:1025DC006A1219A0123B3F121735E9F50C700B1259
:1025EC002E24120456800F750C01850882850983F0
:1025FC001226E81231A0850C080226B874021217B4
:10260C006AAC82AD83850C82850D83122BF9603CFC
:10261C00850C82850D83A3A31219A07510FF75116B
:10262C00027810121989751000751103781012199F
:10263C0089740812176A1219A0123B3F121735E958
:10264C00F509700B122E2412045C800F750901859C
:10265C000C82850D831226E81231A0850908804C66
:10266C00851882851983AC82AD831207C8803A85A0
:10267C001882851983AC82AD831207CE802B851806
:10268C0082851983AC82AD831207D4801C85188295
:10269C00851983AC82AD831207DA800D851882858B
:1026AC001983AC82AD831207E0E9F508E5086029CF
:1026BC008E828F83A3E06414601F850E82850F8346
:1026CC00E09002FF1226F21239BF9003001231A0E3
:1026DC00E508A31226FA12043802308F1239C3858A
:1026EC00188285198322F085188285198322F07C43
:1026FC00FF7D02850A82850B83122E322274EE1224
:10270C00177674FC12171F8A0A8B0B8C0E8D0FEA2E
:10271C002405F508EB3400F5097C157D0079007A69
:10272C00FF7B0212102CE5082402F50CE509123689
:10273C009E851882851983858210858311781012E5
:10274C001989850882850983A3A3A3A3122BF012F0
:10275C001989E5082405F510E5093400F511781000
:10276C00121989850C82850D83122F451206DE7491
:10277C00061217358A108B11AE10AF11E50A240220
:10278C00F50AE50B123183EE4F70030228C7801750
:10279C00740212176A122E2E88828983EAF0A3EB38
:1027AC00F09002FFE004F09002FFE0C394054003B8
:1027BC000228C7E4F510F51178101219897510E884
:1027CC0075110278101219897510E97511027810BB
:1027DC00121989740612176A1219A07910EEFCEFFF
:1027EC00FD123B41121735E9705E8508828509831D
:1027FC00A3A3A3A3A3A3A3E0F89002E8E068704806
:10280C00122BF01219897CE97D02E5082408FAE5FF
:10281C00093400FB1210267402121735E960298E58
:10282C00828F83A3A3A3A3122E2E9002FFE0F51098
:10283C007402781012170C74002510F5827403358D
:10284C0011F583EAF0A3EBF0740212176A8582107B
:10285C008583117810121989740212176A1219A043
:10286C00850C82850D83122E541217358A108B110C
:10287C00AE10AF119002FFE0F510751100740278E4
:10288C001012170C74FF2510F874023511F9888298
:10289C008983A31224257003022793E824030808D4
:1028AC0008E93400F9EE4F600302279C8882898383
:1028BC0074FFF0A3F09002FFE004F09002FFE060E0
:1028CC000A122E2412044A7900800B85088285098D
:1028DC0083123197790A02308F74EA12177674FEDC
:1028EC0012171F8C128D13EA2405F50CEB123B29E1
:1028FC001236C7750800750900EA2402F510EB348E
:10290C0000F51185188285198385820A85830B78D9
:10291C000A121989850C82850D83A3A3A3A3122AFD
:10292C00BD121989E50C2405F50AE50D12318378E1
:10293C000A121989850C82850D83122AC11206DEB2
:10294C0074061217358A0A8B0BEA450B7003022AA0
:10295C0062EA2404F50EEB122AA71236C78A828B80
:10296C0083A3A3A3E0F9851082851183122E38600E
:10297C0003022A62E4F514F51578141219897514FA
:10298C00E875150278141219897514E97515027811
:10299C0014121989740612176A1219A07913AC0A49
:1029AC00AD0B851082851183123B47121735E9F563
:1029BC00096003022A629002E8E0F8E5087009E079
:1029CC002402900300F08014900300E0FCE8240241
:1029DC00FAE43400FBEA6C7001EB707E850882AA85
:1029EC0082122BE79414122BDF506B850E82850F0D
:1029FC0083E0C0E074012A122A9ED0E0F00508851D
:102A0C000E82850F83A3E0C0E085080A7401250AB5
:102A1C00122A9ED0E0F005089002E8122ABD121985
:102A2C00897CE97D0285080A7401250A122AB112F3
:102A3C0017359002E8E02508F50874FF6E700374F2
:102A4C00FF6F6012EE24010EEF3400FFE508C39413
:102A5C0014500302290FE5086013122E42851082D0
:102A6C00851183122E2E12045079008014E5097002
:102A7C000375090A851282851383EEF0A3EFF0A982
:102A8C000974021217357F0E02184885080C740160
:102A9C00250CF58274033400F583223400F50F8580
:102AAC000E82F58322FA74033400FB1210147402A4
:102ABC00221236FD22A3A3122AC72212318EFDEE5A
:102ACC00FAEFFB2274EE12177674FE12171F8C0E9F
:102ADC008D0FEA2405F50CEB12369E750B00900257
:102AEC00FFE4F0F50AEA2402F508EB3400F509805E
:102AFC00449002FFE0FA9002E8E0F8122BE79417FA
:102B0C00122BDF400D9002FFE0F87416C398900270
:102B1C00E8F0122BF01219897CE97D0274002AFA74
:102B2C007403122AB41217359002E8E0F89002FFF1
:102B3C00E028F0050AE50C2416F582E50D122AA210
:102B4C00E0F8E50AC39850749002FFE0C394165065
:102B5C006BE50AC333F8E433F9E50C28FEE50D39CF
:102B6C00FF851882851983AC82AD838E828F831288
:102B7C002BF97008750B011231938050E4F510F5A8
:102B8C001178101219897510E87511027810121944
:102B9C00897510E9751102781012198974061217CB
:102BAC006A1219A07916850882850983123B47128F
:102BBC001735E9F50B7003022AFD80BB7CFF7D0203
:102BCC00850882850983122E2E120462A90B7402C9
:102BDC00023091E99400C365D03322EA28F8E4343A
:102BEC0000F9E822E0F510751100781022123086F9
:102BFC008A108B11AC10AD11EC4D2274EA121776C1
:102C0C0074FC12171F8A0C8B0D8C128D13EA240581
:102C1C00F50AEB123183750800750900E50A2402E8
:102C2C00F510E50B3400F511740212176A85820E4B
:102C3C0085830F780E121989850A82850B83A3A3CD
:102C4C00A3A31236A3121989E50A2405F50EE50B88
:102C5C003400F50F780E12198985108285118312B4
:102C6C003189122E281206DE74061217358A0E8B45
:102C7C000FAE0EAF0FE50C2402F50EE50D3400F58A
:102C8C000F80388882898374FFF00508122A9774A4
:102C9C00FFF005089002E8E0F50C750D00780C12B9
:102CAC0019897CE97D0285080C7401250C122AB166
:102CBC001217359002E8E02508F508EE4F60278ED4
:102CCC00828F83A3A3A3E0F9850E82850F83122E36
:102CDC0038EE240412369BE96027850C82850D831F
:102CEC00122E1A1231A0E5087003022E00122E4289
:102CFC00850E82850F83122E2E1204687900022E07
:102D0C0015E4F514F51578141219897514E8751570
:102D1C000278141219897514E975150278141219B0
:102D2C0089740812176A1219A07911EEFCEFFD854F
:102D3C000E82850F83123B47121735E9F509709AFD
:102D4C00850882AA82EA9002E87009E024049003C4
:102D5C0000F08025E0F8900300E0F514E82404FC72
:102D6C00E43400FDEC65147001ED7081122BE794D6
:102D7C0012122BDF4003022CF9850C82850D83E0A7
:102D8C00C0E074012A122A9ED0E0F00508850C825E
:102D9C00850D83A3E0C0E0122A97D0E0122E5D854A
:102DAC00820C85830D780C121989740412176A121F
:102DBC0019A0851082851183122E541217358A0C96
:102DCC008B0DAE0CAF0D85080C7401250CF874033B
:102DDC003400F9EE4F7003022C8F8518828519830D
:102DEC00E088828983122E5DA3E0C0E0122A97D07E
:102DFC00E0022C9DE509700375090A850A82850B92
:102E0C0083122E1A1231A0A9097404022A8F1239C6
:102E1C00C3851282851383227CFF7D02850A8285FD
:102E2C000B83122E3222E0FAA3E0FB22122E321276
:102E3C0006CCE9F50922900300E0F5F0E508849052
:102E4C0002FFF07CFF7D0222122AC71206EA7404EC
:102E5C0022F005088518828519832274EC121776E6
:102E6C0074FE12171F8A088B098C0E8D0FEA24052D
:102E7C00FEEB3400FF123070EE241812369BEA453C
:102E8C000B7003022F131230595029122F388A104D
:102E9C008B11EA4511606B7912AC0AAD0B85088277
:102EAC00850983122E2E851082851183121774E9E1
:102EBC00F50A7058E4F50AF50B780A1219898E8216
:102ECC008F83A3A3E0F50A780A121989EE24031262
:102EDC003180780A1219898E828F83122F4512083D
:102EEC00047406121735E9F50A7021850C82850DDC
:102EFC0083E0701F850882850983122E2E12046EC2
:102F0C008011750A0E8009750A018004E50A6003B8
:102F1C00123193850C82850D83E060047900800268
:102F2C00A90A74021217357F0C021848851882857D
:102F3C001983122E321207F22212318EFD8508826D
:102F4C00850983122E322274EE12177674FE121734
:102F5C001F8A088B098C0C8D0DEA2405FEEB3400BE
:102F6C00FF750E00123070EA450B700302303712F9
:102F7C003059502C122F388A0E8B0FEA450F604AAD
:102F8C007912AC0AAD0B850882850983122E2E8529
:102F9C000E82850F83121774E9F50E600302303A26
:102FAC00850882850983123275AA0AFB12304B7090
:102FBC00147AFF7BFF12304B606C88828983E50AA0
:102FCC00F0A3E50BF0750A008007750E0E805F0507
:102FDC000A9002E5E0FAE50AC39A504AE50A75F050
:102FEC0017A4FAABF088828983A3A3E02AFAA3E0A2
:102FFC003BFB8A828B83123189EC4D70D2750A1798
:10300C00750B00780A121989EEFCEFFD121014747E
:10301C0002121735EEFCEFFD850882850983122E0E
:10302C002E1204748014750E098003750E0112396A
:10303C00BB850C82850D831231A0A90E022BDA12EE
:10304C0007E68A108B11A810A911E84922E508247B
:10305C0002F508E5093400F5098A828B83A3A3A342
:10306C00E0A2E522851882851983AC82AD838E821D
:10307C008F831230868A0A8B0B22E0FAA3E0FB12B4
:10308C0006E42274041217357F0A02184874EC12F5
:10309C0017768C108D11EA2405F50CEB12369E7503
:1030AC000F00EA2402F50AEB123183850A82F583BC
:1030BC00122E2E123BCD7003023175750E008071ED
:1030CC00850C82850D83E06401704F8E828F83A303
:1030DC00A31219A08E828F83A3A3A3A3E0F512756C
:1030EC0013007812121989EE2405F512EF3400F54D
:1030FC00137812121989122E28120804740612174A
:10310C0035E9F50F6014850C82850D83E4F01239D6
:10311C00BB8510828511831231A07C177D0079004C
:10312C00EEFAEFFB12102C8E828F83E4F0A3F005E5
:10313C000E9002E5E0F8E50EC398501EE50E75F012
:10314C0017A4F8A9F0850882850983A3A3123B3341
:10315C00123189EC4D60030230CC850882850983DD
:10316C0074FFF0A3F0E50F7006122E2812047AA952
:10317C000F022F33F50AEF3400F50B22A312318E18
:10318C00FD22E0FCA3E0228E828F831239C3850ED0
:10319C0082850F83E8F0A3E9F022C082C0839002FD
:1031AC00E1E06A7003A3E06B70067AE17B028004B5
:1031BC007A007B000224E874F71217767F00EF7513
:1031CC00F003A4F8A9F0EC28F8ED39F9888289838A
:1031DC00E06A7003A3E06B7006E8FAE9FB800B0F62
:1031EC00EFC3940240D87A007B007F010218487428
:1031FC00F61217761237AC70067A007B008007A3A4
:10320C00A3A3A3122E2E02386D74F2121776E9FEC8
:10321C00740E12176A123275741012176A1236DD98
:10322C008C828D83E06402703BA31239BF88828943
:10323C0083E0F50CA3E0F9A80C7402687003742900
:10324C00697021750C02750D00780C1219897808BB
:10325C00121989780A121989EEF9120828740612C3
:10326C001735800279010238DDE0F50AA3E0F50B91
:10327C002274E812177674FB12171FE985188285E1
:10328C001983F08A168B178C0E8D0F741F12176A08
:10329C001236DD742112176A123275742312176AF2
:1032AC001236C77510008C828D83A3A3A3E0A2E411
:1032BC00502A741D12176A122F3E8A828B83E58264
:1032CC0045837003023389790AAC0EAD0FAA16AB95
:1032DC0017121774E9F510600302338C850E828582
:1032EC000F83E064026003023642A31239BF8508E3
:1032FC0082850983A3858212858313E50E2406F546
:10330C000CE50F12369E88828983E0FAA3E0F9EA75
:10331C002400F514E439F5157814121A1301000081
:10332C002801285133070002282834032898330039
:10333C0029523501297A35022921350329523504C0
:10334C0029E3354236EE4F703E850C82850D831293
:10335C0036B8FAE9FB8A828B83E0850A82850B8377
:10336C001236F41219898A828B83A312318EFDAA2C
:10337C0008AB091210147402121735800375100E65
:10338C00A9107405023B2175100B80F4EE4F70F7F9
:10339C00850A82850B837401F01236CD85088285EF
:1033AC000983F07C007D00850E82850F83A3A3A387
:1033BC00A3E02401FAA3E03400FB1206E4EA4B601C
:1033CC00418A828B83E02402F8850A82850B83E094
:1033DC0028F0EA2404F8EB3400F988828983E0852C
:1033EC0012828513831237061236F41219898A82D7
:1033FC008B83123188E5082403FAE5093400FB02BB
:10340C00337F850A82850B83E02404F07C047D00E5
:10341C007900AA12AB1312102C02338CEE4F6003FE
:10342C000233931236CDFEA3E0FF850A82850B830F
:10343C007404F0EE850882850983F0EF851282858D
:10344C001383F0740312176AAC82AD83EEFAEFFBB0
:10345C0012379A70030234FE8A828B83A3A312362E
:10346C00C3740112176A85820E85830F780E1219A8
:10347C0089740512176A1219A07CFF7DFF1206EAE7
:10348C0074041217358B0FEA450F7033850C828547
:10349C000D831236A3121989850C82850D83A31214
:1034AC0019A07C027D007AB17B901205167404126F
:1034BC001735E9700A740112176A74FFF0A3F08EC5
:1034CC00828F83E064027034750C02750D00780CE9
:1034DC001219898E828F83123188E5082404FAE54B
:1034EC0009122AB4121735850A82850B83E024024F
:1034FC008009740112176AEEF0A3EFF07401121731
:10350C006A1236B4F0740112176AA31236ACA3A374
:10351C00A3F002338CEE4F6003023393850C82854B
:10352C000D83123189AA16AB1712081C850A8285E5
:10353C000B837402F0EA850882850983F085128278
:10354C00851383EB80CBEE4F60030233931236CDA1
:10355C00F8A3E0F9850A82850B837402F0E88508EC
:10356C0082850983F0E985128285138380A3850CFB
:10357C0082850D83122E2E12100EEAFC8C82A882EC
:10358C00C39EE49F404BE86E7001EF70047C00809A
:10359C001F851882851983E0FAEE2AFAEF3400FBB6
:1035AC00C3EA98EB94005003E08004EECCC39CFC7F
:1035BC00EC850A82850B83F08C0A750B00780A1255
:1035CC001989850C82850D83E02EFCA3E03F023324
:1035DC007A75100702338CEE4F6003023393850C1F
:1035EC0082850D831239BF850A82850B837407F09F
:1035FC00888289831236AC123694E0851282851348
:10360C0083F0E82402FAE93400FB8A828B831236B9
:10361C00AC1236E51236B4A31236EE1236BDF0E813
:10362C002405F8E93400F9888289831236BDA31287
:10363C003706A302351A741D12176A1237A57003C8
:10364C000233891239BF880C890DE8450D700302CD
:10365C0033898E108F117810121989780A121989F2
:10366C007808121989740612176AE0F9AC0EAD0FBE
:10367C00AA16AB17850C82850D831217747406126B
:10368C001735E9F51002338CF088828983A322F573
:10369C000CEF3400F50D22E0F50E750F00780E22BC
:1036AC00E08508828509832212370D221239C3E87E
:1036BC002212370DA3A322A3A3A3A3E0FEA3E0FF32
:1036CC0022850C82850D83E0F8A3E0F5838882E0E7
:1036DC0022E0F508A3E0F50922A3A3F08A828B83EC
:1036EC00A3221223A0A3A322F08A828B831236FD7D
:1036FC0022E0F50A750B00780A2212369412370D67
:10370C0022E0850882850983A3A32274EE12177622
:10371C0074FE12171F8A0A8B0BECFAEDFB74141251
:10372C00176AE0F510A3E0F511741612176AE0FEA3
:10373C00741812176AE0F50EA3E0F50F8518828550
:10374C001983AC82AD8312379A603E851882851935
:10375C00831237A5602FA3A31236DDE50845096057
:10376C0024780E1219897810121989EEF9AC0CAD67
:10377C000DAA0AAB0B850882850983121774740491
:10378C001217358006790E80027901022BDA1206A7
:10379C00E48A0C8B0DEA450D22122E321237AC2224
:1037AC001207B08A828B83E58245832274F6121746
:1037BC007674FE12171F740C12176A1236B885181D
:1037CC0082851983F0740112176AE9F0E4F508F5A3
:1037DC000978081219897508027808121989740475
:1037EC0012176A85820885830978081219891208CC
:1037FC000474061217357402121735806474F712AC
:10380C001776EAFEEBFF89087C187D0312081CEA88
:10381C005402600BA908EEFAEFFB1206D88002796D
:10382C00010231F674F612177674FF6A700374FF96
:10383C006B701C7B00EB75F003A4F8A9F0EC28F876
:10384C00ED39F91238720BEBC39402501480E61266
:10385C0007EC8A088B09A808A909E8496003123803
:10386C00727F020218488882898374FF12239EE4B7
:10387C00F02274F61217761207EC8A828B83E5829B
:10388C0045836006A3A3E0FA80027A007B0080D116
:10389C0074F21217768A088B09ECFEEDFF740E1287
:1038AC00176AE0F50A1238E2701CEEFCEFFD7AFFA5
:1038BC007BFF1238E270047911801688828983E5C7
:1038CC0008F0A3E509F088828983A3A3E50AF079BF
:1038DC00007F060218481207EC8A0C8B0DA80CA965
:1038EC000DE8492274EE121776EAFEEBFF8C088D78
:1038FC0009890C741212176A1239BF741412176AE0
:10390C00123189741612176A122E2E750D00EC4D99
:10391C0060030239B37402650C60030239AE88820D
:10392C00898312318EF9EC2400F50EE439F50FEA97
:10393C00F4F8EBF4F9EC58F8E50F59F9E849705D37
:10394C00E5082406F8E5093400F9880A890B888211
:10395C00F583122AC312081C8A108B11E50E651010
:10396C007004E50F65116042780E121989850A8280
:10397C00850B83122AC31208227402121735E9F53B
:10398C000D7027780E121989850882850983A3A3E7
:10399C00122AC112083A7402121735800D750D8067
:1039AC008008750D0D8003750D0BA90D0230948EDA
:1039BC00828F831239C322E0F8A3E0F92274E81253
:1039CC00177674E712171F851882851983EAF0A3FE
:1039DC00EBF08C168D17890E743112176AE0F51204
:1039EC00A3E0F513743312176AE0F514A3E0F51590
:1039FC00743512176AE0F50F750800750900E509B2
:103A0C0075F003A4F8A9F0851882851983123B334D
:103A1C00E0F47003A3E0F47003023B11EE2402F512
:103A2C000CEF123B29E07003023B1185160A851737
:103A3C000B780A121989AC14AD15AA12AB13120724
:103A4C00A474021217358A0A8B0BEA450B70030219
:103A5C003B11E4F510F51178101219897406121740
:103A6C006A858210858311781012198974091217CE
:103A7C006A858210858311781012198985128285C6
:103A8C001383A3A3A3A31219A07914AC0AAD0B8EB4
:103A9C00828F83123B47121735E97069850A82853C
:103AAC000B83A3A3A3A31239BF740212176A12319A
:103ABC00A0850C82850D83E0A2E05018A90E74023B
:103ACC0012176AAC82AD838E828F83122E2E120651
:103ADC00FCE94208850C82850D83E0A2E15026E5C5
:103AEC000FF50A780A12198DA90E740312176AAC15
:103AFC0082AD838E828F83122E2E1206F6740112E3
:103B0C001735E942080509E509C394025003023A46
:103B1C000AA90874191217357F100218483400F5D9
:103B2C000D850C82F58322E028FEA3E039FF8E82FE
:103B3C008F83227916850A82850B83122E32120707
:103B4C00FE74082274F2121776EAFEEBFF890B74EE
:103B5C0001650B600E7402650B70637901120A1417
:103B6C00E9705BEEFAEFFB123BCD6047750A008003
:103B7C000B7C177D00790012102C050A9002E5E0F1
:103B8C00F8E50AC3985021E50A75F017A4F8A9F0D6
:103B9C00850882850983A3A3E028FAA3E039FB8A70
:103BAC00828B831224EF70C985088285098374FF88
:103BBC00F0A3F07C187D03EEFAEFFB120816023826
:103BCC00DD1207E68A088B09EA45092274F21217FE
:103BDC00768A088B09ECFEEDFF740E12176A12320E
:103BEC0075900B78E0F4603D7A097B0012103EEA88
:103BFC004B60328A828B8374B1F0A3E41236E7A354
:103C0C001236E5A3E508F0A3E509123C34EEF0A367
:103C1C00EF123C34A3A3E50AF0A3E50BF0900B786C
:103C2C00E0F912104A0238DDF08A828B83A3A3A339
:103C3C00A3A32274F4121776E9FF7E008A088B097D
:103C4C0078081219CD00040DF03D723C8E3CA33C5B
:103C5C00B83CCD3CE23CFE3C173D293D573D793DFF
:103C6C00953DB13DCF3D74016F70128C828D83E018
:103C7C00C394035008E0900C64F0023E0E7E1802D0
:103C8C003E0E74026F70F68C828D8312454C900C34
:103C9C0065E8F0A3E980E274016F70E18C828D839A
:103CAC00E0C3940250D7E090078180CD74016F700F
:103CBC00CC8C828D83E0C3940550C2E09007828047
:103CCC00B874016F70B78C828D83E0C3940250ADD1
:103CDC00E090078380A374106F70A27508108E0992
:103CEC0078081219897A847B071249101217350249
:103CFC003E0E74016F70868C828D83E0C3940240FB
:103D0C0003023C89E0900794023C8574016F6003C8
:103D1C00023C898C828D83E0900C68808D74046FDA
:103D2C006003023C8990906F78081215EF8D838C9C
:103D3C008278081214114003023C898C828D831204
:103D4C00160D900796121619023E0EEF6003023CF8
:103D5C0089120684E9700E1211A6795012134A12B8
:103D6C00119A023E0E9008297401023C8574016F71
:103D7C006003023C898C828D83E0C3940240030271
:103D8C003C89E0900795023C8574016F6003023C0E
:103D9C00898C828D83E0C3940A4003023C89E090B5
:103DAC000C67023C8574016F6003023C898C828D28
:103DBC0083E024F9C3940A4003023C89E0900C6927
:103DCC00023C8574016F6003023C89900828E0F87E
:103DDC008C828D83E0900828F0E87026E0640170F6
:103DEC0021023D6BC3EA9426EB9400501374026FCE
:103DFC00700E8C828D83124546120522E9FE8002DC
:103E0C000E0EEEF9023E18740E1217357F040218CE
:103E1C004874F012177674CC12171F8C0A8D0B7421
:103E2C004412176AE0FE742012176AAC82AD8375D7
:103E3C00838F7582D87406121632742012176AACEE
:103E4C0082AD8312114CE9F508C3940A4003023F7A
:103E5C008175F006E9A4F509742612176AAC82ADD7
:103E6C00837A0E742025091249C87009743212170E
:103E7C006AE0FF80027F00900C64E06402700474BE
:103E8C00018001E4F50D780D12198DEEFDEFFCA902
:103E9C0008AA0AAB0B1211D074011217357C147DD1
:103EAC00007900740C12176AAA82AB8312102C745E
:103EBC000C12176AAC82AD837A107424250912494E
:103ECC00C870377C1079FF740C12176A1246F570A3
:103EDC0029741C12176AAC82AD837A0474252509E7
:103EEC00F9121344740C12176AAC82AD83EFA2E082
:103EFC00E433F9AA0AAB0B1205AC85188285198339
:103F0C00AC82AD837A0C747025081249C870558543
:103F1C001882851983AA82AB8312117C750800E57F
:103F2C000875F003A4F8A9F0851882851983E58239
:103F3C0028F8E583124731124546EC4D601D888206
:103F4C008983A3A3E0F50E750F00780E121989AAC8
:103F5C000AAB0B12080A74021217350508E508C3E0
:103F6C00940440BBEFA2E1500C900780E0F9AA0A40
:103F7C00AB0B12081074046E702A900C64E064028F
:103F8C007022900794E060047A0180027A00900716
:103F9C0081E06004780480027800E84AF9AA0AAB50
:103FAC000B12066C790074341217357F080218480E
:103FBC0074F0121776EAFEEBFF8C088D09750A0A6D
:103FCC00E9600C14600914602E14607F02406212C8
:103FDC00118EE9F50AC3940A507CE5084509607610
:103FEC00750E06750F00780E121989EEFCEFFD1296
:103FFC00490C121735805F750B00750E06750F0096
:10400C00780E121989EEFCEFFDE50B75F00EA4F895
:10401C00A9F074A228FA740739FB12102674021244
:10402C001735E9601B850B0AE50AC3940A5027E58E
:10403C000845096021AA08AB09A90A121188801643
:10404C00050BE50BC3940A500D80AF121194E9F5E2
:10405C000AC3940A40D9A90A023FB774F41217761E
:10406C00890875091574FF6A700374FF6B70277EDD
:10407C0000AC087A027B00EEF912116AE960037554
:10408C0009000EEEC3940A40E8E50860497ABE7B4D
:10409C0011120A268040120A088A0A8B0BAE0AAF4C
:1040AC000BEE4F602E7C007D00EE2405FAEF340001
:1040BC00FB8E828F8312415E500CAC087A027B001F
:1040CC0012116A750900E508600CEEFAEFFB12118B
:1040DC00BE8003750914A909023E1874F2121776F2
:1040EC00ECFEEDFF740E12176A1245397508157443
:1040FC00FF6A700374FF6B7021750900AC0AAD0B7D
:10410C00EEFAEFFBA909121170E9600375080005BE
:10411C0009E509C3940A503580E2120A088A828B99
:10412C0083E582458360237C007D00E5822405FACB
:10413C00E5833400FB12415E5013AC0AAD0BEEFA72
:10414C00EFFB1211707508008003750814A90802A2
:10415C004F37A3A3A3A3E0F912114CE9C3940A228D
:10416C00C082C08390079AEAF0A3EBF0900780E03E
:10417C00FC7D007A257B00120522900780E0F91265
:10418C000786D083D08202012274EA12177674EC6F
:10419C0012171FEAFEEBFFEE240CF514EF3400F5BA
:1041AC0015EE240AF510EF3400F511EE2405F50E8A
:1041BC00EF3400F50FEE2409F50AEF3400F50BEEA1
:1041CC002403F508EF3400F5098E828F83A3A3E056
:1041DC0024FA700302450224FD700302443114706A
:1041EC000302428014601024FD7003024402147018
:1041FC0003024466024520124565604AE0F5838857
:10420C008212454C880C890DE8450D603985148265
:10421C00851583E0F50E780E12198DEE240BF582C0
:10422C00EF3400F583E0F9850A82850B831245464D
:10423C000A0A0AAB09850C82850D83121774740166
:10424C00121735024520850A82850B831219A0901E
:10425C00079612160D1205BE7402121735E970037B
:10426C000245207901850A82850B83124D5C12056B
:10427C00B80245208E828F83A3858212858313E03A
:10428C0060030243DB850E82850F83E0A2E04003CE
:10429C000243DB7C0E7D007900851882851983AA88
:1042AC0082AB8312102CEE2408F50AEF3400F50BC8
:1042BC00850A82F5831245686019750C06750D0028
:1042CC00780C121989850A82850B83E02410FCA3D3
:1042DC00E0801A12452AEA4B7003024520750C0641
:1042EC00750D00780C121989EA2405FCEB3400FDDD
:1042FC00740212176AAA82AB831249101217358501
:10430C000E82850F83E0A2E25004D2F08002C2F04C
:10431C00A2F0E433F8740C12176AE048F0851082AE
:10432C008511831245686015851082851183E02400
:10433C0010F8A3E03400F98882898380039090738D
:10434C00780C1215EF851082851183124568600F69
:10435C00851082851183E0F510A3E0F511800675B8
:10436C001000751100850A82850B83124568600B5D
:10437C00850A82850B831245398006750A00750BF8
:10438C0000780C1219857810121989780A1219897B
:10439C008514828515831219A08E828F83A31245F2
:1043AC0041740A12176AAA82AB83121182740A1220
:1043BC00173585088285098312454C90082AE8F048
:1043CC00A3E9F07A017B00900780E0F912106E12DD
:1043DC004565700302452012455270030245208545
:1043EC001282851383E0FC7901124D568E828F83E5
:1043FC001217740245201245657003024520E0F542
:10440C00838882A3A312454C890BE8450B700302E9
:10441C0045208E828F83A3E0FC7902124D56888250
:10442C00850B8380CB7C007D00EE2404FAEF3400F6
:10443C00FB850882850983E0F912114CE9F8C394D5
:10444C000A4003024520AC10AD117A0475F006E861
:10445C00A42425F912133E024520900795E0600E26
:10446C00900C67E0F9850882850983024277900CED
:10447C0064E07004790580ED12452A8A0C8B0DA836
:10448C000CA90DE82404F50CE93400F50D8E828F8F
:10449C0083A3A3A3A3A3A3A3E0A2E05036E849609F
:1044AC0073850C82850D83E0FE6028850A82850B5E
:1044BC0083E05410701D740E12176AAC82AD83E841
:1044CC002405FAE93400FBEEF912114CE970047979
:1044DC00038092AC0EAD0F850C82850D83E0F91232
:1044EC004D561211CA124565602A12455260257C40
:1044FC000079000243F5120684E97018900829E04F
:10450C00640170081211A6900829E4F07950121376
:10451C004A12119A74141217357F0E021848850826
:10452C0082850983E0FAA3E0FB120A0822E0F50A6F
:10453C00A3E0F50B22A3A3A3A3A3E0FCA3E0FD221D
:10454C00E0F8A3E0F922E0F5838882A3A3E0F8A3C6
:10455C00E0F9E8FEE9FFEE4F2290079AE0F8A3E0BD
:10456C00F9E8492274F412177674F212171FEAFE56
:10457C008C0B75F006E9A42420F5088518828519A2
:10458C0083AC82AD837A0E1249C8704A7C061246FF
:10459C00ED7043740C12176A12454CE8F509E50BE3
:1045AC006005EE42098004EEF45209850982AA8264
:1045BC00E86A7001E9601B740C12176AEAF0A3E454
:1045CC00F0851882851983AC82AD837A0EA9081206
:1045DC00133E790180027900023E1374F2121776B1
:1045EC0074E612171F890A8A088B09ECFEEDFF741A
:1045FC000C12176A1249BB60030246A17C0679FFB4
:10460C00740C12176A1246F560030246A1747025E9
:10461C000AF50B851882851983AC82AD837A0C124E
:10462C0049C860030246E6851882851983AA82ABC5
:10463C008312117CE508450970217C0C7900124627
:10464C00EF60030246E67C0C7D00790085188285BC
:10465C001983AA82AB8312102C806185188285196C
:10466C0083AC82AD83AA08AB091211768A0C8B0D30
:10467C00A80CA90DE849702CEE4F6019851882859D
:10468C001983AC82AD837A007B00121176EAF8EBC9
:10469C00F9EA4B70047900804388828983E508F03D
:1046AC00A3E509F012476DFAEE6A7001EF602BEE8C
:1046BC00F04F700888828983E4F0A3F08518828516
:1046CC001983AA82AB8312117C851882851983AC5D
:1046DC0082AD837A0CA90B12133E7901741A024F26
:1046EC003479FF851882851983AA82AB83121092C4
:1046FC00E92274F71217767F00EF75F003A4F8A97E
:10470C00F0EC28F8ED124731E06A7003A3E06B700F
:10471C0006E8FAE9FB800B0FEFC3940440DB7A0048
:10472C007B00024A6639F9888289832274F7121752
:10473C00767E00EE75F003A4F8A9F0EA28F8EB12E7
:10474C004731E0F4FCA3E0F4FD88828983ECF0A30C
:10475C00EDF012476DF4F00EEEC3940440D5024A0E
:10476C0066E82402F582E93400F583E02274EE1247
:10477C00177674F412171FEAFEEBFF8C0A8D0B747C
:10478C001E12176AE0F50CA3E0F50D742012176ADF
:10479C00E0F508A3E0F509742212176AE0F510A3FE
:1047AC00E0F511EE4F7005790A02489E12118EE960
:1047BC00F50EC3940A4023750F007C0679FFE50FB4
:1047CC0075F00EA4FAABF0749C2AFA74073BFB123A
:1047DC0046F970030248A8850F0EE50EC3940A40F3
:1047EC000302489C75F006E50EA4F50FEEFCEFFDF8
:1047FC007A0E74201248B9E50A450B600BAC0AAD71
:10480C000B7A1B74211248B9E50C450D600BAC0CEE
:10481C00AD0D7A1B74221248B9E5084509600BAC42
:10482C0008AD097A1074231248B9E5104511601BC4
:10483C00AC10AD117A1074241248B9742412176A92
:10484C00AC82AD837A0474251248B97C0C7D007956
:10485C00FF124FC57A0C7470250EF912133E7508B1
:10486C000E7509007808121989EEFCEFFDE50E753E
:10487C00F00EA4F8A9F0749C28FA740739FB1249BD
:10488C0010121735900828E060031211D61211C4CB
:10489C00A90E740C1217357F0A021848050FE50F84
:1048AC00C3940A50030247C6750E0A80E3250FF91C
:1048BC0012133E2274F412177674F212171FEAFECA
:1048CC00EBFFE9C3940A5004EE4F70047902802D7B
:1048DC008518828519831249BBF508701E750A0666
:1048EC00750B00780A121989740212176AAC82AD22
:1048FC0083EEFAEFFB124910121735A908023E138A
:10490C00AA08AB0912101474022274F4121776EA76
:10491C00FEEBFF750800750A06750B00780A121974
:10492C0089EEFCEFFDE50875F00EA4F8A9F0749C77
:10493C0028FA740739FB1210267402121735E96035
:10494C0004A908800B0508E508C3940A40C8790A35
:10495C00023E1874F712177674F012171FEAFEEB6A
:10496C00FF750800851882851983AC82AD837A1097
:10497C0075F006E508A424231249C8701F7C101298
:10498C0046ED7018EEFCEFFD851882851983AA821E
:10499C00AB8312058EE97004A908800B0508E508A5
:1049AC00C3940A40BF790A7410121735024A66ACD8
:1049BC0082AD837A0E75F006E9A42420F912134413
:1049CC00E92274F7121776750800E50875F00EA445
:1049DC00F8A9F0749C28FE740739FFEEFCEFFD7A01
:1049EC000E75F006E5081249C5602C7C067D007931
:1049FC00FFEEFAEFFB12102C7C067D0079FFEE2403
:104A0C0006FAEF3400FB12102CEE240CF582EF3476
:104A1C0000F583E4F0A3F00508E508C3940A40AA66
:104A2C00900828E060031211D61211C4802C74F780
:104A3C001217767E007F007C0679FFEF75F00EA4CE
:104A4C00FAABF0749C2AFA74073BFB1246F970011E
:104A5C000E0FEFC3940A40DFEEF97F010218487481
:104A6C00F71217767E00EEF91211AC0EEEC3940A13
:104A7C005003E960F180E374F312177674CB1217CC
:104A8C001FE9FF75F006A4F50874202508FE7427AD
:104A9C0012176AAC82AD837A0EEE1249C86003021B
:104AAC004B857C0679FF742712176A1246F5600352
:104ABC00024B857C0E7D0079FF742712176AAA823F
:104ACC00AB8312102C7C1B7D0079FF740C12176ABF
:104ADC00AA82AB8312102C7C0C7D0079FF85188286
:104AEC00851983AA82AB8312102C742712176AAC17
:104AFC0082AD837A0EEEF912133EE9F509740C12AD
:104B0C00176AAC82AD837A1B7421124B94FE740C21
:104B1C0012176AAC82AD837A1B7422124B94F50A7D
:104B2C00740C12176AAC82AD837A107423124B94F6
:104B3C00F50B740C12176AAC82AD837A10742412C4
:104B4C004B94F50C740C12176AAC82AD837A047416
:104B5C0025124B94F508851882851983AC82AD8398
:104B6C007A0C74702FF912133EE9F8EE450A450BD6
:104B7C00450C45084842098003750900A90974359C
:104B8C001217357F050218482508F912133EE92241
:104B9C0074F7121776E9900780F012119A024A66A0
:104BAC0074F212177674FB12171F8A088B09EB54D8
:104BBC00807003024C50900780E0F91210568A0A5C
:104BCC008B0BA80AA90BE8FEE9FFE849606CEE2400
:104BDC0004F8EF3400F98E828F83E024506038148F
:104BEC00600624E1604A804B88828983E070448EA1
:104BFC00828F83A3A3A3A3A3A3A31219A08E828F36
:104C0C00831245418E828F83A3A3124D5C121158DF
:104C1C007402121735801C88828983E0641E70131D
:104C2C0079008E828F83A3A3124D5C1211528003E4
:104C3C00121164EEFAEFFB121044AA08E509648025
:104C4C00FB024D51EAA2E04003024D4D90082A129E
:104C5C004539740312176A85820C85830D780C1202
:104C6C001989750C02750D00780C121989750CB91F
:104C7C00750D90780C1219897CFF7DFF7A017B00F1
:104C8C001206DE7406121735024D35E4F50CF50DDF
:104C9C00780C121989740412176A85820C85830D9D
:104CAC00780C121989740412176A85820C85830D8D
:104CBC00780C121989740912176A1219A07902EE6C
:104CCC00FCEFFDAA0AAB0B1207FE7408121735E9AC
:104CDC007035851882851983E0FA740112176AE021
:104CEC00F9EA2400F50CE439F50DEA450D60187865
:104CFC000C1219898E828F83124542AA0AAB0B12B1
:104D0C0011587402121735E4F50CF50D780C1219C4
:104D1C0089740512176A1219A07CFF7DFFEEFAEF59
:104D2C00FB1206EA74041217358A0C8B0DAE0CAF0D
:104D3C000DEE4F6003024C97E5086401FAAB098055
:104D4C00047A007B007405024F3485088285098340
:104D5C00E0FAA3E0FB22C082C083900780E0F98ACE
:104D6C00828B83A3124D5C12081002418EC082C04C
:104D7C008374FF12171F1211A0E9C39402851882C5
:104D8C00851983400474028002740AF0AC82AD83EE
:104D9C007A01790512069C740112173502418E7442
:104DAC00F212177674E812171FEAFEEBFF890A8CD1
:104DBC00088D097C187D007900124FCDEEF0A3EF21
:104DCC00F0900782E0C0E0740212176AD0E0F09015
:104DDC000783E0C0E0740312176AD0E0F0900C690E
:104DEC00E0C0E0741712176AD0E0F0741512176A5D
:104DFC00E054FEF8A3E0F9900C68E0A2E0E433FA8A
:104E0C00E84AF8741512176A124F43A2E15004D203
:104E1C00F08002C2F0E854FDFAA2F0E43333F8EA71
:104E2C0048F8741512176A124F43A2E35004D2F0DB
:104E3C008002C2F0E854F7FAA2F0E433F50C750DD9
:104E4C00007403780C12170C124F3C12176A124F95
:104E5C0043A2E45004D2F08002C2F0E854EFFAA26C
:104E6C00F0E433F50C7404780C12170C124F3C124E
:104E7C00176A124F43A2E55004D2F08002C2F0E848
:104E8C0054DFFAA2F0E433F50C7405780C12170C0D
:104E9C00124F3C12176A124F43A2E25004D2F08018
:104EAC0002C2F0E854FBFAA2F0E433F50C74027879
:104EBC000C12170C124F3C12176AE8F0A3E9F09091
:104ECC000783E0601B750C10780C1219897C847DAB
:104EDC0007740612176AAA82AB831249101217358F
:104EEC00900794E06011E50A6009741512176AE0E6
:104EFC004402F0780180027800741412176AE048BA
:104F0C00F0900781E0600478048002780074141239
:104F1C00176AE048F0AC08AD09851882851983AA98
:104F2C0082AB831205B274181217357F060218482B
:104F3C00EA450CF8741522E8F0A3E9F0900C68E04F
:104F4C002274F312177674E512171FEAFEEBFF8C2E
:104F5C00098D0A742812176AE0F50C75F006E9A49D
:104F6C00F87408650A700474228002742128F50B09
:104F7C007C1B7D007900124FC57A1BA90B1249C905
:104F8C007032741A12176AE024F9C3940A5025E59A
:104F9C000CF50B780B12198D740112176AAC82ADDB
:104FAC0083E509A2E0E433F9EEFAEFFB1205C474D1
:104FBC0001121735741B024B8C124FCDAC82AD8392
:104FCC0022851882851983AA82AB8312102C85182E
:104FDC00828519832274F7121776120882750800DD
:104FEC00E50875F00EA4F8A9F0749C28FE74073936
:104FFC00FF7C0679FFEEFAEFFB1246F97009EEFA28
:10500C00EFFB79001208880508E508C3940A40D024
:10501C00024A66C082C0839061907404F0A3744805
:10502C00F0A3E4F09061807440F09061BC7407F0E0
:10503C009061877469F09061B67416F07900120B68
:10504C00047902120B0A90225CE493F46006E49358
:10505C00F9120AE07905120DF8025461C082C0837E
:10506C00E9540FF9906185E0696012E5C6548044FB
:10507C0049F5C6E59E547F644970F8E9F053C68043
:10508C00E59E547F70FA02546174F7121776E5A806
:10509C00FE53A87E120AECC2BA539AFEC289759BC3
:1050AC0000C2C2120AF275A91175B905120AF8D21A
:1050BC00BA439A0174805E42A80259EEC082C08342
:1050CC00906181E4F0A302545E75E900759100755E
:1050DC00BF00020122C082C083906181E4F0A374FE
:1050EC00C0F0A3E4025460C082C08374F812171F8E
:1050FC009003C41258D0E84970030251AA9003C41B
:10510C00E0544060237908851882851983AA82AB04
:10511C0083120BFA851882851983AA82AB83120835
:10512C00A69003C4E054BFF0E054806010790C7A70
:10513C00807B05120BFA9003C4E0547FF0E0A2E0F0
:10514C00500879001251B254FEF0E0540260087914
:10515C00011251B254FDF0E0540460087900125170
:10516C00BD54FBF0E05408600879011251BD54F7AE
:10517C00F0E05410600879021251BD54EFF0E05485
:10518C0020600879031251BD54DFF0A3E054016094
:10519C000D120B161208B89003C5E054FEF07408FB
:1051AC00121735025461120B041208AC9003C4E0C0
:1051BC0022120B0A1208B29003C4E022C082C083F0
:1051CC00E9600514602A804F90619A7433F0A374DF
:1051DC0055F09061A0743AF090055CE064017009A0
:1051EC00C2919003C67467802D9003C674618026AB
:1051FC0090619A743FF0A3745AF09061A0747FF0A0
:10520C0090055CE064017009D2919003C6747180C2
:10521C00059003C6746AF0025461C082C083E960D1
:10522C000B14600D14600F146011802090226080AC
:10523C00159022618010902262800B90055CE064D6
:10524C000160F3902263E493906186F002546174E0
:10525C00EE12177674F412171F851882851983AC19
:10526C0082AD837583907582477404121632902236
:10527C006093F460030253ED907808E0C3940250FD
:10528C00030253CD740412176AAC82AD8375838FFD
:10529C007582C47408121632F97AFF7BFF7FFF7E89
:1052AC00008982858210801874086E700302538204
:1052BC0074096E7003025382740A6E700302538277
:1052CC00E510C333FCE433FD740412176AE5822C39
:1052DC00F582E5833DF583E0F50EA3E0F50F8E082E
:1052EC007509007402780812170C74482508FC74B0
:1052FC00783509FD8C828D8378081215EF74087847
:10530C000812153085080C85090D8C828D83780860
:10531C001215EF74187808121530E50C4508F508CD
:10532C00E50DF509C3E50E9508E50F95098C828D01
:10533C008378081215EF8C828D8378081215EF7420
:10534C001878084014121530E50C4508FCAD0DE535
:10535C000EC39CFCE50F9D800F121530E50C450823
:10536C00C3950EFCE50D950FFDC3EC9AED9B500615
:10537C00ECFAEDFBEEFF0EEEC3941350030252B4A5
:10538C0074FF6A700374FF6B602D8F0874027808C9
:10539C0012170C744812607C74783509F583780800
:1053AC001215EF851882851983E5822510F582E5A3
:1053BC0083125E09E508F009E9C394045003025214
:1053CC00A57508017509007808121989740212175D
:1053DC006AAC82AD837A987B081212187402121789
:1053EC0035740C1217357F0A021848C082C083909E
:1053FC006186E0F8902263E493687009902262E47D
:10540C0093906186F09061AE7468F0A3746AF0902A
:10541C00624574FBF0A304F053F4FD43FE029005C7
:10542C005C7401F09061A0E0643A70047900800231
:10543C007901120B04025461C082C08390050EE006
:10544C006401700A900513E06004790C8002790005
:10545C008003F0A3F0D083D082020122C082C083EB
:10546C0075E1F1900511E0604D1460081460511461
:10547C0060498051120B28900507E0F97A087B05EA
:10548C00120D7A90906B12160D120DB090902B128B
:10549C00160D120D86900512E0F9120D927901127B
:1054AC000DEC900505E024161255F67440F0A3742B
:1054BC000BF07900809F120B2E80BC120B3480B73E
:1054CC00120B3A80B2791280EB74F412177675D9FC
:1054DC000D9004F6E0A2E0E4331313F81255624881
:1054EC004401F5D978001255E040FB780088087427
:1054FC00F712607C74041255EA40F275E195900441
:10550C00F6E0F97AF77B04120D80900B9A74B6F0E2
:10551C00A3740A12560512562512561C12575D1208
:10552C00556C78081215EF909067780812157B90DF
:10553C00903378081215C91255F078081215FE90A0
:10554C000505E024141255F67413F09003C274028E
:10555C00F07F04021848900507E0C4333354C0228E
:10556C00900505E0F8A3E0F5838882A3A32274F6E6
:10557C0012177612572E8AD978001255E040FB7814
:10558C000080061256941257E0E8C39940F5125762
:10559C00201255E040FB78008008126078740512E8
:1055AC0057E0E8C39940F375E195900B9A74C2F0FB
:1055BC00A3740A12560512560F12160D1255F0123C
:1055CC001619900505E024141255F67412F0900388
:1055DC00C20259CB880874082508F5827405125943
:1055EC003C940622900505E0240EF8A3E01255FD2C
:1055FC00223400F9888289832212574674BCF0A3A6
:10560C00740A2212562512561C125761909073225E
:10561C00F0A374D4F0A3740A221256292212562D28
:10562C0022F0A37466F0A3740C2274F6121776128F
:10563C0056891255624402F5D978001255E040FBA8
:10564C00780080061256941257E0E8C39940F5751D
:10565C00E195900B9A12569FF0A312569F12561278
:10566C0012160D1255F0121619900505E02414129D
:10567C0055F67414F09003C274040259CD900517BA
:10568C00E0F9740729F5D922880874182508F582E1
:10569C0074052274CE1256AC1256ACF0A3740A22C6
:1056AC00F0A3740AF0A374CE2274F6121776125774
:1056BC002E74064AF5D978001255E040FB7800802C
:1056CC00061256941257E0E8C39940F5125720126F
:1056DC0055E040FB7800800812607874051257E0A2
:1056EC00E8C39940F375E195900B9A74C8F0A374D4
:1056FC000A12573C12560F12160D1255F0121619AB
:10570C00900505E024141255F67415F09003C2743C
:10571C00030259CD90053712568C74044AF5D9788A
:10572C000022125689900507E0C4333354C0FA2284
:10573C001257467466F0A3740C2212574A22125761
:10574C00577466F0A3740C1257572212562DF0A3FF
:10575C002212576122F0900BA87466F0A3740C12FD
:10576C00574A7466F0A3740C125629F022C082C0FA
:10577C008312556CA3A3A3A3E402545E74F712170F
:10578C00761262BEF8740339F9E82405FAE934009C
:10579C00FB8A828B8312602D88828983A3A3A3A3A7
:1057AC00A3A3A3A3A3ECF0A3EDF088828983A3A306
:1057BC00A3A3A3A3A3E024FFF8A3E034FFF98A82F8
:1057CC008B83E8F0A3E9F00259EE88087460250891
:1057DC00F5827405125F54F5D90822EAFEEBFF90AE
:1057EC0061D0E0F87480C398FAEE2483221257FF3C
:1057FC00940422125E17E0F5D90AEAC32274F61259
:10580C001776EAFEEBFF9061D0E0707575D90E75D6
:10581C00D90375D9047A008A08EE250812638C2402
:10582C008C1258A240F17A008A08EE250812638C7B
:10583C0024841257F940F175E1957908EE248C1205
:10584C00589B24841258927C008C82AA82C3E49ABE
:10585C00F895E0F9EE28F8EF39F9E8248BF582E9B0
:10586C00125F50C0E0EE2A12638C24ABF582E91271
:10587C005E09D0E0F00CECC3940840CD125958806E
:10588C000279000259CEFAEF3400FB120BEE221211
:10589C0058927904EE221257FF940822C082C083DA
:1058AC0075D90275D90375D90575E195EA2470F59A
:1058BC0082EB1258CDEA2472F582EB12596A02542B
:1058CC0061125E1A1258D422E0F8A3E0F92274F6A1
:1058DC00121776EAFEEBFF90056074061259461219
:1058EC0019897C017903125C7212173575D906750A
:1058FC00D903780012592C40FB75E1959003C2E056
:10590C0064087017EE2470F582EF1258CDEE2472F5
:10591C00F582EF125E09E8F0A3E9F079010259CEA5
:10592C00880874602508F582740512593C94052288
:10593C00125E1AE0F5D908E8C322F0750860750903
:10594C000578082275E1957904120DB6EE2470F5F0
:10595C0082EF125E1A1258D4EE2472F582EF125EA8
:10596C001AE8F0A3E9F079012274F6121776EAFE30
:10597C00EBFF9061D0E070437901900560740BF0FF
:10598C009003C2E064077017750860750905780804
:10599C001219897C010909125C7212173579057488
:1059AC000129F5D975D903780080031257D6E8C3BD
:1059BC009940F875E195125958800279008003746A
:1059CC0001F07F0202184874F7121776EAFEEBFF1B
:1059DC0075D90375D90375D90DEE24DE1259F3125E
:1059EC0059507F01021848F582EF125F54F5D92205
:1059FC007F030218487401250AF5D975D90378007C
:105A0C002274F5121776125A826004780480027898
:105A1C0000E8240BF8EAC3984041750A0990056028
:105A2C007409F07908125A6B6014750860750905D1
:105A3C007808121989125C6A121735750A0D125AF8
:105A4C000180031257D6E8C3950A40F775E19579A2
:105A5C0004120DB6125BE77901800279008091EE99
:105A6C0024E3FCEF3400FD7A617B05120BE885081A
:105A7C0082850983E0221257E7F8EF126021F58343
:105A8C00E02274F31217768A088B09125C7DFAE512
:105A9C00082483F50AEB125B4C60047804800278CE
:105AAC0000E82408F8EAC3985003025B45750C061D
:105ABC00900560740CF09003DFE0900561F07402C7
:105ACC00C0E0F97CE07D037A627B05120BE8D0E044
:105ADC00F97CE27D03120BE8850A82850B83E0607A
:105AEC001C750A60750B05780A1219897C067903F6
:105AFC00AA08AB09125C72121735750C0A740125D1
:105B0C000CF5D975D90378008009880A7460250AC8
:105B1C001257DCE8C3950C40F175E1957904120D30
