:020000040000FA
:0600000002011D02206A4E
:030013000227239E
:03002B00022707A2
:030033000226F7AB
:03003B0002278910
:030053000220E0A8
:03006B000226D496
:03007B000226E773
:10008300021F5BE5C754F84401F5C779012200005C
:100093000080FB120086B90003020107E47921788E
:1000A30008B800028004F709D8FCE479297802B87B
:1000B30000028004F709D8FCE490028178D5790B1B
:1000C3008002F0A3D8FCD9FA781A90014D7A01BACC
:1000D30000028007E493A3F608DAF9900D55AA828B
:1000E300AB8390014E789A79048015E493A3AC8294
:1000F300AD838A828B83F0A3AA82AB838C828D83A8
:10010300D8E9D9E77582D87583D1740312012F75A5
:100113008291758300740012012F75D00075813FA1
:10012300751881751902759F00020096C09FF59F8F
:10013300E473D09F22D083D082C09FE493C0E07445
:100143000193C0E0740293F59F2201FF0000B40005
:100153000028002800283075A000A000A000A000FF
:1001630000080008E001F00010001000100010006B
:100173001000100050005000500010001000D00775
:100183000000000000000F000100050030750700AB
:100193001000010081FF0000FFE5060307EB06FFE7
:1001A30002020208025000A0000000E80302B3921A
:1001B300010000769202B792010000AA0D02BD92DF
:1001C300010000B20202B792010000AB0D02BF9220
:1001D300010000C80202B792010000AC0D02C192F7
:1001E300010000CA0202B792010000AD0D02C392E2
:1001F300080000CB0202B792010000AE0D02C592C7
:10020300010000AF0DFF0100FF2002B392010000C7
:10021300799202B792010000130E02C79200000008
:10022300000002BB920300001803210D210D210DD4
:10023300210D210D210D210D210D210D210D210D4B
:10024300210D210DF70F0F10F10FFFFF0A4163631B
:10025300656C20456E61626C6500000214004163A9
:1002630063656C2052616E67650000101010416376
:1002730063656C20582D436F6F7264696E6174659A
:100283000000416363656C20592D436F6F7264698D
:100293006E6174650000416363656C205A2D436F82
:1002A3006F7264696E617465000002B392010000AD
:1002B300859202B792010000560E02CF920300000E
:1002C3007A0702B992010000570E02B792010000AB
:1002D300650E02CD92010000660E02B99201000084
:1002E300680E02B792010000750E02CB9200000067
:1002F3007B0702BB920300007E0702B99201000054
:10030300780E02B792010000760E02D79200000029
:100313007C0702BB92030000840702B9920100002C
:100323008C0E02B792010000770E02AB9200000020
:100333007D0702BB920300008A0702B99201000005
:10034300A00E110199010F1264040102B39201007E
:1003530000889202B792010000510F02A59201009A
:1003630000520F02BB92030000980702C9920100DA
:1003730000530F67126D125B1261123690758F8BEB
:100383008F0E094F4C503432352D303030304445C8
:100393000201054F4C503432352D30303030444556
:1003A300464748494A4B4C00DF120000CD12D31296
:1003B300E5120313FD12091300003291B08E0A0AED
:1003C30002B3920100007F9202B792010000C80FAE
:1003D30002A9920300005E0902B792010000C90F4F
:1003E30002AD920300005F095D8FAA91DE911C1C90
:1003F30002B3920100007C9202B792010000F80F51
:1004030010028F0200007C0902BB920300007609F0
:1004130002B792010000F90F10F28E0200007D096D
:1004230002BB920300007009858E1202B392010091
:1004330000829202B792010000341002D3920100AD
:1004430000B50902BB92030000B609698F020202DC
:100453000202010D000000100102B392010000949A
:100463009202B7920100005710029F92010000C848
:100473000902B7920100005810029D920100008109
:100483008F02B7920100005910029B92010000D61F
:100493008F02B7920100005A100297920100002EBA
:1004A3009002B7920100005B1002999201000032A2
:1004B3008F01E803053F10FF0001307503020106B9
:1004C3000000000000000000000000000000000029
:1004D300000000000000000000000000FFFF060015
:1004E300800CE803120138B1C303120138C8C303F7
:1004F300120138F7C30312013830C403120138580C
:10050300C40312013886C4031201389DC4031201C7
:1005130038B4C403120138CAC403120138F1C40346
:1005230012013804C5031201381AC5031201382D0C
:10053300C50312013852C50312013827A402120160
:100543003826A5021201385BA5021201387CA502E8
:100553001201388CA502120138ADA502120138B977
:10056300A60212013886A702120138F9A702120166
:10057300387FA802120138C2A802120138F9A80272
:100583001201387FA90212013851AA02120138AFB1
:10059300AA02120138C7AA0212013841AB021201A2
:1005A3003844AB0212013847AB02120138EEAB02FA
:1005B30012013806AC0212013836AC021201385669
:1005C300AC0212013844AD02120138FAAD02120135
:1005D30038D98903120138018A031201382F8A039B
:1005E300120138668A03120138CE8A0312013817C2
:1005F3008B03120138628B03120138A08B031201A3
:1006030038DD8B031201380B8C03120138B28C03D3
:10061300120138BC8C03120138C98C03120138FC57
:100623008C03120138BE8D03120138CA8D031201E7
:1006330038E28D03120138EC8D03120138B8CC0374
:10064300120138C6CC03120138DECC03120138F68E
:10065300CC031201387DB2011201381BB301120120
:100663003893B301120138A8B401120138E2B4017E
:100673001201388BB50112013860B601120138C47A
:10068300B7011201381BB801120138A2B8011201D7
:100693003889B901120138D6B90112013864BA0197
:1006A30012013888BA011201385DBC011201389E6B
:1006B300BC01120138C0BC0112013841BD01120155
:1006C300382BBE01120138F1BE01120138EAE902EA
:1006D300120138BCEA0212013865EB02120138A894
:1006E300EB0212013835EC02120138C1EC0212019F
:1006F30038A2ED02120138D1ED02120138CDEE021B
:1007030012013815EF0212013817F0021201385B9B
:10071300F00212013881F00212013861D003120194
:1007230038197C001201382F7C00120138557C00E7
:100733001201387D7D00120138877D00120138E0F7
:100743007E00120138E07F001201387DF6021201AB
:1007530038B2F702120138E5F7021201382FF80216
:10076300120138EDF90212013820A3011201388376
:10077300A301120138C8A401120138D8A40112013F
:1007830038FBA40112013846A501120138EBA5017B
:10079300120138E1A601120138ABA7011201382377
:1007A300A90112013865A90112013803AA01120136
:1007B3003850AA0112013876AA0112013864AC013B
:1007C30012013869AC011201384AAE011201389E98
:1007D300AE0112013800AF0112013828AF01120136
:1007E30038CCAF011201388EB001120138BFB0010D
:1007F300120138C2B0011201380AB1011201384C9A
:10080300B101120138B3B10112013866B20312010A
:100813003879B20312013892B203120138DDB20300
:10082300120138B8B30312013847B40312013892E6
:10083300B403120138F42700120138002800120112
:10084300383928001201387E280012013835290072
:10085300120138BB2900120138202A001201384C3A
:100863002A00120138852A00120138992C0012013E
:1008730038752E00120138603000120138973100AC
:10088300120138F73300120138E33400120138291A
:10089300360012013836370012013853370012017F
:1008A300388B3700120138A537001201380D380094
:1008B300120138A73C00120138483D001201389953
:1008C3003D00120138C03D001201380E3E001201F6
:1008D300382C3E00120138803E00120138593F0087
:1008E300120138E04000120138684100120138005B
:1008F30080031201380A8003120138D580031201E4
:1009030038F080031201381681031201385A81032B
:10091300120138928103120138BB8103120138346A
:1009230082031201384982031201385E82031201E5
:1009330038958203120138A98203120138DA82033F
:100943001201381483031201384083031201386EF5
:100953008303120138B98303120138578403120148
:1009630038A08403120138CA8403120138EF8403C8
:100973001201387597031201383F98031201382288
:100983009903120138989903120138DA9903120175
:1009930038079B03120138878C02120138B08C028E
:1009A300120138C98C021201380E8E02120138EC82
:1009B3008E021201380B8F02120138988F02120136
:1009C30038DB8F02120138289102120138C79102D5
:1009D300120138469402120138DD9402120138B133
:1009E3009502120138939602120138FF9702120101
:1009F30038929802120138FCC60312013865C70306
:100A0300120138B9C703120138E0C703120138A332
:100A1300FB0212013810FC021201385BFC021201C6
:100A23003850FD021201384CFE0212013836FF0223
:100A330012013829D2021201386BD2021201384551
:100A4300D3021201381ED40212013819D502120141
:100A530038F8D50212013864D6021201382BD702B6
:100A630012013896D702120138FDD7021201382835
:100A7300D80212013899D8021201382CD902120176
:100A83003895D902120138AAD902120138F2D902D3
:100A93001201380BDA0212013870DA0212013873CC
:100AA300DA02120138E0A90312013808AA0312017D
:100AB3003846AA0312013804AB031201386FAB03A3
:100AC3001201388BAB03120138B3AB03120138E3C5
:100AD300AB03120138F2AB031201386CAC03120101
:100AE3003892AC03120138DA92011201387794017B
:100AF3001201385D96011201382797011201386EF1
:100B03009701120138B59701120138C797011201F5
:100B1300380798011201383698011201388298017A
:100B2300120138BA9801120138E8980112013839D4
:100B33009901120138C89901120138B69C011201BA
:100B430038909E01120138CC9E0112013826A00173
:100B53001201386DA001120138E2A00112013830F0
:100B6300A10112013851A101120138C3A1011201DF
:100B73003806B80212013823B802120138BDBD028B
:100B8300120138BFBE0212013839C002120138E720
:100B9300C0021201380156001201384A56001201F0
:100BA30038775600120138AA5600120138B756009A
:100BB300120138C35600120138D55600120138AA63
:100BC30057001201380858001201383D580012012D
:100BD30038D95900120138265A001201384A5A00EE
:100BE300120138B75A001201385C5B001201381841
:100BF3005C00120138975C001201385B5D00120142
:100C0300386A5D00120138EB5D001201388A5E001C
:100C1300120138BC5E00120138575F00120138B56B
:100C23005F00120138EF5F0012013870600012019B
:100C330038396100120138E261001201386962003B
:100C4300120138C162001201382263001201384BCD
:100C530063001201380164001201384B6500120170
:100C6300388E6500120138AB6500120138CA650081
:100C73001201381566001201383A66001201386312
:100C83006600120138D2660012013814670012019F
:100C930038186800120138B268001201387E690002
:100CA30012013897690012013865AE02120138B893
:100CB300AE02120138C4AE0212013899AF0212011A
:100CC30038C0AF02120138FBAF0212013867B0021D
:100CD3001201389BB002120138D4B002120138EC71
:100CE300B00212013845B1021201385EB10212019D
:100CF30038A7B102120138BAB102120138D4B102D5
:100D0300120138EAB10212013806B3021201381790
:100D1300B40212013864B50212013849B602120155
:100D230038F07F0012013822EA0112013856EA0135
:100D3300120138C1ED011201380BEF01120138D550
:100D4300EF011201385FF1011201383AF201120189
:100D53003874F20112013897F201120138D9F20105
:100D6300120138E2F2011201382CF3011201383674
:100D7300F301120138E2F301120138B6F401120152
:100D8300380AF5011201386CF501120138BFF5017B
:100D9300120138EEF5011201382DF601120138C99E
:100DA30069001201382372001201382972001201FE
:100DB30038E47700120138CA7B00120138C7A20356
:100DC3001201383DA30312013853A30312013890D3
:100DD300A303120138C8A30312013845A403120167
:100DE3003880A403120138FBA40312013837A5038A
:100DF30012013840A5031201384CA50312013866CD
:100E0300A5031201388BA503120138A1A503120112
:100E130038CAA5031201382DA6031201381785031A
:100E23001201382A85031201384485031201386DF3
:100E33008503120138B08503120138EF85031201CF
:100E4300382D8603120138928603120138A78603D0
:100E5300120138B28603120138BF8603120138D655
:100E63008603120138E48603120138EF8603120168
:100E730038FB86031201380E8703120138198703E2
:100E83001201383C8703120138E58703120138F554
:100E930087031201380F88031201382C88031201CB
:100EA300384888031201386D8803120138778803A4
:100EB3001201388B8803120138AA88031201380BF8
:100EC30089031201381189031201381789031201AA
:100ED300381D89031201382989031201385C8903FB
:100EE300120138A9CF011201382BD001120138D4D5
:100EF300D0011201381CD2011201382AD401120187
:100F03003810D50112013845D50112013867D501D2
:100F130012013810D601120138E0D7011201380945
:100F2300D80112013881D801120138B3D801120156
:100F330038C0D8011201380BD9011201382FD90159
:100F430012013880DB011201388ADC01120138E614
:100F5300DC0112013826C10112013837C201120126
:100F6300381BC30112013825C30112013847C301DD
:100F730012013853C301120138F7C4011201382496
:100F8300C5011201383AC6011201388FC601120198
:100F930038DEC701120138B3C8011201380FC90185
:100FA3001201387AC901120138AFC901120138F2AE
:100FB300C901120138BCCC01120138D4CC01120191
:100FC3003865CD0112013873CD01120138C0CD014E
:100FD300120138CECD011201383ACE01120138B5D3
:100FE300CE011201380CCF01120138099902120106
:100FF300382B99021201383C9B02120138FB9D02E7
:10100300120138259F02120138E39F02120138CFE3
:10101300A002120138F8C1031201381DC2031201E4
:101023003893C203120138CDE202120138D6E2022C
:10103300120138DFE202120138B7E3021201386805
:10104300E50212013898E502120138C3E5021201E4
:1010530038F3E5021201381EE60212013852E602A5
:101063001201387EE602120138C1E602120138ECA1
:10107300E60212013833E70212013888E70212014F
:1010830038CAE70212013824E8021201384FE80295
:101093001201389EE802120138CEE802120138F933
:1010A300E80212013827E9021201384AE902120163
:1010B30038EAD00312013816D10312013843D103A1
:1010C3001201384DD1031201385DD103120138F6F4
:1010D300F00212013800F10212013841F10212014B
:1010E300388AF102120138C4F1021201381AF202ED
:1010F3001201383BF20212013844F202120138980D
:10110300F202120138C1F202120138CBF2021201CB
:101113003839F302120138C9F30212013824F402F8
:1011230012013852F402120138DAF40212013819AA
:10113300F5021201384EF50212013860F502120170
:10114300387FF50212013888F5021201384FF60292
:1011530012013813C90312013807C0031201383DC5
:10116300C00312013871C003120138BEC10312015A
:1011730038CBCF03120138E1CF03120138EBCF0391
:1011830012013835D003120138818E0312013894CD
:101193008E03120138558F03120138948F03120105
:1011A30038B18F03120138EA8F03120138379003E5
:1011B300120138699003120138A09003120138A973
:1011C300920312013867D103120138DBCB031201FA
:1011D30038FECB031201382DCC031201386FCC0338
:1011E3001201385DA603120138B8A603120138D5DF
:1011F300A603120138E9A703120138ADA8031201AF
:101203003893A903120138DAAC0312013811AD0384
:1012130012013828AD03120138D4AD031201386D21
:10122300AE03120138F5AE031201380ACA031201E4
:1012330038B2CA03120138ACC902120138D4C90248
:101243001201383CCA02120138DCCA021201382CDE
:10125300CC0212013896CC0212013857CD0212018A
:10126300380CCE0212013822CF02120138BECF024F
:1012730012013816D00212013854D0021201386F0D
:10128300D0021201387CD102120138BAD102120104
:10129300380FF701120138F6F70112013856F80139
:1012A300120138C2F901120138CAFB011201380DCB
:1012B300FD0112013805FF011201384BFF01120134
:1012C3003809C1021201386BC102120138CEC202C1
:1012D300120138E6C20212013847C302120138CAAA
:1012E300C402120138DCC502120138DFC502120143
:1012F3003884C602120138C7C602120138CAC602B0
:10130300120138A8C7021201384EC802120138511F
:10131300C80212013867C80212013897C8021201C5
:1013230038F1C802120138B6D2031201382F9F03D5
:10133300120138AE9F031201381CA0031201389E1C
:10134300A10312013812B70312013880B703120147
:101353003891B803120138BCB403120138C0B40386
:10136300120138DEB403120138F2B4031201383F1C
:10137300B503120138FCB50312013805B603120197
:10138300380EB60312013817B60312013884B603B8
:10139300120138A5B603120138D8B6031201381565
:1013A30093031201384F9303120138B595031201C9
:1013B30038079603120138449603120138C1960385
:1013C300120138008002120138598002120138B329
:1013D30081021201382A82021201385E820212014E
:1013E300382383021201384E8302120138628302CA
:1013F300120138A28302120138F985021201382141
:101403008702120138948802120138B88802120147
:1014130038DB88021201383B8A02120138CF8A0274
:10142300120138958B02120138188C0212013851BF
:101433008C02120138FACA03120138FECA031201E0
:101443003810CB031201381CCB0312013831CB0304
:1014530012013860CB031201388DCB03120138C55A
:10146300CB03120138D9BD031201382DBE0312017B
:101473003869BE031201383BBF03120138CEBF03E4
:10148300120138619B03120138659B031201389FD7
:101493009B03120138C79B031201385F9D0312019E
:1014A30038169E031201386E9E03120138B09E0354
:1014B300120138E29E03120138C2AF03120138E76A
:1014C300AF0312013811B00312013833D2031201F2
:1014D30038CF4100120138AD43001201384C4500AA
:1014E300120138F74500120138774600120138FC23
:1014F30046001201382547001201387747001201D0
:1015030038524B00120138C94B00120138E04C002D
:101513001201381A4D001201385B4D00120138A236
:101523004E00120138F84E00120138414F001201EB
:1015330038B04F001201381C50001201384D5000D2
:101543001201386550001201387E51001201388EA5
:1015530051001201384453001201385B5300120149
:10156300388D53001201382F5500120138C355002E
:101573001201380FCF0312013820CF03120138C0F4
:10158300CF03120138EA7F0012013817D303120187
:10159300388FCD031201389FCD03120138B1CD032B
:1015A30012013842CE0312013811C80312013896D2
:1015B300C803120138FAC803120138ED7F00120183
:1015C3003801D30312013811D30312013814D303A2
:1015D300120138F87F00120138A5BB031201382F1E
:1015E300BD0312013890BD03120138D6BD031201A9
:1015F300384FCE03120138E9CE0312013801CF036D
:1016030012013864C503120138B6C5031201382923
:10161300C60312013896C6031201385EB9031201DC
:101623003888B90312013857BA0312013833BB03A0
:1016330012013897DA0212013863DB02120138A46F
:10164300DB02120138DEDB021201383CDC0212013C
:101653003890DC02120138EEDC0212013884DD021C
:101663001201388CDE0212013816E002120138B47E
:10167300E0021201381BE1021201382EE1021201CD
:101683003822E2021201386BE20212013833DD0123
:1016930012013865E001120138F6E1011201384DFB
:1016A300E2011201386AE201120138EAE201120191
:1016B3003866E40112013835E501120138A2E80168
:1016C3001201388CE901120138B1FF011201388986
:1016D300D203120138E3D203E066701008A3E06678
:1016E300700A08A3E066700408A3E06622C3E796C5
:1016F3000809E7960809E7960809E79622C3E096E2
:1017030008A3E09608A3E09608A3E09622C008C3C6
:10171300E096F50808A3E096420808A3E09642087D
:1017230008A3E09645087001D3D00822080808EA08
:10173300C0E0EBC0E086F0E7A4FA180986F0E7A45E
:101743002AFA180986F0E7A42AFA180986F0E7A40A
:101753002AFA1986F0E7A4FBE5F02AFA190886F0BD
:10176300E7A42BFBE5F03AFA190886F0E7A42BFB74
:10177300E5F03AFA18180986F0E7A4C5F02BFBE464
:101783003AFA1908E7C5F0C6A426F6E5F03BFBE4F0
:101793003AFA1886F0E7A4F6E5F00826F6E43B08E3
:1017A300F6E43A08F6D0E0FBD0E0FA22E4CFC0E05A
:1017B300E4CEC0E0E4CDC0E0E4CCC0E075F020C3EB
:1017C300E633F608E633F608E633F608E633F618AA
:1017D3001818EC33FCED33FDEE33FEEF33FFC3ECAF
:1017E3009709ED9709EE9709EF97191919400FFF1C
:1017F300EC97FC09ED97FD09EE97FE191906D5F054
:10180300BEECF709EDF709EEF709EFF7191919D04F
:10181300E0FCD0E0FDD0E0FED0E0FF226016080837
:1018230008C6C313C618C613C618C613C618C613EC
:10183300C6D5E0EA227009080808226016181818AD
:10184300C6C333C608C633C608C633C608C633C6BE
:10185300D5E0EA22E627F60809E637F60809E6376F
:10186300F60809E637F622E026F608A3E036F6087E
:10187300A3E036F608A3E036F622E026F008A3E05C
:1018830036F008A3E036F008A3E036F022C3E6976B
:10189300F60809E697F60809E697F60809E697F6C3
:1018A30022C3E096F008A3E096F008A3E096F008C0
:1018B300A3E096F022E056F608A3E056F608A3E06C
:1018C30056F608A3E056F622E056F008A3E056F0D9
:1018D30008A3E056F008A3E056F022E0F608A3E0E0
:1018E300F608A3E0F608A3E0F622E6F008A3E6F084
:1018F30008A3E6F008A3E6F022E0FAA3E0FBA3E0E6
:10190300FCA3E0FD22EAF0A3EBF0A3ECF0A3EDF0DF
:1019130022CAC0E0E6F0A308DAFAD0E0FA22CAC08D
:10192300E0E0A3C582CCC582C583CDC583F0A3C542
:1019330082CCC582C583CDC583DAE6D0E0CA22C393
:10194300E498F8E499F91219838026C3E49AFAE437
:101953009BFBE920E7E9121983E498F8E499F9225B
:10196300C3E498F8E499F9121983E498F8E499F92F
:10197300C3E49AFAE49BFB22EB20E7CFE920E7E0FC
:10198300B90010BB0008E88AF084F8AAF022E4FB4F
:10199300C8FA22EB70227B10C833C8C933C933504D
:1019A30007C39AC3DBF280069A50012ADBEAC833E5
:1019B300F4C8C933F4C9FA2275F008E4C833C8C9B6
:1019C30033C933C99AC99B5004C92AC93BD5F0EC22
:1019D300FBC833F4C8E4C9FA22600D08C6A2E713B2
:1019E300C618C613C6D5E0F322600C08C6C313C6D7
:1019F30018C613C6D5E0F422700422600D18C6C3BE
:101A030033C608C633C6D5E0F41822251810AF082C
:101A1300F518400215198008F51840021519D2AFC0
:101A230022C0D0251810AF08F518500205198008F8
:101A3300F51850020519D2AFD0D0222518F582101F
:101A4300AF08F518400215198008F518400215195A
:101A5300D2AF851983222518F582E43519F583223F
:101A6300E473C0E0E8C0E0E58124FCF8E6A2E7D037
:101A7300E0F8D0E0222518C582C0E0E51934FFC59F
:101A830083C0E0E518C3958224F810AF0885831955
:101A93008582188008858319858218D2AFCEF0A37A
:101AA300E520F0A37808E608F0A3DEFAEFF0A3E55B
:101AB3008124FAF8E608F0A3E608F0A3E608F0A309
:101AC3000808E608F0A3E608F0A315811581D0E025
:101AD300FED0E0F8158115811581E8C0E0EEC0E085
:101AE300222518C582C0E0E51934FFC583C0E0E5AF
:101AF30018C3958224F910AF08858319858218804D
:101B030008858319858218D2AFCEF0A3E520F0A310
:101B13007808E608F0A3DEFAEFF0A3E58124FBF8EA
:101B2300E608F0A3E608F0A30808E608F0A3E60831
:101B3300F0A315811581D0E0FED0E0F81581158161
:101B4300E8C0E0EEC0E022851983851882E0A3FE99
:101B5300E0A3F5207808E0A3F608DFFAE0A3FFE0AE
:101B6300A3C0E0E0A3C0E0E0A3C0E0E0A3C0E0E0E6
:101B7300A3C0E010AF088582188583198008858289
:101B830018858319D2AFD083D0820201358519839A
:101B9300851882E0A3FEE0A3F5207808E0A3F60809
:101BA300DFFAE0A3FFE0A3C0E0E0A3C0E0E0A3C04E
:101BB300E0E0A3C0E010AF08858218858319800890
:101BC300858218858319D2AFD083D08222C0D025D5
:101BD30018C582C0E0E51934FFC583C0E0E518C32A
:101BE300958224F310AF08858319858218800885B0
:101BF3008319858218D2AFC8F0A3E9F0A3EAF0A352
:101C0300EBF0A37908E709F0A3D8FAECF0A3EDF021
:101C1300A3EEF0A3EFF0A3D0E0F0A3D0E0F0A3D0C5
:101C2300E0F0A3E520F0A3E5F0F0A3228519838576
:101C33001882E0C0E0A3E0F9A3E0FAA3E0FBA378F5
:101C430008E0F608A3DFFAE0FCA3E0FDA3E0FEA3AF
:101C5300E0FFA3E0C0E0A3E0C0E0A3E0F5D0A3E091
:101C6300F520A3E0A3F5F010AF088583198582184A
:101C73008008858319858218D2AFD082D083D0E0C3
:101C8300F8D0E03274048006740280027401C0E06C
:101C9300F404121A3ED0E01219142274048004745E
:101CA300028000CCC0E0EDC0E0E518C39CCCAD19C8
:101CB30050011D10AF068C188D1980068C188D19D4
:101CC300D2AF121921D0E0FDD0E0FC22D083D08224
:101CD300E9C0E0E493A3C386F0C5F095F0F908E406
:101CE30093A386F0C5F095F0700BE493A3C39940DA
:101CF30005E9048002A3E475F002A42582F582E5D8
:101D0300F03583F583D0E0F9E493A3C0E0E493C016
:101D1300E022D083D082ECC0E0EDC0E0E493A3FCEA
:101D2300E493A3FDED4C600D121D61EC24FFFCED6B
:101D330034FFFD80EFE493A3FCE493A3FDED4C603B
:101D43000D121DA0EC24FFFCED34FFFD80EFD0E06D
:101D5300FDD0E0FCE493A3C0E0E493C0E022C0E044
:101D6300C3E49396087401939618400FE493667046
:101D73000808740193661870007019A3A3C3E49351
:101D830096087401939618A3A3400DD0E0D0E0D039
:101D9300E0021D51A3A3A3A3A3A3D0E022C0E0C0EC
:101DA300F088F0E493667008087401936618700075
:101DB300A8F0A3A3700BD0F0D0E0D0E0D0E0021DD8
:081DC30051A3A3D0F0D0E022EF
:101DCC0074F5121AE4EAFEEBFFEE2434F8EF34005B
:101DDC00F988088909EE2435121F04F8EE2437120D
:101DEC001F04F50AEC850AF0A4FCAAF0850AF0EDB4
:101DFC00A42AFDE82CF8E43DF97A257B001219831E
:101E0C00EA850882850983F05407F87401B800024A
:101E1C008004C333D8FCC0E0E0131313541FF8EE56
:101E2C0028F8EF3400F9E8245DF582E93400F583F5
:101E3C00D0E0F8E0586008850882850983801DEEA3
:101E4C002436121F04F5F0EA84A8F0EE28F8EF34DB
:101E5C0000F9E82438F582E93400F583E0F97F04D1
:101E6C00021B9074F5121AE4EAFEEBFFEE24341216
:101E7C001F04C0E0EE2435F582EF3400F583D0E08A
:101E8C00F08E828F83A3A3A3A3A3E0FAA3E0FB8E1F
:101E9C00828F83A3A3A3A3A3A3A3E0FCA3E0FDECE5
:101EAC00C39AF50AED9BF50BEE2480F508EF340090
:101EBC00F509850882F583E06401702BEE2481F529
:101ECC0082EF3400F583121CA2121F0D7402121A39
:101EDC0024E960137CFD7D04EEFAEFFB120C4F85B8
:101EEC000882850983E4F0AC0AAD0BEEFAEFFB1225
:101EFC001DCC1226C6021E6AF582EF3400F583E073
:101F0C0022C082C083851882851983E0F8A3E0F98A
:101F1C00C3EA9CEB9D5012C3EC98ED994019C3EAAF
:101F2C0098EB99501279018010C3EA98EB9940F51F
:101F3C00C3EC98ED9950EE7900D083D08222EAC39D
:101F4C009CFAEB9DFB2200008521878522C622C0CE
:101F5C00E074EF121BD0759B00906182E0A2E6400A
:101F6C000302201CE591A2E6400302201C7591BFE0
:101F7C009003C2E064057008120DED120DF9800398
:101F8C00120DF3752100120E65E99003C3F0790070
:101F9C00120E59120BB97A017B009003C1E0F912B1
:101FAC001129907803E06442600302206590055F7C
:101FBC00E014F06003022065C2AF121FC900782A3A
:101FCC00D0E0F618D0E0F6E59F5407F97005909034
:101FDC00F2800390912E78081218DEE9C4C0E078E4
:101FEC0029E65508F50808E65509F509740B780833
:101FFC001219ECD0E02508F8906270E0A2E740F8E6
:10200C00E8C333906272F0906270E0D2E0F08049E5
:10201C00E0A2E55024E591A2E5501E7591DF9003F6
:10202C00C2E0640D70139003E4E004F064287002C5
:10203C00E4F07A00E0F9120ED7906181E0A2E3504F
:10204C0009E5E9A2E3500375E9F7A3E0A2E750091B
:10205C00E591A2E7500375917F7F04021C2FC0E02D
:10206C00C0D0C082C083906183E0A2E05009E5BF7C
:10207C00A2E0500375BFFEE0A2E15009E5BFA2E16A
:10208C00500375BFFDE0A2E25009E5BFA2E2500388
:10209C0075BFFBE0A2E35009E5BFA2E3500375BF97
:1020AC00F7E0A2E45009E5BFA2E4500375BFEFE0EE
:1020BC00A2E55009E5BFA2E5500375BFDFE0A2E63B
:1020CC005009E5BFA2E6500375BFBFD083D082D0C4
:1020DC00D0D0E032C0E074F2121BD0E5A7A2E450DD
:1020EC000FE5A1A2E4500953A7EF75A1EF1221341B
:1020FC00E5A7A2E5500CE5A1A2E5500653A7DF75B4
:10210C00A1DFE5A7A2E15009E5A1A2E1500375A169
:10211C00FDE5A7A2E2500CE5A1A2E2500653A7FBF5
:10212C0075A1FB7F01021C2F74F8121AE4752101B2
:10213C009003C2E0640670077A007B00120DD5A2F2
:10214C00AFE433FED2AF9003C8E0640170187A207C
:10215C007B009003C1E0F91211AD7A207B00900353
:10216C00C1E0F912112F906182E0D2E6F090055E89
:10217C00E0602185C62280169003C7E064017008D8
:10218C00E5C654F84405F5C653BEFC121F54740141
:10219C00652160E4EEA2E092AF7F01021B9000008B
:1021AC008E238F2485822885832785188285198321
:1021BC00E0CEA3E0CF852882852783EBC9EAC8ED62
:1021CC00CBECCA75F010C3E833C8E933C9EA33CA9B
:1021DC00EB33CBC3EA9EF526EB9FF525B35004AB4E
:1021EC0025AA26EC33CCED33CDD5F0DAAE23AF24D3
:1021FC002274E9121AE474FA121A0EEAFEEBFF8C3E
:10220C00088D099003C2E024F7C394055006909101
:10221C00D2022324120D518A0A8B0BEA450B700350
:10222C00022321120E0B8A0C8B0D120E0BEA650C7D
:10223C007003EB650D60ECEEFCEFFD8518828519E3
:10224C0083AA82AB83120E11850A82850B83A3A30A
:10225C00780C1218DE9090E6780C1218B88518825B
:10226C0085198378141218DE9090E678141218B839
:10227C00780C79141216F0501F780C7914121890EF
:10228C00909192780C1217104047850C10850D1107
:10229C00850E12850F138041851410851511851636
:1022AC00128517137810790C12189090919278105F
:1022BC00121710501C751000751100751200751353
:1022CC0001781079141218907810790C1218578024
:1022DC00089091D278101218DE7409781012183800
:1022EC0090917E780C1218DE7810790C1217AF9042
:1022FC0003C2E06408600AE064066005E0640570EF
:10230C001C9090FA78101217105012909166781059
:10231C0012186A800890902678101218DE850882B0
:10232C0085098378101218ED7406121A247F100296
:10233C001B9074F7121AE4120E2390055CE06401F2
:10234C007010906245E4F0A3F053F4F343FE0C5389
:10235C0090F3120DC3E5C654804449F5C6E59E546E
:10236C007F644970F8906185740FF090055AE0F421
:10237C007002A3E0602C75080175090090055AE005
:10238C0078081219FBE508F4FAA3E0600814600A57
:10239C0014600C800DEA52808008EA52908003EAA7
:1023AC0052A079007F02021B9074F7121AE4E9FE26
:1023BC00EAFF74016E700C7A807B009003C1E0F927
:1023CC001211299027ECE493F46008E493F9120BB2
:1023DC009B800953C680E59E547F70FA120DC990FC
:1023EC00055CE064017003120BD190055AE0F470A7
:1023FC0002A3E0602A75080175090090055AE0787F
:10240C00081219FBAA08A3E0600814600A14600CF7
:10241C00800DEA42808008EA42908003EA42A012D2
:10242C000D518A088B09A808A909E8496017E5E14C
:10243C0070FCE82414F582E93400F583E0F874FFAD
:10244C0068600288E174016F700A7A019003C1E040
:10245C00F912117D0223B074F1121AE48A088B0967
:10246C008C0A8D0B740F121A59780C1218DE90907E
:10247C00E678081218B89090E6780C1218B878081C
:10248C00790C1216F050157808790C12189090915E
:10249C00927808121710401579018013780C79087E
:1024AC00121890909192780C12171040EB79007FD3
:1024BC0008021B9074ED121AE48A088B098C0A8DA1
:1024CC000B7413121A59780C1218DE9090E67808D7
:1024DC001218B89090E6780C1218B8780C7908128B
:1024EC0016F040117808790C121890AA08AB09ACB8
:1024FC000AAD0B8022751000751100751200751352
:10250C00017810790C12189078107908121857AAC3
:10251C0010AB11AC12AD137F0C021B909090E678AF
:10252C00081218DE8A828B8378081218CB7F04027B
:10253C001B9074F5121AE48C828D8378081218DEC5
:10254C008A828B8378081218A4122592C3E098F023
:10255C00A3E099122584401E90903E78081218DE54
:10256C008A828B83780812187D8E828F83E02420D8
:10257C00F0A3E0344EF080A4F08E828F83C3E094FD
:10258C0020A3E0944E22EA2404F8EB3400F9E8FE90
:10259C00E9FF8C828D83A3A3A3A3E0F8A3E0F98EBB
:1025AC00828F832274F5121AE4E9FE900514E0FA86
:1025BC00A3E0FBEEC333F8E433F9742228F58274FC
:1025CC008F39F583E02AF508A3E03BF5097808126A
:1025DC001C8B9090161218FC1221AC7402121A2447
:1025EC008A088B098C0A8D0B7410780812181FAA94
:1025FC0008AB097F04021B9074F1121AE48A0C8B4D
:10260C000D8C0E8D0F740F121A59E0FAA3E0FB74A7
:10261C0011121A59E0F508A3E0F5097413121A59AE
:10262C00E0FEA3E0FF7808121C8BEA2401F508EB0E
:10263C003400F509E4F50AF50B780C790812172F1C
:10264C009090F678081218DE780C790812172FAAD9
:10265C000CAB0DAC0EAD0F1221AC7402121A248B04
:10266C0009EA450960047A0180027A00EC2AFCED43
:10267C003400FDECF8EDF97A717B021219838808AD
:10268C008909E4F50AF50B8E828F8378081218ED10
:10269C00ECF8EDF97A717B021219838A088B0974B4
:1026AC000578081219FB8E828F83A3A3A3A3E508D8
:1026BC00F0A3E509F07F08021B90C082C083E9906B
:1026CC006000F0D083D08222C0E074F2121BD0796B
:1026DC00001213BDC2C57F01021C2FC0E074F212A0
:1026EC001BD079011213BDC2EB80EBC0E074F21267
:1026FC001BD079021213BDC2E880DBC0E0C0D0E869
:10270C00C0E0E5A8D2AFC2C7751A00A2E792AFD05D
:10271C00E0F8D0D0D0E032C0E0C0D0E8C0E0E9C0F2
:10272C00E0EAC0E0C082C083A2AFE433FAD2AFE5E6
:10273C00C1C0E0900BA4E0F874A928F582740A34A7
:10274C0000F583D0E0F0900BA3E0F8A3E0687006EE
:10275C00E595900BA6F0900BA4E004F0C394FA401E
:10276C0002E4F0A3E4F0EAA2E092AFD083D082D0EE
:10277C00E0FAD0E0F9D0E0F8D0D0D0E032C0E0C040
:10278C00D0E8C0E0E9C0E0C008C009C082C083A2A4
:10279C00AFE433F9D2AF900CA1E0F8A3E068700875
:1027AC00539AFBA374018026C2E9900CA1E0F508B2
:1027BC0074012508F074A72508F582740B3400F514
:1027CC0083E0F5C1900CA1E0C394FA4002E4F0E977
:0E27DC00A2E092AFD083D082D009D0088094C2
:1027EC00FFFFFFFFFFFFFFFFC082C083E9900E12C7
:1027FC00F0022A7874F7121A78E99002E0F07C184B
:10280C007D037AFF7BFF1208C59002E174FFF0A3F1
:10281C00F0A3E4F0A3F0790512084D9002E0E0F982
:10282C001207757AE37B08120AAB02378674F4122E
:10283C001A788A088B09EB548060309002E0E0F93A
:10284C001211118A0A8B0BAE0AAF0BEE4F60138E6E
:10285C00828F83E064B07003120865EEFAEFFB120E
:10286C0010FFAA08E5096480FB80047A007B000253
:10287C002A4774F2121A7874FC121A0EEAFEEBFF55
:10288C007412121A59123C6DEE4F70030229217406
:10289C0002121A59EEF0A3EF122C82ECF0A3ED12F7
:1028AC002C82AA82AB8312076FE9F50A706AE508DD
:1028BC00450960648E828F83123C53EE4F60567ACA
:1028CC00067B001211658A0C8B0DA80CA90DE8492A
:1028DC007005750A13804188828983E412292EEED3
:1028EC00F0A3EF123C7EE508F0A3E509F09002E6B8
:1028FC001229B59002E67005123730801B12371E74
:10290C008003EAFCEBFD8C828D831229B570F38C6D
:10291C00828D8380E3750A02A90A7404121A2402B8
:10292C003E6DF0A3123C24A32274F2121A78890A89
:10293C00E975F017A4FEAFF09002E5E4F09002E325
:10294C001229B5600A12116B9002E3E4F0A3F0EEC9
:10295C00FAEFFB1211658A088B09EA4509602FEE24
:10296C00FCEFFD79001210ED9002E3E508F0A3E511
:10297C0009F07B00800812299FE4F0A3F00BEBC355
:10298C00950A40F2E50A9002E5F07900800279138D
:10299C00023E6DEB75F017A4F8A9F09002E3E02865
:1029AC00FAA3E0398A82F583221233C2EA4B2274ED
:1029BC00F4121A78740C121A59123C48FEE9FF757D
:1029CC000800750900800CE5082401F508E50934B8
:1029DC0000F509C3E5089CE5099D503285080A8578
:1029EC00090B7403780A1219FBEA250AF8EB350B6C
:1029FC00F988828983A3A3A3A3A3A3123805EE6548
:102A0C000A7003EF650B70BFE8FAE9FB80047A00EB
:102A1C007B00802774F4121A787900EAA2E0501B2C
:102A2C007508BE75098F7808121C8B7C047D007AA2
:102A3C00147B0E1208477402121A247F04021B4ADC
:102A4C00C082C0839002E6122A7F601C8882898330
:102A5C00A3A3E06A7003A3E06B8882898370E8A368
:102A6C00A3A3A31233BE80047A007B00D083D08250
:102A7C00020135123F53E8492274EE121A7874FCA5
:102A8C00121A0EEAFEEBFF851882851983E4F0A377
:102A9C00F0EE2402123710EE2405123C2BEE240427
:102AAC00F50EEF123037E024FE603924FC6046242A
:102ABC00FE605224FE605E24FE7003022B9824FEFE
:102ACC007003022BFC24FE7003022C0B24FE7003FB
:102ADC00022C1A24FC7003022C2924FE7003022CF5
:102AEC0038022C759002FF7417F0A3E4122C8A1292
:102AFC0004ED022C75851882851983AC82AD831286
:102B0C00086B022C45851882851983AC82AD831223
:102B1C000871022C45850C08850D097402121A598E
:102B2C00AC82AD838508828509831233BE1207936C
:102B3C008A0C8B0DAC0CAD0DEC4D603BE4F50CF53B
:102B4C000D780C121C8B750CFF750D02780C121C79
:102B5C008B750C00750D03780C121C8B7408121AF3
:102B6C0059121CA21240CF121A24E9F50C700B1248
:102B7C0033B4120505800F750C0185088285098315
:102B8C00122C78123730850C08022C487402121A59
:102B9C0059AC82AD83850C82850D83123189603CE2
:102BAC00850C82850D83A3A3121CA27510FF7511D1
:102BBC00027810121C8B7510007511037810121C02
:102BCC008B7408121A59121CA21240CF121A24E943
:102BDC00F509700B1233B412050B800F75090185C2
:102BEC000C82850D83122C78123730850908804CA5
:102BFC00851882851983AC82AD83120877803A855B
:102C0C001882851983AC82AD8312087D802B8518C0
:102C1C0082851983AC82AD83120883801C8518824F
:102C2C00851983AC82AD83120889800D8518828545
:102C3C001983AC82AD8312088FE9F508E508602989
:102C4C008E828F83A3E06414601F850E82850F83B0
:102C5C00E09002FF122C82123F4F9003001237308B
:102C6C00E508A3122C8A1204E702361F123F538583
:102C7C00188285198322F085188285198322F07CAD
:102C8C00FF7D02850A82850B831233C22274EE12F9
:102C9C001A7874FC121A0E8A0A8B0B8C0E8D0FEAA2
:102CAC002405F508EB3400F5097C157D0079007AD4
:102CBC00FF7B021210EDE5082402F50CE509123C2D
:102CCC002E851882851983858210858311781012C0
:102CDC001C8B850882850983A3A3A3A312318012C0
:102CEC001C8BE5082405F510E5093400F511781066
:102CFC00121C8B850C82850D831234D512078D74B2
:102D0C0006121A248A108B11AE10AF11E50A240298
:102D1C00F50AE50B123713EE4F7003022E5780178E
:102D2C007402121A591233BE88828983EAF0A3EB1B
:102D3C00F09002FFE004F09002FFE0C39405400322
:102D4C00022E57E4F510F5117810121C8B7510E853
:102D5C007511027810121C8B7510E9751102781020
:102D6C00121C8B7406121A59121CA27910EEFCEF6D
:102D7C00FD1240D1121A24E9705E85088285098300
:102D8C00A3A3A3A3A3A3A3E0F89002E8E068704870
:102D9C00123180121C8B7CE97D02E5082408FAE5CF
:102DAC00093400FB1210E77402121A24E960298E10
:102DBC00828F83A3A3A3A31233BE9002FFE0F5106E
:102DCC00740278101219FB74002510F58274033507
:102DDC0011F583EAF0A3EBF07402121A59858210F4
:102DEC008583117810121C8B7402121A59121CA2B2
:102DFC00850C82850D831233E4121A248A108B11F0
:102E0C00AE10AF119002FFE0F5107511007402784E
:102E1C00101219FB74FF2510F874023511F9888211
:102E2C008983A31229B57003022D23E82403080813
:102E3C0008E93400F9EE4F6003022D2C8882898357
:102E4C0074FFF0A3F09002FFE004F09002FFE0604A
:102E5C000A1233B41204F97900800B8508828509B3
:102E6C0083123727790A02361F74EA121A7874FE15
:102E7C00121A0E8C128D13EA2405F50CEB1240B9C4
:102E8C00123C57750800750900EA2402F510EB3462
:102E9C0000F51185188285198385820A85830B7844
:102EAC000A121C8B850C82850D83A3A3A3A312305D
:102EBC004D121C8BE50C2405F50AE50D1237137821
:102ECC000A121C8B850C82850D8312305112078DD2
:102EDC007406121A248A0A8B0BEA450B7003022F14
:102EEC00F2EA2404F50EEB123037123C578A828B2F
:102EFC0083A3A3A3E0F98510828511831233C860E4
:102F0C0003022FF2E4F514F5157814121C8B7514CA
:102F1C00E87515027814121C8B7514E97515027876
:102F2C0014121C8B7406121A59121CA27913AC0AB7
:102F3C00AD0B8510828511831240D7121A24E9F546
:102F4C00096003022FF29002E8E0F8E5087009E04E
:102F5C002402900300F08014900300E0FCE82402AB
:102F6C00FAE43400FBEA6C7001EB707E850882AAEF
:102F7C0082123177941412316F506B850E82850F4B
:102F8C0083E0C0E074012A12302ED0E0F0050885F1
:102F9C000E82850F83A3E0C0E085080A7401250A20
:102FAC0012302ED0E0F005089002E812304D121CC1
:102FBC008B7CE97D0285080A7401250A12304112C6
:102FCC001A249002E8E02508F50874FF6E7003746B
:102FDC00FF6F6012EE24010EEF3400FFE508C3947E
:102FEC00145003022E9FE50860131233D285108211
:102FFC008511831233BE1204FF79008014E5097029
:10300C000375090A851282851383EEF0A3EFF0A9EC
:10301C00097402121A247F0E021B4A85080C7401D3
:10302C00250CF58274033400F583223400F50F85EA
:10303C000E82F58322FA74033400FB1210D574024D
:10304C0022123C8D22A3A31230572212371EFDEE02
:10305C00FAEFFB2274EE121A7874FE121A0E8C0E12
:10306C008D0FEA2405F50CEB123C2E750B0090022B
:10307C00FFE4F0F50AEA2402F508EB3400F50980C8
:10308C00449002FFE0FA9002E8E0F81231779417CE
:10309C0012316F400D9002FFE0F87416C398900245
:1030AC00E8F0123180121C8B7CE97D0274002AFA44
:1030BC007403123044121A249002E8E0F89002FFD4
:1030CC00E028F0050AE50C2416F582E50D123032E5
:1030DC00E0F8E50AC39850749002FFE0C3941650D0
:1030EC006BE50AC333F8E433F9E50C28FEE50D393A
:1030FC00FF851882851983AC82AD838E828F8312F3
:10310C0031897008750B011237238050E4F510F5E6
:10311C00117810121C8B7510E87511027810121CA6
:10312C008B7510E97511027810121C8B7406121A2B
:10313C0059121CA279168508828509831240D71270
:10314C001A24E9F50B700302308D80BB7CFF7D02E5
:10315C008508828509831233BE120511A90B7402EE
:10316C00023621E99400C365D03322EA28F8E4340E
:10317C0000F9E822E0F510751100781022123616CD
:10318C008A108B11AC10AD11EC4D2274EA121A7826
:10319C0074FC121A0E8A0C8B0D8C128D13EA2405FA
:1031AC00F50AEB123713750800750900E50A2402BD
:1031BC00F510E50B3400F5117402121A5985820EC4
:1031CC0085830F780E121C8B850A82850B83A3A333
:1031DC00A3A3123C33121C8BE50A2405F50EE50B58
:1031EC003400F50F780E121C8B851082851183121A
:1031FC0037191233B812078D7406121A248A0E8BE3
:10320C000FAE0EAF0FE50C2402F50EE50D3400F5F4
:10321C000F80388882898374FFF005081230277478
:10322C00FFF005089002E8E0F50C750D00780C1223
:10323C001C8B7CE97D0285080C7401250C12304135
:10324C00121A249002E8E02508F508EE4F60278E4C
:10325C00828F83A3A3A3E0F9850E82850F8312339B
:10326C00C8EE2404123C2BE96027850C82850D8363
:10327C001233AA123730E50870030233901233D29E
:10328C00850E82850F831233BE1205177900023327
:10329C00A5E4F514F5157814121C8B7514E8751546
:1032AC00027814121C8B7514E97515027814121C13
:1032BC008B7408121A59121CA27911EEFCEFFD85C1
:1032CC000E82850F831240D7121A24E9F509709AE1
:1032DC00850882AA82EA9002E87009E0240490032F
:1032EC0000F08025E0F8900300E0F514E82404FCDD
:1032FC00E43400FDEC65147001ED708112317794AB
:10330C001212316F4003023289850C82850D83E0E5
:10331C00C0E074012A12302ED0E0F00508850C8232
:10332C00850D83A3E0C0E0123027D0E01233ED8589
:10333C00820C85830D780C121C8B7404121A591292
:10334C001CA28510828511831233E4121A248A0C74
:10335C008B0DAE0CAF0D85080C7401250CF87403A5
:10336C003400F9EE4F700302321F851882851983E1
:10337C00E0888289831233EDA3E0C0E0123027D0BD
:10338C00E002322DE509700375090A850A82850B66
:10339C00831233AA123730A909740402301F123F6A
:1033AC0053851282851383227CFF7D02850A8285D8
:1033BC000B831233C222E0FAA3E0FB221233C212B7
:1033CC00077BE9F50922900300E0F5F0E50884900D
:1033DC0002FFF07CFF7D0222123057120799740411
:1033EC0022F005088518828519832274EC121A784C
:1033FC0074FE121A0E8A088B098C0E8D0FEA2405A6
:10340C00FEEB3400FF123600EE2418123C2BEA457A
:10341C000B70030234A31235E950291234C88A10F8
:10342C008B11EA4511606B7912AC0AAD0B850882E1
:10343C008509831233BE851082851183121A63E9C4
:10344C00F50A7058E4F50AF50B780A121C8B8E827B
:10345C008F83A3A3E0F50A780A121C8BEE240312C7
:10346C003710780A121C8B8E828F831234D5120877
:10347C00B37406121A24E9F50A7021850C82850DA5
:10348C0083E0701F8508828509831233BE12051DE7
:10349C008011750A0E8009750A018004E50A600323
:1034AC00123723850C82850D83E06004790080023D
:1034BC00A90A7402121A247F0C021B4A85188285F1
:1034CC0019831233C21208A12212371EFD850882FD
:1034DC008509831233C22274EE121A7874FE121A02
:1034EC000E8A088B098C0C8D0DEA2405FEEB34003A
:1034FC00FF750E00123600EA450B70030235C71239
:10350C0035E9502C1234C88A0E8B0FEA450F604AED
:10351C007912AC0AAD0B8508828509831233BE85FE
:10352C000E82850F83121A63E9F50E60030235CA09
:10353C00850882850983123805AA0AFB1235DB70CF
:10354C00147AFF7BFF1235DB606C88828983E50A75
:10355C00F0A3E50BF0750A008007750E0E805F0571
:10356C000A9002E5E0FAE50AC39A504AE50A75F0BA
:10357C0017A4FAABF088828983A3A3E02AFAA3E00C
:10358C003BFB8A828B83123719EC4D70D2750A176C
:10359C00750B00780A121C8BEEFCEFFD1210D57423
:1035AC0002121A24EEFCEFFD850882850983123382
:1035BC00BE1205238014750E098003750E01123F8F
:1035CC004B850C82850D83123730A90E02316A129D
:1035DC0008958A108B11A810A911E84922E5082436
:1035EC0002F508E5093400F5098A828B83A3A3A3AD
:1035FC00E0A2E522851882851983AC82AD838E8288
:10360C008F831236168A0A8B0B22E0FAA3E0FB1288
:10361C000793227404121A247F0A021B4A74EC12B8
:10362C001A788C108D11EA2405F50CEB123C2E75D2
:10363C000F00EA2402F50AEB123713850A82F58390
:10364C001233BE12415D7003023705750E00807196
:10365C00850C82850D83E06401704F8E828F83A36D
:10366C00A3121CA28E828F83A3A3A3A3E0F51275D1
:10367C0013007812121C8BEE2405F512EF3400F5B2
:10368C00137812121C8B1233B81208B37406121A68
:10369C0024E9F50F6014850C82850D83E4F0123F4C
:1036AC004B8510828511831237307C177D00790091
:1036BC00EEFAEFFB1210ED8E828F83E4F0A3F0058F
:1036CC000E9002E5E0F8E50EC398501EE50E75F07D
:1036DC0017A4F8A9F0850882850983A3A31240C317
:1036EC00123719EC4D600302365C8508828509831C
:1036FC0074FFF0A3F0E50F70061233B8120529A978
:10370C000F0234C3F50AEF3400F50B22A312371E57
:10371C00FD22E0FCA3E0228E828F83123F53850EA4
:10372C0082850F83E8F0A3E9F022C082C083900267
:10373C00E1E06A7003A3E06B70067AE17B0280041F
:10374C007A007B00022A7874F7121A787F00EF75E2
:10375C00F003A4F8A9F0EC28F8ED39F988828983F4
:10376C00E06A7003A3E06B7006E8FAE9FB800B0FCC
:10377C00EFC3940240D87A007B007F01021B4A748D
:10378C00F6121A78123D3C70067A007B008007A373
:10379C00A3A3A31233BE023DFD74F2121A78E9FE04
:1037AC00740E121A591238057410121A59123C6DF3
:1037BC008C828D83E06402703BA3123F4F88828918
:1037CC0083E0F50CA3E0F9A80C740268700374296B
:1037DC00697021750C02750D00780C121C8B780821
:1037EC00121C8B780A121C8BEEF91208D774061275
:1037FC001A2480027901023E6DE0F50AA3E0F50B74
:10380C002274E8121A7874FB121A0EE98518828554
:10381C001983F08A168B178C0E8D0F741F121A5980
:10382C00123C6D7421121A591238057423121A594C
:10383C00123C577510008C828D83A3A3A3E0A2E4E5
:10384C00502A741D121A591234CE8A828B83E58247
:10385C0045837003023919790AAC0EAD0FAA16AB69
:10386C0017121A63E9F510600302391C850E828564
:10387C000F83E064026003023BD2A3123F4F850822
:10388C0082850983A3858212858313E50E2406F5B0
:10389C000CE50F123C2E88828983E0FAA3E0F9EA4A
:1038AC002400F514E439F5157814121D15010000E7
:1038BC00280128E13807000228B8390328283900E4
:1038CC0029E23A01290A3B0229B13A0329E23A04D6
:1038DC0029733BD23BEE4F703E850C82850D8312D3
:1038EC003C48FAE9FB8A828B83E0850A82850B834C
:1038FC00123C84121C8B8A828B83A312371EFDAA66
:10390C0008AB091210D57402121A24800375100E1C
:10391C00A91074050240B175100B80F4EE4F70F7CE
:10392C00850A82850B837401F0123C5D85088285C3
:10393C000983F07C007D00850E82850F83A3A3A3F1
:10394C00A3E02401FAA3E03400FB120793EA4B60D6
:10395C00418A828B83E02402F8850A82850B83E0FE
:10396C0028F0EA2404F8EB3400F988828983E08596
:10397C001282851383123C96123C84121C8B8A8211
:10398C008B83123718E5082403FAE5093400FB028F
:10399C00390F850A82850B83E02404F07C047D00BA
:1039AC007900AA12AB131210ED02391CEE4F600312
:1039BC00023923123C5DFEA3E0FF850A82850B834E
:1039CC007404F0EE850882850983F0EF85128285F8
:1039DC001383F07403121A59AC82AD83EEFAEFFB29
:1039EC00123D2A7003023A8E8A828B83A3A3123C67
:1039FC00537401121A5985820E85830F780E121C8E
:103A0C008B7405121A59121CA27CFF7DFF120799A8
:103A1C007404121A248B0FEA450F7033850C8285BF
:103A2C000D83123C33121C8B850C82850D83A312E3
:103A3C001CA27C027D007AB57B921205C57404121F
:103A4C001A24E9700A7401121A5974FFF0A3F08E4B
:103A5C00828F83E064027034750C02750D00780C53
:103A6C00121C8B8E828F83123718E5082404FAE51A
:103A7C0009123044121A24850A82850B83E0240231
:103A8C0080097401121A59EEF0A3EFF07401121AA6
:103A9C0059123C44F07401121A59A3123C3CA3A3D2
:103AAC00A3F002391CEE4F6003023923850C82858A
:103ABC000D83123719AA16AB171208CB850A82850B
:103ACC000B837402F0EA850882850983F0851282E3
:103ADC00851383EB80CBEE4F6003023923123C5DE0
:103AEC00F8A3E0F9850A82850B837402F0E8850857
:103AFC0082850983F0E985128285138380A3850C66
:103B0C0082850D831233BE1210CFEAFC8C82A88200
:103B1C00C39EE49F404BE86E7001EF70047C008004
:103B2C001F851882851983E0FAEE2AFAEF3400FB20
:103B3C00C3EA98EB94005003E08004EECCC39CFCE9
:103B4C00EC850A82850B83F08C0A750B00780A12BF
:103B5C001C8B850C82850D83E02EFCA3E03F023983
:103B6C000A75100702391CEE4F6003023923850CCD
:103B7C0082850D83123F4F850A82850B837407F073
:103B8C0088828983123C3C123C24E0851282851386
:103B9C0083F0E82402FAE93400FB8A828B83123C1E
:103BAC003C123C75123C44A3123C7E123C4DF0E896
:103BBC002405F8E93400F988828983123C4DA3125C
:103BCC003C96A3023AAA741D121A59123D35700381
:103BDC00023919123F4F880C890DE8450D7003020C
:103BEC0039198E108F117810121C8B780A121C8BBD
:103BFC007808121C8B7406121A59E0F9AC0EAD0F32
:103C0C00AA16AB17850C82850D83121A63740612E3
:103C1C001A24E9F51002391CF088828983A322F555
:103C2C000CEF3400F50D22E0F50E750F00780E2226
:103C3C00E085088285098322123C9D22123F53E8BD
:103C4C0022123C9DA3A322A3A3A3A3E0FEA3E0FF07
:103C5C0022850C82850D83E0F8A3E0F5838882E051
:103C6C0022E0F508A3E0F50922A3A3F08A828B8356
:103C7C00A322122930A3A322F08A828B83123C8DBB
:103C8C0022E0F50A750B00780A22123C24123C9DA6
:103C9C0022E0850882850983A3A32274EE121A7888
:103CAC0074FE121A0E8A0A8B0BECFAEDFB741412CA
:103CBC001A59E0F510A3E0F5117416121A59E0FE2A
:103CCC007418121A59E0F50EA3E0F50F85188285C9
:103CDC001983AC82AD83123D2A603E85188285190A
:103CEC0083123D35602FA3A3123C6DE50845096096
:103CFC0024780E121C8B7810121C8BEEF9AC0CADC8
:103D0C000DAA0AAB0B850882850983121A63740409
:103D1C00121A248006790E8002790102316A120788
:103D2C00938A0C8B0DEA450D221233C2123D3C22B4
:103D3C0012085F8A828B83E58245832274F6121AFD
:103D4C007874FE121A0E740C121A59123C4885180B
:103D5C0082851983F07401121A59E9F0E4F508F51B
:103D6C00097808121C8B7508027808121C8B7404D5
:103D7C00121A598582088583097808121C8B12083F
:103D8C00B37406121A247402121A24806474F71283
:103D9C001A78EAFEEBFF89087C187D031208CBEA3F
:103DAC005402600BA908EEFAEFFB12078780027928
:103DBC000102378674F6121A7874FF6A700374FF66
:103DCC006B701C7B00EB75F003A4F8A9F0EC28F8E1
:103DDC00ED39F9123E020BEBC39402501480E6123B
:103DEC00089B8A088B09A808A909E8496003123EB8
:103DFC00027F02021B4A8882898374FF12292EE4F7
:103E0C00F02274F6121A7812089B8A828B83E58250
:103E1C0045836006A3A3E0FA80027A007B0080D180
:103E2C0074F2121A788A088B09ECFEEDFF740E12EC
:103E3C001A59E0F50A123E72701CEEFCEFFD7AFF87
:103E4C007BFF123E7270047911801688828983E59B
:103E5C0008F0A3E509F088828983A3A3E50AF07929
:103E6C00007F06021B4A12089B8A0C8B0DA80CA91A
:103E7C000DE8492274EE121A78EAFEEBFF8C088DDD
:103E8C0009890C7412121A59123F4F7414121A59D0
:103E9C001237197416121A591233BE750D00EC4DE7
:103EAC006003023F437402650C6003023F3E88824C
:103EBC00898312371EF9EC2400F50EE439F50FEA6C
:103ECC00F4F8EBF4F9EC58F8E50F59F9E849705DA2
:103EDC00E5082406F8E5093400F9880A890B88827C
:103EEC00F5831230531208CB8A108B11E50E651036
:103EFC007004E50F65116042780E121C8B850A82E6
:103F0C00850B831230531208D17402121A24E9F56E
:103F1C000D7027780E121C8B850882850983A3A34C
:103F2C001230511208E97402121A24800D750D809A
:103F3C008008750D0D8003750D0BA90D0236248EAE
:103F4C00828F83123F5322E0F8A3E0F92274E81227
:103F5C001A7874E7121A0E851882851983EAF0A371
:103F6C00EBF08C168D17890E7431121A59E0F5127C
:103F7C00A3E0F5137433121A59E0F514A3E0F51508
:103F8C007435121A59E0F50F750800750900E5092A
:103F9C0075F003A4F8A9F08518828519831240C323
:103FAC00E0F47003A3E0F470030240A1EE2402F5E8
:103FBC000CEF1240B9E070030240A185160A851778
:103FCC000B780A121C8BAC14AD15AA12AB13120889
:103FDC00537402121A248A0A8B0BEA450B700302E3
:103FEC0040A1E4F510F5117810121C8B7406121A0E
:103FFC00598582108583117810121C8B7409121A42
:10400C00598582108583117810121C8B851282853C
:10401C001383A3A3A3A3121CA27914AC0AAD0B8E19
:10402C00828F831240D7121A24E97069850A82851F
:10403C000B83A3A3A3A3123F4F7402121A59123776
:10404C0030850C82850D83E0A2E05018A90E740215
:10405C00121A59AC82AD838E828F831233BE120733
:10406C00ABE94208850C82850D83E0A2E15026E580
:10407C000FF50A780A121C8FA90E7403121A59AC88
:10408C0082AD838E828F831233BE1207A574011208
:10409C001A24E942080509E509C394025003023FBA
:1040AC009AA9087419121A247F10021B4A3400F5BD
:1040BC000D850C82F58322E028FEA3E039FF8E8269
:1040CC008F83227916850A82850B831233C21208DC
:1040DC00AD74082274F2121A78EAFEEBFF890B74A5
:1040EC0001650B600E7402650B70637901120AC9CD
:1040FC00E9705BEEFAEFFB12415D6047750A0080D8
:10410C000B7C177D0079001210ED050A9002E5E09A
:10411C00F8E50AC3985021E50A75F017A4F8A9F040
:10412C00850882850983A3A3E028FAA3E039FB8ADA
:10413C00828B83122A7F70C985088285098374FF5C
:10414C00F0A3F07C187D03EEFAEFFB1208C5023EDB
:10415C006D1208958A088B09EA45092274F2121A25
:10416C00788A088B09ECFEEDFF740E121A5912387E
:10417C0005900E12E0F4603D7A097B001210F9EA0A
:10418C004B60328A828B8374B1F0A3E4123C77A328
:10419C00123C75A3E508F0A3E5091241C4EEF0A3A7
:1041AC00EF1241C4A3A3E50AF0A3E50BF0900E12A5
:1041BC00E0F9121105023E6DF08A828B83A3A3A352
:1041CC00A3A32274F4121A78E9FF7E008A088B09E3
:1041DC007808121CCF00040D804302421E42334269
:1041EC0048425D4272428E42A742B942E7420943BD
:1041FC00254341435F4374016F70128C828D83E0C1
:10420C00C394035008E09010BBF002439E7E18024A
:10421C00439E74026F70F68C828D83124B2E90101D
:10422C00BCE8F0A3E980E274016F70E18C828D83AD
:10423C00E0C3940250D7E09009D180CD74016F7027
:10424C00CC8C828D83E0C3940550C2E09009D2805F
:10425C00B874016F70B78C828D83E0C3940250AD3B
:10426C00E09009D380A374106F70A27508108E09AA
:10427C007808121C8B7AD47B09124EF2121A240283
:10428C00439E74016F70868C828D83E0C3940240D0
:10429C0003024219E09009E402421574016F6003B5
:1042AC000242198C828D83E09010BF808D74046F54
:1042BC00600302421990901678081218DE8D838CD8
:1042CC0082780812170040030242198C828D8312E7
:1042DC0018FC9009E612190802439EEF6003024293
:1042EC0019120733E9700E12153D79501216871208
:1042FC00153102439E900A79740102421574016FC4
:10430C0060030242198C828D83E0C3940240030245
:10431C004219E09009E502421574016F60030242F4
:10432C00198C828D83E0C3940A4003024219E090F9
:10433C0010BE02421574016F60030242198C828D0B
:10434C0083E024F9C3940A4003024219E09010C0A0
:10435C0002421574016F6003024219900A78E0F86A
:10436C008C828D83E0900A78F0E87026E06401700E
:10437C00210242FBC3EA9426EB9400501374026FA3
:10438C00700E8C828D83124B281205D1E9FE8002AF
:10439C000E0EEEF90243A8740E121A247F04021BAF
:1043AC004A74F0121A7874CC121A0E8C0A8D0B7493
:1043BC0044121A59E0FE7420121A59AC82AD83755E
:1043CC00839075820074061219217420121A59AC4C
:1043DC0082AD831214DDE9F508C3940A400302454B
:1043EC001175F006E9A4F5097426121A59AC82ADC0
:1043FC00837A0E74202509124FAA70097432121A8E
:10440C0059E0FF80027F009010BBE06402700474DE
:10441C00018001E4F50D780D121C8FEEFDEFFCA967
:10442C0008AA0AAB0B1215677401121A247C147DAE
:10443C00007900740C121A59AA82AB831210ED7415
:10444C000C121A59AC82AD837A1074242509124FC0
:10445C00AA70377C1079FF740C121A59124CD77051
:10446C0029741C121A59AC82AD837A04742525095F
:10447C00F9121681740C121A59AC82AD83EFA2E0BA
:10448C00E433F9AA0AAB0B12065B851882851983F3
:10449C00AC82AD837A0C74702508124FAA705585C6
:1044AC001882851983AA82AB83121513750800E54F
:1044BC000875F003A4F8A9F0851882851983E582A4
:1044CC0028F8E583124D13124B28EC4D601D8882A1
:1044DC008983A3A3E0F50E750F00780E121C8BAA2E
:1044EC000AAB0B1208B97402121A240508E508C3AA
:1044FC00940440BBEFA2E1500C9009D0E0F9AA0A59
:10450C00AB0B1208BF74046E702A9010BBE06402EF
:10451C0070229009E4E060047A0180027A0090092C
:10452C00D1E06004780480027800E84AF9AA0AAB6A
:10453C000B12071B79007434121A247F08021B4AD1
:10454C0074F0121A78EAFEEBFF8C088D09750A0AD2
:10455C00E9600C14600914602E14607F0245F2129D
:10456C001525E9F50AC3940A507CE50845096076DF
:10457C00750E06750F00780E121C8BEEFCEFFD12FB
:10458C004EEE121A24805F750B00750E06750F0027
:10459C00780E121C8BEEFCEFFDE50B75F00EA4F8FB
:1045AC00A9F074F228FA740939FB1210E77402129C
:1045BC001A24E9601B850B0AE50AC3940A5027E507
:1045CC000845096021AA08AB09A90A12151F801613
:1045DC00050BE50BC3940A500D80AF12152BE9F5B2
:1045EC000AC3940A40D9A90A02454774F4121A78EE
:1045FC00890875091574FF6A700374FF6B70277E48
:10460C0000AC087A027B00EEF9121501E960037523
:10461C0009000EEEC3940A40E8E50860497A557B20
:10462C0015120ADB8040120ABD8A0A8B0BAE0AAF48
:10463C000BEE4F602E7C007D00EE2405FAEF34006B
:10464C00FB8E828F831246EE500CAC087A027B00F4
:10465C00121501750900E508600CEEFAEFFB121556
:10466C00558003750914A9090243A874F2121A782B
:10467C00ECFEEDFF740E121A59124B1B75081574D3
:10468C00FF6A700374FF6B7021750900AC0AAD0BE7
:10469C00EEFAEFFBA909121507E96003750800058E
:1046AC0009E509C3940A503580E2120ABD8A828B4F
:1046BC0083E582458360237C007D00E5822405FA36
:1046CC00E5833400FB1246EE5013AC0AAD0BEEFA48
:1046DC00EFFB1215077508008003750814A9080272
:1046EC005519A3A3A3A3E0F91214DDE9C3940A227C
:1046FC00C082C0839009EAEAF0A3EBF09009D0E005
:10470C00FC7D007A257B001205D19009D0E0F912CE
:10471C000835D083D08202013574EC121A788A08DD
:10472C008B09E9FE7414121A59780C1218DE7F00EA
:10473C00EE702E7808121C8B90901678101218DEE2
:10474C00780C79101217AFAA10AB11AC12AD131272
:10475C00066D7402121A24E9FF60097901AA08ABEC
:10476C0009120667EFF97F0C021B4A74EA121A78D9
:10477C0074EC121A0EEAFEEBFFEE240CF514EF3477
:10478C0000F515EE240AF510EF3400F511EE2405B2
:10479C00F50EEF3400F50FEE2409F50AEF3400F5B1
:1047AC000BEE2403F508EF3400F5098E828F83A3FA
:1047BC00A3E024FA7003024AE424FD7003024A13B6
:1047CC0014700302486214601024FD70030249E463
:1047DC00147003024A48024B02124B47604AE0F540
:1047EC00838882124B2E880C890DE8450D60398523
:1047FC001482851583E0F50E780E121C8FEE240BB7
:10480C00F582EF3400F583E0F9850A82850B83127B
:10481C004B280A0A0AAB09850C82850D83121A6390
:10482C007401121A24024B02850A82850B83121C16
:10483C00A29009E61218FC12066D7402121A24E9F1
:10484C007003024B027901850A82850B8312533E59
:10485C00120667024B028E828F83A3858212858398
:10486C0013E060030249BD850E82850F83E0A2E050
:10487C0040030249BD7C0E7D0079008518828519A4
:10488C0083AA82AB831210EDEE2408F50AEF3400F4
:10489C00F50B850A82F583124B4A6019750C067567
:1048AC000D00780C121C8B850A82850B83E024107A
:1048BC00FCA3E0801A124B0CEA4B7003024B0275FE
:1048CC000C06750D00780C121C8BEA2405FCEB34DD
:1048DC0000FD7402121A59AA82AB83124EF2121AFC
:1048EC0024850E82850F83E0A2E25004D2F0800270
:1048FC00C2F0A2F0E433F8740C121A59E048F085B7
:10490C001082851183124B4A6015851082851183A4
:10491C00E02410F8A3E03400F988828983800390A6
:10492C00903E780C1218DE851082851183124B4A4A
:10493C00600F851082851183E0F510A3E0F51180DE
:10494C0006751000751100850A82850B83124B4A7F
:10495C00600B850A82850B83124B1B8006750A003F
:10496C00750B00780C121C877810121C8B780A12AD
:10497C001C8B851482851583121CA28E828F83A3B7
:10498C00124B23740A121A59AA82AB83121519748A
:10499C000A121A24850882850983124B2E900A7AF2
:1049AC00E8F0A3E9F07A017B009009D0E0F912114C
:1049BC0029124B477003024B02124B347003024B0B
:1049CC0002851282851383E0FC79011253388E82A2
:1049DC008F83121A63024B02124B477003024B0275
:1049EC00E0F5838882A3A3124B2E890BE8450B704C
:1049FC0003024B028E828F83A3E0FC7902125338A0
:104A0C008882850B8380CB7C007D00EE2404FAEF3A
:104A1C003400FB850882850983E0F91214DDE9F87E
:104A2C00C3940A4003024B02AC10AD117A0475F02A
:104A3C0006E8A42425F912167B024B029009E5E046
:104A4C00600E9010BEE0F9850882850983024859F2
:104A5C009010BBE07004790580ED124B0C8A0C8B26
:104A6C000DA80CA90DE82404F50CE93400F50D8E05
:104A7C00828F83A3A3A3A3A3A3A3E0A2E05036E851
:104A8C00496073850C82850D83E0FE6028850A825F
:104A9C00850B83E05410701D740E121A59AC82AD44
:104AAC0083E82405FAE93400FBEEF91214DDE97011
:104ABC000479038092AC0EAD0F850C82850D83E0DA
:104ACC00F9125338121561124B47602A124B34609D
:104ADC00257C0079000249D7120733E97018900A37
:104AEC0079E06401700812153D900A79E4F0795070
:104AFC001216871215317414121A247F0E021B4AD7
:104B0C00850882850983E0FAA3E0FB120ABD22E046
:104B1C00F50AA3E0F50B22A3A3A3A3A3E0FCA3E057
:104B2C00FD22E0F8A3E0F922E0F5838882A3A3E05C
:104B3C00F8A3E0F9E8FEE9FFEE4F229009EAE0F86D
:104B4C00A3E0F9E8492274F4121A7874F2121A0EDE
:104B5C00EAFE8C0B75F006E9A42420F50885188272
:104B6C00851983AC82AD837A0E124FAA704A7C06EB
:104B7C00124CCF7043740C121A59124B2EE8F509D3
:104B8C00E50B6005EE42098004EEF45209850982BA
:104B9C00AA82E86A7001E9601B740C121A59EAF0D7
:104BAC00A3E4F0851882851983AC82AD837A0EA9B3
:104BBC000812167B7901800279000243A374F21269
:104BCC001A7874E6121A0E890A8A088B09ECFEED23
:104BDC00FF740C121A59124F9D6003024C837C0611
:104BEC0079FF740C121A59124CD76003024C83745F
:104BFC0070250AF50B851882851983AC82AD837AF2
:104C0C000C124FAA6003024CC8851882851983AA1E
:104C1C0082AB83121513E508450970217C0C7900D1
:104C2C00124CD16003024CC87C0C7D0079008518B5
:104C3C0082851983AA82AB831210ED80618518825C
:104C4C00851983AC82AD83AA08AB0912150D8A0CA9
:104C5C008B0DA80CA90DE849702CEE4F6019851826
:104C6C0082851983AC82AD837A007B0012150DEA24
:104C7C00F8EBF9EA4B70047900804388828983E56C
:104C8C0008F0A3E509F0124D4FFAEE6A7001EF60DF
:104C9C002BEEF04F700888828983E4F0A3F085181E
:104CAC0082851983AA82AB83121513851882851904
:104CBC0083AC82AD837A0CA90B12167B7901741A22
:104CCC0002551679FF851882851983AA82AB831247
:104CDC00114DE92274F7121A787F00EF75F003A4D6
:104CEC00F8A9F0EC28F8ED124D13E06A7003A3E07C
:104CFC006B7006E8FAE9FB800B0FEFC3940440DB02
:104D0C007A007B0002504839F9888289832274F733
:104D1C00121A787E00EE75F003A4F8A9F0EA28F8D0
:104D2C00EB124D13E0F4FCA3E0F4FD88828983ECD4
:104D3C00F0A3EDF0124D4FF4F00EEEC3940440D5F9
:104D4C00025048E82402F582E93400F583E022742D
:104D5C00EE121A7874F4121A0EEAFEEBFF8C0A8D1E
:104D6C000B741E121A59E0F50CA3E0F50D74201209
:104D7C001A59E0F508A3E0F5097422121A59E0F566
:104D8C0010A3E0F511EE4F7005790A024E80121552
:104D9C0025E9F50EC3940A4023750F007C0679FFB4
:104DAC00E50F75F00EA4FAABF074EC2AFA74093B1B
:104DBC00FB124CDB7003024E8A850F0EE50EC3947A
:104DCC000A4003024E7E75F006E50EA4F50FEEFCCC
:104DDC00EFFD7A0E7420124E9BE50A450B600BAC6E
:104DEC000AAD0B7A1B7421124E9BE50C450D600B22
:104DFC00AC0CAD0D7A1B7422124E9BE50845096074
:104E0C000BAC08AD097A107423124E9BE5104511BA
:104E1C00601BAC10AD117A107424124E9B742412CA
:104E2C001A59AC82AD837A047425124E9B7C0C7D8E
:104E3C000079FF1255A77A0C7470250EF912167BA7
:104E4C0075080E7509007808121C8BEEFCEFFDE559
:104E5C000E75F00EA4F8A9F074EC28FA740939FB5D
:104E6C00124EF2121A24900A78E0600312156D1299
:104E7C00155BA90E740C121A247F0A021B4A050F2B
:104E8C00E50FC3940A5003024DA8750E0A80E32562
:104E9C000FF912167B2274F4121A7874F2121A0E8D
:104EAC00EAFEEBFFE9C3940A5004EE4F700479025A
:104EBC00802D851882851983124F9DF508701E75FB
:104ECC000A06750B00780A121C8B7402121A59AC64
:104EDC0082AD83EEFAEFFB124EF2121A24A90802ED
:104EEC0043A3AA08AB091210D574022274F4121A47
:104EFC0078EAFEEBFF750800750A06750B00780A58
:104F0C00121C8BEEFCEFFDE50875F00EA4F8A9F071
:104F1C0074EC28FA740939FB1210E77402121A2483
:104F2C00E96004A908800B0508E508C3940A40C889
:104F3C00790A0243A874F7121A7874F0121A0EEA5E
:104F4C00FEEBFF750800851882851983AC82AD8352
:104F5C007A1075F006E508A42423124FAA701F7C62
:104F6C0010124CCF7018EEFCEFFD8518828519835A
:104F7C00AA82AB8312063DE97004A908800B0508D0
:104F8C00E508C3940A40BF790A7410121A2402501F
:104F9C0048AC82AD837A0E75F006E9A42420F91290
:104FAC001681E92274F7121A78750800E50875F075
:104FBC000EA4F8A9F074EC28FE740939FFEEFCEF8E
:104FCC00FD7A0E75F006E508124FA7602C7C067D65
:104FDC000079FFEEFAEFFB1210ED7C067D0079FFF5
:104FEC00EE2406FAEF3400FB1210EDEE240CF582E1
:104FFC00EF3400F583E4F0A3F00508E508C3940A48
:10500C0040AA900A78E0600312156D12155B802C93
:10501C0074F7121A787E007F007C0679FFEF75F02A
:10502C000EA4FAABF074EC2AFA74093BFB124CDBBD
:10503C0070010E0FEFC3940A40DFEEF97F01021BE3
:10504C004A74F7121A787E00EEF91215430EEEC36D
:10505C00940A5003E960F180E374F3121A7874CB6C
:10506C00121A0EE9FF75F006A4F50874202508FE47
:10507C007427121A59AC82AD837A0EEE124FAA60C5
:10508C00030251677C0679FF7427121A59124CD708
:10509C0060030251677C0E7D0079FF7427121A5948
:1050AC00AA82AB831210ED7C1B7D0079FF740C126D
:1050BC001A59AA82AB831210ED7C0C7D0079FF8506
:1050CC001882851983AA82AB831210ED7427121AE9
:1050DC0059AC82AD837A0EEEF912167BE9F50974A0
:1050EC000C121A59AC82AD837A1B7421125176FEC4
:1050FC00740C121A59AC82AD837A1B74221251763D
:10510C00F50A740C121A59AC82AD837A10742312FE
:10511C005176F50B740C121A59AC82AD837A10745B
:10512C0024125176F50C740C121A59AC82AD837A98
:10513C00047425125176F508851882851983AC8282
:10514C00AD837A0C74702FF912167BE9F8EE450AD0
:10515C00450B450C45084842098003750900A9090F
:10516C007435121A247F05021B4A2508F912167B86
:10517C00E92274F7121A78E99009D0F0121531026D
:10518C00504874F2121A7874FB121A0E8A088B09A2
:10519C00EB548070030252329009D0E0F9121111D5
:1051AC008A0A8B0BA80AA90BE8FEE9FFE849606C98
:1051BC00EE2404F8EF3400F98E828F83E0245060E3
:1051CC003814600624E1604A804B88828983E07041
:1051DC00448E828F83A3A3A3A3A3A3A3121CA28E8A
:1051EC00828F83124B238E828F83A3A312533E1282
:1051FC0014E97402121A24801C88828983E0641ECC
:10520C00701379008E828F83A3A312533E1214E382
:10521C0080031214FBEEFAEFFB1210FFAA08E5094B
:10522C006480FB025333EAA2E0400302532F900A3E
:10523C007A124B1B7403121A5985820C85830D78D4
:10524C000C121C8B750C02750D00780C121C8B75D6
:10525C000CBB750D92780C121C8B7CFF7DFF7A01B8
:10526C007B0012078D7406121A24025317E4F50CF6
:10527C00F50D780C121C8B7404121A5985820C854E
:10528C00830D780C121C8B7404121A5985820C85B0
:10529C00830D780C121C8B7409121A59121CA279EA
:1052AC0002EEFCEFFDAA0AAB0B1208AD7408121A41
:1052BC0024E97035851882851983E0FA7401121A75
:1052CC0059E0F9EA2400F50CE439F50DEA450D60D6
:1052DC0018780C121C8B8E828F83124B24AA0AAB6B
:1052EC000B1214E97402121A24E4F50CF50D780C67
:1052FC00121C8B7405121A59121CA27CFF7DFFEE36
:10530C00FAEFFB1207997404121A248A0C8B0DAE57
:10531C000CAF0DEE4F6003025279E5086401FAAB55
:10532C000980047A007B0074050255168508828575
:10533C000983E0FAA3E0FB22C082C0839009D0E08D
:10534C00F98A828B83A312533E1208BF02471EC0F8
:10535C0082C08374FF121A0E121537E9C3940285AA
:10536C001882851983400474028002740AF0AC829E
:10537C00AD837A01790512074B7401121A24024786
:10538C001E74F2121A7874E8121A0EEAFEEBFF89F8
:10539C000A8C088D097C187D0079001255AFEEF04F
:1053AC00A3EFF09009D2E0C0E07402121A59D0E0D9
:1053BC00F09009D3E0C0E07403121A59D0E0F090D9
:1053CC0010C0E0C0E07417121A59D0E0F074151236
:1053DC001A59E054FEF8A3E0F99010BFE0A2E0E403
:1053EC0033FAE84AF87415121A59125525A2E150ED
:1053FC0004D2F08002C2F0E854FDFAA2F0E4333398
:10540C00F8EA48F87415121A59125525A2E35004FB
:10541C00D2F08002C2F0E854F7FAA2F0E433F50CB3
:10542C00750D007403780C1219FB12551E121A59C3
:10543C00125525A2E45004D2F08002C2F0E854EFD9
:10544C00FAA2F0E433F50C7404780C1219FB125523
:10545C001E121A59125525A2E55004D2F08002C230
:10546C00F0E854DFFAA2F0E433F50C7405780C1272
:10547C0019FB12551E121A59125525A2E25004D2CC
:10548C00F08002C2F0E854FBFAA2F0E433F50C749D
:10549C0002780C1219FB12551E121A59E8F0A3E9E6
:1054AC00F09009D3E0601B750C10780C121C8B7CEF
:1054BC00D47D097406121A59AA82AB83124EF212C9
:1054CC001A249009E4E06011E50A60097415121AB7
:1054DC0059E04402F07801800278007414121A59D1
:1054EC00E048F09009D1E060047804800278007400
:1054FC0014121A59E048F0AC08AD098518828519C8
:10550C0083AA82AB831206617418121A247F0602D6
:10551C001B4AEA450CF8741522E8F0A3E9F0901048
:10552C00BFE02274F3121A7874E5121A0EEAFEEB3D
:10553C00FF8C098D0A7428121A59E0F50C75F006C7
:10554C00E9A4F87408650A70047422800274212896
:10555C00F50B7C1B7D0079001255A77A1BA90B1249
:10556C004FAB7032741A121A59E024F9C3940A50D2
:10557C0025E50CF50B780B121C8F7401121A59AC23
:10558C0082AD83E509A2E0E433F9EEFAEFFB1206F3
:10559C00737401121A24741B02516E1255AFAC8233
:1055AC00AD8322851882851983AA82AB831210EDF4
:1055BC008518828519832274F7121A7812093175AD
:1055CC000800E50875F00EA4F8A9F074EC28FE7438
:1055DC000939FF7C0679FFEEFAEFFB124CDB700900
:1055EC00EEFAEFFB79001209370508E508C3940AB7
:1055FC0040D0025048C082C0839061907404F0A3E4
:10560C007448F0A3E4F09061807440F09061BC7435
:10561C0007F09061877469F09061B67416F07900A8
:10562C00120BBF7902120BC59027ECE493F46006C1
:10563C00E493F9120B9B7905120EB9025A43C082FE
:10564C00C083E9540FF9906185E0696012E5C65496
:10565C00804449F5C6E59E547F644970F8E9F053DF
:10566C00C680E59E547F70FA025A4374F7121A787A
:10567C00E5A8FE53A87E120BA7C2BA539AFEC289A4
:10568C00759B00C2C2120BAD75A91175B905120B31
:10569C00B3D2BA439A0174805E42A8025FD0C08232
:1056AC00C083906181E4F0A3025A4075E9007591C2
:1056BC000075BF00020135C082C083906181E4F0A7
:1056CC00A374C0F0A3E4025A42C082C08374F812DF
:1056DC001A0E9003C4125EB2E849700302578C9004
:1056EC0003C4E0544060237908851882851983AA85
:1056FC0082AB83120CB5851882851983AA82AB8381
:10570C0012095B9003C4E054BFF0E0548060107940
:10571C000C7A807B05120CB59003C4E0547FF0E04A
:10572C00A2E05008790012579454FEF0E054026045
:10573C0008790112579454FDF0E054046008790084
:10574C0012579F54FBF0E054086008790112579FE0
:10575C0054F7F0E054106008790212579F54EFF0A0
:10576C00E054206008790312579F54DFF0A3E054F3
:10577C0001600D120BD112096D9003C5E054FEF0BF
:10578C007408121A24025A43120BBF1209619003B7
:10579C00C4E022120BC51209679003C4E022C08238
:1057AC00C083E9600514602A804F90619A7433F0CD
:1057BC00A37455F09061A0743AF090055CE064011C
:1057CC007009C2919003C67467802D9003C67461F2
:1057DC00802690619A743FF0A3745AF09061A07483
:1057EC007FF090055CE064017009D2919003C6745F
:1057FC007180059003C6746AF0025A43C082C0835C
:10580C00E9600B14600D14600F1460118020902758
:10581C00F080159027F180109027F2800B90055C9A
:10582C00E0640160F39027F3E493906186F0025AF0
:10583C004374EE121A7874F4121A0E8518828519B4
:10584C0083AC82AD8375839075822A7404121921FE
:10585C009027F093F460030259CF907808E0C3943A
:10586C000250030259AF7404121A59AC82AD8375FD
:10587C00838F75829E7408121921F97AFF7BFF7F42
:10588C00FF7E008982858210801874086E70030276
:10589C00596474096E7003025964740A6E700302C1
:1058AC005964E510C333FCE433FD7404121A59E552
:1058BC00822CF582E5833DF583E0F50EA3E0F50F30
:1058CC008E08750900740278081219FB74482508B3
:1058DC00FC74783509FD8C828D8378081218DE747F
:1058EC0008780812181F85080C85090D8C828D8389
:1058FC0078081218DE7418780812181FE50C450881
:10590C00F508E50DF509C3E50E9508E50F95098C2D
:10591C00828D8378081218DE8C828D837808121899
:10592C00DE74187808401412181FE50C4508FCADFD
:10593C000DE50EC39CFCE50F9D800F12181FE50CA6
:10594C004508C3950EFCE50D950FFDC3EC9AED9B38
:10595C005006ECFAEDFBEEFF0EEEC394135003026F
:10596C00589674FF6A700374FF6B602D8F08740275
:10597C0078081219FB744812665E74783509F58341
:10598C0078081218DE851882851983E5822510F5B2
:10599C0082E5831263EBE508F009E9C39404500334
:1059AC000258877508017509007808121C8B74025F
:1059BC00121A59AC82AD837AFC7B091215AF7402B2
:1059CC00121A24740C121A247F0A021B4AC082C0B9
:1059DC0083906186E0F89027F3E493687009902730
:1059EC00F2E493906186F09061AE7468F0A3746AEF
:1059FC00F090624574FBF0A304F053F4FD43FE02F7
:105A0C0090055C7401F09061A0E0643A7004790038
:105A1C0080027901120BBF025A43C082C0839005E9
:105A2C000EE06401700A900513E06004790C8002AA
:105A3C0079008003F0A3F0D083D082020135C082BC
:105A4C00C08375E1F1900511E0604D14600814609D
:105A5C00511460498051120BE3900507E0F97A0864
:105A6C007B05120E3B90901E1218FC120E71909139
:105A7C002A1218FC120E47900512E0F9120E5379F7
:105A8C0001120EAD900505E02416125BD874FBF0E4
:105A9C00A3740BF07900809F120BE980BC120BEF02
:105AAC0080B7120BF580B2791280EB74F4121A786D
:105ABC0075D90D9004F6E0A2E0E4331313F8125BF1
:105ACC0044484401F5D97800125BC240FB78008849
:105ADC000874F712665E7404125BCC40F275E195A3
:105AEC009004F6E0F97AF77B04120E41900E3474B0
:105AFC0071F0A3740B125BE7125C07125BFE125D74
:105B0C003F125B4E78081218DE909032780812180B
:105B1C006A9090E678081218B8125BD278081218BE
