:020000040000FA
:0600000002011D02206A4E
:030013000227239E
:03002B00022707A2
:030033000226F7AB
:03003B0002278910
:030053000220E0A8
:03006B000226D496
:03007B000226E773
:10008300021F5BE5C754F84401F5C779012200005C
:100093000080FB120086B90003020107E47921788E
:1000A30008B800028004F709D8FCE479297802B87B
:1000B30000028004F709D8FCE490028178D5790B1B
:1000C3008002F0A3D8FCD9FA781A90014D7A01BACC
:1000D30000028007E493A3F608DAF9900D55AA828B
:1000E300AB8390014E789879048015E493A3AC8296
:1000F300AD838A828B83F0A3AA82AB838C828D83A8
:10010300D8E9D9E77582417583D2740312012F753B
:100113008291758300740012012F75D00075813FA1
:10012300751881751902759F00020096C09FF59F8F
:10013300E473D09F22D083D082C09FE493C0E07445
:100143000193C0E0740293F59F2201FF0000B40005
:100153000028002800283075A000A000A000A000FF
:1001630000080008E001F00010001000100010006B
:100173001000100050005000500010001000D00775
:100183000000000000000F000100050030750700AB
:100193001000010081FF0000FFE3060107E906FFED
:1001A30002020208025000A0000000E80302B3921A
:1001B300010000769202B792010000AA0D02BD92DF
:1001C300010000B20202B792010000AB0D02BF9220
:1001D300010000C80202B792010000AC0D02C192F7
:1001E300010000CA0202B792010000AD0D02C392E2
:1001F300080000CB0202B792010000AE0D02C592C7
:10020300010000AF0DFF0100FF2002B392010000C7
:10021300799202B792010000130E02C79200000008
:10022300000002BB9203000018031F0D1F0D1F0DDA
:100233001F0D1F0D1F0D1F0D1F0D1F0D1F0D1F0D5B
:100243001F0D1F0DF50F0D10EF0FFFFF0A41636325
:10025300656C20456E61626C6500000214004163A9
:1002630063656C2052616E67650000101010416376
:1002730063656C20582D436F6F7264696E6174659A
:100283000000416363656C20592D436F6F7264698D
:100293006E6174650000416363656C205A2D436F82
:1002A3006F7264696E617465000002B392010000AD
:1002B300859202B792010000560E02CF920300000E
:1002C3007A0702B992010000570E02B792010000AB
:1002D300650E02CD92010000660E02B99201000084
:1002E300680E02B792010000750E02CB9200000067
:1002F3007B0702BB920300007E0702B99201000054
:10030300780E02B792010000760E02D79200000029
:100313007C0702BB92030000840702B9920100002C
:100323008C0E02B792010000770E02AB9200000020
:100333007D0702BB920300008A0702B99201000005
:10034300A00E110199010F1264040102B39201007E
:1003530000889202B792010000510F02A59201009A
:1003630000520F02BB92030000980702C9920100DA
:1003730000530F65126B1259125F123690758F8BF3
:100383008F0C094F4C503432352D30303030020150
:10039300054F4C503432352D3030303000000000E2
:1003A300000000000000DD120000CB12D112E312A6
:1003B3000113FB12071300003291B08E0A0A02B335
:1003C300920100007F9202B792010000C60F02A9BA
:1003D300920300005E0902B792010000C70F02AD4D
:1003E300920300005F095D8FAA91DE911C1C02B38A
:1003F300920100007C9202B792010000F60F1002F6
:100403008F0200007C0902BB92030000760902B749
:1004130092010000F70F10F28E0200007D0902BB6B
:10042300920300007009858E1202B39201000082CC
:100433009202B792010000321002D392010000B57C
:100443000902BB92030000B609698F02020202028D
:10045300010D000000100102B3920100009492020A
:10046300B7920100005510029F92010000C80902D3
:10047300B7920100005610029D92010000818F0285
:10048300B7920100005710029B92010000D68F0221
:10049300B79201000058100297920100002E9002BB
:1004A300B7920100005910029992010000328F01A6
:1004B300E803053F10FF0001307503020106000049
:1004C3000000000000000000000000000000000029
:1004D30000000000000000000000FFFF0600800C89
:1004E300E8031201381AC40312013831C40312019C
:1004F3003860C40312013899C403120138C1C4031C
:10050300120138EFC40312013806C5031201381D66
:10051300C50312013833C5031201385AC50312014A
:10052300386DC50312013883C50312013896C5031C
:10053300120138BBC50312013827A4021201382661
:10054300A5021201385BA5021201387CA502120133
:10055300388CA502120138ADA502120138B9A602E2
:1005630012013886A702120138F9A7021201387F57
:10057300A802120138C2A802120138F9A802120116
:10058300387FA90212013851AA02120138AFAA0218
:10059300120138C7AA0212013841AB0212013844D2
:1005A300AB0212013847AB02120138EEAB02120163
:1005B3003806AC0212013836AC0212013856AC02CE
:1005C30012013844AD02120138FAAD02120138D9D2
:1005D3008903120138018A031201382F8A03120199
:1005E30038668A03120138CE8A03120138178B0347
:1005F300120138628B03120138A08B03120138DD1C
:100603008B031201380B8C03120138B28C031201D5
:1006130038BC8C03120138C98C03120138FC8C03DB
:10062300120138BE8D03120138CA8D03120138E25C
:100633008D03120138EC8D0312013821CD03120111
:10064300382FCD0312013847CD031201385FCD0394
:100653001201387DB2011201381BB3011201389324
:10066300B301120138A8B401120138E2B401120136
:10067300388BB50112013860B601120138C4B701D5
:100683001201381BB801120138A2B80112013889CE
:10069300B901120138D6B90112013864BA01120145
:1006A3003888BA011201385DBC011201389EBC01C1
:1006B300120138C0BC0112013841BD011201382BAF
:1006C300BE01120138F1BE011201385BEA021201C8
:1006D300382DEB02120138D6EB0212013819EC0265
:1006E300120138A6EC0212013832ED02120138135E
:1006F300EE0212013842EE021201383EEF021201FD
:100703003886EF0212013888F002120138CCF00269
:10071300120138F2F002120138CAD003120138195B
:100723007C001201382F7C00120138557C00120125
:10073300387D7D00120138877D00120138E07E008C
:10074300120138E07F00120138EEF602120138235D
:10075300F80212013856F802120138A0F802120109
:10076300385EFA0212013820A30112013883A30173
:10077300120138C8A401120138D8A401120138FBB0
:10078300A40112013846A501120138EBA50112019B
:1007930038E1A601120138ABA70112013823A901E0
:1007A30012013865A90112013803AA011201385058
:1007B300AA0112013876AA0112013864AC011201B0
:1007C3003869AC011201384AAE011201389EAE01FC
:1007D30012013800AF0112013828AF01120138CCE1
:1007E300AF011201388EB001120138BFB0011201FE
:1007F30038C2B0011201380AB1011201384CB101FB
:10080300120138B3B101120138CFB203120138E239
:10081300B203120138FBB20312013846B3031201CB
:100823003821B403120138B0B403120138FBB40306
:10083300120138F427001201380028001201383958
:1008430028001201387E28001201383529001201D0
:1008530038BB2900120138202A001201384C2A0023
:10086300120138852A00120138992C0012013875BB
:100873002E00120138603000120138973100120146
:1008830038F73300120138E33400120138293600F7
:100893001201383637001201385337001201388BF2
:1008A3003700120138A537001201380D3800120144
:1008B30038A73C00120138483D00120138993D0029
:1008C300120138C03D001201380E3E001201382CCF
:1008D3003E00120138803E00120138593F001201D8
:1008E30038E04000120138684100120138008003EB
:1008F3001201380A8003120138D58003120138F03F
:1009030080031201381681031201385A8103120140
:1009130038928103120138BB8103120138348203F8
:100923001201384982031201385E8203120138959D
:100933008203120138A98203120138DA82031201F9
:10094300381483031201384083031201386E830382
:10095300120138B98303120138578403120138A0F6
:100963008403120138CA8403120138EF840312018D
:100973003814FC02120138DEFC02120138C1FD02F8
:1009830012013837FE0212013879FE02120138A62D
:10099300FF02120138878C02120138B08C02120157
:1009A30038C98C021201380E8E02120138EC8E0205
:1009B3001201380B8F02120138988F02120138DBB3
:1009C3008F02120138289102120138C791021201D5
:1009D30038469402120138DD9402120138B19502AF
:1009E300120138939602120138FF970212013892CE
:1009F300980212013865C703120138CEC7031201EA
:100A03003822C80312013849C80312013875970305
:100A1300120138E297031201382D9803120138228C
:100A230099031201381E9A03120138089B0312011D
:100A3300389AD202120138DCD202120138B6D3023C
:100A43001201388FD4021201388AD5021201386993
:100A5300D602120138D5D6021201389CD7021201F0
:100A63003807D8021201386ED80212013899D80219
:100A73001201380AD9021201389DD902120138062F
:100A8300DA021201381BDA0212013863DA021201A8
:100A9300387CDA02120138E1DA02120138E4DA02B0
:100AA30012013849AA0312013871AA03120138AF9F
:100AB300AA031201386DAB03120138D8AB0312013C
:100AC30038F4AB031201381CAC031201384CAC03ED
:100AD3001201385BAC03120138D5AC03120138FBA9
:100AE300AC03120138DA9201120138779401120132
:100AF300385D96011201382797011201386E97016C
:100B0300120138B59701120138C79701120138074E
:100B130098011201383698011201388298011201A6
:100B230038BA9801120138E898011201383999014D
:100B3300120138C89901120138B69C01120138908C
:100B43009E01120138CC9E0112013826A001120128
:100B5300386DA001120138E2A00112013830A10161
:100B630012013851A101120138C3A1011201381A2F
:100B7300C10212013837C102120138D1C602120173
:100B830038D3C7021201384DC902120138FBC9021A
:100B93001201380156001201384A56001201387703
:100BA3005600120138AA5600120138B75600120136
:100BB30038C35600120138D55600120138AA57001F
:100BC3001201380858001201383D5800120138D973
:100BD3005900120138265A001201384A5A001201EC
:100BE30038B75A001201385C5B00120138185C00F8
:100BF300120138975C001201385B5D001201386AFC
:100C03005D00120138EB5D001201388A5E001201AB
:100C130038BC5E00120138575F00120138B55F001F
:100C2300120138EF5F001201387060001201383989
:100C33006100120138E26100120138696200120199
:100C430038C162001201382263001201384B63007D
:100C53001201380164001201384B65001201388E0D
:100C63006500120138AB6500120138CA6500120134
:100C7300381566001201383A6600120138636600BF
:100C8300120138D2660012013814670012013818B5
:100C93006800120138B268001201387E690012013F
:100CA3003897690012013865AE02120138B8AE02F6
:100CB300120138C4AE0212013899AF02120138C0D2
:100CC300AF02120138FBAF0212013867B002120102
:100CD300389BB002120138D4B002120138ECB002D2
:100CE30012013845B1021201385EB102120138A770
:100CF300B102120138BAB102120138D4B1021201A1
:100D030038EAB10212013806B30212013817B402ED
:100D130012013864B50212013849B602120138F0E3
:100D23007F0012013822EA0112013856EA0112014A
:100D330038C1ED011201380BEF01120138D5EF0173
:100D43001201385FF1011201383AF20112013874CD
:100D5300F20112013897F201120138D9F20112019E
:100D630038E2F2011201382CF30112013836F30193
:100D7300120138E2F301120138B6F4011201380A04
:100D8300F5011201386CF501120138BFF5011201AA
:100D930038EEF5011201382DF601120138C9690048
:100DA300120138237200120138297200120138E44B
:100DB3007700120138CA7B0012013830A3031201F5
:100DC30038A6A303120138BCA303120138F9A30305
:100DD30012013831A403120138AEA403120138E919
:100DE300A40312013864A503120138A0A50312015C
:100DF30038A9A503120138B5A503120138CFA503FD
:100E0300120138F4A5031201380AA603120138337C
:100E1300A60312013896A60312013817850312019F
:100E2300382A85031201384485031201386D85037E
:100E3300120138B08503120138EF85031201382DF2
:100E43008603120138928603120138A78603120122
:100E530038B28603120138BF8603120138D68603DF
:100E6300120138E48603120138EF8603120138FBBE
:100E730086031201380E8703120138198703120102
:100E8300383C8703120138E58703120138F58703DD
:100E93001201380F88031201382C880312013848D5
:100EA30088031201386D8803120138778803120111
:100EB300388B8803120138AA88031201380B89037F
:100EC3001201381189031201381789031201381DE1
:100ED30089031201382989031201385C890312013D
:100EE30038A9CF011201382BD001120138D4D00117
:100EF3001201381CD2011201382AD4011201381010
:100F0300D50112013845D50112013867D501120107
:100F13003810D601120138E0D70112013809D8017F
:100F230012013881D801120138B3D801120138C037
:100F3300D8011201380BD9011201382FD90112013E
:100F43003880DB011201388ADC01120138E6DC014A
:100F530012013826C10112013837C2011201381BB0
:100F6300C30112013825C30112013847C30112011D
:100F73003853C301120138F7C40112013824C501E3
:100F83001201383AC6011201388FC601120138DE48
:100F9300C701120138B3C8011201380FC901120188
:100FA300387AC901120138AFC901120138F2C901F7
:100FB300120138BCCC01120138D4CC0112013865BE
:100FC300CD0112013873CD01120138C0CD011201D8
:100FD30038CECD011201383ACE01120138B5CE0117
:100FE3001201380CCF011201380999021201382B72
:100FF30099021201383C9B02120138FB9D02120137
:1010030038259F02120138E39F02120138CFA00254
:1010130012013861C20312013886C203120138FC7F
:10102300C2031201383EE30212013847E302120100
:101033003850E30212013828E402120138D9E502DC
:1010430012013809E60212013834E602120138644B
:10105300E6021201388FE602120138C3E6021201DA
:1010630038EFE60212013832E7021201385DE70277
:10107300120138A4E702120138F9E7021201383BE2
:10108300E80212013895E802120138C0E8021201A1
:10109300380FE9021201383FE9021201386AE90206
:1010A30012013898E902120138BBE90212013853E0
:1010B300D1031201387FD103120138ACD1031201DD
:1010C30038B6D103120138C6D10312013867F102D1
:1010D30012013871F102120138B2F102120138FB28
:1010E300F10212013835F2021201388BF2021201B9
:1010F30038ACF202120138B5F20212013809F302D8
:1011030012013832F3021201383CF302120138AAF9
:10111300F3021201383AF40212013895F402120173
:1011230038C3F4021201384BF5021201388AF50272
:10113300120138BFF502120138D1F502120138F05D
:10114300F502120138F9F502120138C0F602120154
:10115300387CC90312013870C003120138A6C003DA
:10116300120138DAC00312013827C20312013834DE
:10117300D0031201384AD00312013854D0031201AC
:10118300389ED003120138818E03120138948E03E6
:10119300120138558F03120138948F03120138B1AD
:1011A3008F03120138EA8F031201383790031201BB
:1011B30038699003120138A09003120138A99203F1
:1011C300120138D0D10312013844CC03120138671D
:1011D300CC0312013896CC03120138D8CC03120188
:1011E30038C6A60312013821A7031201383EA7030C
:1011F30012013852A80312013816A903120138FC50
:10120300A90312013843AD031201387AAD03120169
:101213003891AD031201383DAE03120138D6AE0347
:101223001201385EAF0312013873CA031201381B6F
:10123300CB031201381DCA0212013845CA0212013A
:1012430038ADCA021201384DCB021201389DCC02CF
:1012530012013807CD02120138C8CD021201387DC0
:10126300CE0212013893CF021201382FD00212019D
:101273003887D002120138C5D002120138E0D002FB
:10128300120138EDD1021201382BD2021201380FAC
:10129300F701120138F6F70112013856F80112016D
:1012A30038C2F901120138CAFB011201380DFD01E0
:1012B30012013805FF011201384BFF0112013806F4
:1012C300B80212013868B802120138D2B902120109
:1012D30038E9B9021201384ABA02120138C8BB020E
:1012E300120138DABC02120138DDBC021201388265
:1012F300BD02120138DBBD02120138DEBD0212014C
:1013030038BCBE0212013862BF0212013865BF0247
:101313001201387BBF02120138ABBF021201380A37
:10132300C0021201381FD303120138989F03120120
:101333003817A00312013885A00312013807A2034E
:101343001201387BB703120138E9B703120138FAE7
:10135300B80312013825B50312013829B503120168
:101363003847B5031201385BB503120138A8B5033A
:1013730012013865B6031201386EB60312013877CD
:10138300B60312013880B603120138EDB603120119
:10139300380EB70312013841B7031201381593030E
:1013A3001201384F9303120138B595031201380720
:1013B3009603120138449603120138C196031201B1
:1013C30038008002120138598002120138B38102B9
:1013D3001201382A82021201385E82021201382376
:1013E30083021201384E8302120138628302120112
:1013F30038A28302120138F98502120138218702CB
:10140300120138948802120138B88802120138DBBD
:1014130088021201383B8A02120138CF8A02120174
:1014230038958B02120138188C02120138518C0244
:1014330012013863CB0312013867CB0312013879E9
:10144300CB0312013885CB031201389ACB03120167
:1014530038C9CB03120138F6CB031201382ECC0363
:1014630012013842BE0312013896BE03120138D26C
:10147300BE03120138A4BF0312013837C00312019F
:1014830038CA9B03120138CE9B03120138089C0310
:10149300120138309C03120138C89D031201387FB2
:1014A3009E03120138D79E03120138199F031201BC
:1014B300384B9F031201382BB00312013850B0038D
:1014C3001201387AB0031201389CD203120138CFCB
:1014D3004100120138AD43001201384C450012019E
:1014E30038F74500120138774600120138FC4600F0
:1014F300120138254700120138774700120138528C
:101503004B00120138C94B00120138E04C001201A4
:10151300381A4D001201385B4D00120138A24E00FB
:10152300120138F84E00120138414F00120138B051
:101533004F001201381C50001201384D50001201A7
:10154300386550001201387E51001201388E510067
:101553001201384453001201385B53001201388DD5
:1015630053001201382F5500120138C355001201E0
:101573003878CF0312013889CF0312013829D003F9
:10158300120138EA7F0012013880D303120138F8C0
:10159300CD0312013808CE031201381ACE0312010B
:1015A30038ABCE031201387AC803120138FFC803DF
:1015B30012013863C903120138ED7F001201386A42
:1015C300D3031201387AD3031201387DD3031201F6
:1015D30038F87F001201380EBC0312013898BD039E
:1015E300120138F9BD031201383FBE03120138B8A6
:1015F300CE0312013852CF031201386ACF0312010E
:1016030038CDC5031201381FC60312013892C60331
:10161300120138FFC603120138C7B903120138F1AA
:10162300B903120138C0BA031201389CBB0312017B
:101633003808DB02120138D4DB0212013815DC0250
:101643001201384FDC02120138ADDC0212013801FD
:10165300DD021201385FDD02120138F5DD021201ED
:1016630038FDDE0212013887E00212013825E1025B
:101673001201388CE1021201389FE1021201389302
:10168300E202120138DCE20212013833DD011201F9
:101693003865E001120138F6E1011201384DE2012B
:1016A3001201386AE201120138EAE20112013866D6
:1016B300E40112013835E501120138A2E8011201F3
:1016C300388CE901120138B1FF01120138F2D2035B
:1016D3001201384CD303E066701008A3E066700A69
:1016E30008A3E066700408A3E06622C3E79608092E
:1016F300E7960809E7960809E79622C3E09608A348
:10170300E09608A3E09608A3E09622C008C3E096FB
:10171300F50808A3E096420808A3E096420808A348
:10172300E09645087001D3D00822080808EAC0E013
:10173300EBC0E086F0E7A4FA180986F0E7A42AFADA
:10174300180986F0E7A42AFA180986F0E7A42AFA0A
:101753001986F0E7A4FBE5F02AFA190886F0E7A456
:101763002BFBE5F03AFA190886F0E7A42BFBE5F02A
:101773003AFA18180986F0E7A4C5F02BFBE43AFA05
:101783001908E7C5F0C6A426F6E5F03BFBE43AFAF0
:101793001886F0E7A4F6E5F00826F6E43B08F6E43D
:1017A3003A08F6D0E0FBD0E0FA22E4CFC0E0E4CE82
:1017B300C0E0E4CDC0E0E4CCC0E075F020C3E63384
:1017C300F608E633F608E633F608E633F618181893
:1017D300EC33FCED33FDEE33FEEF33FFC3EC97093F
:1017E300ED9709EE9709EF97191919400FFFEC9739
:1017F300FC09ED97FD09EE97FE191906D5F0BEEC2D
:10180300F709EDF709EEF709EFF7191919D0E0FC1D
:10181300D0E0FDD0E0FED0E0FF226016080808C645
:10182300C313C618C613C618C613C618C613C6D51F
:10183300E0EA227009080808226016181818C6C3BF
:1018430033C608C633C608C633C608C633C6D5E092
:10185300EA22E627F60809E637F60809E637F60826
:1018630009E637F622E026F608A3E036F608A3E0F9
:1018730036F608A3E036F622E026F008A3E036F0B9
:1018830008A3E036F008A3E036F022C3E697F60893
:1018930009E697F60809E697F60809E697F622C3DC
:1018A300E096F008A3E096F008A3E096F008A3E022
:1018B30096F022E056F608A3E056F608A3E056F6A3
:1018C30008A3E056F622E056F008A3E056F008A37A
:1018D300E056F008A3E056F022E0F608A3E0F6088D
:1018E300A3E0F608A3E0F622E6F008A3E6F008A3D7
:1018F300E6F008A3E6F022E0FAA3E0FBA3E0FCA3F2
:10190300E0FD22EAF0A3EBF0A3ECF0A3EDF022CA92
:10191300C0E0E6F0A308DAFAD0E0FA22CAC0E0E0B9
:10192300A3C582CCC582C583CDC583F0A3C582CCB4
:10193300C582C583CDC583DAE6D0E0CA22C3E49865
:10194300F8E499F91219818026C3E49AFAE49BFB1F
:10195300E920E7E9121981E498F8E499F922C3E44C
:1019630098F8E499F9121981E498F8E499F9C3E431
:101973009AFAE49BFB22EB20E7CFE920E7E0B900EA
:1019830010BB0008E88AF084F8AAF022E4FBC8FA46
:1019930022EB70227B10C833C8C933C9335007C345
:1019A3009AC3DBF280069A50012ADBEAC833F4C8F3
:1019B300C933F4C9FA2275F008E4C833C8C933C976
:1019C30033C99AC99B5004C92AC93BD5F0ECFBC85B
:1019D30033F4C8E4C9FA22600D08C6A2E713C61897
:1019E300C613C6D5E0F322600C08C6C313C618C6D7
:1019F30013C6D5E0F422700422600D18C6C333C6A3
:101A030008C633C6D5E0F41822251810AF08F51818
:101A1300400215198008F51840021519D2AF22C0EB
:101A2300D0251810AF08F518500205198008F518CD
:101A330050020519D2AFD0D0222518F58210AF0875
:101A4300F518400215198008F51840021519D2AF90
:101A5300851983222518F582E43519F58322E47369
:101A6300C0E0E8C0E0E58124FCF8E6A2E7D0E0F8B6
:101A7300D0E0222518C582C0E0E51934FFC583C034
:101A8300E0E518C3958224F810AF08858319858291
:101A9300188008858319858218D2AFCEF0A3E5207C
:101AA300F0A37808E608F0A3DEFAEFF0A3E58124BB
:101AB300FAF8E608F0A3E608F0A3E608F0A308089E
:101AC300E608F0A3E608F0A315811581D0E0FED067
:101AD300E0F8158115811581E8C0E0EEC0E022250C
:101AE30018C582C0E0E51934FFC583C0E0E518C31B
:101AF300958224F910AF088583198582188008859B
:101B03008319858218D2AFCEF0A3E520F0A378081D
:101B1300E608F0A3DEFAEFF0A3E58124FBF8E6087C
:101B2300F0A3E608F0A30808E608F0A3E608F0A38C
:101B330015811581D0E0FED0E0F815811581E8C04C
:101B4300E0EEC0E022851983851882E0A3FEE0A3BE
:101B5300F5207808E0A3F608DFFAE0A3FFE0A3C0CE
:101B6300E0E0A3C0E0E0A3C0E0E0A3C0E0E0A3C0E6
:101B7300E010AF088582188583198008858218854F
:101B83008319D2AFD083D08202013585198385189A
:101B930082E0A3FEE0A3F5207808E0A3F608DFFACD
:101BA300E0A3FFE0A3C0E0E0A3C0E0E0A3C0E0E067
:101BB300A3C0E010AF088582188583198008858249
:101BC30018858319D2AFD083D08222C0D02518C5FF
:101BD30082C0E0E51934FFC583C0E0E518C39582F0
:101BE30024F310AF0885831985821880088583192B
:101BF300858218D2AFC8F0A3E9F0A3EAF0A3EBF013
:101C0300A37908E709F0A3D8FAECF0A3EDF0A3EE6B
:101C1300F0A3EFF0A3D0E0F0A3D0E0F0A3D0E0F086
:101C2300A3E520F0A3E5F0F0A322851983851882AC
:101C3300E0C0E0A3E0F9A3E0FAA3E0FBA37808E0A7
:101C4300F608A3DFFAE0FCA3E0FDA3E0FEA3E0FFB8
:101C5300A3E0C0E0A3E0C0E0A3E0F5D0A3E0F5205B
:101C6300A3E0A3F5F010AF088583198582188008D7
:101C7300858319858218D2AFD082D083D0E0F8D083
:101C8300E03274048006740280027401C0E0F4043C
:101C9300121A3CD0E01219122274048004740280D8
:101CA30000CCC0E0EDC0E0E518C39CCCAD195001F9
:101CB3001D10AF068C188D1980068C188D19D2AFA4
:101CC30012191FD0E0FDD0E0FC22D083D082E9C0FE
:101CD300E0E493A3C386F0C5F095F0F908E493A379
:101CE30086F0C5F095F0700BE493A3C3994005E922
:101CF300048002A3E475F002A42582F582E5F035A1
:101D030083F583D0E0F9E493A3C0E0E493C0E02239
:101D1300D083D082ECC0E0EDC0E0E493A3FCE49375
:101D2300A3FDED4C600D121D5FEC24FFFCED34FFB1
:101D3300FD80EFE493A3FCE493A3FDED4C600D124F
:101D43001D9EEC24FFFCED34FFFD80EFD0E0FDD0C1
:101D5300E0FCE493A3C0E0E493C0E022C0E0C3E46A
:101D63009396087401939618400FE49366700808DD
:101D7300740193661870007019A3A3C3E4939608C3
:101D83007401939618A3A3400DD0E0D0E0D0E002F5
:101D93001D4FA3A3A3A3A3A3D0E022C0E0C0F08858
:101DA300F0E4936670080874019366187000A8F055
:101DB300A3A3700BD0F0D0E0D0E0D0E0021D4FA37E
:061DC300A3D0F0D0E022E5
:101DCC0074F5121AE2EAFEEBFFEE2434F8EF34005D
:101DDC00F988088909EE2435121F04F8EE2437120D
:101DEC001F04F50AEC850AF0A4FCAAF0850AF0EDB4
:101DFC00A42AFDE82CF8E43DF97A257B0012198120
:101E0C00EA850882850983F05407F87401B800024A
:101E1C008004C333D8FCC0E0E0131313541FF8EE56
:101E2C0028F8EF3400F9E8245DF582E93400F583F5
:101E3C00D0E0F8E0586008850882850983801DEEA3
:101E4C002436121F04F5F0EA84A8F0EE28F8EF34DB
:101E5C0000F9E82438F582E93400F583E0F97F04D1
:101E6C00021B8E74F5121AE2EAFEEBFFEE2434121A
:101E7C001F04C0E0EE2435F582EF3400F583D0E08A
:101E8C00F08E828F83A3A3A3A3A3E0FAA3E0FB8E1F
:101E9C00828F83A3A3A3A3A3A3A3E0FCA3E0FDECE5
:101EAC00C39AF50AED9BF50BEE2480F508EF340090
:101EBC00F509850882F583E06401702BEE2481F529
:101ECC0082EF3400F583121CA0121F0D7402121A3B
:101EDC0022E960137CFD7D04EEFAEFFB120C4D85BC
:101EEC000882850983E4F0AC0AAD0BEEFAEFFB1225
:101EFC001DCC1226C6021E6AF582EF3400F583E073
:101F0C0022C082C083851882851983E0F8A3E0F98A
:101F1C00C3EA9CEB9D5012C3EC98ED994019C3EAAF
:101F2C0098EB99501279018010C3EA98EB9940F51F
:101F3C00C3EC98ED9950EE7900D083D08222EAC39D
:101F4C009CFAEB9DFB2200008521878522C622C0CE
:101F5C00E074EF121BCE759B00906182E0A2E6400C
:101F6C000302201CE591A2E6400302201C7591BFE0
:101F7C009003C2E064057008120DEB120DF780039C
:101F8C00120DF1752100120E63E99003C3F0790074
:101F9C00120E57120BB77A017B009003C1E0F912B5
:101FAC001127907803E06442600302206590055F7E
:101FBC00E014F06003022065C2AF121FC900782A3A
:101FCC00D0E0F618D0E0F6E59F5407F97005909034
:101FDC00EE800390912E78081218DCE9C4C0E078EA
:101FEC0029E65508F50808E65509F509740B780833
:101FFC001219EAD0E02508F8906270E0A2E740F8E8
:10200C00E8C333906272F0906270E0D2E0F08049E5
:10201C00E0A2E55024E591A2E5501E7591DF9003F6
:10202C00C2E0640D70139003E4E004F064287002C5
:10203C00E4F07A00E0F9120ED5906181E0A2E35051
:10204C0009E5E9A2E3500375E9F7A3E0A2E750091B
:10205C00E591A2E7500375917F7F04021C2DC0E02F
:10206C00C0D0C082C083906183E0A2E05009E5BF7C
:10207C00A2E0500375BFFEE0A2E15009E5BFA2E16A
:10208C00500375BFFDE0A2E25009E5BFA2E2500388
:10209C0075BFFBE0A2E35009E5BFA2E3500375BF97
:1020AC00F7E0A2E45009E5BFA2E4500375BFEFE0EE
:1020BC00A2E55009E5BFA2E5500375BFDFE0A2E63B
:1020CC005009E5BFA2E6500375BFBFD083D082D0C4
:1020DC00D0D0E032C0E074F2121BCEE5A7A2E450DF
:1020EC000FE5A1A2E4500953A7EF75A1EF1221341B
:1020FC00E5A7A2E5500CE5A1A2E5500653A7DF75B4
:10210C00A1DFE5A7A2E15009E5A1A2E1500375A169
:10211C00FDE5A7A2E2500CE5A1A2E2500653A7FBF5
:10212C0075A1FB7F01021C2D74F8121AE2752101B6
:10213C009003C2E0640670077A007B00120DD3A2F4
:10214C00AFE433FED2AF9003C8E0640170187A207C
:10215C007B009003C1E0F91211AB7A207B00900355
:10216C00C1E0F912112D906182E0D2E6F090055E8B
:10217C00E0602185C62280169003C7E064017008D8
:10218C00E5C654F84405F5C653BEFC121F54740141
:10219C00652160E4EEA2E092AF7F01021B8E00008D
:1021AC008E238F2485822885832785188285198321
:1021BC00E0CEA3E0CF852882852783EBC9EAC8ED62
:1021CC00CBECCA75F010C3E833C8E933C9EA33CA9B
:1021DC00EB33CBC3EA9EF526EB9FF525B35004AB4E
:1021EC0025AA26EC33CCED33CDD5F0DAAE23AF24D3
:1021FC002274E9121AE274FA121A0CEAFEEBFF8C42
:10220C00088D099003C2E024F7C394055006909101
:10221C00D2022324120D4F8A0A8B0BEA450B700352
:10222C00022321120E098A0C8B0D120E09EA650C81
:10223C007003EB650D60ECEEFCEFFD8518828519E3
:10224C0083AA82AB83120E0F850A82850B83A3A30C
:10225C00780C1218DC9090E6780C1218B68518825F
:10226C0085198378141218DC9090E678141218B63D
:10227C00780C79141216EE501F780C791412188EF3
:10228C00909192780C12170E4047850C10850D1109
:10229C00850E12850F138041851410851511851636
:1022AC00128517137810790C12188E909192781061
:1022BC0012170E501C751000751100751200751355
:1022CC00017810791412188E7810790C1218558028
:1022DC00089091D278101218DC7409781012183604
:1022EC0090917E780C1218DC7810790C1217AD9046
:1022FC0003C2E06408600AE064066005E0640570EF
:10230C001C9090F6781012170E501290916678105F
:10231C00121868800890902678101218DC850882B4
:10232C0085098378101218EB7406121A227F10029A
:10233C001B8E74F7121AE2120E2190055CE06401F8
:10234C007010906245E4F0A3F053F4F343FE0C5389
:10235C0090F3120DC1E5C654804449F5C6E59E5470
:10236C007F644970F8906185740FF090055AE0F421
:10237C007002A3E0602C75080175090090055AE005
:10238C0078081219F9E508F4FAA3E0600814600A59
:10239C0014600C800DEA52808008EA52908003EAA7
:1023AC0052A079007F02021B8E74F7121AE2E9FE2A
:1023BC00EAFF74016E700C7A807B009003C1E0F927
:1023CC001211279027ECE493F46008E493F9120BB4
:1023DC0099800953C680E59E547F70FA120DC79000
:1023EC00055CE064017003120BCF90055AE0F470A9
:1023FC0002A3E0602A75080175090090055AE0787F
:10240C00081219F9AA08A3E0600814600A14600CF9
:10241C00800DEA42808008EA42908003EA42A012D2
:10242C000D4F8A088B09A808A909E8496017E5E14E
:10243C0070FCE82414F582E93400F583E0F874FFAD
:10244C0068600288E174016F700A7A019003C1E040
:10245C00F912117B0223B074F1121AE28A088B096B
:10246C008C0A8D0B740F121A57780C1218DC909082
:10247C00E678081218B69090E6780C1218B6780820
:10248C00790C1216EE50157808790C12188E909162
:10249C0092780812170E401579018013780C790880
:1024AC0012188E909192780C12170E40EB79007FD7
:1024BC0008021B8E74ED121AE28A088B098C0A8DA5
:1024CC000B7413121A57780C1218DC9090E67808DB
:1024DC001218B69090E6780C1218B6780C7908128F
:1024EC0016EE40117808790C12188EAA08AB09ACBC
:1024FC000AAD0B8022751000751100751200751352
:10250C00017810790C12188E78107908121855AAC7
:10251C0010AB11AC12AD137F0C021B8E9090E678B1
:10252C00081218DC8A828B8378081218C97F04027F
:10253C001B8E74F5121AE28C828D8378081218DCCB
:10254C008A828B8378081218A2122592C3E098F025
:10255C00A3E099122584401E90903E78081218DC56
:10256C008A828B83780812187B8E828F83E02420DA
:10257C00F0A3E0344EF080A4F08E828F83C3E094FD
:10258C0020A3E0944E22EA2404F8EB3400F9E8FE90
:10259C00E9FF8C828D83A3A3A3A3E0F8A3E0F98EBB
:1025AC00828F832274F5121AE2E9FE900514E0FA88
:1025BC00A3E0FBEEC333F8E433F9742228F58274FC
:1025CC008F39F583E02AF508A3E03BF5097808126A
:1025DC001C899090161218FA1221AC7402121A224D
:1025EC008A088B098C0A8D0B7410780812181DAA96
:1025FC0008AB097F04021B8E74F1121AE28A0C8B51
:10260C000D8C0E8D0F740F121A57E0FAA3E0FB74A9
:10261C0011121A57E0F508A3E0F5097413121A57B2
:10262C00E0FEA3E0FF7808121C89EA2401F508EB10
:10263C003400F509E4F50AF50B780C790812172D1E
:10264C009090F278081218DC780C790812172DAAE1
:10265C000CAB0DAC0EAD0F1221AC7402121A228B06
:10266C0009EA450960047A0180027A00EC2AFCED43
:10267C003400FDECF8EDF97A717B021219818808AF
:10268C008909E4F50AF50B8E828F8378081218EB12
:10269C00ECF8EDF97A717B021219818A088B0974B6
:1026AC000578081219F98E828F83A3A3A3A3E508DA
:1026BC00F0A3E509F07F08021B8EC082C083E9906D
:1026CC006000F0D083D08222C0E074F2121BCE796D
:1026DC00001213BBC2C57F01021C2DC0E074F212A4
:1026EC001BCE79011213BBC2EB80EBC0E074F2126B
:1026FC001BCE79021213BBC2E880DBC0E0C0D0E86D
:10270C00C0E0E5A8D2AFC2C7751A00A2E792AFD05D
:10271C00E0F8D0D0D0E032C0E0C0D0E8C0E0E9C0F2
:10272C00E0EAC0E0C082C083A2AFE433FAD2AFE5E6
:10273C00C1C0E0900BA4E0F874A928F582740A34A7
:10274C0000F583D0E0F0900BA3E0F8A3E0687006EE
:10275C00E595900BA6F0900BA4E004F0C394FA401E
:10276C0002E4F0A3E4F0EAA2E092AFD083D082D0EE
:10277C00E0FAD0E0F9D0E0F8D0D0D0E032C0E0C040
:10278C00D0E8C0E0E9C0E0C008C009C082C083A2A4
:10279C00AFE433F9D2AF900CA1E0F8A3E068700875
:1027AC00539AFBA374018026C2E9900CA1E0F508B2
:1027BC0074012508F074A72508F582740B3400F514
:1027CC0083E0F5C1900CA1E0C394FA4002E4F0E977
:0E27DC00A2E092AFD083D082D009D0088094C2
:1027EC00FFFFFFFFFFFFFFFFC082C083E9900E12C7
:1027FC00F0022A7874F7121A76E99002E0F07C184D
:10280C007D037AFF7BFF1208C39002E174FFF0A3F3
:10281C00F0A3E4F0A3F0790512084B9002E0E0F984
:10282C001207737AE17B08120AA902378674F41234
:10283C001A768A088B09EB548060309002E0E0F93C
:10284C0012110F8A0A8B0BAE0AAF0BEE4F60138E70
:10285C00828F83E064B07003120863EEFAEFFB1210
:10286C0010FDAA08E5096480FB80047A007B000255
:10287C002A4774F2121A7674FC121A0CEAFEEBFF59
:10288C007412121A57123C6DEE4F70030229217408
:10289C0002121A57EEF0A3EF122C82ECF0A3ED12F9
:1028AC002C82AA82AB8312076DE9F50A706AE508DF
:1028BC00450960648E828F83123C53EE4F60567ACA
:1028CC00067B001211638A0C8B0DA80CA90DE8492C
:1028DC007005750A13804188828983E412292EEED3
:1028EC00F0A3EF123C7EE508F0A3E509F09002E6B8
:1028FC001229B59002E67005123730801B12371E74
:10290C008003EAFCEBFD8C828D831229B570F38C6D
:10291C00828D8380E3750A02A90A7404121A2202BA
:10292C003E6DF0A3123C24A32274F2121A76890A8B
:10293C00E975F017A4FEAFF09002E5E4F09002E325
:10294C001229B5600A1211699002E3E4F0A3F0EECB
:10295C00FAEFFB1211638A088B09EA4509602FEE26
:10296C00FCEFFD79001210EB9002E3E508F0A3E513
:10297C0009F07B00800812299FE4F0A3F00BEBC355
:10298C00950A40F2E50A9002E5F07900800279138D
:10299C00023E6DEB75F017A4F8A9F09002E3E02865
:1029AC00FAA3E0398A82F583221233C2EA4B2274ED
:1029BC00F4121A76740C121A57123C48FEE9FF7581
:1029CC000800750900800CE5082401F508E50934B8
:1029DC0000F509C3E5089CE5099D503285080A8578
:1029EC00090B7403780A1219F9EA250AF8EB350B6E
:1029FC00F988828983A3A3A3A3A3A3123805EE6548
:102A0C000A7003EF650B70BFE8FAE9FB80047A00EB
:102A1C007B00802774F4121A767900EAA2E0501B2E
:102A2C007508BE75098F7808121C897C047D007AA4
:102A3C00147B0E1208457402121A227F04021B48E2
:102A4C00C082C0839002E6122A7F601C8882898330
:102A5C00A3A3E06A7003A3E06B8882898370E8A368
:102A6C00A3A3A31233BE80047A007B00D083D08250
:102A7C00020135123F53E8492274EE121A7674FCA7
:102A8C00121A0CEAFEEBFF851882851983E4F0A379
:102A9C00F0EE2402123710EE2405123C2BEE240427
:102AAC00F50EEF123037E024FE603924FC6046242A
:102ABC00FE605224FE605E24FE7003022B9824FEFE
:102ACC007003022BFC24FE7003022C0B24FE7003FB
:102ADC00022C1A24FC7003022C2924FE7003022CF5
:102AEC0038022C759002FF7417F0A3E4122C8A1292
:102AFC0004EB022C75851882851983AC82AD831288
:102B0C000869022C45851882851983AC82AD831225
:102B1C00086F022C45850C08850D097402121A5792
:102B2C00AC82AD838508828509831233BE1207916E
:102B3C008A0C8B0DAC0CAD0DEC4D603BE4F50CF53B
:102B4C000D780C121C89750CFF750D02780C121C7B
:102B5C0089750C00750D03780C121C897408121AF7
:102B6C0057121CA01240CF121A22E9F50C700B124E
:102B7C0033B4120503800F750C0185088285098317
:102B8C00122C78123730850C08022C487402121A59
:102B9C0057AC82AD83850C82850D83123189603CE4
:102BAC00850C82850D83A3A3121CA07510FF7511D3
:102BBC00027810121C897510007511037810121C04
:102BCC00897408121A57121CA01240CF121A22E94B
:102BDC00F509700B1233B4120509800F75090185C4
:102BEC000C82850D83122C78123730850908804CA5
:102BFC00851882851983AC82AD83120875803A855D
:102C0C001882851983AC82AD8312087B802B8518C2
:102C1C0082851983AC82AD83120881801C85188251
:102C2C00851983AC82AD83120887800D8518828547
:102C3C001983AC82AD8312088DE9F508E50860298B
:102C4C008E828F83A3E06414601F850E82850F83B0
:102C5C00E09002FF122C82123F4F9003001237308B
:102C6C00E508A3122C8A1204E502361F123F538585
:102C7C00188285198322F085188285198322F07CAD
:102C8C00FF7D02850A82850B831233C22274EE12F9
:102C9C001A7674FC121A0C8A0A8B0B8C0E8D0FEAA6
:102CAC002405F508EB3400F5097C157D0079007AD4
:102CBC00FF7B021210EBE5082402F50CE509123C2F
:102CCC002E851882851983858210858311781012C0
:102CDC001C89850882850983A3A3A3A312318012C2
:102CEC001C89E5082405F510E5093400F511781068
:102CFC00121C89850C82850D831234D512078B74B6
:102D0C0006121A228A108B11AE10AF11E50A24029A
:102D1C00F50AE50B123713EE4F7003022E5780178E
:102D2C007402121A571233BE88828983EAF0A3EB1D
:102D3C00F09002FFE004F09002FFE0C39405400322
:102D4C00022E57E4F510F5117810121C897510E855
:102D5C007511027810121C897510E9751102781022
:102D6C00121C897406121A57121CA07910EEFCEF73
:102D7C00FD1240D1121A22E9705E85088285098302
:102D8C00A3A3A3A3A3A3A3E0F89002E8E068704870
:102D9C00123180121C897CE97D02E5082408FAE5D1
:102DAC00093400FB1210E57402121A22E960298E14
:102DBC00828F83A3A3A3A31233BE9002FFE0F5106E
:102DCC00740278101219F974002510F58274033509
:102DDC0011F583EAF0A3EBF07402121A57858210F6
:102DEC008583117810121C897402121A57121CA0B8
:102DFC00850C82850D831233E4121A228A108B11F2
:102E0C00AE10AF119002FFE0F5107511007402784E
:102E1C00101219F974FF2510F874023511F9888213
:102E2C008983A31229B57003022D23E82403080813
:102E3C0008E93400F9EE4F6003022D2C8882898357
:102E4C0074FFF0A3F09002FFE004F09002FFE0604A
:102E5C000A1233B41204F77900800B8508828509B5
:102E6C0083123727790A02361F74EA121A7674FE17
:102E7C00121A0C8C128D13EA2405F50CEB1240B9C6
:102E8C00123C57750800750900EA2402F510EB3462
:102E9C0000F51185188285198385820A85830B7844
:102EAC000A121C89850C82850D83A3A3A3A312305F
:102EBC004D121C89E50C2405F50AE50D1237137823
:102ECC000A121C89850C82850D8312305112078BD6
:102EDC007406121A228A0A8B0BEA450B7003022F16
:102EEC00F2EA2404F50EEB123037123C578A828B2F
:102EFC0083A3A3A3E0F98510828511831233C860E4
:102F0C0003022FF2E4F514F5157814121C897514CC
:102F1C00E87515027814121C897514E97515027878
:102F2C0014121C897406121A57121CA07913AC0ABD
:102F3C00AD0B8510828511831240D7121A22E9F548
:102F4C00096003022FF29002E8E0F8E5087009E04E
:102F5C002402900300F08014900300E0FCE82402AB
:102F6C00FAE43400FBEA6C7001EB707E850882AAEF
:102F7C0082123177941412316F506B850E82850F4B
:102F8C0083E0C0E074012A12302ED0E0F0050885F1
:102F9C000E82850F83A3E0C0E085080A7401250A20
:102FAC0012302ED0E0F005089002E812304D121CC1
:102FBC00897CE97D0285080A7401250A12304112C8
:102FCC001A229002E8E02508F50874FF6E7003746D
:102FDC00FF6F6012EE24010EEF3400FFE508C3947E
:102FEC00145003022E9FE50860131233D285108211
:102FFC008511831233BE1204FD79008014E509702B
:10300C000375090A851282851383EEF0A3EFF0A9EC
:10301C00097402121A227F0E021B4885080C7401D7
:10302C00250CF58274033400F583223400F50F85EA
:10303C000E82F58322FA74033400FB1210D374024F
:10304C0022123C8D22A3A31230572212371EFDEE02
:10305C00FAEFFB2274EE121A7674FE121A0C8C0E16
:10306C008D0FEA2405F50CEB123C2E750B0090022B
:10307C00FFE4F0F50AEA2402F508EB3400F50980C8
:10308C00449002FFE0FA9002E8E0F81231779417CE
:10309C0012316F400D9002FFE0F87416C398900245
:1030AC00E8F0123180121C897CE97D0274002AFA46
:1030BC007403123044121A229002E8E0F89002FFD6
:1030CC00E028F0050AE50C2416F582E50D123032E5
:1030DC00E0F8E50AC39850749002FFE0C3941650D0
:1030EC006BE50AC333F8E433F9E50C28FEE50D393A
:1030FC00FF851882851983AC82AD838E828F8312F3
:10310C0031897008750B011237238050E4F510F5E6
:10311C00117810121C897510E87511027810121CA8
:10312C00897510E97511027810121C897406121A2F
:10313C0057121CA079168508828509831240D71274
:10314C001A22E9F50B700302308D80BB7CFF7D02E7
:10315C008508828509831233BE12050FA90B7402F0
:10316C00023621E99400C365D03322EA28F8E4340E
:10317C0000F9E822E0F510751100781022123616CD
:10318C008A108B11AC10AD11EC4D2274EA121A7628
:10319C0074FC121A0C8A0C8B0D8C128D13EA2405FC
:1031AC00F50AEB123713750800750900E50A2402BD
:1031BC00F510E50B3400F5117402121A5785820EC6
:1031CC0085830F780E121C89850A82850B83A3A335
:1031DC00A3A3123C33121C89E50A2405F50EE50B5A
:1031EC003400F50F780E121C89851082851183121C
:1031FC0037191233B812078B7406121A228A0E8BE7
:10320C000FAE0EAF0FE50C2402F50EE50D3400F5F4
:10321C000F80388882898374FFF005081230277478
:10322C00FFF005089002E8E0F50C750D00780C1223
:10323C001C897CE97D0285080C7401250C12304137
:10324C00121A229002E8E02508F508EE4F60278E4E
:10325C00828F83A3A3A3E0F9850E82850F8312339B
:10326C00C8EE2404123C2BE96027850C82850D8363
:10327C001233AA123730E50870030233901233D29E
:10328C00850E82850F831233BE1205157900023329
:10329C00A5E4F514F5157814121C897514E8751548
:1032AC00027814121C897514E97515027814121C15
:1032BC00897408121A57121CA07911EEFCEFFD85C7
:1032CC000E82850F831240D7121A22E9F509709AE3
:1032DC00850882AA82EA9002E87009E0240490032F
:1032EC0000F08025E0F8900300E0F514E82404FCDD
:1032FC00E43400FDEC65147001ED708112317794AB
:10330C001212316F4003023289850C82850D83E0E5
:10331C00C0E074012A12302ED0E0F00508850C8232
:10332C00850D83A3E0C0E0123027D0E01233ED8589
:10333C00820C85830D780C121C897404121A571296
:10334C001CA08510828511831233E4121A228A0C78
:10335C008B0DAE0CAF0D85080C7401250CF87403A5
:10336C003400F9EE4F700302321F851882851983E1
:10337C00E0888289831233EDA3E0C0E0123027D0BD
:10338C00E002322DE509700375090A850A82850B66
:10339C00831233AA123730A909740402301F123F6A
:1033AC0053851282851383227CFF7D02850A8285D8
:1033BC000B831233C222E0FAA3E0FB221233C212B7
:1033CC000779E9F50922900300E0F5F0E50884900F
:1033DC0002FFF07CFF7D0222123057120797740413
:1033EC0022F005088518828519832274EC121A764E
:1033FC0074FE121A0C8A088B098C0E8D0FEA2405A8
:10340C00FEEB3400FF123600EE2418123C2BEA457A
:10341C000B70030234A31235E950291234C88A10F8
:10342C008B11EA4511606B7912AC0AAD0B850882E1
:10343C008509831233BE851082851183121A61E9C6
:10344C00F50A7058E4F50AF50B780A121C898E827D
:10345C008F83A3A3E0F50A780A121C89EE240312C9
:10346C003710780A121C898E828F831234D5120879
:10347C00B17406121A22E9F50A7021850C82850DA9
:10348C0083E0701F8508828509831233BE12051BE9
:10349C008011750A0E8009750A018004E50A600323
:1034AC00123723850C82850D83E06004790080023D
:1034BC00A90A7402121A227F0C021B4885188285F5
:1034CC0019831233C212089F2212371EFD850882FF
:1034DC008509831233C22274EE121A7674FE121A04
:1034EC000C8A088B098C0C8D0DEA2405FEEB34003C
:1034FC00FF750E00123600EA450B70030235C71239
:10350C0035E9502C1234C88A0E8B0FEA450F604AED
:10351C007912AC0AAD0B8508828509831233BE85FE
:10352C000E82850F83121A61E9F50E60030235CA0B
:10353C00850882850983123805AA0AFB1235DB70CF
:10354C00147AFF7BFF1235DB606C88828983E50A75
:10355C00F0A3E50BF0750A008007750E0E805F0571
:10356C000A9002E5E0FAE50AC39A504AE50A75F0BA
:10357C0017A4FAABF088828983A3A3E02AFAA3E00C
:10358C003BFB8A828B83123719EC4D70D2750A176C
:10359C00750B00780A121C89EEFCEFFD1210D37427
:1035AC0002121A22EEFCEFFD850882850983123384
:1035BC00BE1205218014750E098003750E01123F91
:1035CC004B850C82850D83123730A90E02316A129D
:1035DC0008938A108B11A810A911E84922E5082438
:1035EC0002F508E5093400F5098A828B83A3A3A3AD
:1035FC00E0A2E522851882851983AC82AD838E8288
:10360C008F831236168A0A8B0B22E0FAA3E0FB1288
:10361C000791227404121A227F0A021B4874EC12BE
:10362C001A768C108D11EA2405F50CEB123C2E75D4
:10363C000F00EA2402F50AEB123713850A82F58390
:10364C001233BE12415D7003023705750E00807196
:10365C00850C82850D83E06401704F8E828F83A36D
:10366C00A3121CA08E828F83A3A3A3A3E0F51275D3
:10367C0013007812121C89EE2405F512EF3400F5B4
:10368C00137812121C891233B81208B17406121A6C
:10369C0022E9F50F6014850C82850D83E4F0123F4E
:1036AC004B8510828511831237307C177D00790091
:1036BC00EEFAEFFB1210EB8E828F83E4F0A3F00591
:1036CC000E9002E5E0F8E50EC398501EE50E75F07D
:1036DC0017A4F8A9F0850882850983A3A31240C317
:1036EC00123719EC4D600302365C8508828509831C
:1036FC0074FFF0A3F0E50F70061233B8120527A97A
:10370C000F0234C3F50AEF3400F50B22A312371E57
:10371C00FD22E0FCA3E0228E828F83123F53850EA4
:10372C0082850F83E8F0A3E9F022C082C083900267
:10373C00E1E06A7003A3E06B70067AE17B0280041F
:10374C007A007B00022A7874F7121A767F00EF75E4
:10375C00F003A4F8A9F0EC28F8ED39F988828983F4
:10376C00E06A7003A3E06B7006E8FAE9FB800B0FCC
:10377C00EFC3940240D87A007B007F01021B48748F
:10378C00F6121A76123D3C70067A007B008007A375
:10379C00A3A3A31233BE023DFD74F2121A76E9FE06
:1037AC00740E121A571238057410121A57123C6DF7
:1037BC008C828D83E06402703BA3123F4F88828918
:1037CC0083E0F50CA3E0F9A80C740268700374296B
:1037DC00697021750C02750D00780C121C89780823
:1037EC00121C89780A121C89EEF91208D57406127B
:1037FC001A2280027901023E6DE0F50AA3E0F50B76
:10380C002274E8121A7674FB121A0CE98518828558
:10381C001983F08A168B178C0E8D0F741F121A5782
:10382C00123C6D7421121A571238057423121A5750
:10383C00123C577510008C828D83A3A3A3E0A2E4E5
:10384C00502A741D121A571234CE8A828B83E58249
:10385C0045837003023919790AAC0EAD0FAA16AB69
:10386C0017121A61E9F510600302391C850E828566
:10387C000F83E064026003023BD2A3123F4F850822
:10388C0082850983A3858212858313E50E2406F5B0
:10389C000CE50F123C2E88828983E0FAA3E0F9EA4A
:1038AC002400F514E439F5157814121D13010000E9
:1038BC00280128E13807000228B8390328283900E4
:1038CC0029E23A01290A3B0229B13A0329E23A04D6
:1038DC0029733BD23BEE4F703E850C82850D8312D3
:1038EC003C48FAE9FB8A828B83E0850A82850B834C
:1038FC00123C84121C898A828B83A312371EFDAA68
:10390C0008AB091210D37402121A22800375100E20
:10391C00A91074050240B175100B80F4EE4F70F7CE
:10392C00850A82850B837401F0123C5D85088285C3
:10393C000983F07C007D00850E82850F83A3A3A3F1
:10394C00A3E02401FAA3E03400FB120791EA4B60D8
:10395C00418A828B83E02402F8850A82850B83E0FE
:10396C0028F0EA2404F8EB3400F988828983E08596
:10397C001282851383123C96123C84121C898A8213
:10398C008B83123718E5082403FAE5093400FB028F
:10399C00390F850A82850B83E02404F07C047D00BA
:1039AC007900AA12AB131210EB02391CEE4F600314
:1039BC00023923123C5DFEA3E0FF850A82850B834E
:1039CC007404F0EE850882850983F0EF85128285F8
:1039DC001383F07403121A57AC82AD83EEFAEFFB2B
:1039EC00123D2A7003023A8E8A828B83A3A3123C67
:1039FC00537401121A5785820E85830F780E121C90
:103A0C00897405121A57121CA07CFF7DFF120797B0
:103A1C007404121A228B0FEA450F7033850C8285C1
:103A2C000D83123C33121C89850C82850D83A312E5
:103A3C001CA07C027D007AB57B921205C374041223
:103A4C001A22E9700A7401121A5774FFF0A3F08E4F
:103A5C00828F83E064027034750C02750D00780C53
:103A6C00121C898E828F83123718E5082404FAE51C
:103A7C0009123044121A22850A82850B83E0240233
:103A8C0080097401121A57EEF0A3EFF07401121AA8
:103A9C0057123C44F07401121A57A3123C3CA3A3D6
:103AAC00A3F002391CEE4F6003023923850C82858A
:103ABC000D83123719AA16AB171208C9850A82850D
:103ACC000B837402F0EA850882850983F0851282E3
:103ADC00851383EB80CBEE4F6003023923123C5DE0
:103AEC00F8A3E0F9850A82850B837402F0E8850857
:103AFC0082850983F0E985128285138380A3850C66
:103B0C0082850D831233BE1210CDEAFC8C82A88202
:103B1C00C39EE49F404BE86E7001EF70047C008004
:103B2C001F851882851983E0FAEE2AFAEF3400FB20
:103B3C00C3EA98EB94005003E08004EECCC39CFCE9
:103B4C00EC850A82850B83F08C0A750B00780A12BF
:103B5C001C89850C82850D83E02EFCA3E03F023985
:103B6C000A75100702391CEE4F6003023923850CCD
:103B7C0082850D83123F4F850A82850B837407F073
:103B8C0088828983123C3C123C24E0851282851386
:103B9C0083F0E82402FAE93400FB8A828B83123C1E
:103BAC003C123C75123C44A3123C7E123C4DF0E896
:103BBC002405F8E93400F988828983123C4DA3125C
:103BCC003C96A3023AAA741D121A57123D35700383
:103BDC00023919123F4F880C890DE8450D7003020C
:103BEC0039198E108F117810121C89780A121C89C1
:103BFC007808121C897406121A57E0F9AC0EAD0F36
:103C0C00AA16AB17850C82850D83121A61740612E5
:103C1C001A22E9F51002391CF088828983A322F557
:103C2C000CEF3400F50D22E0F50E750F00780E2226
:103C3C00E085088285098322123C9D22123F53E8BD
:103C4C0022123C9DA3A322A3A3A3A3E0FEA3E0FF07
:103C5C0022850C82850D83E0F8A3E0F5838882E051
:103C6C0022E0F508A3E0F50922A3A3F08A828B8356
:103C7C00A322122930A3A322F08A828B83123C8DBB
:103C8C0022E0F50A750B00780A22123C24123C9DA6
:103C9C0022E0850882850983A3A32274EE121A768A
:103CAC0074FE121A0C8A0A8B0BECFAEDFB741412CC
:103CBC001A57E0F510A3E0F5117416121A57E0FE2E
:103CCC007418121A57E0F50EA3E0F50F85188285CB
:103CDC001983AC82AD83123D2A603E85188285190A
:103CEC0083123D35602FA3A3123C6DE50845096096
:103CFC0024780E121C897810121C89EEF9AC0CADCC
:103D0C000DAA0AAB0B850882850983121A6174040B
:103D1C00121A228006790E8002790102316A12078A
:103D2C00918A0C8B0DEA450D221233C2123D3C22B6
:103D3C0012085D8A828B83E58245832274F6121AFF
:103D4C007674FE121A0C740C121A57123C48851811
:103D5C0082851983F07401121A57E9F0E4F508F51D
:103D6C00097808121C897508027808121C897404D9
:103D7C00121A578582088583097808121C89120843
:103D8C00B17406121A227402121A22806474F71289
:103D9C001A76EAFEEBFF89087C187D031208C9EA43
:103DAC005402600BA908EEFAEFFB1207858002792A
:103DBC000102378674F6121A7674FF6A700374FF68
:103DCC006B701C7B00EB75F003A4F8A9F0EC28F8E1
:103DDC00ED39F9123E020BEBC39402501480E6123B
:103DEC0008998A088B09A808A909E8496003123EBA
:103DFC00027F02021B488882898374FF12292EE4F9
:103E0C00F02274F6121A761208998A828B83E58254
:103E1C0045836006A3A3E0FA80027A007B0080D180
:103E2C0074F2121A768A088B09ECFEEDFF740E12EE
:103E3C001A57E0F50A123E72701CEEFCEFFD7AFF89
:103E4C007BFF123E7270047911801688828983E59B
:103E5C0008F0A3E509F088828983A3A3E50AF07929
:103E6C00007F06021B481208998A0C8B0DA80CA91E
:103E7C000DE8492274EE121A76EAFEEBFF8C088DDF
:103E8C0009890C7412121A57123F4F7414121A57D4
:103E9C001237197416121A571233BE750D00EC4DE9
:103EAC006003023F437402650C6003023F3E88824C
:103EBC00898312371EF9EC2400F50EE439F50FEA6C
:103ECC00F4F8EBF4F9EC58F8E50F59F9E849705DA2
:103EDC00E5082406F8E5093400F9880A890B88827C
:103EEC00F5831230531208C98A108B11E50E651038
:103EFC007004E50F65116042780E121C89850A82E8
:103F0C00850B831230531208CF7402121A22E9F572
:103F1C000D7027780E121C89850882850983A3A34E
:103F2C001230511208E77402121A22800D750D809E
:103F3C008008750D0D8003750D0BA90D0236248EAE
:103F4C00828F83123F5322E0F8A3E0F92274E81227
:103F5C001A7674E7121A0C851882851983EAF0A375
:103F6C00EBF08C168D17890E7431121A57E0F5127E
:103F7C00A3E0F5137433121A57E0F514A3E0F5150A
:103F8C007435121A57E0F50F750800750900E5092C
:103F9C0075F003A4F8A9F08518828519831240C323
:103FAC00E0F47003A3E0F470030240A1EE2402F5E8
:103FBC000CEF1240B9E070030240A185160A851778
:103FCC000B780A121C89AC14AD15AA12AB1312088B
:103FDC00517402121A228A0A8B0BEA450B700302E7
:103FEC0040A1E4F510F5117810121C897406121A10
:103FFC00578582108583117810121C897409121A46
:10400C00578582108583117810121C898512828540
:10401C001383A3A3A3A3121CA07914AC0AAD0B8E1B
:10402C00828F831240D7121A22E97069850A828521
:10403C000B83A3A3A3A3123F4F7402121A57123778
:10404C0030850C82850D83E0A2E05018A90E740215
:10405C00121A57AC82AD838E828F831233BE120735
:10406C00A9E94208850C82850D83E0A2E15026E582
:10407C000FF50A780A121C8DA90E7403121A57AC8C
:10408C0082AD838E828F831233BE1207A37401120A
:10409C001A22E942080509E509C394025003023FBC
:1040AC009AA9087419121A227F10021B483400F5C1
:1040BC000D850C82F58322E028FEA3E039FF8E8269
:1040CC008F83227916850A82850B831233C21208DC
:1040DC00AB74082274F2121A76EAFEEBFF890B74A9
:1040EC0001650B600E7402650B70637901120AC7CF
:1040FC00E9705BEEFAEFFB12415D6047750A0080D8
:10410C000B7C177D0079001210EB050A9002E5E09C
:10411C00F8E50AC3985021E50A75F017A4F8A9F040
:10412C00850882850983A3A3E028FAA3E039FB8ADA
:10413C00828B83122A7F70C985088285098374FF5C
:10414C00F0A3F07C187D03EEFAEFFB1208C3023EDD
:10415C006D1208938A088B09EA45092274F2121A27
:10416C00768A088B09ECFEEDFF740E121A57123882
:10417C0005900E12E0F4603D7A097B001210F7EA0C
:10418C004B60328A828B8374B1F0A3E4123C77A328
:10419C00123C75A3E508F0A3E5091241C4EEF0A3A7
:1041AC00EF1241C4A3A3E50AF0A3E50BF0900E12A5
:1041BC00E0F9121103023E6DF08A828B83A3A3A354
:1041CC00A3A32274F4121A76E9FF7E008A088B09E5
:1041DC007808121CCD00040D804302421E4233426B
:1041EC0048425D4272428E42A742B942E7420943BD
:1041FC00254341435F4374016F70128C828D83E0C1
:10420C00C394035008E09010B9F002439E7E18024C
:10421C00439E74026F70F68C828D83124B2E90101D
:10422C00BAE8F0A3E980E274016F70E18C828D83AF
:10423C00E0C3940250D7E09009D180CD74016F7027
:10424C00CC8C828D83E0C3940550C2E09009D2805F
:10425C00B874016F70B78C828D83E0C3940250AD3B
:10426C00E09009D380A374106F70A27508108E09AA
:10427C007808121C897AD47B09124EF2121A220287
:10428C00439E74016F70868C828D83E0C3940240D0
:10429C0003024219E09009E402421574016F6003B5
:1042AC000242198C828D83E09010BD808D74046F56
:1042BC00600302421990901678081218DC8D838CDA
:1042CC008278081216FE40030242198C828D8312EA
:1042DC0018FA9009E612190602439EEF6003024297
:1042EC0019120731E9700E12153B7950121685120E
:1042FC00152F02439E900A79740102421574016FC6
:10430C0060030242198C828D83E0C3940240030245
:10431C004219E09009E502421574016F60030242F4
:10432C00198C828D83E0C3940A4003024219E090F9
:10433C0010BC02421574016F60030242198C828D0D
:10434C0083E024F9C3940A4003024219E09010BEA2
:10435C0002421574016F6003024219900A78E0F86A
:10436C008C828D83E0900A78F0E87026E06401700E
:10437C00210242FBC3EA9426EB9400501374026FA3
:10438C00700E8C828D83124B281205CFE9FE8002B1
:10439C000E0EEEF90243A8740E121A227F04021BB1
:1043AC004874F0121A7674CC121A0C8C0A8D0B7499
:1043BC0044121A57E0FE7420121A57AC82AD837562
:1043CC008390758200740612191F7420121A57AC50
:1043DC0082AD831214DBE9F508C3940A400302454D
:1043EC001175F006E9A4F5097426121A57AC82ADC2
:1043FC00837A0E74202509124FAA70097432121A8E
:10440C0057E0FF80027F009010B9E06402700474E2
:10441C00018001E4F50D780D121C8DEEFDEFFCA969
:10442C0008AA0AAB0B1215657401121A227C147DB2
:10443C00007900740C121A57AA82AB831210EB7419
:10444C000C121A57AC82AD837A1074242509124FC2
:10445C00AA70377C1079FF740C121A57124CD77053
:10446C0029741C121A57AC82AD837A047425250961
:10447C00F912167F740C121A57AC82AD83EFA2E0BE
:10448C00E433F9AA0AAB0B120659851882851983F5
:10449C00AC82AD837A0C74702508124FAA705585C6
:1044AC001882851983AA82AB83121511750800E551
:1044BC000875F003A4F8A9F0851882851983E582A4
:1044CC0028F8E583124D13124B28EC4D601D8882A1
:1044DC008983A3A3E0F50E750F00780E121C89AA30
:1044EC000AAB0B1208B77402121A220508E508C3AE
:1044FC00940440BBEFA2E1500C9009D0E0F9AA0A59
:10450C00AB0B1208BD74046E702A9010B9E06402F3
:10451C0070229009E4E060047A0180027A0090092C
:10452C00D1E06004780480027800E84AF9AA0AAB6A
:10453C000B12071979007434121A227F08021B48D7
:10454C0074F0121A76EAFEEBFF8C088D09750A0AD4
:10455C00E9600C14600914602E14607F0245F2129D
:10456C001523E9F50AC3940A507CE50845096076E1
:10457C00750E06750F00780E121C89EEFCEFFD12FD
:10458C004EEE121A22805F750B00750E06750F0029
:10459C00780E121C89EEFCEFFDE50B75F00EA4F8FD
:1045AC00A9F074F228FA740939FB1210E57402129E
:1045BC001A22E9601B850B0AE50AC3940A5027E509
:1045CC000845096021AA08AB09A90A12151D801615
:1045DC00050BE50BC3940A500D80AF121529E9F5B4
:1045EC000AC3940A40D9A90A02454774F4121A76F0
:1045FC00890875091574FF6A700374FF6B70277E48
:10460C0000AC087A027B00EEF91214FFE960037526
:10461C0009000EEEC3940A40E8E50860497A537B22
:10462C0015120AD98040120ABB8A0A8B0BAE0AAF4C
:10463C000BEE4F602E7C007D00EE2405FAEF34006B
:10464C00FB8E828F831246EE500CAC087A027B00F4
:10465C001214FF750900E508600CEEFAEFFB121559
:10466C00538003750914A9090243A874F2121A762F
:10467C00ECFEEDFF740E121A57124B1B75081574D5
:10468C00FF6A700374FF6B7021750900AC0AAD0BE7
:10469C00EEFAEFFBA909121505E960037508000590
:1046AC0009E509C3940A503580E2120ABB8A828B51
:1046BC0083E582458360237C007D00E5822405FA36
:1046CC00E5833400FB1246EE5013AC0AAD0BEEFA48
:1046DC00EFFB1215057508008003750814A9080274
:1046EC005519A3A3A3A3E0F91214DBE9C3940A227E
:1046FC00C082C0839009EAEAF0A3EBF09009D0E005
:10470C00FC7D007A257B001205CF9009D0E0F912D0
:10471C000833D083D08202013574EC121A768A08E1
:10472C008B09E9FE7414121A57780C1218DC7F00EE
:10473C00EE702E7808121C8990901678101218DCE6
:10474C00780C79101217ADAA10AB11AC12AD131274
:10475C00066B7402121A22E9FF60097901AA08ABF0
:10476C0009120665EFF97F0C021B4874EA121A76DF
:10477C0074EC121A0CEAFEEBFFEE240CF514EF3479
:10478C0000F515EE240AF510EF3400F511EE2405B2
:10479C00F50EEF3400F50FEE2409F50AEF3400F5B1
:1047AC000BEE2403F508EF3400F5098E828F83A3FA
:1047BC00A3E024FA7003024AE424FD7003024A13B6
:1047CC0014700302486214601024FD70030249E463
:1047DC00147003024A48024B02124B47604AE0F540
:1047EC00838882124B2E880C890DE8450D60398523
:1047FC001482851583E0F50E780E121C8DEE240BB9
:10480C00F582EF3400F583E0F9850A82850B83127B
:10481C004B280A0A0AAB09850C82850D83121A6192
:10482C007401121A22024B02850A82850B83121C18
:10483C00A09009E61218FA12066B7402121A22E9F9
:10484C007003024B027901850A82850B8312533E59
:10485C00120665024B028E828F83A385821285839A
:10486C0013E060030249BD850E82850F83E0A2E050
:10487C0040030249BD7C0E7D0079008518828519A4
:10488C0083AA82AB831210EBEE2408F50AEF3400F6
:10489C00F50B850A82F583124B4A6019750C067567
:1048AC000D00780C121C89850A82850B83E024107C
:1048BC00FCA3E0801A124B0CEA4B7003024B0275FE
:1048CC000C06750D00780C121C89EA2405FCEB34DF
:1048DC0000FD7402121A57AA82AB83124EF2121AFE
:1048EC0022850E82850F83E0A2E25004D2F0800272
:1048FC00C2F0A2F0E433F8740C121A57E048F085B9
:10490C001082851183124B4A6015851082851183A4
:10491C00E02410F8A3E03400F988828983800390A6
:10492C00903E780C1218DC851082851183124B4A4C
:10493C00600F851082851183E0F510A3E0F51180DE
:10494C0006751000751100850A82850B83124B4A7F
:10495C00600B850A82850B83124B1B8006750A003F
:10496C00750B00780C121C857810121C89780A12B1
:10497C001C89851482851583121CA08E828F83A3BB
:10498C00124B23740A121A57AA82AB83121517748E
:10499C000A121A22850882850983124B2E900A7AF4
:1049AC00E8F0A3E9F07A017B009009D0E0F912114C
:1049BC0027124B477003024B02124B347003024B0D
:1049CC0002851282851383E0FC79011253388E82A2
:1049DC008F83121A61024B02124B477003024B0277
:1049EC00E0F5838882A3A3124B2E890BE8450B704C
:1049FC0003024B028E828F83A3E0FC7902125338A0
:104A0C008882850B8380CB7C007D00EE2404FAEF3A
:104A1C003400FB850882850983E0F91214DBE9F880
:104A2C00C3940A4003024B02AC10AD117A0475F02A
:104A3C0006E8A42425F9121679024B029009E5E048
:104A4C00600E9010BCE0F9850882850983024859F4
:104A5C009010B9E07004790580ED124B0C8A0C8B28
:104A6C000DA80CA90DE82404F50CE93400F50D8E05
:104A7C00828F83A3A3A3A3A3A3A3E0A2E05036E851
:104A8C00496073850C82850D83E0FE6028850A825F
:104A9C00850B83E05410701D740E121A57AC82AD46
:104AAC0083E82405FAE93400FBEEF91214DBE97013
:104ABC000479038092AC0EAD0F850C82850D83E0DA
:104ACC00F912533812155F124B47602A124B34609F
:104ADC00257C0079000249D7120731E97018900A39
:104AEC0079E06401700812153B900A79E4F0795072
:104AFC0012168512152F7414121A227F0E021B48DF
:104B0C00850882850983E0FAA3E0FB120ABB22E048
:104B1C00F50AA3E0F50B22A3A3A3A3A3E0FCA3E057
:104B2C00FD22E0F8A3E0F922E0F5838882A3A3E05C
:104B3C00F8A3E0F9E8FEE9FFEE4F229009EAE0F86D
:104B4C00A3E0F9E8492274F4121A7674F2121A0CE2
:104B5C00EAFE8C0B75F006E9A42420F50885188272
:104B6C00851983AC82AD837A0E124FAA704A7C06EB
:104B7C00124CCF7043740C121A57124B2EE8F509D5
:104B8C00E50B6005EE42098004EEF45209850982BA
:104B9C00AA82E86A7001E9601B740C121A57EAF0D9
:104BAC00A3E4F0851882851983AC82AD837A0EA9B3
:104BBC00081216797901800279000243A374F2126B
:104BCC001A7674E6121A0C890A8A088B09ECFEED27
:104BDC00FF740C121A57124F9D6003024C837C0613
:104BEC0079FF740C121A57124CD76003024C837461
:104BFC0070250AF50B851882851983AC82AD837AF2
:104C0C000C124FAA6003024CC8851882851983AA1E
:104C1C0082AB83121511E508450970217C0C7900D3
:104C2C00124CD16003024CC87C0C7D0079008518B5
:104C3C0082851983AA82AB831210EB80618518825E
:104C4C00851983AC82AD83AA08AB0912150B8A0CAB
:104C5C008B0DA80CA90DE849702CEE4F6019851826
:104C6C0082851983AC82AD837A007B0012150BEA26
:104C7C00F8EBF9EA4B70047900804388828983E56C
:104C8C0008F0A3E509F0124D4FFAEE6A7001EF60DF
:104C9C002BEEF04F700888828983E4F0A3F085181E
:104CAC0082851983AA82AB83121511851882851906
:104CBC0083AC82AD837A0CA90B1216797901741A24
:104CCC0002551679FF851882851983AA82AB831247
:104CDC00114BE92274F7121A767F00EF75F003A4DA
:104CEC00F8A9F0EC28F8ED124D13E06A7003A3E07C
:104CFC006B7006E8FAE9FB800B0FEFC3940440DB02
:104D0C007A007B0002504839F9888289832274F733
:104D1C00121A767E00EE75F003A4F8A9F0EA28F8D2
:104D2C00EB124D13E0F4FCA3E0F4FD88828983ECD4
:104D3C00F0A3EDF0124D4FF4F00EEEC3940440D5F9
:104D4C00025048E82402F582E93400F583E022742D
:104D5C00EE121A7674F4121A0CEAFEEBFF8C0A8D22
:104D6C000B741E121A57E0F50CA3E0F50D7420120B
:104D7C001A57E0F508A3E0F5097422121A57E0F56A
:104D8C0010A3E0F511EE4F7005790A024E80121552
:104D9C0023E9F50EC3940A4023750F007C0679FFB6
:104DAC00E50F75F00EA4FAABF074EC2AFA74093B1B
:104DBC00FB124CDB7003024E8A850F0EE50EC3947A
:104DCC000A4003024E7E75F006E50EA4F50FEEFCCC
:104DDC00EFFD7A0E7420124E9BE50A450B600BAC6E
:104DEC000AAD0B7A1B7421124E9BE50C450D600B22
:104DFC00AC0CAD0D7A1B7422124E9BE50845096074
:104E0C000BAC08AD097A107423124E9BE5104511BA
:104E1C00601BAC10AD117A107424124E9B742412CA
:104E2C001A57AC82AD837A047425124E9B7C0C7D90
:104E3C000079FF1255A77A0C7470250EF9121679A9
:104E4C0075080E7509007808121C89EEFCEFFDE55B
:104E5C000E75F00EA4F8A9F074EC28FA740939FB5D
:104E6C00124EF2121A22900A78E0600312156B129D
:104E7C001559A90E740C121A227F0A021B48050F31
:104E8C00E50FC3940A5003024DA8750E0A80E32562
:104E9C000FF91216792274F4121A7674F2121A0C93
:104EAC00EAFEEBFFE9C3940A5004EE4F700479025A
:104EBC00802D851882851983124F9DF508701E75FB
:104ECC000A06750B00780A121C897402121A57AC68
:104EDC0082AD83EEFAEFFB124EF2121A22A90802EF
:104EEC0043A3AA08AB091210D374022274F4121A49
:104EFC0076EAFEEBFF750800750A06750B00780A5A
:104F0C00121C89EEFCEFFDE50875F00EA4F8A9F073
:104F1C0074EC28FA740939FB1210E57402121A2287
:104F2C00E96004A908800B0508E508C3940A40C889
:104F3C00790A0243A874F7121A7674F0121A0CEA62
:104F4C00FEEBFF750800851882851983AC82AD8352
:104F5C007A1075F006E508A42423124FAA701F7C62
:104F6C0010124CCF7018EEFCEFFD8518828519835A
:104F7C00AA82AB8312063BE97004A908800B0508D2
:104F8C00E508C3940A40BF790A7410121A22025021
:104F9C0048AC82AD837A0E75F006E9A42420F91290
:104FAC00167FE92274F7121A76750800E50875F079
:104FBC000EA4F8A9F074EC28FE740939FFEEFCEF8E
:104FCC00FD7A0E75F006E508124FA7602C7C067D65
:104FDC000079FFEEFAEFFB1210EB7C067D0079FFF7
:104FEC00EE2406FAEF3400FB1210EBEE240CF582E3
:104FFC00EF3400F583E4F0A3F00508E508C3940A48
:10500C0040AA900A78E0600312156B121559802C97
:10501C0074F7121A767E007F007C0679FFEF75F02C
:10502C000EA4FAABF074EC2AFA74093BFB124CDBBD
:10503C0070010E0FEFC3940A40DFEEF97F01021BE3
:10504C004874F7121A767E00EEF91215410EEEC373
:10505C00940A5003E960F180E374F3121A7674CB6E
:10506C00121A0CE9FF75F006A4F50874202508FE49
:10507C007427121A57AC82AD837A0EEE124FAA60C7
:10508C00030251677C0679FF7427121A57124CD70A
:10509C0060030251677C0E7D0079FF7427121A574A
:1050AC00AA82AB831210EB7C1B7D0079FF740C126F
:1050BC001A57AA82AB831210EB7C0C7D0079FF850A
:1050CC001882851983AA82AB831210EB7427121AEB
:1050DC0057AC82AD837A0EEEF9121679E9F50974A4
:1050EC000C121A57AC82AD837A1B7421125176FEC6
:1050FC00740C121A57AC82AD837A1B74221251763F
:10510C00F50A740C121A57AC82AD837A1074231200
:10511C005176F50B740C121A57AC82AD837A10745D
:10512C0024125176F50C740C121A57AC82AD837A9A
:10513C00047425125176F508851882851983AC8282
:10514C00AD837A0C74702FF9121679E9F8EE450AD2
:10515C00450B450C45084842098003750900A9090F
:10516C007435121A227F05021B482508F91216798C
:10517C00E92274F7121A76E99009D0F012152F0271
:10518C00504874F2121A7674FB121A0C8A088B09A6
:10519C00EB548070030252329009D0E0F912110FD7
:1051AC008A0A8B0BA80AA90BE8FEE9FFE849606C98
:1051BC00EE2404F8EF3400F98E828F83E0245060E3
:1051CC003814600624E1604A804B88828983E07041
:1051DC00448E828F83A3A3A3A3A3A3A3121CA08E8C
:1051EC00828F83124B238E828F83A3A312533E1282
:1051FC0014E77402121A22801C88828983E0641ED0
:10520C00701379008E828F83A3A312533E1214E184
:10521C0080031214F9EEFAEFFB1210FDAA08E5094F
:10522C006480FB025333EAA2E0400302532F900A3E
:10523C007A124B1B7403121A5785820C85830D78D6
:10524C000C121C89750C02750D00780C121C8975DA
:10525C000CBB750D92780C121C897CFF7DFF7A01BA
:10526C007B0012078B7406121A22025317E4F50CFA
:10527C00F50D780C121C897404121A5785820C8552
:10528C00830D780C121C897404121A5785820C85B4
:10529C00830D780C121C897409121A57121CA079F0
:1052AC0002EEFCEFFDAA0AAB0B1208AB7408121A43
:1052BC0022E97035851882851983E0FA7401121A77
:1052CC0057E0F9EA2400F50CE439F50DEA450D60D8
:1052DC0018780C121C898E828F83124B24AA0AAB6D
:1052EC000B1214E77402121A22E4F50CF50D780C6B
:1052FC00121C897405121A57121CA07CFF7DFFEE3C
:10530C00FAEFFB1207977404121A228A0C8B0DAE5B
:10531C000CAF0DEE4F6003025279E5086401FAAB55
:10532C000980047A007B0074050255168508828575
:10533C000983E0FAA3E0FB22C082C0839009D0E08D
:10534C00F98A828B83A312533E1208BD02471EC0FA
:10535C0082C08374FF121A0C121535E9C3940285AE
:10536C001882851983400474028002740AF0AC829E
:10537C00AD837A0179051207497401121A2202478A
:10538C001E74F2121A7674E8121A0CEAFEEBFF89FC
:10539C000A8C088D097C187D0079001255AFEEF04F
:1053AC00A3EFF09009D2E0C0E07402121A57D0E0DB
:1053BC00F09009D3E0C0E07403121A57D0E0F090DB
:1053CC0010BEE0C0E07417121A57D0E0F07415123A
:1053DC001A57E054FEF8A3E0F99010BDE0A2E0E407
:1053EC0033FAE84AF87415121A57125525A2E150EF
:1053FC0004D2F08002C2F0E854FDFAA2F0E4333398
:10540C00F8EA48F87415121A57125525A2E35004FD
:10541C00D2F08002C2F0E854F7FAA2F0E433F50CB3
:10542C00750D007403780C1219F912551E121A57C7
:10543C00125525A2E45004D2F08002C2F0E854EFD9
:10544C00FAA2F0E433F50C7404780C1219F9125525
:10545C001E121A57125525A2E55004D2F08002C232
:10546C00F0E854DFFAA2F0E433F50C7405780C1272
:10547C0019F912551E121A57125525A2E25004D2D0
:10548C00F08002C2F0E854FBFAA2F0E433F50C749D
:10549C0002780C1219F912551E121A57E8F0A3E9EA
:1054AC00F09009D3E0601B750C10780C121C897CF1
:1054BC00D47D097406121A57AA82AB83124EF212CB
:1054CC001A229009E4E06011E50A60097415121AB9
:1054DC0057E04402F07801800278007414121A57D5
:1054EC00E048F09009D1E060047804800278007400
:1054FC0014121A57E048F0AC08AD098518828519CA
:10550C0083AA82AB8312065F7418121A227F0602DA
:10551C001B48EA450CF8741522E8F0A3E9F090104A
:10552C00BDE02274F3121A7674E5121A0CEAFEEB43
:10553C00FF8C098D0A7428121A57E0F50C75F006C9
:10554C00E9A4F87408650A70047422800274212896
:10555C00F50B7C1B7D0079001255A77A1BA90B1249
:10556C004FAB7032741A121A57E024F9C3940A50D4
:10557C0025E50CF50B780B121C8D7401121A57AC27
:10558C0082AD83E509A2E0E433F9EEFAEFFB1206F3
:10559C00717401121A22741B02516E1255AFAC8237
:1055AC00AD8322851882851983AA82AB831210EBF6
:1055BC008518828519832274F7121A7612092F75B1
:1055CC000800E50875F00EA4F8A9F074EC28FE7438
:1055DC000939FF7C0679FFEEFAEFFB124CDB700900
:1055EC00EEFAEFFB79001209350508E508C3940AB9
:1055FC0040D0025048C082C0839061907404F0A3E4
:10560C007448F0A3E4F09061807440F09061BC7435
:10561C0007F09061877469F09061B67416F07900A8
:10562C00120BBD7902120BC39027ECE493F46006C5
:10563C00E493F9120B997905120EB7025A43C08202
:10564C00C083E9540FF9906185E0696012E5C65496
:10565C00804449F5C6E59E547F644970F8E9F053DF
:10566C00C680E59E547F70FA025A4374F7121A767C
:10567C00E5A8FE53A87E120BA5C2BA539AFEC289A6
:10568C00759B00C2C2120BAB75A91175B905120B33
:10569C00B1D2BA439A0174805E42A8025FD0C08234
:1056AC00C083906181E4F0A3025A4075E9007591C2
:1056BC000075BF00020135C082C083906181E4F0A7
:1056CC00A374C0F0A3E4025A42C082C08374F812DF
:1056DC001A0C9003C4125EB2E849700302578C9006
:1056EC0003C4E0544060237908851882851983AA85
:1056FC0082AB83120CB3851882851983AA82AB8383
:10570C001209599003C4E054BFF0E0548060107942
:10571C000C7A807B05120CB39003C4E0547FF0E04C
:10572C00A2E05008790012579454FEF0E054026045
:10573C0008790112579454FDF0E054046008790084
:10574C0012579F54FBF0E054086008790112579FE0
:10575C0054F7F0E054106008790212579F54EFF0A0
:10576C00E054206008790312579F54DFF0A3E054F3
:10577C0001600D120BCF12096B9003C5E054FEF0C3
:10578C007408121A22025A43120BBD12095F9003BD
:10579C00C4E022120BC31209659003C4E022C0823C
:1057AC00C083E9600514602A804F90619A7433F0CD
:1057BC00A37455F09061A0743AF090055CE064011C
:1057CC007009C2919003C67467802D9003C67461F2
:1057DC00802690619A743FF0A3745AF09061A07483
:1057EC007FF090055CE064017009D2919003C6745F
:1057FC007180059003C6746AF0025A43C082C0835C
:10580C00E9600B14600D14600F1460118020902758
:10581C00F080159027F180109027F2800B90055C9A
:10582C00E0640160F39027F3E493906186F0025AF0
:10583C004374EE121A7674F4121A0C8518828519B8
:10584C0083AC82AD8375839075822A740412191F00
:10585C009027F093F460030259CF907808E0C3943A
:10586C000250030259AF7404121A57AC82AD8375FF
:10587C00838F75829E740812191FF97AFF7BFF7F44
:10588C00FF7E008982858210801874086E70030276
:10589C00596474096E7003025964740A6E700302C1
:1058AC005964E510C333FCE433FD7404121A57E554
:1058BC00822CF582E5833DF583E0F50EA3E0F50F30
:1058CC008E08750900740278081219F974482508B5
:1058DC00FC74783509FD8C828D8378081218DC7481
:1058EC0008780812181D85080C85090D8C828D838B
:1058FC0078081218DC7418780812181DE50C450885
:10590C00F508E50DF509C3E50E9508E50F95098C2D
:10591C00828D8378081218DC8C828D83780812189B
:10592C00DC74187808401412181DE50C4508FCAD01
:10593C000DE50EC39CFCE50F9D800F12181DE50CA8
:10594C004508C3950EFCE50D950FFDC3EC9AED9B38
:10595C005006ECFAEDFBEEFF0EEEC394135003026F
:10596C00589674FF6A700374FF6B602D8F08740275
:10597C0078081219F9744812665E74783509F58343
:10598C0078081218DC851882851983E5822510F5B4
:10599C0082E5831263EBE508F009E9C39404500334
:1059AC000258877508017509007808121C89740261
:1059BC00121A57AC82AD837AFC7B091215AD7402B6
:1059CC00121A22740C121A227F0A021B48C082C0BF
:1059DC0083906186E0F89027F3E493687009902730
:1059EC00F2E493906186F09061AE7468F0A3746AEF
:1059FC00F090624574FBF0A304F053F4FD43FE02F7
:105A0C0090055C7401F09061A0E0643A7004790038
:105A1C0080027901120BBD025A43C082C0839005EB
:105A2C000EE06401700A900513E06004790C8002AA
:105A3C0079008003F0A3F0D083D082020135C082BC
:105A4C00C08375E1F1900511E0604D14600814609D
:105A5C00511460498051120BE1900507E0F97A0866
:105A6C007B05120E3990901E1218FA120E6F90913F
:105A7C002A1218FA120E45900512E0F9120E5179FD
:105A8C0001120EAB900505E02416125BD874F9F0E8
:105A9C00A3740BF07900809F120BE780BC120BED06
:105AAC0080B7120BF380B2791280EB74F4121A7671
:105ABC0075D90D9004F6E0A2E0E4331313F8125BF1
:105ACC0044484401F5D97800125BC240FB78008849
:105ADC000874F712665E7404125BCC40F275E195A3
:105AEC009004F6E0F97AF77B04120E3F900E3474B2
:105AFC006FF0A3740B125BE7125C07125BFE125D76
:105B0C003F125B4E78081218DC909032780812180D
:105B1C00689090E678081218B6125BD278081218C2
