:020000040000FA
:0600000002010A02203299
:0300130002248242
:03002B0002246943
:030033000224594B
:03003B000224E8B4
:030053000220A8E0
:03006B0002243636
:03007B0002244913
:10008300021F23E5C754F84401F5C7790122000094
:100093000080FB120086B900030200F4E4792178A2
:1000A30008B800028004F709D8FCE479297802B87B
:1000B30000028004F709D8FCE490028178D3790B1D
:1000C3008002F0A3D8FCD9FA900D53AA82AB839097
:1000D300013A789879048015E493A3AC82AD838ABE
:1000E300828B83F0A3AA82AB838C828D83D8E9D9D8
:1000F300E77582C57583CD740312011C75829175F2
:100103008300740012011C75D00075813F7518813E
:10011300751902759F00020096C09FF59FE473D086
:100123009F22D083D082C09FE493C0E0740193C028
:10013300E0740293F59F22FF0000B400002800281A
:1001430000283075A000A000A000A000000800084F
:10015300E001F0001000100010001000100010006B
:1001630050005000500010001000D00700000000A5
:1001730000000F00010005003075070010000100AA
:1001830081FF0000FFCF06ED06D506FF020202083D
:10019300025000A0000000E803029D9201000052FB
:1001A3009202A192010000A80D02A792010000B2E1
:1001B3000202A192010000A90D02A992010000C848
:1001C3000202A192010000AA0D02AB92010000CA33
:1001D3000202A192010000AB0D02AD92080000CB18
:1001E3000202A192010000AC0D02AF92010000AD2A
:1001F3000DFF0100FF20029D92010000559202A114
:1002030092010000110E02B192000000000002A54D
:100213009203000018030B0D0B0D0B0D0B0D0B0DB3
:100223000B0D0B0D0B0D0B0D0B0D0B0D0B0D0B0D0B
:10023300DB0FF30FD50FFFFF0A416363656C2045A6
:100243006E61626C650000021400416363656C209B
:1002530052616E67650000101010416363656C2086
:10026300582D436F6F7264696E617465000041635A
:1002730063656C20592D436F6F7264696E61746599
:100283000000416363656C205A2D436F6F7264698C
:100293006E6174650000029D92010000649202A1E8
:1002A30092010000540E028F920300007A0702A30A
:1002B30092010000550E02A192010000630E028D0F
:1002C30092010000640E02A392010000660E02A1D7
:1002D30092010000730E028B920000007B0702A5BF
:1002E300920300007E0702A392010000760E02A192
:1002F30092010000740E02B3920000007C0702A575
:1003030092030000840702A3920100008A0E02A157
:1003130092010000750E0287920000007D0702A57E
:10032300920300008A0702A3920100009E0E1101AE
:1003330099010F12640401029D9201000070920260
:10034300A1920100004F0F027392010000500F02AF
:10035300A5920300009807029392010000510F45F4
:10036300124B1239123F122E90758F8C8F0C094F3E
:100373004C503432352D303030300201054F4C5063
:100383003432352D303030300000000000000000E2
:100393000000BD120000AB12B112C312E112DB1256
:1003A300E71200002A91C18E0A0A029D9201000001
:1003B3005B9202A192010000C40F02859203000028
:1003C3005E0902A192010000C50F02899203000099
:1003D3005F095D8FA291D6911C1C029D92010000C2
:1003E300589202A192010000F40F10028F02000044
:1003F3007C0902A592030000760902A19201000084
:10040300F50F10228F0200007D0902A59203000060
:100413007009858E12029D920100005E9202A192E4
:100423000100003010029792010000B50902A59265
:10043300030000B609698F0202020202010D0000E7
:10044300001001029D92010000619202A19201003D
:10045300005310027B92010000C80902A19201001F
:10046300005410027D92010000968F02A1920100B8
:10047300005510027F92010000089002A192010032
:100483000056100281920100000E9002A192010019
:10049300005710028392010000328F01E803053FE9
:1004A30010FF000130750302010600000000000088
:1004B3000000000000000000000000000000000039
:1004C300000000000000FFFF0600800CE80312019B
:1004D3002571C10312012588C103120125B7C10388
:1004E300120125F0C10312012518C203120125468A
:1004F300C2031201255DC20312012574C203120156
:10050300258AC203120125B1C203120125C4C20305
:10051300120125DAC203120125EDC20312012512CD
:10052300C30312012527A40212012526A5021201E5
:10053300255BA5021201257CA5021201258CA502CB
:10054300120125ADA502120125B9A60212012586C5
:10055300A702120125F9A7021201257FA8021201A1
:1005630025C2A802120125F9A8021201257FA902BA
:1005730012012551AA02120125AFAA02120125C7B1
:10058300AA0212012541AB0212012544AB0212015A
:100593002547AB02120125EEAB0212012506AC0280
:1005A30012012536AC0212012556AC021201254474
:1005B300AD02120125FAAD02120125C28403120114
:1005C30025EA84031201251885031201254F8503AB
:1005D300120125B785031201250086031201254B5D
:1005E3008603120125898603120125C6860312019B
:1005F30025F486031201259B8703120125A5870392
:10060300120125B28703120125E58703120125A7ED
:100613008803120125B38803120125CB8803120135
:1006230025D58803120125E2C903120125F0C90368
:1006330012012508CA0312012520CA0312012559F4
:10064300B201120125F7B2011201256FB3011201A4
:100653002584B401120125BEB40112012567B50139
:100663001201253CB601120125A0B701120125F79D
:10067300B7011201257EB80112012565B9011201E6
:1006830025B2B90112012540BA0112012564BA014C
:1006930012012539BC011201257ABC011201259CE6
:1006A300BC011201251DBD0112012507BE01120166
:1006B30025CDBE0112012513EA02120125E5EA0246
:1006C3001201258EEB02120125D1EB021201255EE8
:1006D300EC02120125EAEC02120125CBED02120114
:1006E30025FAED02120125F6EE021201253EEF0274
:1006F30012012540F00212012584F002120125AAFD
:10070300F00212012575CB03120125E095031201B6
:1007130025F695031201251C960312012544970320
:100723001201254E9703120125A79803120125A74D
:1007330099031201251FF10212012554F20212013D
:100743002587F202120125D1F2021201258FF4024C
:10075300120125FCA2011201255FA301120125A4A8
:10076300A401120125B4A401120125D7A401120189
:100773002522A501120125C7A501120125BDA60148
:1007830012012587A701120125FFA80112012541A6
:10079300A901120125DFA9011201252CAA011201C9
:1007A3002552AA0112012540AC0112012545AC01D5
:1007B30012012526AE011201257AAE01120125DCB4
:1007C300AE0112012504AF01120125A8AF011201E8
:1007D300256AB0011201259BB0011201259EB001CB
:1007E300120125E6B00112012528B1011201258F5E
:1007F300B1011201256EB00312012581B00312016C
:10080300259AB003120125E5B003120125C0B103F7
:100813001201254FB2031201259AB2031201255486
:1008230025001201256025001201259925001201DA
:1008330025DE25001201259526001201251B270020
:10084300120125802700120125AC2700120125E59E
:100853002700120125F92900120125D52B001201C9
:1008630025C02D00120125F72E0012012557310056
:100873001201254332001201258933001201259606
:100883003400120125B33400120125EB34001201A8
:10089300250535001201256D3500120125073A00A3
:1008A300120125A83A00120125F93A001201252068
:1008B3003B001201256E3B001201258C3B00120107
:1008C30025E03B00120125B93C00120125403E0002
:1008D300120125C83E0012012545F6021201254FDB
:1008E300F6021201251AF70212012535F702120149
:1008F300255BF7021201259FF702120125D7F702A4
:1009030012012500F80212012579F8021201258E41
:10091300F802120125A3F802120125DAF8021201E6
:1009230025EEF8021201251FF90212012559F902D9
:1009330012012585F902120125B3F902120125FEE0
:10094300F9021201259CFA02120125E5FA021201AD
:10095300250FFB0212012534FB02120125F491033A
:10096300120125BE9203120125A19303120125173B
:10097300940312012559940312012586950312014C
:1009830025878C02120125B08C02120125C98C0225
:100993001201250E8E02120125EC8E021201250B87
:1009A3008F02120125988F02120125DB8F0212019B
:1009B30025289102120125C79102120125469402AE
:1009C300120125DD9402120125B19502120125932E
:1009D3009602120125FF9702120125929802120135
:1009E3002505C6031201256EC603120125C2C603DF
:1009F300120125E9C6031201256A8903120125D7CD
:100A03008903120125228A03120125178B03120180
:100A130025138C03120125FD8C0312012552D202EA
:100A230012012594D2021201256ED3021201254729
:100A3300D40212012542D50212012521D602120148
:100A4300258DD60212012554D702120125BFD702E4
:100A530012012526D80212012551D802120125C2FE
:100A6300D80212012555D902120125BED90212015D
:100A730025D3D9021201251BDA0212012534DA0229
:100A830012012599DA021201259CDA02120125E8E6
:100A9300A70312012510A8031201254EA803120172
:100AA300250CA90312012577A90312012593A90394
:100AB300120125BBA903120125EBA903120125FA93
:100AC300A90312012574AA031201259AAA0312018C
:100AD30025B692011201255394011201253996017D
:100AE3001201250397011201254A9701120125914D
:100AF3009701120125A39701120125E39701120122
:100B0300251298011201255E98011201259698017C
:100B1300120125C49801120125159901120125A47A
:100B23009901120125929C011201256C9E0112016B
:100B330025A89E0112012502A00112012549A00149
:100B4300120125BEA0011201250CA1011201252DC0
:100B5300A1011201259FA101120125E4F601120151
:100B63002501F7011201259BFC011201259DFD01C1
:100B730012012517FF01120125C5FF01120125618D
:100B83005300120125AA5300120125D75300120165
:100B9300250A54001201251754001201252354007D
:100BA3001201253554001201250A5500120125684A
:100BB30055001201259D55001201253957001201D8
:100BC30025865700120125AA570012012517580040
:100BD300120125BC5800120125785900120125F78E
:100BE3005900120125BB5A00120125CA5A001201ED
:100BF300254B5B00120125EA5B001201251C5C00FA
:100C0300120125B75C00120125155D001201254F65
:100C13005D00120125D05D00120125995E001201CD
:100C230025425F00120125C95F00120125216000E2
:100C3300120125826000120125AB600012012561BB
:100C43006100120125AB6200120125EE6200120160
:100C5300250B63001201252A630012012575630029
:100C63001201259A6300120125C363001201253284
:100C730064001201257464001201257865001201D5
:100C830025126600120125DE6600120125F76600B3
:100C930012012565AE02120125B8AE02120125C468
:100CA300AE0212012599AF02120125C0AF02120153
:100CB30025FBAF0212012567B0021201259BB0028A
:100CC300120125D4B002120125ECB0021201254510
:100CD300B1021201255EB102120125A7B102120170
:100CE30025BAB102120125D4B102120125EAB102DB
:100CF30012012506B30212012517B402120125645D
:100D0300B50212012549B602120125492500120137
:100D130025FEE90112012532EA011201259DED01AB
:100D2300120125E7EE01120125B1EF011201253B66
:100D3300F10112012516F20112012550F2011201EF
:100D43002573F201120125B5F201120125BEF2014C
:100D530012012508F30112012512F301120125BE28
:100D6300F30112012592F401120125E6F4011201A7
:100D73002548F5011201259BF501120125CAF5014C
:100D830012012509F60112012529670012012583A5
:100D93006F00120125896F001201254475001201AD
:100DA300252A79001201259AA40312012510A5030F
:100DB30012012526A50312012563A5031201259B14
:100DC300A50312012518A60312012553A603120138
:100DD30025CEA6031201250AA70312012513A70393
:100DE3001201251FA70312012539A7031201255E4E
:100DF300A70312012574A703120125B8A703120143
:100E0300250080031201251380031201252D800381
:100E1300120125568003120125998003120125D85A
:100E230080031201251681031201257B8103120120
:100E3300259081031201259B8103120125A88103BB
:100E4300120125BF8103120125CD8103120125D88B
:100E53008103120125E48103120125F781031201A5
:100E630025028203120125258203120125CE820366
:100E7300120125DE8203120125F8820312012515D2
:100E830083031201253183031201255683031201C3
:100E930025608303120125748303120125938303C1
:100EA300120125F48303120125FA8303120125009D
:100EB30084031201250684031201251284031201FF
:100EC3002545840312012585CF0112012507D00191
:100ED300120125B0D001120125F8D1011201250616
:100EE300D401120125ECD40112012521D5011201EF
:100EF3002543D501120125ECD501120125BCD701EB
:100F0300120125E5D7011201255DD8011201258FB4
:100F1300D8011201259CD801120125E7D80112013D
:100F2300250BD9011201255CDB0112012566DC01C9
:100F3300120125C2DC0112012502C1011201251390
:100F4300C201120125F7C20112012501C3011201D9
:100F53002523C3011201252FC301120125D3C40187
:100F630012012500C50112012516C6011201256BC8
:100F7300C601120125BAC7011201258FC80112014A
:100F830025EBC80112012556C9011201258BC901A0
:100F9300120125CEC90112012598CC01120125B0F9
:100FA300CC0112012541CD011201254FCD011201C2
:100FB300259CCD01120125AACD0112012516CE01D2
:100FC30012012591CE01120125E8CE011201250956
:100FD30099021201252B99021201253C9B02120151
:100FE30025FB9D02120125259F02120125E39F0285
:100FF300120125CFA002120125B8BF03120125DD7E
:10100300BF0312012553C003120125F6E2021201A8
:1010130025FFE20212012508E302120125E0E302A3
:1010230012012591E502120125C1E502120125EC09
:10103300E5021201251CE60212012547E602120110
:10104300257BE602120125A7E602120125EAE60244
:1010530012012515E7021201255CE702120125B1F1
:10106300E702120125F3E7021201254DE8021201FE
:101073002578E802120125C7E802120125F7E802E4
:1010830012012522E90212012550E90212012573FA
:10109300E902120125FECB031201252ACC0312011A
:1010A3002557CC0312012561CC0312012571CC0312
:1010B300120125797900120125837900120125C4D3
:1010C30079001201250D7A00120125477A001201D9
:1010D300259D7A00120125BE7A00120125C77A00E8
:1010E3001201251B7B00120125447B001201254EB2
:1010F3007B00120125BC7B001201254C7C001201F0
:1011030025A77C00120125D57C001201255D7D00F9
:101113001201259C7D00120125D17D00120125E3DA
:101123007D00120125027E001201250B7E001201B3
:1011330025CD7E001201251AC703120125DBBB034F
:1011430012012511BC0312012545BC03120125928E
:10115300BD031201255BCD0312012571CD031201DD
:10116300257BCD03120125BF8D03120125D28D03EB
:10117300120125968E03120125D58E03120125F245
:101183008E031201252B8F03120125788F03120181
:1011930025AA8F03120125E18F031201257BCC03BE
:1011A300120125BCC403120125DFC4031201250E5D
:1011B300C50312012550C50312012599C503120168
:1011C3002517A10312012572A1031201258FA10383
:1011D300120125A3A20312012567A3031201254DC2
:1011E300A403120125E2AA0312012519AB0312017C
:1011F3002530AB03120125DCAB0312012575AC03CB
:10120300120125FDAC0312012511C803120125B9F2
:10121300C803120125D5C902120125FDC902120115
:101223002565CA0212012505CB0212012555CC0200
:10123300120125BFCC0212012580CD0212012535F2
:10124300CE021201254BCF02120125E7CF02120174
:10125300253FD0021201257DD00212012598D0022C
:10126300120125A5D102120125E3D1021201253372
:10127300C1021201251AC2021201257AC202120109
:1012830025E6C302120125EEC50212012531C7026C
:1012930012012529C9021201256FC902120125066F
:1012A300B8021201257AB802120125E4B90212012B
:1012B30025FBB9021201255CBA02120125DABB0231
:1012C300120125ECBC02120125EFBC021201259488
:1012D300BD02120125EDBD02120125F0BD0212016E
:1012E30025CEBE0212012574BF0212012577BF026B
:1012F3001201258DBF02120125BDBF021201251C5B
:10130300C002120125BCFF021201257F9D031201B9
:1013130025FE9D031201256C9E03120125EE9F03FA
:101323001201251AB50312012588B5031201259967
:10133300B603120125C4B203120125C8B203120178
:1013430025E6B203120125FAB20312012547B303BE
:1013530012012504B4031201250DB403120125164D
:10136300B4031201251FB4031201258CB403120127
:1013730025ADB403120125E0B4031201255CFB0281
:1013830012012596FB02120125FCFD021201254ED6
:10139300FE021201258BFE0212012508FF02120133
:1013A30025008002120125598002120125B3810212
:1013B3001201252A82021201255E820212012523CF
:1013C30083021201254E8302120125628302120158
:1013D30025A28302120125F9850212012521870224
:1013E300120125948802120125B88802120125DB17
:1013F30088021201253B8A02120125CF8A021201BB
:1014030025958B02120125188C02120125518C029D
:1014130012012501C90312012505C903120125176C
:10142300C90312012523C90312012538C903120177
:101433002567C90312012594C903120125CCC903E9
:10144300120125ADB90312012501BA031201253D8D
:10145300BA031201250FBB03120125A2BB0312011C
:1014630025B19903120125B59903120125EF9903BB
:10147300120125179A03120125AF9B03120125665A
:101483009C03120125BE9C03120125009D0312013A
:1014930025329D03120125CAAD03120125EFAD03C9
:1014A30012012519AE031201251BCE031201252FAC
:1014B3003F001201250D4100120125AC420012012B
:1014C30025574300120125D743001201255C440030
:1014D300120125854400120125D74400120125B2CB
:1014E3004800120125294900120125404A00120132
:1014F300257A4A00120125BB4A00120125024C003D
:10150300120125584C00120125A14C00120125108F
:101513004D001201257C4D00120125AD4D00120135
:1015230025C54D00120125DE4E00120125EE4E00A9
:10153300120125A45000120125BB5000120125ED14
:1015430050001201258F520012012523530012016E
:1015530025B9CA03120125CACA031201256ACB039E
:10156300120125F8FF01120125E7FF01120125EC05
:10157300CC03120125FCCC031201250ECD0312016D
:101583002552CD03120125FB7E00120125807F0029
:10159300120125E47F00120125FD7F00120125E9D8
:1015A300FF02120125CCBD031201256ABE031201FD
:1015B3002504BF031201251CBF0312012596BF0397
:1015C300120125AABF0312012524C30312012576A4
:1015D300C303120125E9C30312012556C4031201F3
:1015E3002566B70312012590B7031201255FB803DF
:1015F3001201253BB903120125C0DA021201258C21
:10160300DB02120125CDDB0212012507DC021201E8
:101613002565DC02120125B9DC0212012517DD0262
:10162300120125ADDD02120125B5DE021201253FAF
:10163300E002120125DDE00212012544E10212015C
:101643002557E1021201254BE20212012594E20221
:101653001201250FDD0112012541E001120125D2FE
:10166300E10112012529E20112012546E2011201DD
:1016730025C6E20112012542E40112012511E5010B
:101683001201257EE80112012568E9011201257185
:10169300CE03120125B7CE03120125E4CE03E06683
:1016A300701008A3E066700A08A3E066700408A33C
:1016B300E06622C3E7960809E7960809E796080952
:1016C300E79622C3E09608A3E09608A3E09608A352
:1016D300E09622C008C3E096F50808A3E096420806
:1016E30008A3E096420808A3E09645087001D3D00A
:1016F3000822080808EAC0E0EBC0E086F0E7A4FA95
:10170300180986F0E7A42AFA180986F0E7A42AFA4A
:10171300180986F0E7A42AFA1986F0E7A4FBE5F096
:101723002AFA190886F0E7A42BFBE5F03AFA190820
:1017330086F0E7A42BFBE5F03AFA18180986F0E7E0
:10174300A4C5F02BFBE43AFA1908E7C5F0C6A426B2
:10175300F6E5F03BFBE43AFA1886F0E7A4F6E5F089
:101763000826F6E43B08F6E43A08F6D0E0FBD0E0BE
:10177300FA22E4CFC0E0E4CEC0E0E4CDC0E0E4CCA4
:10178300C0E075F020C3E633F608E633F608E63327
:10179300F608E633F6181818EC33FCED33FDEE3398
:1017A300FEEF33FFC3EC9709ED9709EE9709EF9727
:1017B300191919400FFFEC97FC09ED97FD09EE97F6
:1017C300FE191906D5F0BEECF709EDF709EEF70996
:1017D300EFF7191919D0E0FCD0E0FDD0E0FED0E01E
:1017E300FF226016080808C6C313C618C613C61816
:1017F300C613C618C613C6D5E0EA2270090808083E
:10180300226016181818C6C333C608C633C608C6DE
:1018130033C608C633C6D5E0EA22E627F60809E64A
:1018230037F60809E637F60809E637F622E026F622
:1018330008A3E036F608A3E036F608A3E036F6225E
:10184300E026F008A3E036F008A3E036F008A3E0B2
:1018530036F022C3E697F60809E697F60809E697F5
:10186300F60809E697F622C3E096F008A3E096F09F
:1018730008A3E096F008A3E096F022E056F608A34A
:10188300E056F608A3E056F608A3E056F622E05623
:10189300F008A3E056F008A3E056F008A3E056F0E2
:1018A30022E0F608A3E0F608A3E0F608A3E0F62298
:1018B300E6F008A3E6F008A3E6F008A3E6F022E0CA
:1018C300FAA3E0FBA3E0FCA3E0FD22EAF0A3EBF024
:1018D300A3ECF0A3EDF022CAC0E0E6F0A308DAFA25
:1018E300D0E0FA22CAC0E0E0A3C582CCC582C5839A
:1018F300CDC583F0A3C582CCC582C583CDC583DAAC
:10190300E6D0E0CA22C3E498F8E499F912194980B1
:1019130026C3E49AFAE49BFBE920E7E9121949E4B8
:1019230098F8E499F922C3E498F8E499F91219496B
:10193300E498F8E499F9C3E49AFAE49BFB22EB20D8
:10194300E7CFE920E7E0B90010BB0008E88AF0849C
:10195300F8AAF022E4FBC8FA22EB70227B10C8330A
:10196300C8C933C9335007C39AC3DBF280069A5000
:10197300012ADBEAC833F4C8C933F4C9FA2275F083
:1019830008E4C833C8C933C933C99AC99B5004C9C9
:101993002AC93BD5F0ECFBC833F4C8E4C9FA22608A
:1019A3000D08C6A2E713C618C613C6D5E0F3226016
:1019B3000C08C6C313C618C613C6D5E0F4227004B8
:1019C30022600D18C6C333C608C633C6D5E0F41863
:1019D30022251810AF08F518400215198008F518CC
:1019E30040021519D2AF22C0D0251810AF08F51840
:1019F300500205198008F51850020519D2AFD0D04E
:101A0300222518F58210AF08F51840021519800831
:101A1300F51840021519D2AF851983222518F582CE
:101A2300E43519F58322E473C0E0E8C0E0E58124DE
:101A3300FCF8E6A2E7D0E0F8D0E0222518C582C082
:101A4300E0E51934FFC583C0E0E518C3958224F8A7
:101A530010AF0885831985821880088583198582CC
:101A630018D2AFCEF0A3E520F0A37808E608F0A3E0
:101A7300DEFAEFF0A3E58124FAF8E608F0A3E6081E
:101A8300F0A3E608F0A30808E608F0A3E608F0A32D
:101A930015811581D0E0FED0E0F8158115811581FF
:101AA300E8C0E0EEC0E0222518C582C0E0E51934A5
:101AB300FFC583C0E0E518C3958224F910AF0885FC
:101AC30083198582188008858319858218D2AFCE41
:101AD300F0A3E520F0A37808E608F0A3DEFAEFF020
:101AE300A3E58124FBF8E608F0A3E608F0A30808C1
:101AF300E608F0A3E608F0A315811581D0E0FED037
:101B0300E0F815811581E8C0E0EEC0E02285198375
:101B1300851882E0A3FEE0A3F5207808E0A3F60889
:101B2300DFFAE0A3FFE0A3C0E0E0A3C0E0E0A3C0CE
:101B3300E0E0A3C0E0E0A3C0E010AF088582188511
:101B430083198008858218858319D2AFD083D08208
:101B5300020122851983851882E0A3FEE0A3F52004
:101B63007808E0A3F608DFFAE0A3FFE0A3C0E0E013
:101B7300A3C0E0E0A3C0E0E0A3C0E010AF0885820B
:101B8300188583198008858218858319D2AFD0837D
:101B9300D08222C0D02518C582C0E0E51934FFC524
:101BA30083C0E0E518C3958224F310AF0885831939
:101BB3008582188008858319858218D2AFC8F0A35F
:101BC300E9F0A3EAF0A3EBF0A37908E709F0A3D8BF
:101BD300FAECF0A3EDF0A3EEF0A3EFF0A3D0E0F066
:101BE300A3D0E0F0A3D0E0F0A3E520F0A3E5F0F06C
:101BF300A322851983851882E0C0E0A3E0F9A3E05E
:101C0300FAA3E0FBA37808E0F608A3DFFAE0FCA35D
:101C1300E0FDA3E0FEA3E0FFA3E0C0E0A3E0C0E09B
:101C2300A3E0F5D0A3E0F520A3E0A3F5F010AF08FF
:101C33008583198582188008858319858218D2AF18
:101C4300D082D083D0E0F8D0E032740480067402EE
:101C530080027401C0E0F404121A04D0E01218DA0E
:101C6300227404800474028000CCC0E0EDC0E0E57F
:101C730018C39CCCAD1950011D10AF068C188D19DB
:101C830080068C188D19D2AF1218E7D0E0FDD0E092
:101C9300FC22D083D082E9C0E0E493A3C386F0C5DD
:101CA300F095F0F908E493A386F0C5F095F0700B76
:101CB300E493A3C3994005E9048002A3E475F00209
:101CC300A42582F582E5F03583F583D0E0F9E4932A
:101CD300A3C0E0E493C0E022D083D082ECC0E0ED67
:101CE300C0E0E493A3FCE493A3FDED4C600D121D4F
:101CF30027EC24FFFCED34FFFD80EFE493A3FCE429
:101D030093A3FDED4C600D121D66EC24FFFCED3436
:101D1300FFFD80EFD0E0FDD0E0FCE493A3C0E0E45E
:101D230093C0E022C0E0C3E493960874019396182D
:101D3300400FE4936670080874019366187000708E
:101D430019A3A3C3E49396087401939618A3A3401D
:101D53000DD0E0D0E0D0E0021D17A3A3A3A3A3A35B
:101D6300D0E022C0E0C0F088F0E493667008087405
:101D7300019366187000A8F0A3A3700BD0F0D0E015
:0E1D8300D0E0D0E0021D17A3A3D0F0D0E022E4
:101D940074F5121AAAEAFEEBFFEE2434F8EF3400CD
:101DA400F988088909EE2435121ECCF8EE2437127E
:101DB4001ECCF50AEC850AF0A4FCAAF0850AF0ED25
:101DC400A42AFDE82CF8E43DF97A257B0012194990
:101DD400EA850882850983F05407F87401B8000283
:101DE4008004C333D8FCC0E0E0131313541FF8EE8F
:101DF40028F8EF3400F9E8245DF582E93400F5832E
:101E0400D0E0F8E0586008850882850983801DEEDB
:101E14002436121ECCF5F0EA84A8F0EE28F8EF344C
:101E240000F9E82438F582E93400F583E0F97F0409
:101E3400021B5674F5121AAAEAFEEBFFEE243412C2
:101E44001ECCC0E0EE2435F582EF3400F583D0E0FB
:101E5400F08E828F83A3A3A3A3A3E0FAA3E0FB8E57
:101E6400828F83A3A3A3A3A3A3A3E0FCA3E0FDEC1D
:101E7400C39AF50AED9BF50BEE2480F508EF3400C8
:101E8400F509850882F583E06401702BEE2481F561
:101E940082EF3400F583121C68121ED574021219E5
:101EA400EAE960137CFD7D04EEFAEFFB120C398540
:101EB4000882850983E4F0AC0AAD0BEEFAEFFB125D
:101EC4001D94122428021E32F582EF3400F583E0BB
:101ED40022C082C083851882851983E0F8A3E0F9C3
:101EE400C3EA9CEB9D5012C3EC98ED994019C3EAE8
:101EF40098EB99501279018010C3EA98EB9940F558
:101F0400C3EC98ED9950EE7900D083D08222EAC3D5
:101F14009CFAEB9DFB2200008521878522C622C006
:101F2400E074EF121B96759B00906182E0A2E6407C
:101F340003021FE4E591A2E64003021FE47591BF8A
:101F44009003C2E064057008120DD7120DE38003FC
:101F5400120DDD752100120E49E99003C3F07900DA
:101F6400120E3D120BA37A017B009003C1E0F9121B
:101F7400110D907803E06442600302202D90055F08
:101F8400E014F0600302202DC2AF121F9100782AE2
:101F9400D0E0F618D0E0F6E59F5407F9700590916B
:101FA40076800390916278081218A4E9C4C0E0789E
:101FB40029E65508F50808E65509F509740B78086B
:101FC4001219B2D0E02508F8906270E0A2E740F858
:101FD400E8C333906272F0906270E0D2E0F080491E
:101FE400E0A2E55024E591A2E5501E7591DF90032F
:101FF400C2E0640D70139003E4E004F064287002FE
:10200400E4F07A00E0F9120EBB906181E0A2E350A3
:1020140009E5E9A2E3500375E9F7A3E0A2E7500953
:10202400E591A2E7500375917F7F04021BF5C0E0A0
:10203400C0D0C082C083906183E0A2E05009E5BFB4
:10204400A2E0500375BFFEE0A2E15009E5BFA2E1A2
:10205400500375BFFDE0A2E25009E5BFA2E25003C0
:1020640075BFFBE0A2E35009E5BFA2E3500375BFCF
:10207400F7E0A2E45009E5BFA2E4500375BFEFE026
:10208400A2E55009E5BFA2E5500375BFDFE0A2E673
:102094005009E5BFA2E6500375BFBFD083D082D0FC
:1020A400D0D0E032C0E074F2121B96E5A7A2E4504F
:1020B4000FE5A1A2E4500953A7EF75A1EF1220FC8C
:1020C400E5A7A2E5500CE5A1A2E5500653A7DF75EC
:1020D400A1DFE5A7A2E15009E5A1A2E1500375A1A2
:1020E400FDE5A7A2E2500CE5A1A2E2500653A7FB2E
:1020F40075A1FB7F01021BF574F8121AAA75210160
:102104009003C2E0640670077A007B00120DBFA240
:10211400AFE433FED2AF9003C8E0640170187A20B4
:102124007B009003C1E0F912118B7A207B009003AD
:10213400C1E0F9121113906182E0D2E6F090055EDD
:10214400E0602185C62280169003C7E06401700810
:10215400E5C654F84405F5C653BEFC121F1C7401B1
:10216400652160E4EEA2E092AF7F01021B560000FD
:102174008E238F2485822885832785188285198359
:10218400E0CEA3E0CF852882852783EBC9EAC8ED9A
:10219400CBECCA75F010C3E833C8E933C9EA33CAD3
:1021A400EB33CBC3EA9EF526EB9FF525B35004AB86
:1021B40025AA26EC33CCED33CDD5F0DAAE23AF240B
:1021C4002274F1121AAA8A088B098C0A8D0B740FD7
:1021D400121A1F780C1218A490919A780812187E7B
:1021E40090919A780C12187E7808790C1216B650D1
:1021F400157808790C12185690902A78081216D679
:10220400401579018013780C790812185690902A99
:10221400780C1216D640EB79007F08021B5674ED39
:10222400121AAA8A088B098C0A8D0B7413121A1FAE
:10223400780C1218A490919A780812187E90919AAA
:10224400780C12187E780C79081216B640117808AA
:10225400790C121856AA08AB09AC0AAD0B8022758A
:1022640010007511007512007513017810790C12A5
:1022740018567810790812181DAA10AB11AC12ADBB
:10228400137F0C021B5690919A78081218A48A8224
:102294008B8378081218917F04021B5674F5121A66
:1022A400AA8C828D8378081218A48A828B8378087A
:1022B40012186A1222F4C3E098F0A3E0991222E6FD
:1022C400401E90903678081218A48A828B8378086E
:1022D4001218438E828F83E02420F0A3E0344EF062
:1022E40080A4F08E828F83C3E09420A3E0944E22D6
:1022F400EA2404F8EB3400F9E8FEE9FF8C828D83CC
:10230400A3A3A3A3E0F8A3E0F98E828F832274F53C
:10231400121AAAE9FE900514E0FAA3E0FBEEC33317
:10232400F8E433F974D228F582748E39F583E02AFF
:10233400F508A3E03BF5097808121C519091CA12E4
:1023440018C212217474021219EA8A088B098C0AC1
:102354008D0B741078081217E5AA08AB097F0402E4
:102364001B5674F1121AAA8A0C8B0D8C0E8D0F74E5
:102374000F121A1FE0FAA3E0FB7411121A1FE0F502
:1023840008A3E0F5097413121A1FE0FEA3E0FF7816
:1023940008121C51EA2401F508EB3400F509E4F5B0
:1023A4000AF50B780C79081216F590901A78081231
:1023B40018A4780C79081216F5AA0CAB0DAC0EAD66
:1023C4000F12217474021219EA8B09EA4509600498
:1023D4007A0180027A00EC2AFCED3400FDECF8ED81
:1023E400F97A717B0212194988088909E4F50AF51A
:1023F4000B8E828F8378081218B3ECF8EDF97A719A
:102404007B021219498A088B09740578081219C1CC
:102414008E828F83A3A3A3A3E508F0A3E509F07F2D
:1024240008021B56C082C083E9906000F0D083D0BC
:102434008222C0E074F2121B96790012139BC2C56B
:102444007F01021BF5C0E074F2121B96790112138E
:102454009BC2EB80EBC0E074F2121B96790212135C
:102464009BC2E880DBC0E0C0D0E8C0E0E5A8D2AF02
:10247400C2C7A2E792AFD0E0F8D0D0D0E032C0E03B
:10248400C0D0E8C0E0E9C0E0EAC0E0C082C083A2F6
:10249400AFE433FAD2AFE5C1C0E0900BA2E0F87428
:1024A400A728F582740A3400F583D0E0F0900BA1DC
:1024B400E0F8A3E0687006E595900BA4F0900BA2F9
:1024C400E004F0C394FA4002E4F0A3E4F0EAA2E0EA
:1024D40092AFD083D082D0E0FAD0E0F9D0E0F8D047
:1024E400D0D0E032C0E0C0D0E8C0E0E9C0E0C0082D
:1024F400C009C082C083A2AFE433F9D2AF900C9F6D
:10250400E0F8A3E0687008539AFBA374018026C224
:10251400E9900C9FE0F50874012508F074A52508DE
:10252400F582740B3400F583E0F5C1900C9FE0C391
:1025340094FA4002E4F0E9A2E092AFD083D082D0D2
:1025440009D0088094020122FFFFFFFFFFFFFFFF75
:10255400C082C083E9900E10F00227D874F7121AD3
:102564003EE99002E0F07C187D037AFF7BFF1208BD
:10257400AF9002E174FFF0A3F0A3E4F0A3F07905B7
:102584001208379002E0E0F912075F7ACD7B081257
:102594000A950234E674F4121A3E8A088B09EB5445
:1025A4008060309002E0E0F91210F58A0A8B0BAEDD
:1025B4000AAF0BEE4F60138E828F83E064B070031A
:1025C40012084FEEFAEFFB1210E3AA08E509648043
:1025D400FB80047A007B000227A774F2121A3E746F
:1025E400FC1219D4EAFEEBFF7412121A1F1239CD31
:1025F400EE4F70030226817402121A1FEEF0A3EF4D
:102604001229E2ECF0A3ED1229E2AA82AB831207AD
:1026140059E9F50A706AE508450960648E828F837A
:102624001239B3EE4F60567A067B001211498A0CB8
:102634008B0DA80CA90DE8497005750A1380418813
:10264400828983E412268EEEF0A3EF1239DEE508C8
:10265400F0A3E509F09002E61227159002E6700552
:10266400123490801B12347E8003EAFCEBFD8C82D2
:102674008D8312271570F38C828D8380E3750A0293
:10268400A90A74041219EA023BCDF0A3123984A3F7
:102694002274F2121A3E890AE975F017A4FEAFF00B
:1026A4009002E5E4F09002E3122715600A12114F3C
:1026B4009002E3E4F0A3F0EEFAEFFB1211498A086A
:1026C4008B09EA4509602FEEFCEFFD79001210D169
:1026D4009002E3E508F0A3E509F07B0080081226E8
:1026E400FFE4F0A3F00BEBC3950A40F2E50A900275
:1026F400E5F0790080027913023BCDEB75F017A465
:10270400F8A9F09002E3E028FAA3E0398A82F5837D
:1027140022123122EA4B2274F4121A3E740C121A59
:102724001F1239A8FEE9FF750800750900800CE541
:10273400082401F508E5093400F509C3E5089CE51A
:10274400099D503285080A85090B7403780A121909
:10275400C1EA250AF8EB350BF988828983A3A3A380
:10276400A3A3A3123565EE650A7003EF650B70BF72
:10277400E8FAE9FB80047A007B00802774F4121ADB
:102784003E7900EAA2E0501B7508D275098F7808DB
:10279400121C517C047D007A127B0E1208317402E3
:1027A4001219EA7F04021B10C082C0839002E61251
:1027B40027DF601C88828983A3A3E06A7003A3E0F7
:1027C4006B8882898370E8A3A3A3A312311E8004BB
:1027D4007A007B00D083D082020122123CB3E84904
:1027E4002274EE121A3E74FC1219D4EAFEEBFF8531
:1027F4001882851983E4F0A3F0EE2402123470EEFB
:10280400240512398BEE2404F50EEF122D97E024E3
:10281400FE603924FC604624FE605224FE605E247F
:10282400FE70030228F824FE700302295C24FE7063
:102834000302296B24FE700302297A24FC7003022C
:10284400298924FE70030229980229D59002FF7475
:1028540017F0A3E41229EA1204D70229D5851882B5
:10286400851983AC82AD831208550229A585188287
:10287400851983AC82AD8312085B0229A5850C08F7
:10288400850D097402121A1FAC82AD8385088285F6
:10289400098312311E12077D8A0C8B0DAC0CAD0D11
:1028A400EC4D603BE4F50CF50D780C121C51750CE5
:1028B400FF750D02780C121C51750C00750D037810
:1028C4000C121C517408121A1F121C68123E2F128B
:1028D40019EAE9F50C700B1231141204EF800F752C
:1028E4000C018508828509831229D8123490850C3D
:1028F400080229A87402121A1FAC82AD83850C82C7
:10290400850D83122EE9603C850C82850D83A3A37B
:10291400121C687510FF7511027810121C51751085
:10292400007511037810121C517408121A1F121C1E
:1029340068123E2F1219EAE9F509700B12311412CC
:1029440004F5800F750901850C82850D831229D841
:10295400123490850908804C851882851983AC82CD
:10296400AD83120861803A851882851983AC82ADE3
:1029740083120867802B851882851983AC82AD8306
:1029840012086D801C851882851983AC82AD831270
:102994000873800D851882851983AC82AD83120873
:1029A40079E9F508E50860298E828F83A3E0641431
:1029B400601F850E82850F83E09002FF1229E212C8
:1029C4003CAF900300123490E508A31229EA1204E4
:1029D400D102337F123CB385188285198322F08596
:1029E400188285198322F07CFF7D02850A82850B7B
:1029F400831231222274EE121A3E74FC1219D48A04
:102A04000A8B0B8C0E8D0FEA2405F508EB3400F5C8
:102A1400097C157D0079007AFF7B021210D1E5084C
:102A24002402F50CE50912398E85188285198385EF
:102A340082108583117810121C51850882850983C0
:102A4400A3A3A3A3122EE0121C51E5082405F5103C
:102A5400E5093400F5117810121C51850C82850D9E
:102A64008312323512077774061219EA8A108B1111
:102A7400AE10AF11E50A2402F50AE50B123473EE29
:102A84004F7003022BB780177402121A1F12311EE3
:102A940088828983EAF0A3EBF09002FFE004F090CF
:102AA40002FFE0C394054003022BB7E4F510F511CF
:102AB4007810121C517510E87511027810121C510F
:102AC4007510E97511027810121C517406121A1F40
:102AD400121C687910EEFCEFFD123E311219EAE97E
:102AE400705E850882850983A3A3A3A3A3A3A3E09F
:102AF400F89002E8E0687048122EE0121C517CE95C
:102B04007D02E5082408FAE5093400FB1210CB74B1
:102B1400021219EAE960298E828F83A3A3A3A31268
:102B2400311E9002FFE0F510740278101219C1747E
:102B3400002510F58274033511F583EAF0A3EBF058
:102B44007402121A1F8582108583117810121C5189
:102B54007402121A1F121C68850C82850D831231AF
:102B6400441219EA8A108B11AE10AF119002FFE0E3
:102B7400F510751100740278101219C174FF251034
:102B8400F874023511F988828983A312271570031A
:102B9400022A83E82403080808E93400F9EE4F60A8
:102BA40003022A8C8882898374FFF0A3F09002FFC9
:102BB400E004F09002FFE0600A1231141204E37999
:102BC40000800B850882850983123487790A0233D1
:102BD4007F74EA121A3E74FE1219D48C128D13EA11
:102BE4002405F50CEB123E191239B7750800750966
:102BF40000EA2402F510EB3400F5118518828519DA
:102C04008385820A85830B780A121C51850C828580
:102C14000D83A3A3A3A3122DAD121C51E50C24050F
:102C2400F50AE50D123473780A121C51850C82855D
:102C34000D83122DB112077774061219EA8A0A8BD2
:102C44000BEA450B7003022D52EA2404F50EEB1235
:102C54002D971239B78A828B83A3A3A3E0F9851039
:102C6400828511831231286003022D52E4F514F594
:102C7400157814121C517514E87515027814121C79
:102C8400517514E97515027814121C517406121A40
:102C94001F121C687913AC0AAD0B85108285118351
:102CA400123E371219EAE9F5096003022D52900227
:102CB400E8E0F8E5087009E02402900300F08014CD
:102CC400900300E0FCE82402FAE43400FBEA6C70B0
:102CD40001EB707E850882AA82122ED79414122EDC
:102CE400CF506B850E82850F83E0C0E074012A12F9
:102CF4002D8ED0E0F00508850E82850F83A3E0C0F9
:102D0400E085080A7401250A122D8ED0E0F005082A
:102D14009002E8122DAD121C517CE97D0285080A4F
:102D24007401250A122DA11219EA9002E8E025087F
:102D3400F50874FF6E700374FF6F6012EE24010EC9
:102D4400EF3400FFE508C394145003022BFFE50899
:102D5400601312313285108285118312311E1204E0
:102D6400E979008014E509700375090A85128285E2
:102D74001383EEF0A3EFF0A90974021219EA7F0E8F
:102D8400021B1085080C7401250CF58274033400B1
:102D9400F583223400F50F850E82F58322FA74033D
:102DA4003400FB1210B97402221239ED22A3A312CB
:102DB4002DB72212347EFDEEFAEFFB2274EE121AC6
:102DC4003E74FE1219D48C0E8D0FEA2405F50CEB1B
:102DD40012398E750B009002FFE4F0F50AEA240222
:102DE400F508EB3400F50980449002FFE0FA900204
:102DF400E8E0F8122ED79417122ECF400D9002FF60
:102E0400E0F87416C3989002E8F0122EE0121C51F8
:102E14007CE97D0274002AFA7403122DA41219EAC3
:102E24009002E8E0F89002FFE028F0050AE50C249F
:102E340016F582E50D122D92E0F8E50AC398507458
:102E44009002FFE0C39416506BE50AC333F8E433F1
:102E5400F9E50C28FEE50D39FF851882851983AC48
:102E640082AD838E828F83122EE97008750B011256
:102E740034838050E4F510F5117810121C5175104C
:102E8400E87511027810121C517510E97511027859
:102E940010121C517406121A1F121C687916850828
:102EA40082850983123E371219EAE9F50B70030291
:102EB4002DED80BB7CFF7D0285088285098312315C
:102EC4001E1204FBA90B7402023381E99400C3654A
:102ED400D03322EA28F8E43400F9E822E0F510754A
:102EE40011007810221233768A108B11AC10AD11B8
:102EF400EC4D2274EA121A3E74FC1219D48A0C8B1B
:102F04000D8C128D13EA2405F50AEB12347375083F
:102F140000750900E50A2402F510E50B3400F511EB
:102F24007402121A1F85820E85830F780E121C51AB
:102F3400850A82850B83A3A3A3A3123993121C5180
:102F4400E50A2405F50EE50B3400F50F780E121C86
:102F54005185108285118312347912311812077742
:102F640074061219EA8A0E8B0FAE0EAF0FE50C240D
:102F740002F50EE50D3400F50F80388882898374DC
:102F8400FFF00508122D8774FFF005089002E8E0B1
:102F9400F50C750D00780C121C517CE97D02850836
:102FA4000C7401250C122DA11219EA9002E8E025F7
:102FB40008F508EE4F60278E828F83A3A3A3E0F960
:102FC400850E82850F83123128EE240412398BE991
:102FD4006027850C82850D8312310A123490E5082E
:102FE40070030230F0123132850E82850F83123164
:102FF4001E1205017900023105E4F514F515781463
:10300400121C517514E87515027814121C517514AC
:10301400E97515027814121C517408121A1F121C37
:10302400687911EEFCEFFD850E82850F83123E3721
:103034001219EAE9F509709A850882AA82EA9002CF
:10304400E87009E02404900300F08025E0F8900380
:1030540000E0F514E82404FCE43400FDEC6514708D
:1030640001ED7081122ED79412122ECF4003022F3D
:10307400E9850C82850D83E0C0E074012A122D8E4F
:10308400D0E0F00508850C82850D83A3E0C0E01232
:103094002D87D0E012314D85820C85830D780C127A
:1030A4001C517404121A1F121C6885108285118326
:1030B4001231441219EA8A0C8B0DAE0CAF0D85083F
:1030C4000C7401250CF874033400F9EE4F700302FC
:1030D4002F7F851882851983E08882898312314D78
:1030E400A3E0C0E0122D87D0E0022F8DE509700324
:1030F40075090A850A82850B8312310A123490A954
:10310400097404022D7F123CB38512828513832235
:103114007CFF7D02850A82850B8312312222E0FA2C
:10312400A3E0FB22123122120765E9F5092290037C
:1031340000E0F5F0E508849002FFF07CFF7D0222B8
:10314400122DB7120783740422F0050885188285AE
:1031540019832274EC121A3E74FE1219D48A088B55
:10316400098C0E8D0FEA2405FEEB3400FF12336048
:10317400EE241812398BEA450B7003023203123322
:103184004950291232288A108B11EA4511606B7953
:1031940012AC0AAD0B85088285098312311E851095
:1031A40082851183121A29E9F50A7058E4F50AF5A3
:1031B4000B780A121C518E828F83A3A3E0F50A7840
:1031C4000A121C51EE2403123470780A121C518E18
:1031D400828F8312323512089D74061219EAE9F5BA
:1031E4000A7021850C82850D83E0701F8508828515
:1031F400098312311E1205078011750A0E800975A4
:103204000A018004E50A6003123483850C82850D6B
:1032140083E0600479008002A90A74021219EA7F2B
:103224000C021B1085188285198312312212088B17
:103234002212347EFD85088285098312312222748C
:10324400EE121A3E74FE1219D48A088B098C0C8D66
:103254000DEA2405FEEB3400FF750E00123360EA1C
:10326400450B7003023327123349502C1232288A3B
:103274000E8B0FEA450F604A7912AC0AAD0B850834
:103284008285098312311E850E82850F83121A29C5
:10329400E9F50E600302332A850882850983123515
:1032A40065AA0AFB12333B70147AFF7BFF12333B8F
:1032B400606C88828983E50AF0A3E50BF0750A0047
:1032C4008007750E0E805F050A9002E5E0FAE50AB4
:1032D400C39A504AE50A75F017A4FAABF0888289BC
:1032E40083A3A3E02AFAA3E03BFB8A828B831234F4
:1032F40079EC4D70D2750A17750B00780A121C51BF
:10330400EEFCEFFD1210B974021219EAEEFCEFFDA7
:1033140085088285098312311E12050D8014750EED
:10332400098003750E01123CAB850C82850D831256
:103334003490A90E022ECA12087F8A108B11A8108D
:10334400A911E84922E5082402F508E5093400F545
:10335400098A828B83A3A3A3E0A2E5228518828530
:103364001983AC82AD838E828F831233768A0A8B63
:103374000B22E0FAA3E0FB12077D2274041219EA7F
:103384007F0A021B1074EC121A3E8C108D11EA2471
:1033940005F50CEB12398E750F00EA2402F50AEBE1
:1033A400123473850A82F58312311E123EBD7003F6
:1033B400023465750E008071850C82850D83E0648E
:1033C40001704F8E828F83A3A3121C688E828F8319
:1033D400A3A3A3A3E0F5127513007812121C51EEF7
:1033E4002405F512EF3400F5137812121C51123132
:1033F4001812089D74061219EAE9F50F6014850C79
:1034040082850D83E4F0123CAB8510828511831212
:1034140034907C177D007900EEFAEFFB1210D18E08
:10342400828F83E4F0A3F0050E9002E5E0F8E50E48
:10343400C398501EE50E75F017A4F8A9F08508820C
:10344400850983A3A3123E23123479EC4D60030251
:1034540033BC85088285098374FFF0A3F0E50F70FF
:1034640006123118120513A90F023223F50AEF349C
:1034740000F50B22A312347EFD22E0FCA3E0228E91
:10348400828F83123CB3850E82850F83E8F0A3E913
:10349400F022C082C0839002E1E06A7003A3E06B73
:1034A40070067AE17B0280047A007B000227D874DC
:1034B400F7121A3E7F00EF75F003A4F8A9F0EC2888
:1034C400F8ED39F988828983E06A7003A3E06B70B0
:1034D40006E8FAE9FB800B0FEFC3940240D87A00A8
:1034E4007B007F01021B1074F6121A3E123A9C7084
:1034F400067A007B008007A3A3A3A312311E023B1C
:103504005D74F2121A3EE9FE740E121A1F1235652A
:103514007410121A1F1239CD8C828D83E0640270EC
:103524003BA3123CAF88828983E0F50CA3E0F9A8A1
:103534000C74026870037429697021750C02750D8E
:1035440000780C121C517808121C51780A121C5174
:10355400EEF91208C174061219EA80027901023BDD
:10356400CDE0F50AA3E0F50B2274E8121A3E74FBD1
:103574001219D4E9851882851983F08A168B178C61
:103584000E8D0F741F121A1F1239CD7421121A1FB7
:103594001235657423121A1F1239B77510008C8204
:1035A4008D83A3A3A3E0A2E4502A741D121A1F1250
:1035B400322E8A828B83E5824583700302367979C1
:1035C4000AAC0EAD0FAA16AB17121A29E9F5106052
:1035D4000302367C850E82850F83E0640260030259
:1035E4003932A3123CAF850882850983A3858212F0
:1035F400858313E50E2406F50CE50F12398E8882B7
:103604008983E0FAA3E0F9EA2400F514E439F51516
:103614007814121CDB01000028012841360700023F
:10362400281837032888360029423801296A3802C5
:10363400291138032942380429D3383239EE4F701E
:103644003E850C82850D831239A8FAE9FB8A828BA8
:1036540083E0850A82850B831239E4121C518A8225
:103664008B83A312347EFDAA08AB091210B974022D
:103674001219EA800375100EA9107405023E117523
:10368400100B80F4EE4F70F7850A82850B8374016A
:10369400F01239BD850882850983F07C007D0085A0
:1036A4000E82850F83A3A3A3A3E02401FAA3E0342D
:1036B40000FB12077DEA4B60418A828B83E024027F
:1036C400F8850A82850B83E028F0EA2404F8EB34B9
:1036D40000F988828983E08512828513831239F682
:1036E4001239E4121C518A828B83123478E508243F
:1036F40003FAE5093400FB02366F850A82850B83E1
:10370400E02404F07C047D007900AA12AB131210AB
:10371400D102367CEE4F60030236831239BDFEA31C
:10372400E0FF850A82850B837404F0EE85088285A8
:103734000983F0EF851282851383F07403121A1F34
:10374400AC82AD83EEFAEFFB123A8A70030237EED5
:103754008A828B83A3A31239B37401121A1F858240
:103764000E85830F780E121C517405121A1F121C39
:10377400687CFF7DFF12078374041219EA8B0FEA39
:10378400450F7033850C82850D83123993121C51B9
:10379400850C82850D83A3121C687C027D007A9FB0
:1037A4007B921205AF74041219EAE9700A740112CB
:1037B4001A1F74FFF0A3F08E828F83E064027034CA
:1037C400750C02750D00780C121C518E828F8312B9
:1037D4003478E5082404FAE509122DA41219EA85BF
:1037E4000A82850B83E0240280097401121A1FEEF9
:1037F400F0A3EFF07401121A1F1239A4F07401122D
:103804001A1FA312399CA3A3A3F002367CEE4F60C7
:1038140003023683850C82850D83123479AA16AB94
:10382400171208B5850A82850B837402F0EA8508AD
:1038340082850983F0851282851383EB80CBEE4F5A
:1038440060030236831239BDF8A3E0F9850A828544
:103854000B837402F0E8850882850983F0E98512F8
:103864008285138380A3850C82850D8312311E12F9
:1038740010B3EAFC8C82A882C39EE49F404BE86E9E
:103884007001EF70047C00801F851882851983E025
:10389400FAEE2AFAEF3400FBC3EA98EB94005003E3
:1038A400E08004EECCC39CFCEC850A82850B83F09B
:1038B4008C0A750B00780A121C51850C82850D83C5
:1038C400E02EFCA3E03F02366A75100702367CEE58
:1038D4004F6003023683850C82850D83123CAF85CD
:1038E4000A82850B837407F08882898312399C12BB
:1038F4003984E0851282851383F0E82402FAE934DE
:1039040000FB8A828B8312399C1239D51239A4A305
:103914001239DE1239ADF0E82405F8E93400F988EB
:103924008289831239ADA31239F6A302380A741DB1
:10393400121A1F123A957003023679123CAF880CA2
:10394400890DE8450D70030236798E108F117810B9
:10395400121C51780A121C517808121C5174061258
:103964001A1FE0F9AC0EAD0FAA16AB17850C8285B1
:103974000D83121A2974061219EAE9F51002367C2D
:10398400F088828983A322F50CEF3400F50D22E040
:10399400F50E750F00780E22E085088285098322D2
:1039A4001239FD22123CB3E8221239FDA3A322A34B
:1039B400A3A3A3E0FEA3E0FF22850C82850D83E090
:1039C400F8A3E0F5838882E022E0F508A3E0F50996
:1039D40022A3A3F08A828B83A322122690A3A3227C
:1039E400F08A828B831239ED22E0F50A750B007898
:1039F4000A221239841239FD22E08508828509835E
:103A0400A3A32274EE121A3E74FE1219D48A0A8BEE
:103A14000BECFAEDFB7414121A1FE0F510A3E0F599
:103A2400117416121A1FE0FE7418121A1FE0F50E14
:103A3400A3E0F50F851882851983AC82AD83123A11
:103A44008A603E851882851983123A95602FA3A354
:103A54001239CDE50845096024780E121C517810FE
:103A6400121C51EEF9AC0CAD0DAA0AAB0B85088201
:103A7400850983121A2974041219EA8006790E80C2
:103A8400027901022ECA12077D8A0C8B0DEA450DBC
:103A940022123122123A9C221208498A828B83E52F
:103AA4008245832274F6121A3E74FE1219D4740CE1
:103AB400121A1F1239A8851882851983F07401120D
:103AC4001A1FE9F0E4F508F5097808121C51750885
:103AD400027808121C517404121A1F858208858307
:103AE400097808121C5112089D74061219EA74020E
:103AF4001219EA806474F7121A3EEAFEEBFF890891
:103B04007C187D031208B5EA5402600BA908EEFA8A
:103B1400EFFB120771800279010234E674F6121A7F
:103B24003E74FF6A700374FF6B701C7B00EB75F0CE
:103B340003A4F8A9F0EC28F8ED39F9123B620BEB79
:103B4400C39402501480E61208858A088B09A808D9
:103B5400A909E8496003123B627F02021B108882B4
:103B6400898374FF12268EE4F02274F6121A3E1230
:103B740008858A828B83E58245836006A3A3E0FAE5
:103B840080027A007B0080D174F2121A3E8A088B7C
:103B940009ECFEEDFF740E121A1FE0F50A123BD277
:103BA400701CEEFCEFFD7AFF7BFF123BD2700479B0
:103BB40011801688828983E508F0A3E509F08882DC
:103BC4008983A3A3E50AF079007F06021B1012087B
:103BD400858A0C8B0DA80CA90DE8492274EE121AE3
:103BE4003EEAFEEBFF8C088D09890C7412121A1F31
:103BF400123CAF7414121A1F1234797416121A1F5D
:103C040012311E750D00EC4D6003023CA374026575
:103C14000C6003023C9E8882898312347EF9EC2472
:103C240000F50EE439F50FEAF4F8EBF4F9EC58F882
:103C3400E50F59F9E849705DE5082406F8E509340B
:103C440000F9880A890B8882F583122DB31208B50E
:103C54008A108B11E50E65107004E50F6511604242
:103C6400780E121C51850A82850B83122DB312081B
:103C7400BB74021219EAE9F50D7027780E121C5173
:103C8400850882850983A3A3122DB11208D3740277
:103C94001219EA800D750D808008750D0D8003756D
:103CA4000D0BA90D0233848E828F83123CB322E064
:103CB400F8A3E0F92274E8121A3E74E71219D485C5
:103CC4001882851983EAF0A3EBF08C168D17890E00
:103CD4007431121A1FE0F512A3E0F5137433121AAB
:103CE4001FE0F514A3E0F5157435121A1FE0F50F63
:103CF400750800750900E50975F003A4F8A9F085B5
:103D04001882851983123E23E0F47003A3E0F47053
:103D140003023E01EE2402F50CEF123E19E070039B
:103D2400023E0185160A85170B780A121C51AC1441
:103D3400AD15AA12AB1312083D74021219EA8A0ACD
:103D44008B0BEA450B7003023E01E4F510F5117884
:103D540010121C517406121A1F8582108583117863
:103D640010121C517409121A1F8582108583117850
:103D740010121C51851282851383A3A3A3A3121CC2
:103D8400687914AC0AAD0B8E828F83123E371219F8
:103D9400EAE97069850A82850B83A3A3A3A3123C75
:103DA400AF7402121A1F123490850C82850D83E0C1
:103DB400A2E05018A90E7402121A1FAC82AD838EB1
:103DC400828F8312311E120795E94208850C828581
:103DD4000D83E0A2E15026E50FF50A780A121C557E
:103DE400A90E7403121A1FAC82AD838E828F8312C4
:103DF400311E12078F74011219EAE942080509E518
:103E040009C394025003023CFAA90874191219EA6E
:103E14007F10021B103400F50D850C82F58322E01F
:103E240028FEA3E039FF8E828F83227916850A82C9
:103E3400850B8312312212089774082274F2121A25
:103E44003EEAFEEBFF890B7401650B600E7402659C
:103E54000B70637901120AB3E9705BEEFAEFFB129F
:103E64003EBD6047750A00800B7C177D0079001207
:103E740010D1050A9002E5E0F8E50AC3985021E55F
:103E84000A75F017A4F8A9F0850882850983A3A30D
:103E9400E028FAA3E039FB8A828B831227DF70C9FA
:103EA40085088285098374FFF0A3F07C187D03EEF6
:103EB400FAEFFB1208AF023BCD12087F8A088B0988
:103EC400EA45092274F2121A3E8A088B09ECFEEDC7
:103ED400FF740E121A1F123565900E10E0F4603D47
:103EE4007A097B001210DDEA4B60328A828B83747C
:103EF400B1F0A3E41239D7A31239D5A3E508F0A38E
:103F0400E509123F24EEF0A3EF123F24A3A3E50A30
:103F1400F0A3E50BF0900E10E0F91210E9023BCD8E
:103F2400F08A828B83A3A3A3A3A32274F4121A3E60
:103F3400E9FF7E008A088B097808121C9500040D9D
:103F4400E040623F7E3F933FA83FBD3FD23FEE3FFC
:103F540007401940474069408540A140BF40740173
:103F64006F70128C828D83E0C394035008E090102C
:103F7400B7F00240FE7E180240FE74026F70F68CA9
:103F8400828D8312488E9010B8E8F0A3E980E27421
:103F9400016F70E18C828D83E0C3940250D7E0906E
:103FA40009D180CD74016F70CC8C828D83E0C39471
:103FB4000550C2E09009D280B874016F70B78C824A
:103FC4008D83E0C3940250ADE09009D380A37410B4
:103FD4006F70A27508108E097808121C517AD47B70
:103FE40009124C521219EA0240FE74016F70868C59
:103FF400828D83E0C394024003023F79E09009E498
:10400400023F7574016F6003023F798C828D83E0F7
:104014009010BB808D74046F6003023F799091CA45
:1040240078081218A48D838C8278081216C640036F
:10403400023F798C828D831218C29009E61218CE41
:104044000240FEEF6003023F7912071DE9700E1271
:10405400151B795012164D12150F0240FE900A7965
:104064007401023F7574016F6003023F798C828D85
:1040740083E0C394024003023F79E09009E5023FE4
:104084007574016F6003023F798C828D83E0C39461
:104094000A4003023F79E09010BA023F7574016F41
:1040A4006003023F798C828D83E024F9C3940A4033
:1040B40003023F79E09010BC023F7574016F600306
:1040C400023F79900A78E0F88C828D83E0900A7838
:1040D400F0E87026E06401702102405BC3EA942694
:1040E400EB9400501374026F700E8C828D8312480F
:1040F400881205BBE9FE80020E0EEEF90241087437
:104104000E1219EA7F04021B1074F0121A3E74CCCA
:104114001219D48C0A8D0B7444121A1FE0FE7420F9
:10412400121A1FAC82AD8375838F7582D874061200
:1041340018E77420121A1FAC82AD831214BBE9F580
:1041440008C3940A400302427175F006E9A4F50914
:104154007426121A1FAC82AD837A0E7420250912BC
:104164004D0A70097432121A1FE0FF80027F00901A
:1041740010B7E06402700474018001E4F50D780D59
:10418400121C55EEFDEFFCA908AA0AAB0B1215454B
:1041940074011219EA7C147D007900740C121A1F40
:1041A400AA82AB831210D1740C121A1FAC82AD8395
:1041B4007A1074242509124D0A70377C1079FF7423
:1041C4000C121A1F124A377029741C121A1FAC825F
:1041D400AD837A0474252509F9121647740C121A52
:1041E4001FAC82AD83EFA2E0E433F9AA0AAB0B1251
:1041F4000645851882851983AC82AD837A0C747068
:104204002508124D0A7055851882851983AA82AB38
:10421400831214F1750800E50875F003A4F8A9F0F9
:10422400851882851983E58228F8E583124A73127A
:104234004888EC4D601D88828983A3A3E0F50E7540
:104244000F00780E121C51AA0AAB0B1208A37402B9
:104254001219EA0508E508C3940440BBEFA2E15033
:104264000C9009D0E0F9AA0AAB0B1208A974046EE9
:10427400702A9010B7E0640270229009E4E06004B0
:104284007A0180027A009009D1E060047804800207
:104294007800E84AF9AA0AAB0B12070579007434CE
:1042A4001219EA7F08021B1074F0121A3EEAFEEBA0
:1042B400FF8C088D09750A0AE9600C146009146002
:1042C4002E14607F024352121503E9F50AC3940ABF
:1042D400507CE50845096076750E06750F00780E6A
:1042E400121C51EEFCEFFD124C4E1219EA805F7560
:1042F4000B00750E06750F00780E121C51EEFCEFC4
:10430400FDE50B75F00EA4F8A9F074F228FA74090F
:1043140039FB1210CB74021219EAE9601B850B0AEF
:10432400E50AC3940A5027E50845096021AA08ABA9
:1043340009A90A1214FD8016050BE50BC3940A5053
:104344000D80AF121509E9F50AC3940A40D9A90AE8
:104354000242A774F4121A3E890875091574FF6A9B
:10436400700374FF6B70277E00AC087A027B00EE4A
:10437400F91214DFE960037509000EEEC3940A40D4
:10438400E8E50860497A337B15120AC58040120AB1
:10439400A78A0A8B0BAE0AAF0BEE4F602E7C007D12
:1043A40000EE2405FAEF3400FB8E828F8312444E14
:1043B400500CAC087A027B001214DF750900E50882
:1043C400600CEEFAEFFB1215338003750914A9098A
:1043D40002410874F2121A3EECFEEDFF740E121A3A
:1043E4001F12487B75081574FF6A700374FF6B70A5
:1043F40021750900AC0AAD0BEEFAEFFBA909121402
:10440400E5E960037508000509E509C3940A503518
:1044140080E2120AA78A828B83E582458360237C2B
:10442400007D00E5822405FAE5833400FB12444E46
:104434005013AC0AAD0BEEFAEFFB1214E57508004D
:104444008003750814A908025279A3A3A3A3E0F971
:104454001214BBE9C3940A22C082C0839009EAEA19
:10446400F0A3EBF09009D0E0FC7D007A257B0012EC
:1044740005BB9009D0E0F912081FD083D082020155
:104484002274EC121A3E8A088B09E9FE7414121A7B
:104494001F780C1218A47F00EE702E7808121C519D
:1044A4009091CA78101218A4780C7910121775AA72
:1044B40010AB11AC12AD1312065774021219EAE9CB
:1044C400FF60097901AA08AB09120651EFF97F0CC4
:1044D400021B1074EA121A3E74EC1219D4EAFEEBB1
:1044E400FFEE240CF514EF3400F515EE240AF51054
:1044F400EF3400F511EE2405F50EEF3400F50FEE60
:104504002409F50AEF3400F50BEE2403F508EF3423
:1045140000F5098E828F83A3A3E024FA7003024876
:104524004424FD70030247731470030245C21460EF
:104534001024FD70030247441470030247A8024884
:10454400621248A7604AE0F583888212488E880C7C
:10455400890DE8450D6039851482851583E0F50ED3
:10456400780E121C55EE240BF582EF3400F583E02F
:10457400F9850A82850B831248880A0A0AAB0985E1
:104584000C82850D83121A2974011219EA024862F9
:10459400850A82850B83121C689009E61218C212E0
:1045A400065774021219EAE9700302486279018518
:1045B4000A82850B8312509E1206510248628E8233
:1045C4008F83A3858212858313E0600302471D85D0
:1045D4000E82850F83E0A2E0400302471D7C0E7D1E
:1045E400007900851882851983AA82AB831210D1C1
:1045F400EE2408F50AEF3400F50B850A82F58312E0
:1046040048AA6019750C06750D00780C121C5185AA
:104614000A82850B83E02410FCA3E0801A12486C04
:10462400EA4B7003024862750C06750D00780C1293
:104634001C51EA2405FCEB3400FD7402121A1FAA73
:1046440082AB83124C521219EA850E82850F83E0E5
:10465400A2E25004D2F08002C2F0A2F0E433F87473
:104664000C121A1FE048F08510828511831248AAA3
:104674006015851082851183E02410F8A3E03400CE
:10468400F9888289838003909036780C1218A48567
:1046940010828511831248AA600F851082851183C8
:1046A400E0F510A3E0F51180067510007511008582
:1046B4000A82850B831248AA600B850A82850B83C4
:1046C40012487B8006750A00750B00780C121C4D8D
:1046D4007810121C51780A121C5185148285158396
:1046E400121C688E828F83A3124883740A121A1FC5
:1046F400AA82AB831214F7740A1219EA8508828518
:10470400098312488E900A7AE8F0A3E9F07A017BD3
:10471400009009D0E0F912110D1248A77003024865
:10472400621248947003024862851282851383E002
:10473400FC79011250988E828F83121A29024862E2
:104744001248A77003024862E0F5838882A3A3128B
:10475400488E890BE8450B70030248628E828F8372
:10476400A3E0FC79021250988882850B8380CB7C6D
:10477400007D00EE2404FAEF3400FB8508828509ED
:1047840083E0F91214BBE9F8C3940A4003024862B7
:10479400AC10AD117A0475F006E8A42425F91216BC
:1047A400410248629009E5E0600E9010BAE0F98594
:1047B40008828509830245B99010B7E07004790531
:1047C40080ED12486C8A0C8B0DA80CA90DE824040A
:1047D400F50CE93400F50D8E828F83A3A3A3A3A364
:1047E400A3A3E0A2E05036E8496073850C82850DEE
:1047F40083E0FE6028850A82850B83E05410701DD7
:10480400740E121A1FAC82AD83E82405FAE9340051
:10481400FBEEF91214BBE9700479038092AC0EAD7F
:104824000F850C82850D83E0F912509812153F1202
:1048340048A7602A12489460257C00790002473713
:1048440012071DE97018900A79E0640170081215C6
:104854001B900A79E4F0795012164D12150F741456
:104864001219EA7F0E021B10850882850983E0FA7B
:10487400A3E0FB120AA722E0F50AA3E0F50B22A3AA
:10488400A3A3A3A3E0FCA3E0FD22E0F8A3E0F922A4
:10489400E0F5838882A3A3E0F8A3E0F9E8FEE9FF4A
:1048A400EE4F229009EAE0F8A3E0F9E8492274F413
:1048B400121A3E74F21219D4EAFE8C0B75F006E952
:1048C400A42420F508851882851983AC82AD837AE7
:1048D4000E124D0A704A7C06124A2F7043740C1251
:1048E4001A1F12488EE8F509E50B6005EE420980AF
:1048F40004EEF45209850982AA82E86A7001E9602B
:104904001B740C121A1FEAF0A3E4F08518828519AF
:1049140083AC82AD837A0EA9081216417901800214
:10492400790002410374F2121A3E74E61219D48912
:104934000A8A088B09ECFEEDFF740C121A1F124C44
:10494400FD60030249E37C0679FF740C121A1F12FE
:104954004A3760030249E37470250AF50B8518820F
:10496400851983AC82AD837A0C124D0A6003024A26
:1049740028851882851983AA82AB831214F1E5086D
:10498400450970217C0C7900124A316003024A28DF
:104994007C0C7D007900851882851983AA82AB83FB
:1049A4001210D18061851882851983AC82AD83AAE7
:1049B40008AB091214EB8A0C8B0DA80CA90DE8495D
:1049C400702CEE4F6019851882851983AC82AD83F3
:1049D4007A007B001214EBEAF8EBF9EA4B700479E5
:1049E40000804388828983E508F0A3E509F0124A30
:1049F400AFFAEE6A7001EF602BEEF04F7008888218
:104A04008983E4F0A3F0851882851983AA82AB8395
:104A14001214F1851882851983AC82AD837A0CA9AE
:104A24000B1216417901741A02527679FF851882A5
:104A3400851983AA82AB83121131E92274F7121A01
:104A44003E7F00EF75F003A4F8A9F0EC28F8ED120E
:104A54004A73E06A7003A3E06B7006E8FAE9FB802E
:104A64000B0FEFC3940440DB7A007B00024DA8399E
:104A7400F9888289832274F7121A3E7E00EE75F05B
:104A840003A4F8A9F0EA28F8EB124A73E0F4FCA3B3
:104A9400E0F4FD88828983ECF0A3EDF0124AAFF4D0
:104AA400F00EEEC3940440D5024DA8E82402F5822A
:104AB400E93400F583E02274EE121A3E74F41219FC
:104AC400D4EAFEEBFF8C0A8D0B741E121A1FE0F55C
:104AD4000CA3E0F50D7420121A1FE0F508A3E0F50D
:104AE400097422121A1FE0F510A3E0F511EE4F70BD
:104AF40005790A024BE0121503E9F50EC3940A4046
:104B040023750F007C0679FFE50F75F00EA4FAAB50
:104B1400F074EC2AFA74093BFB124A3B7003024B13
:104B2400EA850F0EE50EC3940A4003024BDE75F0CE
:104B340006E50EA4F50FEEFCEFFD7A0E7420124B81
:104B4400FBE50A450B600BAC0AAD0B7A1B74211212
:104B54004BFBE50C450D600BAC0CAD0D7A1B7422C0
:104B6400124BFBE5084509600BAC08AD097A1074DB
:104B740023124BFBE5104511601BAC10AD117A10EC
:104B84007424124BFB7424121A1FAC82AD837A0472
:104B94007425124BFB7C0C7D0079FF1253077A0CB1
:104BA4007470250EF912164175080E7509007808FF
:104BB400121C51EEFCEFFDE50E75F00EA4F8A9F001
:104BC40074EC28FA740939FB124C521219EA900A4F
:104BD40078E0600312154B121539A90E740C1219E2
:104BE400EA7F0A021B10050FE50FC3940A50030263
:104BF4004B08750E0A80E3250FF91216412274F44E
:104C0400121A3E74F21219D4EAFEEBFFE9C3940AB5
:104C14005004EE4F70047902802D85188285198323
:104C2400124CFDF508701E750A06750B00780A1201
:104C34001C517402121A1FAC82AD83EEFAEFFB1200
:104C44004C521219EAA908024103AA08AB0912102E
:104C5400B974022274F4121A3EEAFEEBFF750800DE
:104C6400750A06750B00780A121C51EEFCEFFDE57F
:104C74000875F00EA4F8A9F074EC28FA740939FB4D
:104C84001210CB74021219EAE96004A908800B051A
:104C940008E508C3940A40C8790A02410874F71267
:104CA4001A3E74F01219D4EAFEEBFF750800851859
:104CB40082851983AC82AD837A1075F006E508A469
:104CC4002423124D0A701F7C10124A2F7018EEFC18
:104CD400EFFD851882851983AA82AB83120627E922
:104CE4007004A908800B0508E508C3940A40BF793D
:104CF4000A74101219EA024DA8AC82AD837A0E75BB
:104D0400F006E9A42420F9121647E92274F7121ACE
:104D14003E750800E50875F00EA4F8A9F074EC28B7
:104D2400FE740939FFEEFCEFFD7A0E75F006E50816
:104D3400124D07602C7C067D0079FFEEFAEFFB1222
:104D440010D17C067D0079FFEE2406FAEF3400FBD7
:104D54001210D1EE240CF582EF3400F583E4F0A3B5
:104D6400F00508E508C3940A40AA900A78E06003B5
:104D740012154B121539802C74F7121A3E7E007FDF
:104D8400007C0679FFEF75F00EA4FAABF074EC2A00
:104D9400FA74093BFB124A3B70010E0FEFC3940AED
:104DA40040DFEEF97F01021B1074F7121A3E7E00F9
:104DB400EEF91215210EEEC3940A5003E960F18056
:104DC400E374F3121A3E74CB1219D4E9FF75F0069A
:104DD400A4F50874202508FE7427121A1FAC82ADAE
:104DE400837A0EEE124D0A6003024EC77C0679FFE9
:104DF4007427121A1F124A376003024EC77C0E7DB5
:104E04000079FF7427121A1FAA82AB831210D17C77
:104E14001B7D0079FF740C121A1FAA82AB83121037
:104E2400D17C0C7D0079FF851882851983AA82AB19
:104E3400831210D17427121A1FAC82AD837A0EEE3E
:104E4400F9121641E9F509740C121A1FAC82AD83EC
:104E54007A1B7421124ED6FE740C121A1FAC82AD4A
:104E6400837A1B7422124ED6F50A740C121A1FACE4
:104E740082AD837A107423124ED6F50B740C121A79
:104E84001FAC82AD837A107424124ED6F50C740CC8
:104E9400121A1FAC82AD837A047425124ED6F5081B
:104EA400851882851983AC82AD837A0C74702FF9CE
:104EB400121641E9F8EE450A450B450C45084842EF
:104EC400098003750900A90974351219EA7F0502DE
:104ED4001B102508F9121641E92274F7121A3EE94B
:104EE4009009D0F012150F024DA874F2121A3E74F4
:104EF400FB1219D48A088B09EB54807003024F9279
:104F04009009D0E0F91210F58A0A8B0BA80AA90BB4
:104F1400E8FEE9FFE849606CEE2404F8EF3400F998
:104F24008E828F83E02450603814600624E1604A46
:104F3400804B88828983E070448E828F83A3A3A3ED
:104F4400A3A3A3A3121C688E828F831248838E822C
:104F54008F83A3A312509E1214C774021219EA80FD
:104F64001C88828983E0641E701379008E828F838B
:104F7400A3A312509E1214C180031214D9EEFAEFA7
:104F8400FB1210E3AA08E5096480FB025093EAA22D
:104F9400E0400302508F900A7A12487B7403121A7D
:104FA4001F85820C85830D780C121C51750C0275BB
:104FB4000D00780C121C51750CA5750D92780C120D
:104FC4001C517CFF7DFF7A017B0012077774061267
:104FD40019EA025077E4F50CF50D780C121C5174A3
:104FE40004121A1F85820C85830D780C121C5174CF
:104FF40004121A1F85820C85830D780C121C5174BF
:1050040009121A1F121C687902EEFCEFFDAA0AAB02
:105014000B12089774081219EAE97035851882850D
:105024001983E0FA7401121A1FE0F9EA2400F50C5E
:10503400E439F50DEA450D6018780C121C518E8286
:105044008F83124884AA0AAB0B1214C77402121974
:10505400EAE4F50CF50D780C121C517405121A1FB4
:10506400121C687CFF7DFFEEFAEFFB1207837404C9
:105074001219EA8A0C8B0DAE0CAF0DEE4F600302D1
:105084004FD9E5086401FAAB0980047A007B007407
:1050940005025276850882850983E0FAA3E0FB22A3
:1050A400C082C0839009D0E0F98A828B83A3125016
:1050B4009E1208A902447EC082C08374FF1219D4D0
:1050C400121515E9C3940285188285198340047466
:1050D400028002740AF0AC82AD837A01790512076A
:1050E4003574011219EA02447E74F2121A3E74E80D
:1050F4001219D4EAFEEBFF890A8C088D097C187D0D
:1051040000790012530FEEF0A3EFF09009D2E0C043
:10511400E07402121A1FD0E0F09009D3E0C0E074EA
:1051240003121A1FD0E0F09010BCE0C0E074171214
:105134001A1FD0E0F07415121A1FE054FEF8A3E011
:10514400F99010BBE0A2E0E433FAE84AF8741512CF
:105154001A1F125285A2E15004D2F08002C2F0E874
:1051640054FDFAA2F0E43333F8EA48F87415121A3D
:105174001F125285A2E35004D2F08002C2F0E85418
:10518400F7FAA2F0E433F50C750D007403780C12F1
:1051940019C112527E121A1F125285A2E45004D26F
:1051A400F08002C2F0E854EFFAA2F0E433F50C7494
:1051B40004780C1219C112527E121A1F125285A2BF
:1051C400E55004D2F08002C2F0E854DFFAA2F0E421
:1051D40033F50C7405780C1219C112527E121A1F81
:1051E400125285A2E25004D2F08002C2F0E854FBCD
:1051F400FAA2F0E433F50C7402780C1219C11252BD
:105204007E121A1FE8F0A3E9F09009D3E0601B7541
:105214000C10780C121C517CD47D097406121A1FD0
:10522400AA82AB83124C521219EA9009E4E060118D
:10523400E50A60097415121A1FE04402F07801802F
:105244000278007414121A1FE048F09009D1E0604B
:10525400047804800278007414121A1FE048F0AC39
:1052640008AD09851882851983AA82AB8312064B7F
:1052740074181219EA7F06021B10EA450CF874151B
:1052840022E8F0A3E9F09010BBE02274F3121A3E76
:1052940074E51219D4EAFEEBFF8C098D0A74281206
:1052A4001A1FE0F50C75F006E9A4F87408650A7095
:1052B4000474228002742128F50B7C1B7D00790084
:1052C4001253077A1BA90B124D0B7032741A121A5F
:1052D4001FE024F9C3940A5025E50CF50B780B1252
:1052E4001C557401121A1FAC82AD83E509A2E0E4D7
:1052F40033F9EEFAEFFB12065D74011219EA741B1E
:10530400024ECE12530FAC82AD83228518828519CA
:1053140083AA82AB831210D18518828519832274E3
:10532400F7121A3E12091B750800E50875F00EA461
:10533400F8A9F074EC28FE740939FF7C0679FFEEB5
:10534400FAEFFB124A3B7009EEFAEFFB79001209FF
:10535400210508E508C3940A40D0024DA8C082C0C4
:10536400839061907404F0A37448F0A3E4F0906116
:10537400807440F09061BC7407F09061877469F0A8
:105384009061B67416F07900120BA97902120BAF72
:1053940090254CE493F46006E493F9120B857905A7
:1053A400120E9D0257A3C082C083E9540FF9906185
:1053B40085E0696012E5C654804449F5C6E59E540B
:1053C4007F644970F8E9F053C680E59E547F70FA13
:1053D4000257A374F7121A3EE5A8FE53A87E120BD7
:1053E40091C2BA539AFEC289759B00C2C2120B972E
:1053F40075A91175B905120B9DD2BA439A0174802F
:105404005E42A8025D30C082C083906181E4F0A353
:105414000257A075E90075910075BF00020122C012
:1054240082C083906181E4F0A374C0F0A3E40257C6
:10543400A2C082C08374F81219D49003C4125C12FF
:10544400E84970030254EC9003C4E05440602379AB
:1054540008851882851983AA82AB83120C9F85184C
:1054640082851983AA82AB831209459003C4E05450
:10547400BFF0E054806010790C7A807B05120C9F99
:105484009003C4E0547FF0E0A2E050087900125485
:10549400F454FEF0E05402600879011254F454FD0F
:1054A400F0E05404600879001254FF54FBF0E05417
:1054B40008600879011254FF54F7F0E054106008B2
:1054C40079021254FF54EFF0E0542060087903127B
:1054D40054FF54DFF0A3E05401600D120BBB12091A
:1054E400579003C5E054FEF074081219EA0257A35A
:1054F400120BA912094B9003C4E022120BAF12093C
:10550400519003C4E022C082C083E9600514602A7C
:10551400804F90619A7433F0A37455F09061A07435
:105524003AF090055CE064017009C2919003C6747E
:1055340067802D9003C67461802690619A743FF051
:10554400A3745AF09061A0747FF090055CE064014C
:105554007009D2919003C6747180059003C6746A71
:10556400F00257A3C082C083E9600B14600D14607D
:105574000F146011802090255080159025518010C3
:10558400902552800B90055CE0640160F3902553F4
:10559400E493906186F00257A374EE121A3E74F4F9
:1055A4001219D4851882851983AC82AD83758391D1
:1055B40075829274041218E790255093F4600302E4
:1055C400572F907808E0C39402500302570F7404D5
:1055D400121A1FAC82AD8375838F7582A074081272
:1055E40018E7F97AFF7BFF7FFF7E008982858210AE
:1055F400801874086E70030256C474096E70030236
:1056040056C4740A6E70030256C4E510C333FCE436
:1056140033FD7404121A1FE5822CF582E5833DF5EF
:1056240083E0F50EA3E0F50F8E0875090074027887
:10563400081219C174482508FC74783509FD8C8258
:105644008D8378081218A4740878081217E5850861
:105654000C85090D8C828D8378081218A47418782F
:10566400081217E5E50C4508F508E50DF509C3E54D
:105674000E9508E50F95098C828D8378081218A47D
:105684008C828D8378081218A47418780840141238
:1056940017E5E50C4508FCAD0DE50EC39CFCE50FD4
:1056A4009D800F1217E5E50C4508C3950EFCE50D2A
:1056B400950FFDC3EC9AED9B5006ECFAEDFBEEFF63
:1056C4000EEEC3941350030255F674FF6A7003740C
:1056D400FF6B602D8F08740278081219C174481288
:1056E40063BE74783509F58378081218A485188286
:1056F400851983E5822510F582E58312614BE5085F
:10570400F009E9C3940450030255E77508017509CB
:10571400007808121C517402121A1FAC82AD837AED
:10572400547B0912158D74021219EA740C1219EAC9
:105734007F0A021B10C082C083906186E0F8902526
:1057440053E493687009902552E493906186F09035
:1057540061AE7468F0A3746AF090624574FBF0A3C0
:1057640004F053F4FD43FE0290055C7401F0906173
:10577400A0E0643A7004790080027901120BA90256
:1057840057A3C082C08390050EE06401700A90059F
:1057940013E06004790C800279008003F0A3F0D058
:1057A40083D082020122C082C08375E1F190051189
:1057B400E0604D1460081460511460498051120B6C
:1057C400CD900507E0F97A087B05120E1F90918EA3
:1057D4001218C2120E559091C21218C2120E2B90BA
:1057E4000512E0F9120E377901120E91900505E0C9
:1057F400241612593874E5F0A3740BF07900809FD5
:10580400120BD380BC120BD980B7120BDF80B27994
:105814001280EB74F4121A3E75D90D9004F6E0A2CE
:10582400E0E4331313F81258A4484401F5D978007E
:1058340012592240FB7800880874F71263BE74047E
:1058440012592C40F275E1959004F6E0F97AF77B51
:1058540004120E25900E32745BF0A3740B12594798
:1058640012596712595E125A9F1258AE78081218CC
:10587400A490918A780812183090919A7808121896
:105884007E12593278081218B3900505E0241412D8
:1058940059387413F09003C27402F07F04021B1091
:1058A400900507E0C4333354C022900505E0F8A303
:1058B400E0F5838882A3A32274F6121A3E125A706A
:1058C4008AD9780012592240FB780080061259D6F2
:1058D400125B22E8C39940F5125A6212592240FB26
:1058E400780080081263BA7405125B22E8C39940F9
:1058F400F375E195900E327467F0A3740B12594757
:105904001259511218C21259321218CE900505E0DC
:1059140024141259387412F09003C2025D0D8808E1
:1059240074082508F5827405125C7E94062290059D
:1059340005E0240EF8A3E012593F223400F98882CE
:10594400898322125A887461F0A3740B2212596756
:1059540012595E125AA390903622F0A37479F0A3E0
:10596400740B2212596B2212596F22F0A3740BF09C
:10597400A3740D2274F6121A3E1259CB1258A44481
:1059840002F5D9780012592240FB7800800612599A
:10599400D6125B22E8C39940F575E195900E321258
:1059A40059E1F0A31259E11259541218C212593292
:1059B4001218CE900505E024141259387414F0908E
:1059C40003C27404025D0F900517E0F9740729F50A
:1059D400D922880874182508F58274052274731274
:1059E40059EE1259EEF0A3740B22F0A3740BF0A33A
:1059F40074732274F6121A3E125A7074064AF5D958
:105A0400780012592240FB780080061259D6125BA6
:105A140022E8C39940F5125A6212592240FB7800D9
:105A240080081263BA7405125B22E8C39940F375C7
:105A3400E195900E32746DF0A3740B125A7E1259D4
:105A4400511218C21259321218CE900505E02414CE
:105A54001259387415F09003C27403025D0F900557
:105A6400371259CE74044AF5D97800221259CB90D2
:105A74000507E0C4333354C0FA22125A88740BF079
:105A8400A3740D22125A8C22125A99740BF0A37427
:105A94000D125A992212596FF0A322125AA322F01E
:105AA400900E40740BF0A3740D125A8C740BF0A377
:105AB400740D12596BF022C082C0831258AEA3A396
:105AC400A3A3E40257A074F7121A3E126600F874F6
:105AD4000339F9E82405FAE93400FB8A828B83123E
:105AE400636F88828983A3A3A3A3A3A3A3A3A3EC23
:105AF400F0A3EDF088828983A3A3A3A3A3A3A3E0C7
:105B040024FFF8A3E034FFF98A828B83E8F0A3E949
:105B1400F0025D30880874602508F582740512620D
