:020000040000FA
:0600000002010A021D7A54
:03002B000221E8C7
:030033000221CADD
:03003B000222019D
:0300430002217E19
:03005300021DF09B
:03006B000221A4CB
:10008300021C6BE5C754F84401F5C779012200004F
:100093000080FB120086B900030200F4E4792178A2
:1000A30008B800028004F709D8FCE479297802B87B
:1000B30000028004F709D8FCE4900281783E7909B4
:1000C3008002F0A3D8FCD9FA900ABEAA82AB83902F
:1000D300013A78FF79038015E493A3AC82AD838A58
:1000E300828B83F0A3AA82AB838C828D83D8E9D9D8
:1000F300E775824A758398740312011C75829175A2
:100103008300740012011C75D00075813F7518813E
:10011300751902759F00020096C09FF59FE473D086
:100123009F22D083D082C09FE493C0E0740193C028
:10013300E0740293F59F22FF0000B400002800281A
:1001430000283075A000A000A000A000000800084F
:10015300E001F0001000100010001000100010006B
:1001630050005000500010001000D00700000000A5
:1001730000000F00010005003075070010000100AA
:1001830081FF0000FF360654063C06FF0202020808
:10019300025000A0000000E80302B9900100008BA8
:1001A3009002A790010000130B029990010000B286
:1001B3000202A790010000140B029B90010000C8EB
:1001C3000202A790010000150B029D90010000CAD6
:1001D3000202A790010000160B029F90080000CBBB
:1001E3000202A790010000170B02A1900100001862
:1001F3000BFF0100FF2002B9900100008E9002A7BF
:10020300900100007C0B02A3900000000000029705
:10021300900300001803660C660C660C660C660CF3
:10022300660C660C660C660C660C660C660C660C3B
:10023300360F4E0F300FFFFF0202020202020202CC
:1002430002010D000000100102B99001000091901D
:1002530002A790010000BF0B02BB900100007B07C7
:1002630002A790010000C00B02B590010000588F57
:1002730002A790010000C10B02B3900100003C8F64
:1002830002A790010000C20B02B190010000B68EDC
:1002930002A790010000C30B02AF90010000928EF1
:1002A30002A790010000C40B02D190010000DA8E76
:1002B30002A790010000C50B02AD90010000A48EBF
:1002C30002A790010000C60B02AB900100004A8F09
:1002D30002A790010000C70B02A990010000C80B00
:1002E30001E803053F10FF0001307503020106001A
:1002F30000000000000000000000000000000000FB
:100303000000000000000000000000FFFF06008066
:100313000CE803140953696D706C65424C455065D4
:10032300726970686572616C051250002003020ADD
:10033300000201060302F0FF47686F737479754288
:100343004C455065726970686572616C00AA130050
:1003530000B0130A436861726163746572697374F0
:100363006963203100024368617261637465726975
:100373007374696320320008436861726163746552
:100383007269737469632033001043686172616337
:10039300746572697374696320340002436861721F
:1003A3006163746572697374696320350002B9907F
:1003B300010000949002A790010000DA0C02C9909A
:1003C300030000AF0A02C190010000DB0C02A790FA
:1003D300010000EC0C02CB90010000B00A02C190B6
:1003E300010000ED0C02A790010000FE0C02CD906D
:1003F300020000B10A02C190010000FF0C02A790A5
:10040300010000100D02CF90000000B20A02979085
:10041300030000B30A02C190010000110D02A7906E
:10042300010000220D02BD90040000B90A02C19030
:10043300010000230D1201252B8B03120125428B92
:1004430003120125718B03120125AA8B03120125C7
:10045300D28B03120125008C03120125178C031282
:1004630001252E8C03120125448C031201256B8C6C
:10047300031201257E8C03120125948C031201259E
:10048300A78C03120125CC8C03120125828C021246
:100493000125818D02120125B68D02120125D78D0A
:1004A30002120125E78D02120125088E0212012591
:1004B300148F02120125E18F0212012554900212BA
:1004C3000125DA90021201251D9102120125549192
:1004D30002120125DA9102120125AC9202120125C2
:1004E3000A93021201252293021201259C93021200
:1004F30001259F9302120125A2930212012549941B
:100503000212012561940212012591940212012520
:10051300B194021201259F950212012555960212EC
:10052300012574DA021201259CDA02120125CADAC6
:100533000212012501DB0212012569DB02120125EA
:10054300B2DB02120125FDDB021201253BDC0212A4
:10055300012578DC02120125A6DC021201254DDDFE
:100563000212012557DD0212012564DD0212012565
:1005730097DD0212012559DE0212012565DE021202
:1005830001257DDE0212012587DE02120125649416
:10059300031201257294031201258A940312012583
:1005A300A294031201255AAF01120125F8AF0112DB
:1005B300012570B00112012585B101120125BFB1DA
:1005C3000112012568B2011201253DB30112012573
:1005D300A1B401120125F8B4011201257FB501125E
:1005E300012566B601120125B3B60112012541B7F3
:1005F3000112012565B7011201253AB9011201253E
:100603007BB9011201259DB9011201251EBA011200
:10061300012508BB01120125CEBB01120125B5BF7F
:100623000212012587C00212012530C102120125E1
:1006330073C10212012500C2021201258CC20212EB
:1006430001256DC3021201259CC30212012598C422
:1006530002120125E0C402120125E2C5021201259E
:1006630026C6021201254CC60212012584960312E6
:10067300012592EB02120125A8EB02120125CEEB14
:1006830002120125F6EC0212012500ED02120125EA
:1006930059EE0212012559EF02120125C1C60212B9
:1006A3000125F6C70212012529C80212012573C8C4
:1006B3000212012531CA02120125D590011201252A
:1006C3003891011201257D92011201258D920112AB
:1006D3000125B09201120125FB9201120125A0937D
:1006E300011201259694011201256095011201253D
:1006F300D896011201251A9701120125B897011204
:1007030001250598011201252B9801120125199A3B
:10071300011201251E9A01120125FF9B01120125D9
:10072300539C01120125B59C01120125DD9C011288
:100733000125819D01120125439E01120125749E0D
:1007430001120125779E01120125BF9E0112012589
:10075300019F01120125689F01120125E482031202
:100763000125F782031201251083031201255B8300
:1007730003120125368403120125C58403120125C2
:100783001085031201257422001201258022001214
:100793000125B92200120125FE2200120125B523ED
:1007A300001201253B2400120125A024001201257B
:1007B300CC2400120125052500120125192700125A
:1007C3000125F52800120125E02A00120125172C26
:1007D30000120125772E00120125632F0012012537
:1007E300A93000120125B63100120125D3310012C0
:1007F30001250B32001201252532001201258D320D
:1008030000120125273700120125C83700120125E0
:100813001938001201254038001201258E380012C4
:100823000125AC3800120125003900120125D93900
:1008330000120125603B00120125E83B001201254F
:10084300CAD502120125D4D5021201259FD6021260
:100853000125BAD602120125E0D60212012524D7BA
:10086300021201255CD70212012585D70212012548
:10087300FED70212012513D80212012528D802122D
:1008830001255FD80212012573D802120125A4D8CD
:1008930002120125DED8021201250AD9021201250E
:1008A30060D902120125B4D902120125FDD9021221
:1008B300012527DA021201254CDA02120125A6E7E7
:1008C3000212012570E80212012553E902120125E3
:1008D300C9E9021201250BEA0212012538EB0212C3
:1008E3000125008002120125298002120125428080
:1008F3000212012587810212012565820212012558
:1009030084820212012511830212012554830212EB
:100913000125A18402120125408502120125BF870A
:10092300021201255688021201252A890212012585
:100933000C8A02120125788B021201250B8C0212FC
:100943000125659103120125CE91031201252292FF
:10095300031201254992031201251CDF021201250E
:1009630089DF02120125D4DF02120125C9E0021238
:100973000125C5E102120125AFE202120125C39F41
:100983000212012505A002120125DFA00212012592
:10099300B8A102120125B3A20212012592A30212E9
:1009A3000125FEA302120125C5A40212012530A5CB
:1009B3000212012597A502120125C2A502120125E3
:1009C30033A602120125C6A6021201252FA7021281
:1009D300012544A7021201258CA702120125A5A710
:1009E300021201250AA8021201250DA802120125EF
:1009F300A7FC02120125CFFC021201250DFD0212F4
:100A03000125CBFD0212012536FE0212012552FEFD
:100A1300021201257AFE02120125AAFE0212012505
:100A2300B9FE0212012533FF0212012559FF0212FA
:100A3300012532A001120125CFA101120125B5A381
:100A4300011201257FA401120125C6A4011201256B
:100A53000DA5011201251FA5011201255FA5011294
:100A630001258EA501120125DAA50112012512A681
:100A73000112012540A60112012591A601120125AB
:100A830020A7011201250EAA01120125E8AB0112CC
:100A9300012524AC011201257EAD01120125C5AD4E
:100AA300011201253AAE0112012588AE011201257A
:100AB300BFAE01120125C09602120125DD96021276
:100AC3000125779C02120125799D02120125F39ECF
:100AD30002120125A19F021201252F5000120125A8
:100AE300785000120125A55000120125D85000129C
:100AF3000125E55000120125F15000120125035193
:100B030000120125D8510012012536520012012589
:100B13006B52001201250754001201255454001290
:100B23000125785400120125E554001201258A5548
:100B330000120125465600120125C5560012012553
:100B430089570012012598570012012519580012E0
:100B53000125B85800120125EA58001201258559CC
:100B630000120125E359001201251D5A0012012527
:100B73009E5A00120125675B00120125105C0012CA
:100B83000125975C00120125EF5C00120125505DE1
:100B930000120125795D001201252F5E0012012547
:100BA300795F00120125BC5F00120125D95F001295
:100BB3000125F85F001201254360001201256860DA
:100BC3000012012591600012012500610012012528
:100BD300426100120125466200120125E062001203
:100BE3000125AC6300120125C56300120125477678
:100BF300001201259A7600120125A676001201251E
:100C03007B7700120125A27700120125DD77001200
:100C130001254978001201257D7800120125B67857
:100C230000120125CE780012012527790012012533
:100C33004079001201258979001201259C7900125F
:100C43000125B67900120125CC7900120125E87A35
:100C530000120125F97B00120125467D00120125B2
:100C63002B7E00120125FB7F00120125FFE60112F6
:100C7300012533E7011201259EEA01120125E8EB64
:100C830001120125B2EC011201253CEE01120125EE
:100C930017EF0112012551EF0112012574EF011223
:100CA3000125B6EF01120125BFEF0112012509F05D
:100CB3000112012513F001120125BFF001120125D4
:100CC30093F101120125E7F10112012549F2011205
:100CD30001259CF201120125CBF2011201250AF331
:100CE30001120125F76300120125516C0012012541
:100CF300576C00120125127200120125F8750012BB
:100D030001253BF602120125B1F602120125C7F6B1
:100D13000212012504F7021201253CF702120125F4
:100D2300B9F702120125F4F7021201256FF8021236
:100D33000125ABF802120125B4F802120125C0F80F
:100D430002120125DAF802120125FFF80212012529
:100D530015F90212012559F90212012508D10212CF
:100D630001251BD10212012535D1021201255ED1C5
:100D730002120125A1D102120125E0D1021201259F
:100D83001ED20212012583D20212012598D2021229
:100D93000125A3D202120125B0D202120125C7D226
:100DA30002120125D5D202120125E0D20212012539
:100DB300ECD202120125FFD2021201250AD302123C
:100DC30001252DD302120125D6D302120125E6D324
:100DD3000212012500D4021201251DD4021201259D
:100DE30039D4021201255ED40212012568D40212FD
:100DF30001257CD4021201259BD402120125FCD4C7
:100E03000212012502D50212012508D5021201257D
:100E13000ED5021201251AD5021201254DD5021253
:100E2300012586CC0112012508CD01120125B1CD82
:100E330001120125F9CE0112012507D10112012565
:100E4300EDD10112012522D20112012544D2011252
:100E53000125EDD201120125BDD401120125E6D4ED
:100E6300011201255ED50112012590D5011201253C
:100E73009DD501120125E8D5011201250CD60112D9
:100E830001255DD80112012567D901120125C3D9B6
:100E93000112012503BE0112012514BF0112012510
:100EA300F8BF0112012502C00112012524C001125D
:100EB300012530C001120125D4C10112012501C24F
:100EC3000112012517C3011201256CC3011201256B
:100ED300BBC40112012590C501120125ECC5011205
:100EE300012557C6011201258CC601120125CFC663
:100EF3000112012599C901120125B1C90112012568
:100F030042CA0112012550CA011201259DCA0112CC
:100F13000125ABCA0112012517CB0112012592CB82
:100F230001120125E9CB01120125E5F30112012587
:100F330007F40112012518F601120125D7F8011251
:100F4300012501FA01120125BFFA01120125ABFBAC
:100F530001120125728903120125978903120125C4
:100F63000D8A0312012598B802120125A1B80212B5
:100F73000125AAB80212012582B90212012533BB49
:100F83000212012563BB021201258EBB0212012549
:100F9300BEBB02120125E9BB021201251DBC0212D0
:100FA300012549BC021201258CBC02120125B7BCE4
:100FB30002120125FEBC0212012553BD02120125B6
:100FC30095BD02120125EFBD021201251ABE0212C0
:100FD300012569BE0212012599BE02120125C4BE74
:100FE30002120125F2BE0212012515BF02120125CC
:100FF3000D970312012539970312012566970312F2
:10100300012570970312012580970312012567B00C
:101013000212012571B002120125B2B0021201259C
:10102300FBB00212012535B1021201258BB1021268
:101033000125ACB1021201255BB40212012564B48F
:1010430002120125B8B402120125E1B402120125EE
:10105300EBB40212012559B502120125E9B50212BA
:10106300012544B60212012572B602120125FAB611
:101073000212012539B7021201256EB702120125AA
:1010830080B7021201259FB702120125A8B70212E9
:1010930001256AB80212012503FF01120125818788
:1010A30003120125B78703120125EB8703120125DC
:1010B3003889031201258A9703120125A097031289
:1010C3000125AA9703120125A1FF0212012571E34D
:1010D3000212012584E30212012548E402120125CC
:1010E30087E402120125A4E402120125DDE40212C1
:1010F30001252AE5021201255CE50212012593E58B
:1011030002120125F08F031201251390031201250A
:10111300429003120125DA90031201251C91031258
:1011230001257C9303120125909303120125069454
:1011330003120125008003120125258003120125D6
:101143004F8003120125F497031201254F3C00122F
:1011530001252D3E00120125CC3F001201257740C9
:1011630000120125F740001201257C4100120125E0
:10117300A54100120125804500120125F745001203
:1011830001250E4700120125484700120125894712
:1011930000120125D048001201252649001201251D
:1011A3006F4900120125DE49001201254A4A001247
:1011B30001257B4A00120125934A00120125AC4BFD
:1011C30000120125BC4B00120125724D00120125AE
:1011D300894D00120125BB4D001201255D4F001200
:1011E3000125F14F001201253B95031201254C9572
:1011F300031201259D9803120125DC980312012592
:10120300E87F00120125EC9503120125FC950312DA
:1012130001251496031201257A96031201257A9269
:1012230003120125FF920312012563930312012583
:10123300768E031201259F8E031201250A8F031256
:1012430001255B8F03120125B68F03120125EDF2F1
:101253000212012502F30212012523F402120125D1
:10126300A6F4021201251AF50212012534F5021221
:10127300012547F50212012555F5021201256FF5E7
:101283000212012586F502120125B0F5021201258D
:1012930006F6021201258F990312012589F902121C
:1012A300012519FA02120125A2FA0212012533FBC4
:1012B30002120125E3FB02120125F1FB02120125B3
:1012C3006FFC0212012587FC0212012591FC021218
:1012D3000125A4FC02120125DE8C03120125308DA9
:1012E30003120125A38D03120125108E031201257C
:1012F3003A850312012564850312012533860312FF
:1013030001250F870312012531A802120125FDA82B
:10131300021201253EA90212012578A90212012514
:10132300D6A9021201252AAA0212012588AA0212AD
:1013330001251EAB0212012526AC02120125B0AD18
:10134300021201254EAE02120125B5AE021201258D
:10135300C8AE02120125BCAF0212012505B002126C
:10136300012510DA0112012542DD01120125D3DE28
:10137300011201252ADF0112012547DF0112012590
:10138300C7DF0112012543E10112012512E2011217
:1013930001257FE50112012569E601120125E7CB4D
:1013A3000212012552CE0212012500CF021201259D
:1013B30015D00212012587D00212012563EF021214
:1013C3000125A8EF02120125C5EF021201257BF0CA
:1013D30002120125CEF0021201259EF1021201250F
:1013E300B4F2021201251C9903120125E698031297
:1013F3000125499903120125719903E066701008CC
:10140300A3E066700A08A3E066700408A3E06622FE
:10141300C3E7960809E7960809E7960809E79622BD
:10142300C3E09608A3E09608A3E09608A3E09622FB
:10143300C008C3E096F50808A3E096420808A3E0B5
:1014430096420808A3E09645087001D3D008220805
:101453000808EAC0E0EBC0E086F0E7A4FA180986C2
:10146300F0E7A42AFA180986F0E7A42AFA180986ED
:10147300F0E7A42AFA1986F0E7A4FBE5F02AFA19A3
:101483000886F0E7A42BFBE5F03AFA190886F0E7A3
:10149300A42BFBE5F03AFA18180986F0E7A4C5F087
:1014A3002BFBE43AFA1908E7C5F0C6A426F6E5F0E3
:1014B3003BFBE43AFA1886F0E7A4F6E5F00826F6D3
:1014C300E43B08F6E43A08F6D0E0FBD0E0FA22E485
:1014D300CFC0E0E4CEC0E0E4CDC0E0E4CCC0E07532
:1014E300F020C3E633F608E633F608E633F608E6FB
:1014F30033F6181818EC33FCED33FDEE33FEEF33FF
:10150300FFC3EC9709ED9709EE9709EF971919199E
:10151300400FFFEC97FC09ED97FD09EE97FE1919B3
:1015230006D5F0BEECF709EDF709EEF709EFF71969
:101533001919D0E0FCD0E0FDD0E0FED0E0FF22603E
:1015430016080808C6C313C618C613C618C613C69A
:1015530018C613C6D5E0EA227009080808226016E7
:10156300181818C6C333C608C633C608C633C60818
:10157300C633C6D5E0EA22E627F60809E637F608B9
:1015830009E637F60809E637F622E026F608A3E06F
:1015930036F608A3E036F608A3E036F622E026F096
:1015A30008A3E036F008A3E036F008A3E036F02203
:1015B300C3E697F60809E697F60809E697F60809D9
:1015C300E697F622C3E096F008A3E096F008A3E0BE
:1015D30096F008A3E096F022E056F608A3E056F64C
:1015E30008A3E056F608A3E056F622E056F008A357
:1015F300E056F008A3E056F008A3E056F022E0F628
:1016030008A3E0F608A3E0F608A3E0F622E6F00854
:10161300A3E6F008A3E6F008A3E6F022E0FAA3E0CD
:10162300FBA3E0FCA3E0FD22EAF0A3EBF0A3ECF0C4
:10163300A3EDF022CAC0E0E6F0A308DAFAD0E0FA9C
:1016430022CAC0E0E0A3C582CCC582C583CDC583D1
:10165300F0A3C582CCC582C583CDC583DAE6D0E0CD
:10166300CA22C3E498F8E499F91216A68026C3E4C3
:101673009AFAE49BFBE920E7E91216A6E498F8E45A
:1016830099F922C3E498F8E499F91216A6E498F8B4
:10169300E499F9C3E49AFAE49BFB22EB20E7CFE950
:1016A30020E7E0B90010BB0008E88AF084F8AAF04C
:1016B30022E4FBC8FA22EB70227B10C833C8C9337B
:1016C300C9335007C39AC3DBF280069A50012ADB61
:1016D300EAC833F4C8C933F4C9FA2275F008E4C878
:1016E30033C8C933C933C99AC99B5004C92AC93BF2
:1016F300D5F0ECFBC833F4C8E4C9FA22600D08C680
:10170300A2E713C618C613C6D5E0F322600C08C6B9
:10171300C313C618C613C6D5E0F422700422600DA5
:1017230018C6C333C608C633C6D5E0F41822251835
:1017330010AF08F518400215198008F51840021576
:1017430019D2AF22C0D0251810AF08F518500205E2
:10175300198008F51850020519D2AFD0D0222518E8
:10176300F58210AF08F518400215198008F51840E6
:10177300021519D2AF851983222518F582E435198C
:10178300F58322E4732518C582C0E0E51934FFC54B
:1017930083C0E0E518C3958224F810AF0885831948
:1017A3008582188008858319858218D2AFCEF0A36D
:1017B300E520F0A37808E608F0A3DEFAEFF0A3E54E
:1017C3008124FAF8E608F0A3E608F0A3E608F0A3FC
:1017D3000808E608F0A3E608F0A315811581D0E018
:1017E300FED0E0F8158115811581E8C0E0EEC0E078
:1017F300222518C582C0E0E51934FFC583C0E0E5A2
:1018030018C3958224F910AF08858319858218803F
:1018130008858319858218D2AFCEF0A3E520F0A303
:101823007808E608F0A3DEFAEFF0A3E58124FBF8DD
:10183300E608F0A3E608F0A30808E608F0A3E60824
:10184300F0A315811581D0E0FED0E0F81581158154
:10185300E8C0E0EEC0E022851983851882E0A3FE8C
:10186300E0A3F5207808E0A3F608DFFAE0A3FFE0A1
:10187300A3C0E0E0A3C0E0E0A3C0E0E0A3C0E0E0D9
:10188300A3C0E010AF08858218858319800885827C
:1018930018858319D2AFD083D082020122851983A0
:1018A300851882E0A3FEE0A3F5207808E0A3F608FC
:1018B300DFFAE0A3FFE0A3C0E0E0A3C0E0E0A3C041
:1018C300E0E0A3C0E010AF08858218858319800883
:1018D300858218858319D2AFD083D08222C0D025C8
:1018E30018C582C0E0E51934FFC583C0E0E518C31D
:1018F300958224F310AF08858319858218800885A3
:101903008319858218D2AFC8F0A3E9F0A3EAF0A344
:10191300EBF0A37908E709F0A3D8FAECF0A3EDF014
:10192300A3EEF0A3EFF0A3D0E0F0A3D0E0F0A3D0B8
:10193300E0F0A3E520F0A3E5F0F0A3228519838569
:101943001882E0C0E0A3E0F9A3E0FAA3E0FBA378E8
:1019530008E0F608A3DFFAE0FCA3E0FDA3E0FEA3A2
:10196300E0FFA3E0C0E0A3E0C0E0A3E0F5D0A3E084
:10197300F520A3E0A3F5F010AF088583198582183D
:101983008008858319858218D2AFD082D083D0E0B6
:10199300F8D0E03274048006740280027401C0E05F
:1019A300F404121761D0E012163722740480047411
:1019B300028000CCC0E0EDC0E0E518C39CCCAD19BB
:1019C30050011D10AF068C188D1980068C188D19C7
:1019D300D2AF121644D0E0FDD0E0FC22D083D082F7
:1019E300E9C0E0E493A3C386F0C5F095F0F908E4F9
:1019F30093A386F0C5F095F0700BE493A3C39940CD
:101A030005E9048002A3E475F002A42582F582E5CA
:101A1300F03583F583D0E0F9E493A3C0E0E493C009
:101A2300E022D083D082ECC0E0EDC0E0E493A3FCDD
:101A3300E493A3FDED4C600D121A71EC24FFFCED51
:101A430034FFFD80EFE493A3FCE493A3FDED4C602E
:101A53000D121AB0EC24FFFCED34FFFD80EFD0E053
:101A6300FDD0E0FCE493A3C0E0E493C0E022C0E037
:101A7300C3E49396087401939618400FE493667039
:101A83000808740193661870007019A3A3C3E49344
:101A930096087401939618A3A3400DD0E0D0E0D02C
:101AA300E0021A61A3A3A3A3A3A3D0E022C0E0C0D2
:101AB300F088F0E493667008087401936618700068
:101AC300A8F0A3A3700BD0F0D0E0D0E0D0E0021ACE
:081AD30061A3A3D0F0D0E022D2
:101ADC0074F51217F4EAFEEBFFEE2434F8EF340041
:101AEC00F988088909EE2435121C14F8EE243712F3
:101AFC001C14F50AEC850AF0A4FCAAF0850AF0ED9A
:101B0C00A42AFDE82CF8E43DF97A257B001216A6F0
:101B1C00EA850882850983F05407F87401B800023D
:101B2C008004C333D8FCC0E0E0131313541FF8EE49
:101B3C0028F8EF3400F9E8245DF582E93400F583E8
:101B4C00D0E0F8E0586008850882850983801DEE96
:101B5C002436121C14F5F0EA84A8F0EE28F8EF34C1
:101B6C0000F9E82438F582E93400F583E0F97F04C4
:101B7C000218A074F51217F4EAFEEBFFEE243412EF
:101B8C001C14C0E0EE2435F582EF3400F583D0E070
:101B9C00F08E828F83A3A3A3A3A3E0FAA3E0FB8E12
:101BAC00828F83A3A3A3A3A3A3A3E0FCA3E0FDECD8
:101BBC00C39AF50AED9BF50BEE2480F508EF340083
:101BCC00F509850882F583E06401702BEE2481F51C
:101BDC0082EF3400F5831219B2121C1D7402121715
:101BEC0047E960137CFD7D04EEFAEFFB120B948544
:101BFC000882850983E4F0AC0AAD0BEEFAEFFB1218
:101C0C001ADC122170021B7AF582EF3400F583E0A6
:101C1C0022C082C083851882851983E0F8A3E0F97D
:101C2C00C3EA9CEB9D5012C3EC98ED994019C3EAA2
:101C3C0098EB99501279018010C3EA98EB9940F512
:101C4C00C3EC98ED9950EE7900D083D08222EAC390
:101C5C009CFAEB9DFB2200008521878522C622C0C1
:101C6C00E074EF1218E0759B00906182E0A2E640F0
:101C7C0003021D2CE591A2E64003021D2C7591BFB9
:101C8C009003C2E064057008120D32120D3E800301
:101C9C00120D38752100120DA4E99003C3F07900E0
:101CAC00120D98120AFE7A017B009003C1E0F91222
:101CBC00106E907803E064426003021D7590055F1E
:101CCC00E014F06003021D75C2AF121CD900782A13
:101CDC00D0E0F618D0E0F6E59F5407F97005909027
:101CEC006780039090637808121601E9C4C0E0780D
:101CFC0029E65508F50808E65509F509740B780826
:101D0C0012170FD0E02508F8906270E0A2E740F8B7
:101D1C00E8C333906272F0906270E0D2E0F08049D8
:101D2C00E0A2E55024E591A2E5501E7591DF9003E9
:101D3C00C2E0640D70139003E4E004F064287002B8
:101D4C00E4F07A00E0F9120E16906181E0A2E35003
:101D5C0009E5E9A2E3500375E9F7A3E0A2E750090E
:101D6C00E591A2E7500375917F7F0402193FC0E013
:101D7C00C0D0C082C083906183E0A2E05009E5BF6F
:101D8C00A2E0500375BFFEE0A2E15009E5BFA2E15D
:101D9C00500375BFFDE0A2E25009E5BFA2E250037B
:101DAC0075BFFBE0A2E35009E5BFA2E3500375BF8A
:101DBC00F7E0A2E45009E5BFA2E4500375BFEFE0E1
:101DCC00A2E55009E5BFA2E5500375BFDFE0A2E62E
:101DDC005009E5BFA2E6500375BFBFD083D082D0B7
:101DEC00D0D0E032C0E074F21218E0E5A7A2E450C3
:101DFC000FE5A1A2E4500953A7EF75A1EF121E4401
:101E0C00E5A7A2E5500CE5A1A2E5500653A7DF75A6
:101E1C00A1DFE5A7A2E15009E5A1A2E1500375A15C
:101E2C00FDE5A7A2E2500CE5A1A2E2500653A7FBE8
:101E3C0075A1FB7F0102193F74F81217F47521018B
:101E4C009003C2E0640670077A007B00120D1AA2A0
:101E5C00AFE433FED2AF9003C8E0640170187A206F
:101E6C007B009003C1E0F91210F27A207B00900302
:101E7C00C1E0F9121074906182E0D2E6F090055E38
:101E8C00E0602185C62280169003C7E064017008CB
:101E9C00E5C654F84405F5C653BEFC121C64740127
:101EAC00652160E4EEA2E092AF7F010218A0000071
:101EBC008E238F2485822885832785188285198314
:101ECC00E0CEA3E0CF852882852783EBC9EAC8ED55
:101EDC00CBECCA75F010C3E833C8E933C9EA33CA8E
:101EEC00EB33CBC3EA9EF526EB9FF525B35004AB41
:101EFC0025AA26EC33CCED33CDD5F0DAAE23AF24C6
:101F0C002274F11217F48A088B098C0A8D0B740F4A
:101F1C0012177C780C12160190903F78081215DB82
:101F2C0090903F780C1215DB7808790C1214135032
:101F3C00157808790C1215B39090077808121433A1
:101F4C00401579018013780C79081215B39090071D
:101F5C00780C12143340EB79007F080218A074ED52
:101F6C001217F48A088B098C0A8D0B741312177CC8
:101F7C00780C12160190903F78081215DB90903F68
:101F8C00780C1215DB780C790812141340117808B0
:101F9C00790C1215B3AA08AB09AC0AAD0B802275EB
:101FAC0010007511007512007513017810790C1260
:101FBC0015B37810790812157AAA10AB11AC12ADC2
:101FCC00137F0C0218A090903F78081216018A8299
:101FDC008B8378081215EE7F040218A074F5121783
:101FEC00F48C828D8378081216018A828B83780890
:101FFC001215C712203CC3E098F0A3E09912202ED2
:10200C00401E90907F78081216018A828B83780884
:10201C001215A08E828F83E02420F0A3E0344EF0C2
:10202C0080A4F08E828F83C3E09420A3E0944E2290
:10203C00EA2404F8EB3400F9E8FEE9FF8C828D8386
:10204C00A3A3A3A3E0F8A3E0F98E828F832274F5F7
:10205C001217F4E9FE900514E0FAA3E0FBEEC3338B
:10206C00F8E433F9740D28F582748F39F583E02A7E
:10207C00F508A3E03BF509780812199B90907B12A8
:10208C00161F121EBC74021217478A088B098C0A81
:10209C008D0B74107808121542AA08AB097F040244
:1020AC0018A074F11217F48A0C8B0D8C0E8D0F7412
:1020BC000F12177CE0FAA3E0FB741112177CE0F509
:1020CC0008A3E0F509741312177CE0FEA3E0FF7877
:1020DC000812199BEA2401F508EB3400F509E4F524
:1020EC000AF50B780C7908121452909003780812A8
:1020FC001601780C7908121452AA0CAB0DAC0EAD6B
:10210C000F121EBC74021217478B09EA45096004B2
:10211C007A0180027A00EC2AFCED3400FDECF8ED3B
:10212C00F97A717B021216A688088909E4F50AF57A
:10213C000B8E828F837808121610ECF8EDF97A71F9
:10214C007B021216A68A088B097405780812171ED2
:10215C008E828F83A3A3A3A3E508F0A3E509F07FE8
:10216C00080218A0C082C083E9906000F0D083D030
:10217C008222C0E074F21218E0A2AFE433FED2AFB8
:10218C00C2C0E5D1A2E4500653D1EF1212D2EEA296
:10219C00E092AF7F0102193FC0E074F21218E0A286
:1021AC00AFE433FED2AFE589A2E1500312124875B9
:1021BC008900C2C5EEA2E092AF7F0102193FC0E0D8
:1021CC0074F21218E0A2AFE433FED2AFE58BA2E0BA
:1021DC005003121248758B00C2E880D8C0E0C0D002
:1021EC00E8C0E0E5A8D2AFC2C7A2E792AFD0E0F852
:1021FC00D0D0D0E032C0E0C0D0E8C0E0E9C0E0C050
:10220C0008C009C082C083A2AFE433F9D2AF9009F1
:10221C00E3E0F8A3E0687008539AFBA374018026EE
:10222C00C2E99009E3E0F50874012508F074632510
:10223C0008F58274093400F583E0F5C19009E3E0F8
:10224C00C394804002E4F0E9A2E092AFD083D08244
:0F225C00D009D008D0E0F9D0E0F8D0D0D0E032EF
:10226C00FFFFFFFFFFFFFFFFC082C083E9900B7BE6
:10227C00F00224F874F7121788E99002E0F07C1849
:10228C007D037AFF7BFF1208169002E174FFF0A326
:10229C00F0A3E4F0A3F0790512079E9002E0E0F9B8
:1022AC001206C67A347B081209F602320674F4124E
:1022BC0017888A088B09EB548060309002E0E0F9B3
:1022CC001210568A0A8B0BAE0AAF0BEE4F60138EB0
:1022DC00828F83E064B070031207B6EEFAEFFB1244
:1022EC001044AA08E5096480FB80047A007B000294
:1022FC0024C774F212178874FC121731EAFEEBFF34
:10230C00741212177C1236EDEE4F70030223A17477
:10231C000212177CEEF0A3EF122702ECF0A3ED12E1
:10232C002702AA82AB831206C0E9F50A706AE50897
:10233C00450960648E828F831236D3EE4F60567AD5
:10234C00067B001210AA8A0C8B0DA80CA90DE8496B
:10235C007005750A13804188828983E41223AEEEDE
:10236C00F0A3EF1236FEE508F0A3E509F09002E6C3
:10237C001224359002E670051231B0801B12319E8A
:10238C008003EAFCEBFD8C828D8312243570F38C78
:10239C00828D8380E3750A02A90A7404121747021E
:1023AC0038EDF0A31236A4A32274F2121788890A0E
:1023BC00E975F017A4FEAFF09002E5E4F09002E3AB
:1023CC00122435600A1210B09002E3E4F0A3F0EE90
:1023DC00FAEFFB1210AA8A088B09EA4509602FEE66
:1023EC00FCEFFD790012102C9002E3E508F0A3E558
:1023FC0009F07B00800812241FE4F0A3F00BEBC360
:10240C00950A40F2E50A9002E5F079008002791312
:10241C000238EDEB75F017A4F8A9F09002E3E02870
:10242C00FAA3E0398A82F58322122E42EA4B2274F7
:10243C00F4121788740C12177C1236C8FEE9FF755B
:10244C000800750900800CE5082401F508E509343D
:10245C0000F509C3E5089CE5099D503285080A85FD
:10246C00090B7403780A12171EEA250AF8EB350BD0
:10247C00F988828983A3A3A3A3A3A3123285EE6553
:10248C000A7003EF650B70BFE8FAE9FB80047A0071
:10249C007B00802774F41217887900EAA2E0501BA5
:1024AC007508E075098F780812199B7C047D007AF9
:1024BC007D7B0B12079874021217477F0402185A7F
:1024CC00C082C0839002E61224FF601C888289833C
:1024DC00A3A3E06A7003A3E06B8882898370E8A3EE
:1024EC00A3A3A3122E3E80047A007B00D083D0825B
:1024FC000201221239D3E8492274EE12178874FCB7
:10250C00121731EAFEEBFF851882851983E4F0A3DC
:10251C00F0EE2402123190EE24051236ABEE2404B8
:10252C00F50EEF122AB7E024FE603924FC60462435
:10253C00FE605224FE605E24FE700302261824FE08
:10254C00700302267C24FE700302268B24FE70038B
:10255C0002269A24FC70030226A924FE700302268C
:10256C00B80226F59002FF7417F0A3E412270A12A2
:10257C00043E0226F5851882851983AC82AD831240
:10258C0007BC0226C5851882851983AC82AD8312DF
:10259C0007C20226C5850C08850D09740212177C2A
:1025AC00AC82AD83850882850983122E3E1206E427
:1025BC008A0C8B0DAC0CAD0DEC4D603BE4F50CF5C1
:1025CC000D780C12199B750CFF750D02780C1219F5
:1025DC009B750C00750D03780C12199B740812175F
:1025EC007C1219B2123B4F121747E9F50C700B1203
:1025FC002E34120456800F750C01850882850983D0
:10260C001226F81231B0850C080226C87402121773
:10261C007CAC82AD83850C82850D83122C09603CC9
:10262C00850C82850D83A3A31219B27510FF751149
:10263C0002781012199B751000751103781012197D
:10264C009B740812177C1219B2123B4F121747E9F0
:10265C00F509700B122E3412045C800F750901857C
:10266C000C82850D831226F81231B0850908804C36
:10267C00851882851983AC82AD831207C8803A8590
:10268C001882851983AC82AD831207CE802B8518F6
:10269C0082851983AC82AD831207D4801C85188285
:1026AC00851983AC82AD831207DA800D851882857B
:1026BC001983AC82AD831207E0E9F508E5086029BF
:1026CC008E828F83A3E06414601F850E82850F8336
:1026DC00E09002FF1227021239CF9003001231B0A2
:1026EC00E508A312270A12043802309F1239D38549
:1026FC00188285198322F085188285198322F07C33
:10270C00FF7D02850A82850B83122E422274EE1203
:10271C00178874FC1217318A0A8B0B8C0E8D0FEAFA
:10272C002405F508EB3400F5097C157D0079007A59
:10273C00FF7B0212102CE5082402F50CE509123679
:10274C00AE851882851983858210858311781012C5
:10275C00199B850882850983A3A3A3A3122C0012BD
:10276C00199BE5082405F510E5093400F5117810DE
:10277C0012199B850C82850D83122F551206DE745F
:10278C00061217478A108B11AE10AF11E50A2402FE
:10279C00F50AE50B123193EE4F70030228D7801720
:1027AC00740212177C122E3E88828983EAF0A3EB06
:1027BC00F09002FFE004F09002FFE0C394054003A8
:1027CC000228D7E4F510F511781012199B7510E852
:1027DC00751102781012199B7510E9751102781099
:1027EC0012199B740612177C1219B27910EEFCEFB9
:1027FC00FD123B51121747E9705E850882850983EB
:10280C00A3A3A3A3A3A3A3E0F89002E8E0687048F5
:10281C00122C0012199B7CE97D02E5082408FAE5CC
:10282C00093400FB1210267402121747E960298E36
:10283C00828F83A3A3A3A3122E3E9002FFE0F51078
:10284C007402781012171E74002510F5827403356B
:10285C0011F583EAF0A3EBF0740212177C85821059
:10286C00858311781012199B740212177C1219B2FD
:10287C00850C82850D83122E641217478A108B11DA
:10288C00AE10AF119002FFE0F510751100740278D4
:10289C001012171E74FF2510F874023511F9888276
:1028AC008983A312243570030227A3E824030808A4
:1028BC0008E93400F9EE4F60030227AC8882898363
:1028CC0074FFF0A3F09002FFE004F09002FFE060D0
:1028DC000A122E3412044A7900800B85088285096D
:1028EC00831231A7790A02309F74EA12178874FE9A
:1028FC001217318C128D13EA2405F50CEB123B39AF
:10290C001236D7750800750900EA2402F510EB346D
:10291C0000F51185188285198385820A85830B78C9
:10292C000A12199B850C82850D83A3A3A3A3122ADB
:10293C00CD12199BE50C2405F50AE50D123193789F
:10294C000A12199B850C82850D83122AD11206DE80
:10295C0074061217478A0A8B0BEA450B7003022A7E
:10296C0072EA2404F50EEB122AB71236D78A828B40
:10297C0083A3A3A3E0F9851082851183122E4860EE
:10298C0003022A72E4F514F515781412199B7514C8
:10299C00E8751502781412199B7514E975150278EF
:1029AC001412199B740612177C1219B27913AC0A03
:1029BC00AD0B851082851183123B57121747E9F531
:1029CC00096003022A729002E8E0F8E5087009E059
:1029DC002402900300F08014900300E0FCE8240231
:1029EC00FAE43400FBEA6C7001EB707E850882AA75
:1029FC0082122BF79414122BEF506B850E82850FDD
:102A0C0083E0C0E074012A122AAED0E0F0050885FC
:102A1C000E82850F83A3E0C0E085080A7401250AA5
:102A2C00122AAED0E0F005089002E8122ACD121955
:102A3C009B7CE97D0285080A7401250A122AC112C1
:102A4C0017479002E8E02508F50874FF6E700374D0
:102A5C00FF6F6012EE24010EEF3400FFE508C39403
:102A6C0014500302291FE5086013122E52851082A0
:102A7C00851183122E3E12045079008014E50970E2
:102A8C000375090A851282851383EEF0A3EFF0A972
:102A9C000974021217477F0E02185A85080C74012C
:102AAC00250CF58274033400F583223400F50F8570
:102ABC000E82F58322FA74033400FB121014740294
:102ACC002212370D22A3A3122AD72212319EFDEE19
:102ADC00FAEFFB2274EE12178874FE1217318C0E6B
:102AEC008D0FEA2405F50CEB1236AE750B00900237
:102AFC00FFE4F0F50AEA2402F508EB3400F509804E
:102B0C00449002FFE0FA9002E8E0F8122BF79417D9
:102B1C00122BEF400D9002FFE0F87416C398900250
:102B2C00E8F0122C0012199B7CE97D0274002AFA41
:102B3C007403122AC41217479002E8E0F89002FFBF
:102B4C00E028F0050AE50C2416F582E50D122AB2F0
:102B5C00E0F8E50AC39850749002FFE0C394165055
:102B6C006BE50AC333F8E433F9E50C28FEE50D39BF
:102B7C00FF851882851983AC82AD838E828F831278
:102B8C002C097008750B011231A38050E4F510F577
:102B9C0011781012199B7510E87511027810121922
:102BAC009B7510E9751102781012199B7406121797
:102BBC007C1219B27916850882850983123B57124B
:102BCC001747E9F50B7003022B0D80BB7CFF7D02D0
:102BDC00850882850983122E3E120462A90B7402A9
:102BEC000230A1E99400C365D03322EA28F8E4341A
:102BFC0000F9E822E0F510751100781022123096D9
:102C0C008A108B11AC10AD11EC4D2274EA1217889E
:102C1C0074FC1217318A0C8B0D8C128D13EA24055F
:102C2C00F50AEB123193750800750900E50A2402C8
:102C3C00F510E50B3400F511740212177C85820E29
:102C4C0085830F780E12199B850A82850B83A3A3AB
:102C5C00A3A31236B312199BE50A2405F50EE50B56
:102C6C003400F50F780E12199B8510828511831292
:102C7C003199122E381206DE74061217478A0E8B03
:102C8C000FAE0EAF0FE50C2402F50EE50D3400F57A
:102C9C000F80388882898374FFF00508122AA77484
:102CAC00FFF005089002E8E0F50C750D00780C12A9
:102CBC00199B7CE97D0285080C7401250C122AC134
:102CCC001217479002E8E02508F508EE4F60278EB2
:102CDC00828F83A3A3A3E0F9850E82850F83122E26
:102CEC0048EE24041236ABE96027850C82850D83EF
:102CFC00122E2A1231B0E5087003022E10122E5239
:102D0C00850E82850F83122E3E1204687900022EE6
:102D1C0025E4F514F515781412199B7514E875153E
:102D2C0002781412199B7514E9751502781412198E
:102D3C009B740812177C1219B27911EEFCEFFD8509
:102D4C000E82850F83123B57121747E9F509709ACB
:102D5C00850882AA82EA9002E87009E024049003B4
:102D6C0000F08025E0F8900300E0F514E82404FC62
:102D7C00E43400FDEC65147001ED7081122BF794B6
:102D8C0012122BEF4003022D09850C82850D83E076
:102D9C00C0E074012A122AAED0E0F00508850C823E
:102DAC00850D83A3E0C0E0122AA7D0E0122E6D851A
:102DBC00820C85830D780C12199B740412177C12EB
:102DCC0019B2851082851183122E641217478A0C52
:102DDC008B0DAE0CAF0D85080C7401250CF874032B
:102DEC003400F9EE4F7003022C9F851882851983ED
:102DFC00E088828983122E6DA3E0C0E0122AA7D04E
:102E0C00E0022CADE509700375090A850A82850B71
:102E1C0083122E2A1231B0A9097404022A9F123986
:102E2C00D3851282851383227CFF7D02850A8285DD
:102E3C000B83122E4222E0FAA3E0FB22122E421246
:102E4C0006CCE9F50922900300E0F5F0E508849042
:102E5C0002FFF07CFF7D0222122AD71206EA7404CC
:102E6C0022F005088518828519832274EC121788C4
:102E7C0074FE1217318A088B098C0E8D0FEA24050B
:102E8C00FEEB3400FF123080EE24181236ABEA450C
:102E9C000B7003022F231230695029122F488A100D
:102EAC008B11EA4511606B7912AC0AAD0B85088267
:102EBC00850983122E3E851082851183121786E9AF
:102ECC00F50A7058E4F50AF50B780A12199B8E82F4
:102EDC008F83A3A3E0F50A780A12199BEE24031240
:102EEC003190780A12199B8E828F83122F551208FB
:102EFC00047406121747E9F50A7021850C82850DBA
:102F0C0083E0701F850882850983122E3E12046EA1
:102F1C008011750A0E8009750A018004E50A6003A8
:102F2C001231A3850C82850D83E060047900800248
:102F3C00A90A74021217477F0C02185A8518828549
:102F4C001983122E421207F22212319EFD8508823D
:102F5C00850983122E422274EE12178874FE121702
:102F6C00318A088B098C0C8D0DEA2405FEEB34009C
:102F7C00FF750E00123080EA450B700302304712C9
:102F8C003069502C122F488A0E8B0FEA450F604A7D
:102F9C007912AC0AAD0B850882850983122E3E8509
:102FAC000E82850F83121786E9F50E600302304AF4
:102FBC00850882850983123285AA0AFB12305B7060
:102FCC00147AFF7BFF12305B606C88828983E50A80
:102FDC00F0A3E50BF0750A008007750E0E805F05F7
:102FEC000A9002E5E0FAE50AC39A504AE50A75F040
:102FFC0017A4FAABF088828983A3A3E02AFAA3E092
:10300C003BFB8A828B83123199EC4D70D2750A1777
:10301C00750B00780A12199BEEFCEFFD121014745C
:10302C0002121747EEFCEFFD850882850983122EEC
:10303C003E1204748014750E098003750E0112394A
:10304C00CB850C82850D831231B0A90E022BEA12AE
:10305C0007E68A108B11A810A911E84922E508246B
:10306C0002F508E5093400F5098A828B83A3A3A332
:10307C00E0A2E522851882851983AC82AD838E820D
:10308C008F831230968A0A8B0B22E0FAA3E0FB1294
:10309C0006E42274041217477F0A02185A74EC12C1
:1030AC0017888C108D11EA2405F50CEB1236AE75D1
:1030BC000F00EA2402F50AEB123193850A82F5839C
:1030CC00122E3E123BDD7003023185750E008071AD
:1030DC00850C82850D83E06401704F8E828F83A3F3
:1030EC00A31219B28E828F83A3A3A3A3E0F512754A
:1030FC001300781212199BEE2405F512EF3400F52B
:10310C0013781212199B122E381208047406121717
:10311C0047E9F50F6014850C82850D83E4F01239B4
:10312C00CB8510828511831231B07C177D0079001C
:10313C00EEFAEFFB12102C8E828F83E4F0A3F005D5
:10314C000E9002E5E0F8E50EC398501EE50E75F002
:10315C0017A4F8A9F0850882850983A3A3123B4321
:10316C00123199EC4D60030230DC850882850983AD
:10317C0074FFF0A3F0E50F7006122E3812047AA932
:10318C000F022F43F50AEF3400F50B22A312319EE8
:10319C00FD22E0FCA3E0228E828F831239D3850EB0
:1031AC0082850F83E8F0A3E9F022C082C0839002ED
:1031BC00E1E06A7003A3E06B70067AE17B028004A5
:1031CC007A007B000224F874F71217887F00EF75E1
:1031DC00F003A4F8A9F0EC28F8ED39F9888289837A
:1031EC00E06A7003A3E06B7006E8FAE9FB800B0F52
:1031FC00EFC3940240D87A007B007F0102185A7406
:10320C00F61217881237BC70067A007B008007A371
:10321C00A3A3A3122E3E02387D74F2121788E9FE86
:10322C00740E12177C123285741012177C1236ED44
:10323C008C828D83E06402703BA31239CF88828923
:10324C0083E0F50CA3E0F9A80C74026870037429F0
:10325C00697021750C02750D00780C12199B780899
:10326C0012199B780A12199BEEF91208287406128F
:10327C001747800279010238EDE0F50AA3E0F50B5F
:10328C002274E812178874FB121731E985188285AD
:10329C001983F08A168B178C0E8D0F741F12177CE6
:1032AC001236ED742112177C123285742312177C9E
:1032BC001236D77510008C828D83A3A3A3E0A2E4F1
:1032CC00502A741D12177C122F4E8A828B83E58232
:1032DC0045837003023399790AAC0EAD0FAA16AB75
:1032EC0017121786E9F510600302339C850E828550
:1032FC000F83E064026003023652A31239CF8508B3
:10330C0082850983A3858212858313E50E2406F535
:10331C000CE50F1236AE88828983E0FAA3E0F9EA55
:10332C002400F514E439F5157814121A250100005F
:10333C0028012861330700022838340328A83300F9
:10334C0029623501298A3502293135032962350470
:10335C0029F3355236EE4F703E850C82850D831263
:10336C0036C8FAE9FB8A828B83E0850A82850B8357
:10337C0012370412199B8A828B83A312319EFDAAE9
:10338C0008AB091210147402121747800375100E43
:10339C00A9107405023B3175100B80F4EE4F70F7D9
:1033AC00850A82850B837401F01236DD85088285CF
:1033BC000983F07C007D00850E82850F83A3A3A377
:1033CC00A3E02401FAA3E03400FB1206E4EA4B600C
:1033DC00418A828B83E02402F8850A82850B83E084
:1033EC0028F0EA2404F8EB3400F988828983E0851C
:1033FC00128285138312371612370412199B8A8294
:10340C008B83123198E5082403FAE5093400FB029A
:10341C00338F850A82850B83E02404F07C047D00C5
:10342C007900AA12AB1312102C02339CEE4F6003DE
:10343C000233A31236DDFEA3E0FF850A82850B83DF
:10344C007404F0EE850882850983F0EF851282857D
:10345C001383F0740312177CAC82AD83EEFAEFFB8E
:10346C001237AA700302350E8A828B83A3A31236FD
:10347C00D3740112177C85820E85830F780E121976
:10348C009B740512177C1219B27CFF7DFF1206EAA1
:10349C0074041217478B0FEA450F7033850C828525
:1034AC000D831236B312199B850C82850D83A312E2
:1034BC0019B27C027D007AB77B9012051674041247
:1034CC001747E9700A740112177C74FFF0A3F08E91
:1034DC00828F83E064027034750C02750D00780CD9
:1034EC0012199B8E828F83123198E5082404FAE519
:1034FC0009122AC4121747850A82850B83E024021D
:10350C008009740112177CEEF0A3EFF0740112170E
:10351C007C1236C4F0740112177CA31236BCA3A320
:10352C00A3F002339CEE4F60030233A3850C82851B
:10353C000D83123199AA16AB1712081C850A8285C5
:10354C000B837402F0EA850882850983F085128268
:10355C00851383EB80CBEE4F60030233A31236DD71
:10356C00F8A3E0F9850A82850B837402F0E88508DC
:10357C0082850983F0E985128285138380A3850CEB
:10358C0082850D83122E3E12100EEAFC8C82A882CC
:10359C00C39EE49F404BE86E7001EF70047C00808A
:1035AC001F851882851983E0FAEE2AFAEF3400FBA6
:1035BC00C3EA98EB94005003E08004EECCC39CFC6F
:1035CC00EC850A82850B83F08C0A750B00780A1245
:1035DC00199B850C82850D83E02EFCA3E03F023302
:1035EC008A75100702339CEE4F60030233A3850CDF
:1035FC0082850D831239CF850A82850B837407F07F
:10360C00888289831236BC1236A4E0851282851317
:10361C0083F0E82402FAE93400FB8A828B831236A9
:10362C00BC1236F51236C4A31236FE1236CDF0E8B3
:10363C002405F8E93400F9888289831236CDA31267
:10364C003716A302352A741D12177C1237B5700376
:10365C000233991239CF880C890DE8450D7003029D
:10366C0033998E108F11781012199B780A12199BAE
:10367C00780812199B740612177CE0F9AC0EAD0F8A
:10368C00AA16AB17850C82850D8312178674061249
:10369C001747E9F51002339CF088828983A322F541
:1036AC000CEF3400F50D22E0F50E750F00780E22AC
:1036BC00E08508828509832212371D221239D3E84E
:1036CC002212371DA3A322A3A3A3A3E0FEA3E0FF12
:1036DC0022850C82850D83E0F8A3E0F5838882E0D7
:1036EC0022E0F508A3E0F50922A3A3F08A828B83DC
:1036FC00A3221223B0A3A322F08A828B8312370D4C
:10370C0022E0F50A750B00780A221236A412371D36
:10371C0022E0850882850983A3A32274EE12178800
:10372C0074FE1217318A0A8B0BECFAEDFB7414122F
:10373C00177CE0F510A3E0F511741612177CE0FE6F
:10374C00741812177CE0F50EA3E0F50F851882852E
:10375C001983AC82AD831237AA603E851882851915
:10376C00831237B5602FA3A31236EDE50845096027
:10377C0024780E12199B781012199BEEF9AC0CAD33
:10378C000DAA0AAB0B85088285098312178674046F
:10379C001217478006790E80027901022BEA120675
:1037AC00E48A0C8B0DEA450D22122E421237BC22F4
:1037BC001207B08A828B83E58245832274F6121736
:1037CC008874FE121731740C12177C1236C88518C7
:1037DC0082851983F0740112177CE9F0E4F508F581
:1037EC0009780812199B750802780812199B740441
:1037FC0012177C858208858309780812199B120898
:10380C000474061217477402121747806474F71277
:10381C001788EAFEEBFF89087C187D0312081CEA66
:10382C005402600BA908EEFAEFFB1206D88002795D
:10383C000102320674F612178874FF6A700374FF63
:10384C006B701C7B00EB75F003A4F8A9F0EC28F866
:10385C00ED39F91238820BEBC39402501480E61246
:10386C0007EC8A088B09A808A909E84960031238F3
:10387C00827F0202185A8882898374FF1223AEE475
:10388C00F02274F61217881207EC8A828B83E58279
:10389C0045836006A3A3E0FA80027A007B0080D106
:1038AC0074F21217888A088B09ECFEEDFF740E1265
:1038BC00177CE0F50A1238F2701CEEFCEFFD7AFF73
:1038CC007BFF1238F270047911801688828983E5A7
:1038DC0008F0A3E509F088828983A3A3E50AF079AF
:1038EC00007F0602185A1207EC8A0C8B0DA80CA943
:1038FC000DE8492274EE121788EAFEEBFF8C088D56
:10390C0009890C741212177C1239CF741412177C9B
:10391C00123199741612177C122E3E750D00EC4D57
:10392C0060030239C37402650C60030239BE8882DD
:10393C00898312319EF9EC2400F50EE439F50FEA77
:10394C00F4F8EBF4F9EC58F8E50F59F9E849705D27
:10395C00E5082406F8E5093400F9880A890B888201
:10396C00F583122AD312081C8A108B11E50E6510F0
:10397C007004E50F65116042780E12199B850A825E
:10398C00850B83122AD31208227402121747E9F509
:10399C000D7027780E12199B850882850983A3A3C5
:1039AC00122AD112083A7402121747800D750D8035
:1039BC008008750D0D8003750D0BA90D0230A48EBA
:1039CC00828F831239D322E0F8A3E0F92274E81233
:1039DC00178874E7121731851882851983EAF0A3CA
:1039EC00EBF08C168D17890E743112177CE0F512E2
:1039FC00A3E0F513743312177CE0F514A3E0F5156E
:103A0C00743512177CE0F50F750800750900E5098F
:103A1C0075F003A4F8A9F0851882851983123B432D
:103A2C00E0F47003A3E0F47003023B21EE2402F5F2
:103A3C000CEF123B39E07003023B2185160A851707
:103A4C000B780A12199BAC14AD15AA12AB13120702
:103A5C00A474021217478A0A8B0BEA450B700302F7
:103A6C003B21E4F510F511781012199B740612170E
:103A7C007C858210858311781012199B740912179A
:103A8C007C858210858311781012199B8512828592
:103A9C001383A3A3A3A31219B27914AC0AAD0B8E92
:103AAC00828F83123B57121747E97069850A82850A
:103ABC000B83A3A3A3A31239CF740212177C123168
:103ACC00B0850C82850D83E0A2E05018A90E74021B
:103ADC0012177CAC82AD838E828F83122E3E12061F
:103AEC00FCE94208850C82850D83E0A2E15026E5B5
:103AFC000FF50A780A12199FA90E740312177CACE1
:103B0C0082AD838E828F83122E3E1206F6740112C2
:103B1C001747E942080509E509C394025003023A24
:103B2C001AA90874191217477F1002185A3400F595
:103B3C000D850C82F58322E028FEA3E039FF8E82EE
:103B4C008F83227916850A82850B83122E421207E7
:103B5C00FE74082274F2121788EAFEEBFF890B74CC
:103B6C0001650B600E7402650B70637901120A1407
:103B7C00E9705BEEFAEFFB123BDD6047750A0080E3
:103B8C000B7C177D00790012102C050A9002E5E0E1
:103B9C00F8E50AC3985021E50A75F017A4F8A9F0C6
:103BAC00850882850983A3A3E028FAA3E039FB8A60
:103BBC00828B831224FF70C985088285098374FF68
:103BCC00F0A3F07C187D03EEFAEFFB120816023816
:103BDC00ED1207E68A088B09EA45092274F21217DE
:103BEC00888A088B09ECFEEDFF740E12177C1232DA
:103BFC0085900B7BE0F4603D7A097B0012103EEA65
:103C0C004B60328A828B8374B1F0A3E41236F7A333
:103C1C001236F5A3E508F0A3E509123C44EEF0A337
:103C2C00EF123C44A3A3E50AF0A3E50BF0900B7B49
:103C3C00E0F912104A0238EDF08A828B83A3A3A319
:103C4C00A3A32274F4121788E9FF7E008A088B095B
:103C5C0078081219DF00040D003E823C9E3CB33CF8
:103C6C00C83CDD3CF23C0E3D273D393D673D893D6E
:103C7C00A53DC13DDF3D74016F70128C828D83E0D8
:103C8C00C394035008E0900C67F0023E1E7E1802AD
:103C9C003E1E74026F70F68C828D8312455C900C04
:103CAC0068E8F0A3E980E274016F70E18C828D8387
:103CBC00E0C3940250D7E090078480CD74016F70FC
:103CCC00CC8C828D83E0C3940550C2E09007858034
:103CDC00B874016F70B78C828D83E0C3940250ADC1
:103CEC00E090078680A374106F70A27508108E097F
:103CFC00780812199B7A877B071249201217470202
:103D0C003E1E74016F70868C828D83E0C3940240DA
:103D1C0003023C99E0900797023C9574016F600395
:103D2C00023C998C828D83E0900C6B808D74046FB7
:103D3C006003023C9990907B78081216018D838C5D
:103D4C008278081214234003023C998C828D8312D2
:103D5C00161F90079912162B023E1EEF6003023CB1
:103D6C0099120684E9700E1211B2795012135C127A
:103D7C0011A6023E1E90082C7401023C9574016F32
:103D8C006003023C998C828D83E0C3940240030251
:103D9C003C99E0900798023C9574016F6003023CDB
:103DAC00998C828D83E0C3940A4003023C99E09085
:103DBC000C6A023C9574016F6003023C998C828DF5
:103DCC0083E024F9C3940A4003023C99E0900C6C04
:103DDC00023C9574016F6003023C9990082BE0F84B
:103DEC008C828D83E090082BF0E87026E0640170E3
:103DFC0021023D7BC3EA9426EB9400501374026FAE
:103E0C00700E8C828D83124556120522E9FE8002BB
:103E1C000E0EEEF9023E28740E1217477F0402189C
:103E2C005A74F012178874CC1217318C0A8D0B74DB
:103E3C004412177CE0FE742012177CAC82AD8375A3
:103E4C00838F7582F87406121644742012177CAC9A
:103E5C0082AD83121158E9F508C3940A4003023F5E
:103E6C009175F006E9A4F509742612177CAC82ADA5
:103E7C00837A0E742025091249D8700974321217EE
:103E8C007CE0FF80027F00900C67E0640270047499
:103E9C00018001E4F50D780D12199FEEFDEFFCA9E0
:103EAC0008AA0AAB0B1211DC74011217477C147DA3
:103EBC00007900740C12177CAA82AB8312102C743C
:103ECC000C12177CAC82AD837A107424250912492C
:103EDC00D870377C1079FF740C12177C1247057060
:103EEC0029741C12177CAC82AD837A0474252509C5
:103EFC00F9121356740C12177CAC82AD83EFA2E04E
:103F0C00E433F9AA0AAB0B1205AC85188285198328
:103F1C00AC82AD837A0C747025081249D870558523
:103F2C001882851983AA82AB83121188750800E563
:103F3C000875F003A4F8A9F0851882851983E58229
:103F4C0028F8E583124741124556EC4D601D8882D6
:103F5C008983A3A3E0F50E750F00780E12199BAAA6
:103F6C000AAB0B12080A74021217470508E508C3BE
:103F7C00940440BBEFA2E1500C900783E0F9AA0A2D
:103F8C00AB0B12081074046E702A900C67E064027C
:103F9C007022900797E060047A0180027A00900703
:103FAC0084E06004780480027800E84AF9AA0AAB3D
:103FBC000B12066C790074341217477F0802185ADA
:103FCC0074F0121788EAFEEBFF8C088D09750A0A4B
:103FDC00E9600C14600914602E14607F02407212A8
:103FEC00119AE9F50AC3940A507CE50845096076F4
:103FFC00750E06750F00780E12199BEEFCEFFD1274
:10400C00491C121747805F750B00750E06750F0063
:10401C00780E12199BEEFCEFFDE50B75F00EA4F873
:10402C00A9F074A528FA740739FB12102674021231
:10403C001747E9601B850B0AE50AC3940A5027E56C
:10404C000845096021AA08AB09A90A121194801627
:10405C00050BE50BC3940A500D80AF1211A0E9F5C6
:10406C000AC3940A40D9A90A023FC774F4121788EC
:10407C00890875091574FF6A700374FF6B70277ECD
:10408C0000AC087A027B00EEF9121176E960037538
:10409C0009000EEEC3940A40E8E50860497ACA7B31
:1040AC0011120A268040120A088A0A8B0BAE0AAF3C
:1040BC000BEE4F602E7C007D00EE2405FAEF3400F1
:1040CC00FB8E828F8312416E500CAC087A027B00FF
:1040DC00121176750900E508600CEEFAEFFB12116F
:1040EC00CA8003750914A909023E2874F2121788B4
:1040FC00ECFEEDFF740E12177C1245497508157411
:10410C00FF6A700374FF6B7021750900AC0AAD0B6C
:10411C00EEFAEFFBA90912117CE9600375080005A2
:10412C0009E509C3940A503580E2120A088A828B89
:10413C0083E582458360237C007D00E5822405FABB
:10414C00E5833400FB12416E5013AC0AAD0BEEFA52
:10415C00EFFB12117C7508008003750814A9080286
:10416C004F47A3A3A3A3E0F9121158E9C3940A2261
:10417C00C082C08390079DEAF0A3EBF0900783E028
:10418C00FC7D007A257B00120522900783E0F91252
:10419C000786D083D08202012274EA12178874EC4D
:1041AC00121731EAFEEBFFEE240CF514EF3400F598
:1041BC0015EE240AF510EF3400F511EE2405F50E7A
:1041CC00EF3400F50FEE2409F50AEF3400F50BEE91
:1041DC002403F508EF3400F5098E828F83A3A3E046
:1041EC0024FA700302451224FD700302444114703A
:1041FC000302429014601024FD70030244121470E8
:10420C0003024476024530124575604AE0F5838816
:10421C008212455C880C890DE8450D603985148245
:10422C00851583E0F50E780E12199FEE240BF5829E
:10423C00EF3400F583E0F9850A82850B831245562D
:10424C000A0A0AAB09850C82850D83121786740144
:10425C00121747024530850A82850B831219B290DA
:10426C00079912161F1205BE7402121747E9700344
:10427C000245307901850A82850B83124D6C12053B
:10428C00B80245308E828F83A3858212858313E01A
:10429C0060030243EB850E82850F83E0A2E04003AE
:1042AC000243EB7C0E7D007900851882851983AA68
:1042BC0082AB8312102CEE2408F50AEF3400F50BB8
:1042CC00850A82F5831245786019750C06750D0008
:1042DC00780C12199B850A82850B83E02410FCA3B1
:1042EC00E0801A12453AEA4B7003024530750C0611
:1042FC00750D00780C12199BEA2405FCEB3400FDBB
:10430C00740212177CAA82AB8312492012174785BC
:10431C000E82850F83E0A2E25004D2F08002C2F03C
:10432C00A2F0E433F8740C12177CE048F08510828C
:10433C008511831245786015851082851183E024E0
:10434C0010F8A3E03400F988828983800390907F71
:10435C00780C121601851082851183124578600F36
:10436C00851082851183E0F510A3E0F511800675A8
:10437C001000751100850A82850B83124578600B3D
:10438C00850A82850B831245498006750A00750BD8
:10439C0000780C121997781012199B780A12199B35
:1043AC008514828515831219B28E828F83A31245D0
:1043BC0051740A12177CAA82AB8312118E740A12E2
:1043CC00174785088285098312455C90082DE8F013
:1043DC00A3E9F07A017B00900783E0F912106E12CA
:1043EC0045757003024530124562700302453085F5
:1043FC001282851383E0FC7901124D668E828F83C5
:10440C001217860245301245757003024530E0F5EF
:10441C00838882A3A312455C890BE8450B700302C9
:10442C0045308E828F83A3E0FC7902124D66888220
:10443C00850B8380CB7C007D00EE2404FAEF3400E6
:10444C00FB850882850983E0F9121158E9F8C394B9
:10445C000A4003024530AC10AD117A0475F006E841
:10446C00A42425F9121350024530900798E0600EF1
:10447C00900C6AE0F9850882850983024287900CCA
:10448C0067E07004790580ED12453A8A0C8B0DA813
:10449C000CA90DE82404F50CE93400F50D8E828F7F
:1044AC0083A3A3A3A3A3A3A3E0A2E05036E849608F
:1044BC0073850C82850D83E0FE6028850A82850B4E
:1044CC0083E05410701D740E12177CAC82AD83E81F
:1044DC002405FAE93400FBEEF9121158E97004795D
:1044EC00038092AC0EAD0F850C82850D83E0F91222
:1044FC004D661211D6124575602A12456260257CF4
:10450C00007900024405120684E9701890082CE02A
:10451C00640170081211B290082CE4F07950121357
:10452C005C1211A674141217477F0E02185A8508D4
:10453C0082850983E0FAA3E0FB120A0822E0F50A5F
:10454C00A3E0F50B22A3A3A3A3A3E0FCA3E0FD220D
:10455C00E0F8A3E0F922E0F5838882A3A3E0F8A3B6
:10456C00E0F9E8FEE9FFEE4F2290079DE0F8A3E0AA
:10457C00F9E8492274F412178874F2121731EAFE22
:10458C008C0B75F006E9A42420F508851882851992
:10459C0083AC82AD837A0E1249D8704A7C061246DF
:1045AC00FD7043740C12177C12455CE8F509E50BA1
:1045BC006005EE42098004EEF45209850982AA8254
:1045CC00E86A7001E9601B740C12177CEAF0A3E432
:1045DC00F0851882851983AC82AD837A0EA90812F6
:1045EC001350790180027900023E2374F21217886D
:1045FC0074E6121731890A8A088B09ECFEEDFF74F8
:10460C000C12177C1249CB60030246B17C0679FF71
:10461C00740C12177C12470560030246B1747025A6
:10462C000AF50B851882851983AC82AD837A0C123E
:10463C0049D860030246F6851882851983AA82AB95
:10464C0083121188E508450970217C0C790012460B
:10465C00FF60030246F67C0C7D007900851882858C
:10466C001983AA82AB8312102C806185188285195C
:10467C0083AC82AD83AA08AB091211828A0C8B0D14
:10468C00A80CA90DE849702CEE4F6019851882858D
:10469C001983AC82AD837A007B00121182EAF8EBAD
:1046AC00F9EA4B70047900804388828983E508F02D
:1046BC00A3E509F012477DFAEE6A7001EF602BEE6C
:1046CC00F04F700888828983E4F0A3F08518828506
:1046DC001983AA82AB83121188851882851983AC41
:1046EC0082AD837A0CA90B1213507901741A024F04
:1046FC004479FF851882851983AA82AB83121092A4
:10470C00E92274F71217887F00EF75F003A4F8A95B
:10471C00F0EC28F8ED124741E06A7003A3E06B70EF
:10472C0006E8FAE9FB800B0FEFC3940440DB7A0038
:10473C007B00024A7639F9888289832274F7121732
:10474C00887E00EE75F003A4F8A9F0EA28F8EB12C5
:10475C004741E0F4FCA3E0F4FD88828983ECF0A3EC
:10476C00EDF012477DF4F00EEEC3940440D5024AEE
:10477C0076E82402F582E93400F583E02274EE1227
:10478C00178874F4121731EAFEEBFF8C0A8D0B7448
:10479C001E12177CE0F50CA3E0F50D742012177CAB
:1047AC00E0F508A3E0F509742212177CE0F510A3DC
:1047BC00E0F511EE4F7005790A0248AE12119AE934
:1047CC00F50EC3940A4023750F007C0679FFE50FA4
:1047DC0075F00EA4FAABF0749F2AFA74073BFB1227
:1047EC00470970030248B8850F0EE50EC3940A40C2
:1047FC00030248AC75F006E50EA4F50FEEFCEFFDD8
:10480C007A0E74201248C9E50A450B600BAC0AAD50
:10481C000B7A1B74211248C9E50C450D600BAC0CCE
:10482C00AD0D7A1B74221248C9E5084509600BAC22
:10483C0008AD097A1074231248C9E5104511601BA4
:10484C00AC10AD117A1074241248C9742412177C60
:10485C00AC82AD837A0474251248C97C0C7D007936
:10486C00FF124FD57A0C7470250EF912135075087F
:10487C000E750900780812199BEEFCEFFDE50E751C
:10488C00F00EA4F8A9F0749F28FA740739FB1249AA
:10489C002012174790082BE060031211E21211D07E
:1048AC00A90E740C1217477F0A02185A050FE50F50
:1048BC00C3940A50030247D6750E0A80E3250FF9FC
:1048CC001213502274F412178874F2121731EAFE84
:1048DC00EBFFE9C3940A5004EE4F70047902802D6B
:1048EC008518828519831249CBF508701E750A0646
:1048FC00750B00780A12199B740212177CAC82ADEE
:10490C0083EEFAEFFB124920121747A908023E2347
:10491C00AA08AB0912101474022274F4121788EA54
:10492C00FEEBFF750800750A06750B00780A121964
:10493C009BEEFCEFFDE50875F00EA4F8A9F0749F52
:10494C0028FA740739FB1210267402121747E96013
:10495C0004A908800B0508E508C3940A40C8790A25
:10496C00023E2874F712178874F0121731EAFEEB26
:10497C00FF750800851882851983AC82AD837A1087
:10498C0075F006E508A424231249D8701F7C101278
:10499C0046FD7018EEFCEFFD851882851983AA82FE
:1049AC00AB8312058EE97004A908800B0508E50895
:1049BC00C3940A40BF790A7410121747024A76ACA6
:1049CC0082AD837A0E75F006E9A42420F9121356F1
:1049DC00E92274F7121788750800E50875F00EA423
:1049EC00F8A9F0749F28FE740739FFEEFCEFFD7AEE
:1049FC000E75F006E5081249D5602C7C067D007911
:104A0C00FFEEFAEFFB12102C7C067D0079FFEE24F2
:104A1C0006FAEF3400FB12102CEE240CF582EF3466
:104A2C0000F583E4F0A3F00508E508C3940A40AA56
:104A3C0090082BE060031211E21211D0802C74F755
:104A4C001217887E007F007C0679FFEF75F00EA4AC
:104A5C00FAABF0749F2AFA74073BFB1247097001FA
:104A6C000E0FEFC3940A40DFEEF97F0102185A745F
:104A7C00F71217887E00EEF91211B80EEEC3940AE5
:104A8C005003E960F180E374F312178874CB1217AA
:104A9C0031E9FF75F006A4F50874202508FE74278B
:104AAC0012177CAC82AD837A0EEE1249D8600302E9
:104ABC004B957C0679FF742712177C12470560030F
:104ACC00024B957C0E7D0079FF742712177CAA820D
:104ADC00AB8312102C7C1B7D0079FF740C12177C9D
:104AEC00AA82AB8312102C7C0C7D0079FF85188276
:104AFC00851983AA82AB8312102C742712177CACF5
:104B0C0082AD837A0EEEF9121350E9F509740C128A
:104B1C00177CAC82AD837A1B7421124BA4FE740CEF
:104B2C0012177CAC82AD837A1B7422124BA4F50A4B
:104B3C00740C12177CAC82AD837A107423124BA4C4
:104B4C00F50B740C12177CAC82AD837A10742412A2
:104B5C004BA4F50C740C12177CAC82AD837A0474E4
:104B6C0025124BA4F508851882851983AC82AD8378
:104B7C007A0C74702FF9121350E9F8EE450A450BB4
:104B8C00450C45084842098003750900A90974358C
:104B9C001217477F0502185A2508F9121350E922FB
:104BAC0074F7121788E9900783F01211A6024A765F
:104BBC0074F212178874FB1217318A088B09EB54A4
:104BCC00807003024C60900783E0F91210568A0A39
:104BDC008B0BA80AA90BE8FEE9FFE849606CEE24F0
:104BEC0004F8EF3400F98E828F83E024506038147F
:104BFC00600624E1604A804B88828983E070448E91
:104C0C00828F83A3A3A3A3A3A3A31219B28E828F13
:104C1C00831245518E828F83A3A3124D6C121164A3
:104C2C007402121747801C88828983E0641E7013FB
:104C3C0079008E828F83A3A3124D6C12115E8003B8
:104C4C00121170EEFAEFFB121044AA08E509648009
:104C5C00FB024D61EAA2E04003024D5D90082D126B
:104C6C004549740312177C85820C85830D780C12D0
:104C7C00199B750C02750D00780C12199B750C970D
:104C8C00750D90780C12199B7CFF7DFF7A017B00CF
:104C9C001206DE7406121747024D45E4F50CF50DAD
:104CAC00780C12199B740412177C85820C85830D69
:104CBC00780C12199B740412177C85820C85830D59
:104CCC00780C12199B740912177C1219B27902EE26
:104CDC00FCEFFDAA0AAB0B1207FE7408121747E98A
:104CEC007035851882851983E0FA740112177CE0FF
:104CFC00F9EA2400F50CE439F50DEA450D60187855
:104D0C000C12199B8E828F83124552AA0AAB0B127E
:104D1C0011647402121747E4F50CF50D780C121996
:104D2C009B740512177C1219B27CFF7DFFEEFAEF13
:104D3C00FB1206EA74041217478A0C8B0DAE0CAFEB
:104D4C000DEE4F6003024CA7E5086401FAAB098035
:104D5C00047A007B007405024F4485088285098320
:104D6C00E0FAA3E0FB22C082C083900783E0F98ABB
:104D7C00828B83A3124D6C12081002419EC082C01C
:104D8C008374FF1217311211ACE9C3940285188297
:104D9C00851983400474028002740AF0AC82AD83DE
:104DAC007A01790512069C740112174702419E7410
:104DBC00F212178874E8121731EAFEEBFF890A8C9D
:104DCC00088D097C187D007900124FDDEEF0A3EF01
:104DDC00F0900785E0C0E0740212177CD0E0F090F0
:104DEC000786E0C0E0740312177CD0E0F0900C6CE6
:104DFC00E0C0E0741712177CD0E0F0741512177C29
:104E0C00E054FEF8A3E0F9900C6BE0A2E0E433FA76
:104E1C00E84AF8741512177C124F53A2E15004D2D1
:104E2C00F08002C2F0E854FDFAA2F0E43333F8EA61
:104E3C0048F8741512177C124F53A2E35004D2F0A9
:104E4C008002C2F0E854F7FAA2F0E433F50C750DC9
:104E5C00007403780C12171E124F4C12177C124F51
:104E6C0053A2E45004D2F08002C2F0E854EFFAA24C
:104E7C00F0E433F50C7404780C12171E124F4C121C
:104E8C00177C124F53A2E55004D2F08002C2F0E816
:104E9C0054DFFAA2F0E433F50C7405780C12171EEB
:104EAC00124F4C12177C124F53A2E25004D2F080D6
:104EBC0002C2F0E854FBFAA2F0E433F50C74027869
:104ECC000C12171E124F4C12177CE8F0A3E9F0904D
:104EDC000786E0601B750C10780C12199B7C877D83
:104EEC0007740612177CAA82AB831249201217474B
:104EFC00900797E06011E50A6009741512177CE0C1
:104F0C004402F0780180027800741412177CE04897
:104F1C00F0900784E0600478048002780074141226
:104F2C00177CE048F0AC08AD09851882851983AA76
:104F3C0082AB831205B274181217477F0602185AF7
:104F4C00EA450CF8741522E8F0A3E9F0900C6BE03C
:104F5C002274F312178874E5121731EAFEEBFF8CFA
:104F6C00098D0A742812177CE0F50C75F006E9A47B
:104F7C00F87408650A700474228002742128F50BF9
:104F8C007C1B7D007900124FD57A1BA90B1249D9D5
:104F9C007032741A12177CE024F9C3940A5025E578
:104FAC000CF50B780B12199F740112177CAC82ADA7
:104FBC0083E509A2E0E433F9EEFAEFFB1205C474C1
:104FCC0001121747741B024B9C124FDDAC82AD8350
:104FDC0022851882851983AA82AB8312102C85181E
:104FEC00828519832274F7121788120882750800BB
:104FFC00E50875F00EA4F8A9F0749F28FE74073923
:10500C00FF7C0679FFEEFAEFFB1247097009EEFA06
:10501C00EFFB79001208880508E508C3940A40D014
:10502C00024A76C082C0839061907404F0A37448E5
:10503C00F0A3E4F09061807440F09061BC7407F0D0
:10504C009061877469F09061B67416F07900120B58
:10505C00047902120B0A90226CE493F46006E49338
:10506C00F9120AE07905120DF8025471C082C0835E
:10507C00E9540FF9906185E0696012E5C6548044EB
:10508C0049F5C6E59E547F644970F8E9F053C68033
:10509C00E59E547F70FA02547174F7121788E5A8D4
:1050AC00FE53A87E120AECC2BA539AFEC289759BB3
:1050BC0000C2C2120AF275A91175B905120AF8D20A
:1050CC00BA439A0174805E42A80259FEC082C08322
:1050DC00906181E4F0A302546E75E900759100753E
:1050EC00BF00020122C082C083906181E4F0A374EE
:1050FC00C0F0A3E4025470C082C08374F81217315C
:10510C009003C41258E0E84970030251BA9003C4EA
:10511C00E0544060237908851882851983AA82ABF4
:10512C0083120BFA851882851983AA82AB83120825
:10513C00A69003C4E054BFF0E054806010790C7A60
:10514C00807B05120BFA9003C4E0547FF0E0A2E0E0
:10515C00500879001251C254FEF0E05402600879F4
:10516C00011251C254FDF0E0540460087900125150
:10517C00CD54FBF0E05408600879011251CD54F77E
:10518C00F0E05410600879021251CD54EFF0E05465
:10519C0020600879031251CD54DFF0A3E054016074
:1051AC000D120B161208B89003C5E054FEF07408EB
:1051BC00121747025471120B041208AC9003C4E08E
:1051CC0022120B0A1208B29003C4E022C082C083E0
:1051DC00E9600514602A804F90619A7433F0A374CF
:1051EC0055F09061A0743AF090055CE06401700990
:1051FC00C2919003C67467802D9003C6746180269B
:10520C0090619A743FF0A3745AF09061A0747FF08F
:10521C0090055CE064017009D2919003C6747180B2
:10522C00059003C6746AF0025471C082C083E960B1
:10523C000B14600D14600F1460118020902270808C
:10524C00159022718010902272800B90055CE064A6
:10525C000160F3902273E493906186F002547174B0
:10526C00EE12178874F4121731851882851983ACE5
:10527C0082AD8375839075827774041216449022E4
:10528C007093F460030253FD907808E0C3940250CD
:10529C00030253DD740412177CAC82AD8375838FCB
:1052AC007582C47408121644F97AFF7BFF7FFF7E67
:1052BC00008982858210801874086E7003025392E4
:1052CC0074096E7003025392740A6E700302539247
:1052DC00E510C333FCE433FD740412177CE5822C17
:1052EC00F582E5833DF583E0F50EA3E0F50F8E081E
:1052FC007509007402780812171E74482508FC748E
:10530C00783509FD8C828D83780812160174087823
:10531C000812154285080C85090D8C828D8378083E
:10532C0012160174187808121542E50C4508F50898
:10533C00E50DF509C3E50E9508E50F95098C828DF1
:10534C008378081216018C828D83780812160174EA
:10535C001878084014121542E50C4508FCAD0DE513
:10536C000EC39CFCE50F9D800F121542E50C450801
:10537C00C3950EFCE50D950FFDC3EC9AED9B500605
:10538C00ECFAEDFBEEFF0EEEC3941350030252C485
:10539C0074FF6A700374FF6B602D8F0874027808B9
:1053AC0012171E744812608C74783509F5837808CE
:1053BC00121601851882851983E5822510F582E580
:1053CC0083125E19E508F009E9C3940450030252F4
:1053DC00B5750801750900780812199B740212172B
:1053EC007CAC82AD837A9C7B081212247402121757
:1053FC0047740C1217477F0A02185AC082C0839058
:10540C006186E0F8902273E493687009902272E44C
:10541C0093906186F09061AE7468F0A3746AF0901A
:10542C00624574FBF0A304F053F4FD43FE029005B7
:10543C005C7401F09061A0E0643A70047900800221
:10544C007901120B04025471C082C08390050EE0E6
:10545C006401700A900513E06004790C80027900F5
:10546C008003F0A3F0D083D082020122C082C083DB
:10547C0075E1F1900511E0604D1460081460511451
:10548C0060498051120B28900507E0F97A087B05DA
:10549C00120D7A90907312161F120DB09090371255
:1054AC00161F120D86900512E0F9120D9279011259
:1054BC000DEC900505E024161256067440F0A3740A
:1054CC000BF07900809F120B2E80BC120B3480B72E
:1054DC00120B3A80B2791280EB74F412178875D9DA
:1054EC000D9004F6E0A2E0E4331313F81255724861
:1054FC004401F5D978001255F040FB780088087407
:10550C00F712608C74041255FA40F275E195900410
:10551C00F6E0F97AF77B04120D80900B9D74B6F0CF
:10552C00A3740A12561512563512562C12576D12B8
:10553C00557C780812160190906F780812158D9092
:10554C00903F78081215DB1256007808121610904E
:10555C000505E024141256067413F09003C274026D
:10556C00F07F0402185A900507E0C4333354C0226C
:10557C00900505E0F8A3E0F5838882A3A32274F6D6
:10558C0012178812573E8AD978001255F040FB78D2
:10559C000080061256A41257F0E8C39940F5125732
:1055AC00301255F040FB78008008126088740512A8
:1055BC0057F0E8C39940F375E195900B9D74C2F0D8
:1055CC00A3740A12561512561F12161F12560012E9
:1055DC00162B900505E024141256067412F0900355
:1055EC00C20259DB880874082508F5827405125923
:1055FC004C940622900505E0240EF8A3E012560DFB
:10560C00223400F9888289832212575674BCF0A385
:10561C00740A2212563512562C12577190907F2212
:10562C00F0A374D4F0A3740A221256392212563DF8
:10563C0022F0A37466F0A3740C2274F6121788126D
:10564C0056991255724402F5D978001255F040FB68
:10565C00780080061256A41257F0E8C39940F575ED
:10566C00E195900B9D1256AFF0A31256AF12562235
:10567C0012161F12560012162B900505E024141258
:10568C0056067414F09003C274040259DD90051789
:10569C00E0F9740729F5D922880874182508F582D1
:1056AC0074052274CE1256BC1256BCF0A3740A2296
:1056BC00F0A3740AF0A374CE2274F6121788125752
:1056CC003E74064AF5D978001255F040FB780080FC
:1056DC00061256A41257F0E8C39940F5125730122F
:1056EC0055F040FB7800800812608874051257F062
:1056FC00E8C39940F375E195900B9D74C8F0A374C1
:10570C000A12574C12561F12161F12560012162B45
:10571C00900505E024141256067415F09003C2741B
:10572C00030259DD90053712569C74044AF5D9785A
:10573C000022125699900507E0C4333354C0FA2264
:10574C001257567466F0A3740C2212575A22125731
:10575C00677466F0A3740C1257672212563DF0A3BF
:10576C002212577122F0900BAB7466F0A3740C12DA
:10577C00575A7466F0A3740C125639F022C082C0CA
:10578C008312557CA3A3A3A3E402546E74F71217DF
:10579C00881262CEF8740339F9E82405FAE934006A
:1057AC00FB8A828B8312603D88828983A3A3A3A387
:1057BC00A3A3A3A3A3ECF0A3EDF088828983A3A3F6
:1057CC00A3A3A3A3A3E024FFF8A3E034FFF98A82E8
:1057DC008B83E8F0A3E9F00259FE88087460250871
:1057EC00F5827405125F64F5D90822EAFEEBFF908E
:1057FC0061D0E0F87480C398FAEE24832212580F1B
:10580C00940422125E27E0F5D90AEAC32274F61238
:10581C001788EAFEEBFF9061D0E0707575D90E75B4
:10582C00D90375D9047A008A08EE250812639C24E2
:10583C008C1258B240F17A008A08EE250812639C4B
:10584C00248412580940F175E1957908EE248C12E4
:10585C0058AB24841258A27C008C82AA82C3E49A8E
:10586C00F895E0F9EE28F8EF39F9E8248BF582E9A0
:10587C00125F60C0E0EE2A12639C24ABF582E91241
:10588C005E19D0E0F00CECC3940840CD125968803E
:10589C000279000259DEFAEF3400FB120BEE2212F1
:1058AC0058A27904EE2212580F940822C082C083A9
:1058BC0075D90275D90375D90575E195EA2470F58A
:1058CC0082EB1258DDEA2472F582EB12597A0254FB
:1058DC0071125E2A1258E422E0F8A3E0F92274F661
:1058EC00121788EAFEEBFF900560740612595612E7
:1058FC00199B7C017903125C8212174775D90675C6
:10590C00D903780012593C40FB75E1959003C2E035
:10591C0064087017EE2470F582EF1258DDEE2472D5
:10592C00F582EF125E19E8F0A3E9F079010259DE75
:10593C00880874602508F582740512594C94052268
:10594C00125E2AE0F5D908E8C322F07508607509E3
:10595C000578082275E1957904120DB6EE2470F5E0
:10596C0082EF125E2A1258E4EE2472F582EF125E78
:10597C002AE8F0A3E9F079012274F6121788EAFEFE
:10598C00EBFF9061D0E070437901900560740BF0EF
:10599C009003C2E0640770177508607509057808F4
:1059AC0012199B7C010909125C8212174779057444
:1059BC000129F5D975D903780080031257E6E8C39D
:1059CC009940F875E195125968800279008003744A
:1059DC0001F07F0202185A74F7121788EAFEEBFFE7
:1059EC0075D90375D90375D90DEE24DE125A03123D
:1059FC0059607F0102185AF582EF125F64F5D922C3
:105A0C007F0302185A7401250AF5D975D903780059
:105A1C002274F5121788125A926004780480027866
:105A2C0000E8240BF8EAC3984041750A0990056018
:105A3C007409F07908125A7B6014750860750905B1
:105A4C00780812199B125C7A121747750A0D125AB4
:105A5C001180031257E6E8C3950A40F775E1957972
:105A6C0004120DB6125BF77901800279008091EE79
:105A7C0024E3FCEF3400FD7A617B05120BE885080A
:105A8C0082850983E0221257F7F8EF126031F58313
:105A9C00E02274F31217888A088B09125C8DFAE5E0
:105AAC00082483F50AEB125B5C60047804800278AE
:105ABC0000E82408F8EAC3985003025B55750C06FD
:105ACC00900560740CF09003DFE0900561F07402B7
:105ADC00C0E0F97CE07D037A627B05120BE8D0E034
:105AEC00F97CE27D03120BE8850A82850B83E0606A
:105AFC001C750A60750B05780A12199B7C067903D4
:105B0C00AA08AB09125C82121747750C0A7401259E
:105B1C000CF5D975D90378008009880A7460250AB8
